{
  "contractName": "PricingChain",
  "abi": [
    {
      "inputs": [],
      "stateMutability": "nonpayable",
      "type": "constructor"
    },
    {
      "anonymous": false,
      "inputs": [
        {
          "indexed": true,
          "internalType": "address",
          "name": "previousOwner",
          "type": "address"
        },
        {
          "indexed": true,
          "internalType": "address",
          "name": "newOwner",
          "type": "address"
        }
      ],
      "name": "OwnershipTransferred",
      "type": "event"
    },
    {
      "anonymous": false,
      "inputs": [
        {
          "indexed": false,
          "internalType": "uint256",
          "name": "id",
          "type": "uint256"
        },
        {
          "indexed": false,
          "internalType": "enum PricingChain.State",
          "name": "",
          "type": "uint8"
        },
        {
          "components": [
            {
              "internalType": "uint256",
              "name": "id",
              "type": "uint256"
            },
            {
              "internalType": "string",
              "name": "ipfsID",
              "type": "string"
            },
            {
              "internalType": "string",
              "name": "name",
              "type": "string"
            },
            {
              "internalType": "uint256",
              "name": "price",
              "type": "uint256"
            }
          ],
          "indexed": false,
          "internalType": "struct PricingChain.Product",
          "name": "p",
          "type": "tuple"
        }
      ],
      "name": "onClosedSession",
      "type": "event"
    },
    {
      "anonymous": false,
      "inputs": [
        {
          "components": [
            {
              "internalType": "uint256",
              "name": "id",
              "type": "uint256"
            },
            {
              "internalType": "string",
              "name": "ipfsID",
              "type": "string"
            },
            {
              "internalType": "string",
              "name": "name",
              "type": "string"
            },
            {
              "internalType": "uint256",
              "name": "price",
              "type": "uint256"
            }
          ],
          "indexed": false,
          "internalType": "struct PricingChain.Product",
          "name": "p",
          "type": "tuple"
        },
        {
          "indexed": false,
          "internalType": "uint256",
          "name": "sessionID",
          "type": "uint256"
        }
      ],
      "name": "onCreatedSession",
      "type": "event"
    },
    {
      "anonymous": false,
      "inputs": [
        {
          "indexed": false,
          "internalType": "address",
          "name": "participant",
          "type": "address"
        },
        {
          "indexed": false,
          "internalType": "uint256",
          "name": "price",
          "type": "uint256"
        },
        {
          "indexed": false,
          "internalType": "uint256",
          "name": "sessionID",
          "type": "uint256"
        },
        {
          "indexed": false,
          "internalType": "uint256",
          "name": "numbersOfSessionJoined",
          "type": "uint256"
        },
        {
          "indexed": false,
          "internalType": "uint256",
          "name": "accumulatedDeviation",
          "type": "uint256"
        }
      ],
      "name": "onGuessPrice",
      "type": "event"
    },
    {
      "anonymous": false,
      "inputs": [
        {
          "indexed": false,
          "internalType": "uint256",
          "name": "productID",
          "type": "uint256"
        },
        {
          "indexed": false,
          "internalType": "string",
          "name": "ipfsID",
          "type": "string"
        },
        {
          "indexed": false,
          "internalType": "string",
          "name": "name",
          "type": "string"
        },
        {
          "indexed": false,
          "internalType": "uint256",
          "name": "price",
          "type": "uint256"
        }
      ],
      "name": "onProductAdded",
      "type": "event"
    },
    {
      "anonymous": false,
      "inputs": [
        {
          "indexed": false,
          "internalType": "string",
          "name": "name",
          "type": "string"
        },
        {
          "indexed": false,
          "internalType": "string",
          "name": "email",
          "type": "string"
        },
        {
          "indexed": false,
          "internalType": "address",
          "name": "addr",
          "type": "address"
        }
      ],
      "name": "onRegisted",
      "type": "event"
    },
    {
      "anonymous": false,
      "inputs": [
        {
          "indexed": false,
          "internalType": "uint256",
          "name": "productID",
          "type": "uint256"
        },
        {
          "indexed": false,
          "internalType": "uint256",
          "name": "price",
          "type": "uint256"
        },
        {
          "indexed": false,
          "internalType": "uint256",
          "name": "sessionID",
          "type": "uint256"
        },
        {
          "indexed": false,
          "internalType": "int256",
          "name": "proposedPrice",
          "type": "int256"
        },
        {
          "indexed": false,
          "internalType": "uint256[]",
          "name": "deviationOfParticipants",
          "type": "uint256[]"
        }
      ],
      "name": "onSetPrice",
      "type": "event"
    },
    {
      "anonymous": false,
      "inputs": [
        {
          "indexed": false,
          "internalType": "uint256",
          "name": "id",
          "type": "uint256"
        },
        {
          "indexed": false,
          "internalType": "enum PricingChain.State",
          "name": "",
          "type": "uint8"
        },
        {
          "components": [
            {
              "internalType": "uint256",
              "name": "id",
              "type": "uint256"
            },
            {
              "internalType": "string",
              "name": "ipfsID",
              "type": "string"
            },
            {
              "internalType": "string",
              "name": "name",
              "type": "string"
            },
            {
              "internalType": "uint256",
              "name": "price",
              "type": "uint256"
            }
          ],
          "indexed": false,
          "internalType": "struct PricingChain.Product",
          "name": "p",
          "type": "tuple"
        }
      ],
      "name": "onStartedSession",
      "type": "event"
    },
    {
      "inputs": [
        {
          "internalType": "uint256",
          "name": "",
          "type": "uint256"
        }
      ],
      "name": "_users",
      "outputs": [
        {
          "internalType": "string",
          "name": "name",
          "type": "string"
        },
        {
          "internalType": "string",
          "name": "email",
          "type": "string"
        },
        {
          "internalType": "address",
          "name": "walletAddress",
          "type": "address"
        },
        {
          "internalType": "uint256",
          "name": "accumulatedDeviation",
          "type": "uint256"
        },
        {
          "internalType": "uint256",
          "name": "numbersOfSessionJoined",
          "type": "uint256"
        }
      ],
      "stateMutability": "view",
      "type": "function",
      "constant": true
    },
    {
      "inputs": [],
      "name": "owner",
      "outputs": [
        {
          "internalType": "address",
          "name": "",
          "type": "address"
        }
      ],
      "stateMutability": "view",
      "type": "function",
      "constant": true
    },
    {
      "inputs": [],
      "name": "renounceOwnership",
      "outputs": [],
      "stateMutability": "nonpayable",
      "type": "function"
    },
    {
      "inputs": [
        {
          "internalType": "address",
          "name": "newOwner",
          "type": "address"
        }
      ],
      "name": "transferOwnership",
      "outputs": [],
      "stateMutability": "nonpayable",
      "type": "function"
    },
    {
      "inputs": [
        {
          "internalType": "string",
          "name": "name",
          "type": "string"
        },
        {
          "internalType": "string",
          "name": "email",
          "type": "string"
        }
      ],
      "name": "register",
      "outputs": [
        {
          "internalType": "bool",
          "name": "_exist",
          "type": "bool"
        }
      ],
      "stateMutability": "nonpayable",
      "type": "function"
    },
    {
      "inputs": [
        {
          "internalType": "address",
          "name": "addr",
          "type": "address"
        }
      ],
      "name": "getUser",
      "outputs": [
        {
          "internalType": "string",
          "name": "_name",
          "type": "string"
        },
        {
          "internalType": "string",
          "name": "_email",
          "type": "string"
        },
        {
          "internalType": "address",
          "name": "_walletAddress",
          "type": "address"
        },
        {
          "internalType": "uint256",
          "name": "_accumulatedDeviation",
          "type": "uint256"
        },
        {
          "internalType": "uint256",
          "name": "_numbersOfSessionJoined",
          "type": "uint256"
        }
      ],
      "stateMutability": "view",
      "type": "function",
      "constant": true
    },
    {
      "inputs": [],
      "name": "getUsers",
      "outputs": [
        {
          "internalType": "string[]",
          "name": "_names",
          "type": "string[]"
        },
        {
          "internalType": "string[]",
          "name": "_emails",
          "type": "string[]"
        },
        {
          "internalType": "address[]",
          "name": "_walletAddresses",
          "type": "address[]"
        },
        {
          "internalType": "uint256[]",
          "name": "_accumulatedDeviations",
          "type": "uint256[]"
        },
        {
          "internalType": "uint256[]",
          "name": "_numbersOfSessionJoineds",
          "type": "uint256[]"
        }
      ],
      "stateMutability": "view",
      "type": "function",
      "constant": true
    },
    {
      "inputs": [
        {
          "internalType": "address",
          "name": "user",
          "type": "address"
        },
        {
          "internalType": "uint256",
          "name": "accumulatedDeviation",
          "type": "uint256"
        }
      ],
      "name": "setUserAccumulatedDeviation",
      "outputs": [
        {
          "internalType": "bool",
          "name": "status",
          "type": "bool"
        }
      ],
      "stateMutability": "nonpayable",
      "type": "function"
    },
    {
      "inputs": [
        {
          "internalType": "string",
          "name": "ipfsID",
          "type": "string"
        },
        {
          "internalType": "string",
          "name": "name",
          "type": "string"
        }
      ],
      "name": "addProduct",
      "outputs": [
        {
          "internalType": "uint256",
          "name": "id",
          "type": "uint256"
        }
      ],
      "stateMutability": "nonpayable",
      "type": "function"
    },
    {
      "inputs": [
        {
          "internalType": "uint256",
          "name": "ID",
          "type": "uint256"
        }
      ],
      "name": "getProductByID",
      "outputs": [
        {
          "internalType": "uint256",
          "name": "id",
          "type": "uint256"
        },
        {
          "internalType": "string",
          "name": "ipfsID",
          "type": "string"
        },
        {
          "internalType": "uint256",
          "name": "price",
          "type": "uint256"
        }
      ],
      "stateMutability": "view",
      "type": "function",
      "constant": true
    },
    {
      "inputs": [
        {
          "internalType": "string",
          "name": "_ipfsID",
          "type": "string"
        }
      ],
      "name": "getProduct",
      "outputs": [
        {
          "internalType": "uint256",
          "name": "id",
          "type": "uint256"
        },
        {
          "internalType": "string",
          "name": "ipfsID",
          "type": "string"
        },
        {
          "internalType": "string",
          "name": "name",
          "type": "string"
        },
        {
          "internalType": "uint256",
          "name": "price",
          "type": "uint256"
        }
      ],
      "stateMutability": "view",
      "type": "function",
      "constant": true
    },
    {
      "inputs": [],
      "name": "getProducts",
      "outputs": [
        {
          "internalType": "string[]",
          "name": "ipfsIDs",
          "type": "string[]"
        },
        {
          "internalType": "string[]",
          "name": "names",
          "type": "string[]"
        },
        {
          "internalType": "uint256[]",
          "name": "prices",
          "type": "uint256[]"
        }
      ],
      "stateMutability": "view",
      "type": "function",
      "constant": true
    },
    {
      "inputs": [
        {
          "internalType": "uint256",
          "name": "productID",
          "type": "uint256"
        }
      ],
      "name": "createSession",
      "outputs": [
        {
          "internalType": "uint256",
          "name": "id",
          "type": "uint256"
        }
      ],
      "stateMutability": "nonpayable",
      "type": "function"
    },
    {
      "inputs": [
        {
          "internalType": "uint256",
          "name": "ID",
          "type": "uint256"
        },
        {
          "internalType": "uint256",
          "name": "timeout",
          "type": "uint256"
        }
      ],
      "name": "startSession",
      "outputs": [],
      "stateMutability": "nonpayable",
      "type": "function"
    },
    {
      "inputs": [
        {
          "internalType": "uint256",
          "name": "ID",
          "type": "uint256"
        }
      ],
      "name": "closeSession",
      "outputs": [],
      "stateMutability": "nonpayable",
      "type": "function"
    },
    {
      "inputs": [],
      "name": "getSessions",
      "outputs": [
        {
          "internalType": "uint256[]",
          "name": "sessionIDs",
          "type": "uint256[]"
        },
        {
          "internalType": "uint256[]",
          "name": "productIDs",
          "type": "uint256[]"
        },
        {
          "internalType": "string[]",
          "name": "ipfsIDs",
          "type": "string[]"
        },
        {
          "internalType": "string[]",
          "name": "names",
          "type": "string[]"
        },
        {
          "internalType": "uint256[]",
          "name": "prices",
          "type": "uint256[]"
        },
        {
          "internalType": "enum PricingChain.State[]",
          "name": "states",
          "type": "uint8[]"
        },
        {
          "internalType": "uint256[]",
          "name": "timeStarteds",
          "type": "uint256[]"
        },
        {
          "internalType": "uint256[]",
          "name": "timeouts",
          "type": "uint256[]"
        }
      ],
      "stateMutability": "view",
      "type": "function",
      "constant": true
    },
    {
      "inputs": [
        {
          "internalType": "uint256",
          "name": "id",
          "type": "uint256"
        }
      ],
      "name": "getSession",
      "outputs": [
        {
          "internalType": "uint256",
          "name": "sessionID",
          "type": "uint256"
        },
        {
          "internalType": "uint256",
          "name": "productID",
          "type": "uint256"
        },
        {
          "internalType": "string",
          "name": "ipfsID",
          "type": "string"
        },
        {
          "internalType": "string",
          "name": "name",
          "type": "string"
        },
        {
          "internalType": "uint256",
          "name": "price",
          "type": "uint256"
        },
        {
          "internalType": "int256",
          "name": "proposedPrice",
          "type": "int256"
        },
        {
          "internalType": "enum PricingChain.State",
          "name": "state",
          "type": "uint8"
        },
        {
          "internalType": "address[]",
          "name": "participants",
          "type": "address[]"
        },
        {
          "internalType": "uint256[]",
          "name": "participant_pricings",
          "type": "uint256[]"
        },
        {
          "internalType": "uint256",
          "name": "timeStarted",
          "type": "uint256"
        },
        {
          "internalType": "uint256",
          "name": "timeout",
          "type": "uint256"
        }
      ],
      "stateMutability": "view",
      "type": "function",
      "constant": true
    },
    {
      "inputs": [
        {
          "internalType": "uint256",
          "name": "sessionID",
          "type": "uint256"
        },
        {
          "internalType": "uint256",
          "name": "price",
          "type": "uint256"
        }
      ],
      "name": "setPrice",
      "outputs": [],
      "stateMutability": "nonpayable",
      "type": "function"
    },
    {
      "inputs": [
        {
          "internalType": "uint256",
          "name": "sessionID",
          "type": "uint256"
        },
        {
          "internalType": "uint256",
          "name": "price",
          "type": "uint256"
        }
      ],
      "name": "guessPrice",
      "outputs": [],
      "stateMutability": "nonpayable",
      "type": "function"
    },
    {
      "inputs": [
        {
          "internalType": "address",
          "name": "addr",
          "type": "address"
        }
      ],
      "name": "countSessionJoined",
      "outputs": [
        {
          "internalType": "uint256",
          "name": "",
          "type": "uint256"
        }
      ],
      "stateMutability": "view",
      "type": "function",
      "constant": true
    },
    {
      "inputs": [
        {
          "internalType": "uint256",
          "name": "finalPice",
          "type": "uint256"
        },
        {
          "internalType": "uint256",
          "name": "pricing",
          "type": "uint256"
        }
      ],
      "name": "calc_d_new",
      "outputs": [
        {
          "internalType": "uint256",
          "name": "",
          "type": "uint256"
        }
      ],
      "stateMutability": "pure",
      "type": "function",
      "constant": true
    },
    {
      "inputs": [
        {
          "internalType": "uint256",
          "name": "d_current",
          "type": "uint256"
        },
        {
          "internalType": "uint256",
          "name": "d_new",
          "type": "uint256"
        },
        {
          "internalType": "uint256",
          "name": "n",
          "type": "uint256"
        }
      ],
      "name": "calc_accumulatedDeviation",
      "outputs": [
        {
          "internalType": "uint256",
          "name": "",
          "type": "uint256"
        }
      ],
      "stateMutability": "pure",
      "type": "function",
      "constant": true
    },
    {
      "inputs": [
        {
          "internalType": "uint256",
          "name": "sessionID",
          "type": "uint256"
        }
      ],
      "name": "calc_proposedPrice",
      "outputs": [
        {
          "internalType": "int256",
          "name": "_proposedPrice",
          "type": "int256"
        },
        {
          "internalType": "uint256[]",
          "name": "_deviationOfParticipants",
          "type": "uint256[]"
        }
      ],
      "stateMutability": "view",
      "type": "function",
      "constant": true
    }
  ],
  "bytecode": "0x6080604052600a600060146101000a81548160ff021916908360ff1602179055503480156200002d57600080fd5b506200004e620000426200005460201b60201c565b6200005c60201b60201c565b62000120565b600033905090565b60008060009054906101000a900473ffffffffffffffffffffffffffffffffffffffff169050816000806101000a81548173ffffffffffffffffffffffffffffffffffffffff021916908373ffffffffffffffffffffffffffffffffffffffff1602179055508173ffffffffffffffffffffffffffffffffffffffff168173ffffffffffffffffffffffffffffffffffffffff167f8be0079c531659141344cd1fd0a4f28419497f9722a3daafe3b4186f6b6457e060405160405180910390a35050565b6157f780620001306000396000f3fe608060405234801561001057600080fd5b506004361061014c5760003560e01c8063715018a6116100c3578063cc4a43c01161007c578063cc4a43c01461040b578063d29b8e211461043f578063d61a4bf814610470578063f2fde38b1461048c578063f7d97577146104a8578063f847cdde146104c45761014c565b8063715018a6146103475780638da5cb5b14610351578063a3bfdf471461036f578063c0835cbb1461038b578063c29b2f20146103bb578063ca2efb55146103db5761014c565b806339ffb5b21161011557806339ffb5b2146102215780633ffbd47f14610251578063402ff0db1461028157806361503e45146102bb57806368111cce146102e05780636f77926b146103135761014c565b8062ce8e3e146101515780630595a01f1461017357806315883b22146101a5578063323bef49146101c157806334195786146101f1575b600080fd5b6101596104f4565b60405161016a959493929190613ecc565b60405180910390f35b61018d60048036038101906101889190613f82565b610994565b60405161019c93929190614008565b60405180910390f35b6101bf60048036038101906101ba9190614046565b610a94565b005b6101db60048036038101906101d691906140b2565b61105d565b6040516101e891906140df565b60405180910390f35b61020b60048036038101906102069190614046565b61117b565b60405161021891906140df565b60405180910390f35b61023b600480360381019061023691906140fa565b6111d8565b60405161024891906140df565b60405180910390f35b61026b60048036038101906102669190614282565b611216565b6040516102789190614315565b60405180910390f35b61029b60048036038101906102969190613f82565b61142d565b6040516102b29b9a999897969594939291906143c0565b60405180910390f35b6102c3611848565b6040516102d7989796959493929190614545565b60405180910390f35b6102fa60048036038101906102f591906145fb565b611f14565b60405161030a9493929190614644565b60405180910390f35b61032d600480360381019061032891906140b2565b61215a565b60405161033e9594939291906146a6565b60405180910390f35b61034f6123f1565b005b610359612405565b6040516103669190614707565b60405180910390f35b61038960048036038101906103849190613f82565b61242e565b005b6103a560048036038101906103a09190614722565b612590565b6040516103b29190614315565b60405180910390f35b6103c36126b0565b6040516103d293929190614762565b60405180910390f35b6103f560048036038101906103f09190614282565b6129c7565b60405161040291906140df565b60405180910390f35b61042560048036038101906104209190613f82565b612b62565b6040516104369594939291906146a6565b60405180910390f35b61045960048036038101906104549190613f82565b612cd8565b6040516104679291906147ae565b60405180910390f35b61048a60048036038101906104859190614046565b612f61565b005b6104a660048036038101906104a191906140b2565b613118565b005b6104c260048036038101906104bd9190614046565b61319b565b005b6104de60048036038101906104d99190613f82565b6135c2565b6040516104eb91906140df565b60405180910390f35b6060806060806060600060038054905067ffffffffffffffff81111561051d5761051c614157565b5b60405190808252806020026020018201604052801561055057816020015b606081526020019060019003908161053b5790505b509050600060038054905067ffffffffffffffff81111561057457610573614157565b5b6040519080825280602002602001820160405280156105a757816020015b60608152602001906001900390816105925790505b509050600060038054905067ffffffffffffffff8111156105cb576105ca614157565b5b6040519080825280602002602001820160405280156105f95781602001602082028036833780820191505090505b509050600060038054905067ffffffffffffffff81111561061d5761061c614157565b5b60405190808252806020026020018201604052801561064b5781602001602082028036833780820191505090505b509050600060038054905067ffffffffffffffff81111561066f5761066e614157565b5b60405190808252806020026020018201604052801561069d5781602001602082028036833780820191505090505b50905060005b60038054905081101561097857600381815481106106c4576106c36147de565b5b906000526020600020906005020160000180546106e09061483c565b80601f016020809104026020016040519081016040528092919081815260200182805461070c9061483c565b80156107595780601f1061072e57610100808354040283529160200191610759565b820191906000526020600020905b81548152906001019060200180831161073c57829003601f168201915b5050505050868281518110610771576107706147de565b5b6020026020010181905250600381815481106107905761078f6147de565b5b906000526020600020906005020160010180546107ac9061483c565b80601f01602080910402602001604051908101604052809291908181526020018280546107d89061483c565b80156108255780601f106107fa57610100808354040283529160200191610825565b820191906000526020600020905b81548152906001019060200180831161080857829003601f168201915b505050505085828151811061083d5761083c6147de565b5b60200260200101819052506003818154811061085c5761085b6147de565b5b906000526020600020906005020160020160009054906101000a900473ffffffffffffffffffffffffffffffffffffffff168482815181106108a1576108a06147de565b5b602002602001019073ffffffffffffffffffffffffffffffffffffffff16908173ffffffffffffffffffffffffffffffffffffffff1681525050600381815481106108ef576108ee6147de565b5b906000526020600020906005020160030154838281518110610914576109136147de565b5b60200260200101818152505060038181548110610934576109336147de565b5b906000526020600020906005020160040154828281518110610959576109586147de565b5b60200260200101818152505080806109709061489c565b9150506106a3565b5084848484849950995099509950995050505050509091929394565b600060606000808410806109ad57506001805490508410155b156109c657600180805490506109c391906148e4565b93505b6000600185815481106109dc576109db6147de565b5b906000526020600020906004020190508060000154816001018260030154818054610a069061483c565b80601f0160208091040260200160405190810160405280929190818152602001828054610a329061483c565b8015610a7f5780601f10610a5457610100808354040283529160200191610a7f565b820191906000526020600020905b815481529060010190602001808311610a6257829003601f168201915b50505050509150935093509350509193909250565b8160008110158015610aaa575060028054905081105b610ae9576040517f08c379a0000000000000000000000000000000000000000000000000000000008152600401610ae090614964565b60405180910390fd5b82600060149054906101000a900460ff1660ff1660028281548110610b1157610b106147de565b5b90600052602060002090600a02016003018054905010610b42600060149054906101000a900460ff1660ff166138ab565b604051602001610b5291906149e6565b60405160208183030381529060405290610ba2576040517f08c379a0000000000000000000000000000000000000000000000000000000008152600401610b999190614a0c565b60405180910390fd5b5083600060028281548110610bba57610bb96147de565b5b90600052602060002090600a0201600701541115610d235760028181548110610be657610be56147de565b5b90600052602060002090600a02016007015460028281548110610c0c57610c0b6147de565b5b90600052602060002090600a02016006015442610c2991906148e4565b1080610c5a5750600060028281548110610c4657610c456147de565b5b90600052602060002090600a020160070154145b610c63426138ab565b610c9160028481548110610c7a57610c796147de565b5b90600052602060002090600a0201600601546138ab565b610cbf60028581548110610ca857610ca76147de565b5b90600052602060002090600a0201600701546138ab565b604051602001610cd193929190614a7a565b60405160208183030381529060405290610d21576040517f08c379a0000000000000000000000000000000000000000000000000000000008152600401610d189190614a0c565b60405180910390fd5b505b6000339050600060028781548110610d3e57610d3d6147de565b5b90600052602060002090600a02019050600180811115610d6157610d60614349565b5b8160020160009054906101000a900460ff166001811115610d8557610d84614349565b5b14610dc5576040517f08c379a0000000000000000000000000000000000000000000000000000000008152600401610dbc90614b33565b60405180910390fd5b858160040160008473ffffffffffffffffffffffffffffffffffffffff1673ffffffffffffffffffffffffffffffffffffffff168152602001908152602001600020819055506000805b8260030180549050811015610ead578373ffffffffffffffffffffffffffffffffffffffff16836003018281548110610e4b57610e4a6147de565b5b9060005260206000200160009054906101000a900473ffffffffffffffffffffffffffffffffffffffff1673ffffffffffffffffffffffffffffffffffffffff1603610e9a5760019150610ead565b8080610ea59061489c565b915050610e0f565b5080610f195781600301839080600181540180825580915050600190039060005260206000200160009091909190916101000a81548173ffffffffffffffffffffffffffffffffffffffff021916908373ffffffffffffffffffffffffffffffffffffffff1602179055505b6000805b600380549050811015610fed578473ffffffffffffffffffffffffffffffffffffffff1660038281548110610f5557610f546147de565b5b906000526020600020906005020160020160009054906101000a900473ffffffffffffffffffffffffffffffffffffffff1673ffffffffffffffffffffffffffffffffffffffff1603610fda57610fab8561105d565b60038281548110610fbf57610fbe6147de565b5b90600052602060002090600502016004018190559150610fed565b8080610fe59061489c565b915050610f1d565b7f5f9d23c3e6e87036c8d4de7b3721596409001b85db4e1811a81f7577f31d4c62858a8c8560038681548110611026576110256147de565b5b906000526020600020906005020160030154604051611049959493929190614b53565b60405180910390a150505050505050505050565b6000806000905060005b6002805490508110156111715760005b6002828154811061108b5761108a6147de565b5b90600052602060002090600a02016003018054905081101561115d57600282815481106110bb576110ba6147de565b5b90600052602060002090600a020160030181815481106110de576110dd6147de565b5b9060005260206000200160009054906101000a900473ffffffffffffffffffffffffffffffffffffffff1673ffffffffffffffffffffffffffffffffffffffff168573ffffffffffffffffffffffffffffffffffffffff160361114a5782806111469061489c565b9350505b80806111559061489c565b915050611077565b5080806111699061489c565b915050611067565b5080915050919050565b600080830361118d57600090506111d2565b60006064848486116111aa5785856111a591906148e4565b6111b7565b84866111b691906148e4565b5b6111c19190614bd5565b6111cb9190614c06565b9050809150505b92915050565b6000806001836111e89190614c60565b8484876111f59190614c06565b6111ff9190614c60565b6112099190614bd5565b9050809150509392505050565b6000803390506000805b60038054905081101561134d5760038181548110611241576112406147de565b5b906000526020600020906005020160020160009054906101000a900473ffffffffffffffffffffffffffffffffffffffff1673ffffffffffffffffffffffffffffffffffffffff168373ffffffffffffffffffffffffffffffffffffffff160361133a57600191506000600382815481106112bf576112be6147de565b5b90600052602060002090600502019050868160000190816112e09190614e40565b50858160010190816112f29190614e40565b507f701184af4d14416de5ff7d43137039f8b4c7bc895af73d47ec2f8196e18feaa987878660405161132693929190614f12565b60405180910390a182945050505050611427565b80806113459061489c565b915050611220565b508061142457600060036001816001815401808255809150500390600052602060002090600502019050858160000190816113889190614e40565b508481600101908161139a9190614e40565b50828160020160006101000a81548173ffffffffffffffffffffffffffffffffffffffff021916908373ffffffffffffffffffffffffffffffffffffffff1602179055507f701184af4d14416de5ff7d43137039f8b4c7bc895af73d47ec2f8196e18feaa986868560405161141193929190614f12565b60405180910390a1819350505050611427565b50505b92915050565b60008060608060008060006060806000808b60008110158015611454575060028054905081105b611493576040517f08c379a000000000000000000000000000000000000000000000000000000000815260040161148a90614964565b60405180910390fd5b600060028e815481106114a9576114a86147de565b5b90600052602060002090600a020190506000816003018054905067ffffffffffffffff8111156114dc576114db614157565b5b60405190808252806020026020018201604052801561150a5781602001602082028036833780820191505090505b50905060005b82600301805490508110156115d35782600401600084600301838154811061153b5761153a6147de565b5b9060005260206000200160009054906101000a900473ffffffffffffffffffffffffffffffffffffffff1673ffffffffffffffffffffffffffffffffffffffff1673ffffffffffffffffffffffffffffffffffffffff168152602001908152602001600020548282815181106115b4576115b36147de565b5b60200260200101818152505080806115cb9061489c565b915050611510565b508160000154826001015460018460010154815481106115f6576115f56147de565b5b9060005260206000209060040201600101600185600101548154811061161f5761161e6147de565b5b90600052602060002090600402016002016001866001015481548110611648576116476147de565b5b90600052602060002090600402016003015486600801548760020160009054906101000a900460ff1688600301888a600601548b6007015488805461168c9061483c565b80601f01602080910402602001604051908101604052809291908181526020018280546116b89061483c565b80156117055780601f106116da57610100808354040283529160200191611705565b820191906000526020600020905b8154815290600101906020018083116116e857829003601f168201915b505050505098508780546117189061483c565b80601f01602080910402602001604051908101604052809291908181526020018280546117449061483c565b80156117915780601f1061176657610100808354040283529160200191611791565b820191906000526020600020905b81548152906001019060200180831161177457829003601f168201915b505050505097508380548060200260200160405190810160405280929190818152602001828054801561181957602002820191906000526020600020905b8160009054906101000a900473ffffffffffffffffffffffffffffffffffffffff1673ffffffffffffffffffffffffffffffffffffffff16815260200190600101908083116117cf575b505050505093509d509d509d509d509d509d509d509d509d509d509d5050505091939597999b90929496989a50565b606080606080606080606080600060028054905067ffffffffffffffff81111561187557611874614157565b5b6040519080825280602002602001820160405280156118a35781602001602082028036833780820191505090505b509050600060028054905067ffffffffffffffff8111156118c7576118c6614157565b5b6040519080825280602002602001820160405280156118f55781602001602082028036833780820191505090505b509050600060028054905067ffffffffffffffff81111561191957611918614157565b5b60405190808252806020026020018201604052801561194c57816020015b60608152602001906001900390816119375790505b509050600060028054905067ffffffffffffffff8111156119705761196f614157565b5b6040519080825280602002602001820160405280156119a357816020015b606081526020019060019003908161198e5790505b509050600060028054905067ffffffffffffffff8111156119c7576119c6614157565b5b6040519080825280602002602001820160405280156119f55781602001602082028036833780820191505090505b509050600060028054905067ffffffffffffffff811115611a1957611a18614157565b5b604051908082528060200260200182016040528015611a475781602001602082028036833780820191505090505b509050600060028054905067ffffffffffffffff811115611a6b57611a6a614157565b5b604051908082528060200260200182016040528015611a995781602001602082028036833780820191505090505b509050600060028054905067ffffffffffffffff811115611abd57611abc614157565b5b604051908082528060200260200182016040528015611aeb5781602001602082028036833780820191505090505b50905060005b600280549050811015611ee95760028181548110611b1257611b116147de565b5b90600052602060002090600a020160000154898281518110611b3757611b366147de565b5b60200260200101818152505060028181548110611b5757611b566147de565b5b90600052602060002090600a020160010154888281518110611b7c57611b7b6147de565b5b602002602001018181525050600160028281548110611b9e57611b9d6147de565b5b90600052602060002090600a02016001015481548110611bc157611bc06147de565b5b90600052602060002090600402016001018054611bdd9061483c565b80601f0160208091040260200160405190810160405280929190818152602001828054611c099061483c565b8015611c565780601f10611c2b57610100808354040283529160200191611c56565b820191906000526020600020905b815481529060010190602001808311611c3957829003601f168201915b5050505050878281518110611c6e57611c6d6147de565b5b6020026020010181905250600160028281548110611c8f57611c8e6147de565b5b90600052602060002090600a02016001015481548110611cb257611cb16147de565b5b90600052602060002090600402016002018054611cce9061483c565b80601f0160208091040260200160405190810160405280929190818152602001828054611cfa9061483c565b8015611d475780601f10611d1c57610100808354040283529160200191611d47565b820191906000526020600020905b815481529060010190602001808311611d2a57829003601f168201915b5050505050868281518110611d5f57611d5e6147de565b5b6020026020010181905250600160028281548110611d8057611d7f6147de565b5b90600052602060002090600a02016001015481548110611da357611da26147de565b5b906000526020600020906004020160030154858281518110611dc857611dc76147de565b5b60200260200101818152505060028181548110611de857611de76147de565b5b90600052602060002090600a020160020160009054906101000a900460ff16848281518110611e1a57611e196147de565b5b60200260200101906001811115611e3457611e33614349565b5b90816001811115611e4857611e47614349565b5b8152505060028181548110611e6057611e5f6147de565b5b90600052602060002090600a020160060154838281518110611e8557611e846147de565b5b60200260200101818152505060028181548110611ea557611ea46147de565b5b90600052602060002090600a020160070154828281518110611eca57611ec96147de565b5b6020026020010181815250508080611ee19061489c565b915050611af1565b5087878787878787879f509f509f509f509f509f509f509f5050505050505050509091929394959697565b6000606080600080600090505b6001805490508110156121175785604051602001611f3f9190614f57565b6040516020818303038152906040528051906020012060018281548110611f6957611f686147de565b5b9060005260206000209060040201600101604051602001611f8a9190614ff1565b604051602081830303815290604052805190602001200361210457600060018281548110611fbb57611fba6147de565b5b90600052602060002090600402019050806000015481600101826002018360030154828054611fe99061483c565b80601f01602080910402602001604051908101604052809291908181526020018280546120159061483c565b80156120625780601f1061203757610100808354040283529160200191612062565b820191906000526020600020905b81548152906001019060200180831161204557829003601f168201915b505050505092508180546120759061483c565b80601f01602080910402602001604051908101604052809291908181526020018280546120a19061483c565b80156120ee5780601f106120c3576101008083540402835291602001916120ee565b820191906000526020600020905b8154815290600101906020018083116120d157829003601f168201915b5050505050915095509550955095505050612153565b808061210f9061489c565b915050611f21565b506040517f08c379a000000000000000000000000000000000000000000000000000000000815260040161214a90615054565b60405180910390fd5b9193509193565b606080600080600061216a613b55565b60005b6003805490508110156123c3578773ffffffffffffffffffffffffffffffffffffffff16600382815481106121a5576121a46147de565b5b906000526020600020906005020160020160009054906101000a900473ffffffffffffffffffffffffffffffffffffffff1673ffffffffffffffffffffffffffffffffffffffff16036123b05760038181548110612206576122056147de565b5b90600052602060002090600502016040518060a001604052908160008201805461222f9061483c565b80601f016020809104026020016040519081016040528092919081815260200182805461225b9061483c565b80156122a85780601f1061227d576101008083540402835291602001916122a8565b820191906000526020600020905b81548152906001019060200180831161228b57829003601f168201915b505050505081526020016001820180546122c19061483c565b80601f01602080910402602001604051908101604052809291908181526020018280546122ed9061483c565b801561233a5780601f1061230f5761010080835404028352916020019161233a565b820191906000526020600020905b81548152906001019060200180831161231d57829003601f168201915b505050505081526020016002820160009054906101000a900473ffffffffffffffffffffffffffffffffffffffff1673ffffffffffffffffffffffffffffffffffffffff1673ffffffffffffffffffffffffffffffffffffffff1681526020016003820154815260200160048201548152505091505b80806123bb9061489c565b91505061216d565b5080600001518160200151826040015183606001518460800151955095509550955095505091939590929450565b6123f9613a0b565b6124036000613a89565b565b60008060009054906101000a900473ffffffffffffffffffffffffffffffffffffffff16905090565b8060008110158015612444575060028054905081105b612483576040517f08c379a000000000000000000000000000000000000000000000000000000000815260040161247a90614964565b60405180910390fd5b61248b613a0b565b6000600283815481106124a1576124a06147de565b5b90600052602060002090600a020160020160006101000a81548160ff021916908360018111156124d4576124d3614349565b5b02179055507f345d397bdfa4f2d3d5282017eff932d0ed125d73664f138ad64b957f3154092a826002848154811061250f5761250e6147de565b5b90600052602060002090600a020160020160009054906101000a900460ff16600160028681548110612544576125436147de565b5b90600052602060002090600a02016001015481548110612567576125666147de565b5b9060005260206000209060040201604051612584939291906151a9565b60405180910390a15050565b600061259a613a0b565b60005b6003805490508110156126a4578373ffffffffffffffffffffffffffffffffffffffff16600382815481106125d5576125d46147de565b5b906000526020600020906005020160020160009054906101000a900473ffffffffffffffffffffffffffffffffffffffff1673ffffffffffffffffffffffffffffffffffffffff1603612691578260038281548110612637576126366147de565b5b906000526020600020906005020160030181905550600381815481106126605761265f6147de565b5b906000526020600020906005020160040160008154809291906126829061489c565b919050555060019150506126aa565b808061269c9061489c565b91505061259d565b50600090505b92915050565b6060806060600060018054905067ffffffffffffffff8111156126d6576126d5614157565b5b60405190808252806020026020018201604052801561270957816020015b60608152602001906001900390816126f45790505b509050600060018054905067ffffffffffffffff81111561272d5761272c614157565b5b60405190808252806020026020018201604052801561276057816020015b606081526020019060019003908161274b5790505b509050600060018054905067ffffffffffffffff81111561278457612783614157565b5b6040519080825280602002602001820160405280156127b25781602001602082028036833780820191505090505b50905060005b6001805490508110156129b557600181815481106127d9576127d86147de565b5b906000526020600020906004020160010180546127f59061483c565b80601f01602080910402602001604051908101604052809291908181526020018280546128219061483c565b801561286e5780601f106128435761010080835404028352916020019161286e565b820191906000526020600020905b81548152906001019060200180831161285157829003601f168201915b5050505050848281518110612886576128856147de565b5b6020026020010181905250600181815481106128a5576128a46147de565b5b906000526020600020906004020160020180546128c19061483c565b80601f01602080910402602001604051908101604052809291908181526020018280546128ed9061483c565b801561293a5780601f1061290f5761010080835404028352916020019161293a565b820191906000526020600020905b81548152906001019060200180831161291d57829003601f168201915b5050505050838281518110612952576129516147de565b5b602002602001018190525060018181548110612971576129706147de565b5b906000526020600020906004020160030154828281518110612996576129956147de565b5b60200260200101818152505080806129ad9061489c565b9150506127b8565b50828282955095509550505050909192565b60006129d1613a0b565b8260005b600180549050811015612aa757816040516020016129f39190614f57565b6040516020818303038152906040528051906020012060018281548110612a1d57612a1c6147de565b5b9060005260206000209060040201600101604051602001612a3e9190614ff1565b6040516020818303038152906040528051906020012003612a94576040517f08c379a0000000000000000000000000000000000000000000000000000000008152600401612a8b90615233565b60405180910390fd5b8080612a9f9061489c565b9150506129d5565b50600060018081600181540180825580915050039060005260206000209060040201905060018080549050612adc91906148e4565b816000018190555084816001019081612af59190614e40565b5083816002019081612b079190614e40565b507f8068f99c05fd8a698b784ed43ce51445a66f90ff68fcbc126d6591e9f86ec07c816000015482600101836002018460030154604051612b4b94939291906152d7565b60405180910390a180600001549250505092915050565b60038181548110612b7257600080fd5b9060005260206000209060050201600091509050806000018054612b959061483c565b80601f0160208091040260200160405190810160405280929190818152602001828054612bc19061483c565b8015612c0e5780601f10612be357610100808354040283529160200191612c0e565b820191906000526020600020905b815481529060010190602001808311612bf157829003601f168201915b505050505090806001018054612c239061483c565b80601f0160208091040260200160405190810160405280929190818152602001828054612c4f9061483c565b8015612c9c5780601f10612c7157610100808354040283529160200191612c9c565b820191906000526020600020905b815481529060010190602001808311612c7f57829003601f168201915b5050505050908060020160009054906101000a900473ffffffffffffffffffffffffffffffffffffffff16908060030154908060040154905085565b600060608260008110158015612cf2575060028054905081105b612d31576040517f08c379a0000000000000000000000000000000000000000000000000000000008152600401612d2890614964565b60405180910390fd5b600060028581548110612d4757612d466147de565b5b90600052602060002090600a020160030180549050905060008060008367ffffffffffffffff811115612d7d57612d7c614157565b5b604051908082528060200260200182016040528015612dab5781602001602082028036833780820191505090505b509050600060028981548110612dc457612dc36147de565b5b90600052602060002090600a020160090154905060005b85811015612f2157600060028b81548110612df957612df86147de565b5b90600052602060002090600a0201600401600060028d81548110612e2057612e1f6147de565b5b90600052602060002090600a02016003018481548110612e4357612e426147de565b5b9060005260206000200160009054906101000a900473ffffffffffffffffffffffffffffffffffffffff1673ffffffffffffffffffffffffffffffffffffffff1673ffffffffffffffffffffffffffffffffffffffff1681526020019081526020016000205490506000612eb7848361117b565b905080858481518110612ecd57612ecc6147de565b5b6020026020010181815250508087612ee59190614c60565b9650806064612ef4919061532a565b82612eff919061536d565b86612f0a9190615484565b955050508080612f199061489c565b915050612ddb565b50600084866064612f32919061536d565b612f3c919061532a565b905060008185612f4c91906154c8565b90508084995099505050505050505050915091565b8160008110158015612f77575060028054905081105b612fb6576040517f08c379a0000000000000000000000000000000000000000000000000000000008152600401612fad90614964565b60405180910390fd5b612fbe613a0b565b600160028481548110612fd457612fd36147de565b5b90600052602060002090600a020160020160006101000a81548160ff0219169083600181111561300757613006614349565b5b02179055504260028481548110613021576130206147de565b5b90600052602060002090600a020160060181905550816002848154811061304b5761304a6147de565b5b90600052602060002090600a0201600701819055507fd55a4f4210056086ae4c4b2cd9f0b30e2fc72fd80ada93ca8b57bac1177bffde8360028581548110613096576130956147de565b5b90600052602060002090600a020160020160009054906101000a900460ff166001600287815481106130cb576130ca6147de565b5b90600052602060002090600a020160010154815481106130ee576130ed6147de565b5b906000526020600020906004020160405161310b939291906151a9565b60405180910390a1505050565b613120613a0b565b600073ffffffffffffffffffffffffffffffffffffffff168173ffffffffffffffffffffffffffffffffffffffff160361318f576040517f08c379a0000000000000000000000000000000000000000000000000000000008152600401613186906155a4565b60405180910390fd5b61319881613a89565b50565b6131a3613a0b565b81600060018111156131b8576131b7614349565b5b600282815481106131cc576131cb6147de565b5b90600052602060002090600a020160020160009054906101000a900460ff1660018111156131fd576131fc614349565b5b1461323d576040517f08c379a000000000000000000000000000000000000000000000000000000000815260040161323490615610565b60405180910390fd5b60028381548110613251576132506147de565b5b90600052602060002090600a02016001015460008110158015613278575060018054905081105b6132b7576040517f08c379a00000000000000000000000000000000000000000000000000000000081526004016132ae90614964565b60405180910390fd5b6000600285815481106132cd576132cc6147de565b5b90600052602060002090600a020160010154905083600182815481106132f6576132f56147de565b5b906000526020600020906004020160030181905550600060028681548110613321576133206147de565b5b90600052602060002090600a0201905084816009018190555060008061334688612cd8565b9150915081836008018190555060005b815181101561341257818181518110613372576133716147de565b5b6020026020010151846005016000866003018481548110613396576133956147de565b5b9060005260206000200160009054906101000a900473ffffffffffffffffffffffffffffffffffffffff1673ffffffffffffffffffffffffffffffffffffffff1673ffffffffffffffffffffffffffffffffffffffff16815260200190815260200160002081905550808061340a9061489c565b915050613356565b5060005b83600301805490508110156135785760006134b289866004016000886003018681548110613447576134466147de565b5b9060005260206000200160009054906101000a900473ffffffffffffffffffffffffffffffffffffffff1673ffffffffffffffffffffffffffffffffffffffff1673ffffffffffffffffffffffffffffffffffffffff1681526020019081526020016000205461117b565b90506000806135008760030185815481106134d0576134cf6147de565b5b9060005260206000200160009054906101000a900473ffffffffffffffffffffffffffffffffffffffff1661215a565b9450945050505060006135148385846111d8565b905061356088600301868154811061352f5761352e6147de565b5b9060005260206000200160009054906101000a900473ffffffffffffffffffffffffffffffffffffffff1682612590565b505050505080806135709061489c565b915050613416565b507f98b36ee88a9e0f508dbe2980caf8744d83894b6ec268031f30b148c4c763430784888a85856040516135b0959493929190615630565b60405180910390a15050505050505050565b600081600081101580156135da575060018054905081105b613619576040517f08c379a000000000000000000000000000000000000000000000000000000000815260040161361090614964565b60405180910390fd5b613621613a0b565b600060026001816001815401808255809150500390600052602060002090600a0201905083816001018190555060008160020160006101000a81548160ff0219169083600181111561367657613675614349565b5b02179055506000816008018190555061368d613b9a565b60005b6001805490508110156138445785600182815481106136b2576136b16147de565b5b9060005260206000209060040201600001540361383157600181815481106136dd576136dc6147de565b5b9060005260206000209060040201604051806080016040529081600082015481526020016001820180546137109061483c565b80601f016020809104026020016040519081016040528092919081815260200182805461373c9061483c565b80156137895780601f1061375e57610100808354040283529160200191613789565b820191906000526020600020905b81548152906001019060200180831161376c57829003601f168201915b505050505081526020016002820180546137a29061483c565b80601f01602080910402602001604051908101604052809291908181526020018280546137ce9061483c565b801561381b5780601f106137f05761010080835404028352916020019161381b565b820191906000526020600020905b8154815290600101906020018083116137fe57829003601f168201915b5050505050815260200160038201548152505091505b808061383c9061489c565b915050613690565b507f9887df6b5f7c48fc3815191894f4c61c05f6327db6b6eaaaee1325d1bde4c53081600160028054905061387991906148e4565b6040516138879291906156f4565b60405180910390a160016002805490506138a191906148e4565b9350505050919050565b6060600082036138f2576040518060400160405280600181526020017f30000000000000000000000000000000000000000000000000000000000000008152509050613a06565b600082905060005b6000821461392457808061390d9061489c565b915050600a8261391d9190614bd5565b91506138fa565b60008167ffffffffffffffff8111156139405761393f614157565b5b6040519080825280601f01601f1916602001820160405280156139725781602001600182028036833780820191505090505b5090505b600085146139ff5760018261398b91906148e4565b9150600a8561399a9190615724565b60306139a69190614c60565b60f81b8183815181106139bc576139bb6147de565b5b60200101907effffffffffffffffffffffffffffffffffffffffffffffffffffffffffffff1916908160001a905350600a856139f89190614bd5565b9450613976565b8093505050505b919050565b613a13613b4d565b73ffffffffffffffffffffffffffffffffffffffff16613a31612405565b73ffffffffffffffffffffffffffffffffffffffff1614613a87576040517f08c379a0000000000000000000000000000000000000000000000000000000008152600401613a7e906157a1565b60405180910390fd5b565b60008060009054906101000a900473ffffffffffffffffffffffffffffffffffffffff169050816000806101000a81548173ffffffffffffffffffffffffffffffffffffffff021916908373ffffffffffffffffffffffffffffffffffffffff1602179055508173ffffffffffffffffffffffffffffffffffffffff168173ffffffffffffffffffffffffffffffffffffffff167f8be0079c531659141344cd1fd0a4f28419497f9722a3daafe3b4186f6b6457e060405160405180910390a35050565b600033905090565b6040518060a001604052806060815260200160608152602001600073ffffffffffffffffffffffffffffffffffffffff16815260200160008152602001600081525090565b6040518060800160405280600081526020016060815260200160608152602001600081525090565b600081519050919050565b600082825260208201905092915050565b6000819050602082019050919050565b600081519050919050565b600082825260208201905092915050565b60005b83811015613c28578082015181840152602081019050613c0d565b60008484015250505050565b6000601f19601f8301169050919050565b6000613c5082613bee565b613c5a8185613bf9565b9350613c6a818560208601613c0a565b613c7381613c34565b840191505092915050565b6000613c8a8383613c45565b905092915050565b6000602082019050919050565b6000613caa82613bc2565b613cb48185613bcd565b935083602082028501613cc685613bde565b8060005b85811015613d025784840389528151613ce38582613c7e565b9450613cee83613c92565b925060208a01995050600181019050613cca565b50829750879550505050505092915050565b600081519050919050565b600082825260208201905092915050565b6000819050602082019050919050565b600073ffffffffffffffffffffffffffffffffffffffff82169050919050565b6000613d6b82613d40565b9050919050565b613d7b81613d60565b82525050565b6000613d8d8383613d72565b60208301905092915050565b6000602082019050919050565b6000613db182613d14565b613dbb8185613d1f565b9350613dc683613d30565b8060005b83811015613df7578151613dde8882613d81565b9750613de983613d99565b925050600181019050613dca565b5085935050505092915050565b600081519050919050565b600082825260208201905092915050565b6000819050602082019050919050565b6000819050919050565b613e4381613e30565b82525050565b6000613e558383613e3a565b60208301905092915050565b6000602082019050919050565b6000613e7982613e04565b613e838185613e0f565b9350613e8e83613e20565b8060005b83811015613ebf578151613ea68882613e49565b9750613eb183613e61565b925050600181019050613e92565b5085935050505092915050565b600060a0820190508181036000830152613ee68188613c9f565b90508181036020830152613efa8187613c9f565b90508181036040830152613f0e8186613da6565b90508181036060830152613f228185613e6e565b90508181036080830152613f368184613e6e565b90509695505050505050565b6000604051905090565b600080fd5b600080fd5b613f5f81613e30565b8114613f6a57600080fd5b50565b600081359050613f7c81613f56565b92915050565b600060208284031215613f9857613f97613f4c565b5b6000613fa684828501613f6d565b91505092915050565b613fb881613e30565b82525050565b600082825260208201905092915050565b6000613fda82613bee565b613fe48185613fbe565b9350613ff4818560208601613c0a565b613ffd81613c34565b840191505092915050565b600060608201905061401d6000830186613faf565b818103602083015261402f8185613fcf565b905061403e6040830184613faf565b949350505050565b6000806040838503121561405d5761405c613f4c565b5b600061406b85828601613f6d565b925050602061407c85828601613f6d565b9150509250929050565b61408f81613d60565b811461409a57600080fd5b50565b6000813590506140ac81614086565b92915050565b6000602082840312156140c8576140c7613f4c565b5b60006140d68482850161409d565b91505092915050565b60006020820190506140f46000830184613faf565b92915050565b60008060006060848603121561411357614112613f4c565b5b600061412186828701613f6d565b935050602061413286828701613f6d565b925050604061414386828701613f6d565b9150509250925092565b600080fd5b600080fd5b7f4e487b7100000000000000000000000000000000000000000000000000000000600052604160045260246000fd5b61418f82613c34565b810181811067ffffffffffffffff821117156141ae576141ad614157565b5b80604052505050565b60006141c1613f42565b90506141cd8282614186565b919050565b600067ffffffffffffffff8211156141ed576141ec614157565b5b6141f682613c34565b9050602081019050919050565b82818337600083830152505050565b6000614225614220846141d2565b6141b7565b90508281526020810184848401111561424157614240614152565b5b61424c848285614203565b509392505050565b600082601f8301126142695761426861414d565b5b8135614279848260208601614212565b91505092915050565b6000806040838503121561429957614298613f4c565b5b600083013567ffffffffffffffff8111156142b7576142b6613f51565b5b6142c385828601614254565b925050602083013567ffffffffffffffff8111156142e4576142e3613f51565b5b6142f085828601614254565b9150509250929050565b60008115159050919050565b61430f816142fa565b82525050565b600060208201905061432a6000830184614306565b92915050565b6000819050919050565b61434381614330565b82525050565b7f4e487b7100000000000000000000000000000000000000000000000000000000600052602160045260246000fd5b6002811061438957614388614349565b5b50565b600081905061439a82614378565b919050565b60006143aa8261438c565b9050919050565b6143ba8161439f565b82525050565b6000610160820190506143d6600083018e613faf565b6143e3602083018d613faf565b81810360408301526143f5818c613fcf565b90508181036060830152614409818b613fcf565b9050614418608083018a613faf565b61442560a083018961433a565b61443260c08301886143b1565b81810360e08301526144448187613da6565b90508181036101008301526144598186613e6e565b9050614469610120830185613faf565b614477610140830184613faf565b9c9b505050505050505050505050565b600081519050919050565b600082825260208201905092915050565b6000819050602082019050919050565b6144bc8161439f565b82525050565b60006144ce83836144b3565b60208301905092915050565b6000602082019050919050565b60006144f282614487565b6144fc8185614492565b9350614507836144a3565b8060005b8381101561453857815161451f88826144c2565b975061452a836144da565b92505060018101905061450b565b5085935050505092915050565b6000610100820190508181036000830152614560818b613e6e565b90508181036020830152614574818a613e6e565b905081810360408301526145888189613c9f565b9050818103606083015261459c8188613c9f565b905081810360808301526145b08187613e6e565b905081810360a08301526145c481866144e7565b905081810360c08301526145d88185613e6e565b905081810360e08301526145ec8184613e6e565b90509998505050505050505050565b60006020828403121561461157614610613f4c565b5b600082013567ffffffffffffffff81111561462f5761462e613f51565b5b61463b84828501614254565b91505092915050565b60006080820190506146596000830187613faf565b818103602083015261466b8186613fcf565b9050818103604083015261467f8185613fcf565b905061468e6060830184613faf565b95945050505050565b6146a081613d60565b82525050565b600060a08201905081810360008301526146c08188613fcf565b905081810360208301526146d48187613fcf565b90506146e36040830186614697565b6146f06060830185613faf565b6146fd6080830184613faf565b9695505050505050565b600060208201905061471c6000830184614697565b92915050565b6000806040838503121561473957614738613f4c565b5b60006147478582860161409d565b925050602061475885828601613f6d565b9150509250929050565b6000606082019050818103600083015261477c8186613c9f565b905081810360208301526147908185613c9f565b905081810360408301526147a48184613e6e565b9050949350505050565b60006040820190506147c3600083018561433a565b81810360208301526147d58184613e6e565b90509392505050565b7f4e487b7100000000000000000000000000000000000000000000000000000000600052603260045260246000fd5b7f4e487b7100000000000000000000000000000000000000000000000000000000600052602260045260246000fd5b6000600282049050600182168061485457607f821691505b6020821081036148675761486661480d565b5b50919050565b7f4e487b7100000000000000000000000000000000000000000000000000000000600052601160045260246000fd5b60006148a782613e30565b91507fffffffffffffffffffffffffffffffffffffffffffffffffffffffffffffffff82036148d9576148d861486d565b5b600182019050919050565b60006148ef82613e30565b91506148fa83613e30565b92508282039050818111156149125761491161486d565b5b92915050565b7f49442073657373696f6e206973206e6f74206578697374000000000000000000600082015250565b600061494e601783613fbe565b915061495982614918565b602082019050919050565b6000602082019050818103600083015261497d81614941565b9050919050565b7f72656163686564207061727469636970616e7473206c696d69743a2000000000815250565b600081905092915050565b60006149c082613bee565b6149ca81856149aa565b93506149da818560208601613c0a565b80840191505092915050565b60006149f182614984565b601c82019150614a0182846149b5565b915081905092915050565b60006020820190508181036000830152614a268184613fcf565b905092915050565b7f596f752776652072756e206f7574206f662074696d6500000000000000000000815250565b7f2d00000000000000000000000000000000000000000000000000000000000000815250565b6000614a8582614a2e565b601682019150614a9482614a54565b600182019150614aa482866149b5565b9150614aaf82614a54565b600182019150614abf82856149b5565b9150614aca82614a54565b600182019150614ada82846149b5565b9150819050949350505050565b7f53657373696f6e20636c6f736564000000000000000000000000000000000000600082015250565b6000614b1d600e83613fbe565b9150614b2882614ae7565b602082019050919050565b60006020820190508181036000830152614b4c81614b10565b9050919050565b600060a082019050614b686000830188614697565b614b756020830187613faf565b614b826040830186613faf565b614b8f6060830185613faf565b614b9c6080830184613faf565b9695505050505050565b7f4e487b7100000000000000000000000000000000000000000000000000000000600052601260045260246000fd5b6000614be082613e30565b9150614beb83613e30565b925082614bfb57614bfa614ba6565b5b828204905092915050565b6000614c1182613e30565b9150614c1c83613e30565b9250817fffffffffffffffffffffffffffffffffffffffffffffffffffffffffffffffff0483118215151615614c5557614c5461486d565b5b828202905092915050565b6000614c6b82613e30565b9150614c7683613e30565b9250828201905080821115614c8e57614c8d61486d565b5b92915050565b60008190508160005260206000209050919050565b60006020601f8301049050919050565b600082821b905092915050565b600060088302614cf67fffffffffffffffffffffffffffffffffffffffffffffffffffffffffffffffff82614cb9565b614d008683614cb9565b95508019841693508086168417925050509392505050565b6000819050919050565b6000614d3d614d38614d3384613e30565b614d18565b613e30565b9050919050565b6000819050919050565b614d5783614d22565b614d6b614d6382614d44565b848454614cc6565b825550505050565b600090565b614d80614d73565b614d8b818484614d4e565b505050565b5b81811015614daf57614da4600082614d78565b600181019050614d91565b5050565b601f821115614df457614dc581614c94565b614dce84614ca9565b81016020851015614ddd578190505b614df1614de985614ca9565b830182614d90565b50505b505050565b600082821c905092915050565b6000614e1760001984600802614df9565b1980831691505092915050565b6000614e308383614e06565b9150826002028217905092915050565b614e4982613bee565b67ffffffffffffffff811115614e6257614e61614157565b5b614e6c825461483c565b614e77828285614db3565b600060209050601f831160018114614eaa5760008415614e98578287015190505b614ea28582614e24565b865550614f0a565b601f198416614eb886614c94565b60005b82811015614ee057848901518255600182019150602085019450602081019050614ebb565b86831015614efd5784890151614ef9601f891682614e06565b8355505b6001600288020188555050505b505050505050565b60006060820190508181036000830152614f2c8186613fcf565b90508181036020830152614f408185613fcf565b9050614f4f6040830184614697565b949350505050565b6000614f6382846149b5565b915081905092915050565b60008154614f7b8161483c565b614f8581866149aa565b94506001821660008114614fa05760018114614fb557614fe8565b60ff1983168652811515820286019350614fe8565b614fbe85614c94565b60005b83811015614fe057815481890152600182019150602081019050614fc1565b838801955050505b50505092915050565b6000614ffd8284614f6e565b915081905092915050565b7f50726f64756374206973206e6f74206578697374000000000000000000000000600082015250565b600061503e601483613fbe565b915061504982615008565b602082019050919050565b6000602082019050818103600083015261506d81615031565b9050919050565b60008160001c9050919050565b6000819050919050565b600061509e61509983615074565b615081565b9050919050565b600081546150b28161483c565b6150bc8186613bf9565b945060018216600081146150d757600181146150ed57615120565b60ff198316865281151560200286019350615120565b6150f685614c94565b60005b83811015615118578154818901526001820191506020810190506150f9565b808801955050505b50505092915050565b60006080830160008084015490506151408161508b565b61514d6000870182613e3a565b5060018401858303602087015261516483826150a5565b92505060028401858303604087015261517d83826150a5565b925050600384015490506151908161508b565b61519d6060870182613e3a565b50819250505092915050565b60006060820190506151be6000830186613faf565b6151cb60208301856143b1565b81810360408301526151dd8184615129565b9050949350505050565b7f546869732070726f6475637420686173206265656e2061646465640000000000600082015250565b600061521d601b83613fbe565b9150615228826151e7565b602082019050919050565b6000602082019050818103600083015261524c81615210565b9050919050565b600081546152608161483c565b61526a8186613fbe565b94506001821660008114615285576001811461529b576152ce565b60ff1983168652811515602002860193506152ce565b6152a485614c94565b60005b838110156152c6578154818901526001820191506020810190506152a7565b808801955050505b50505092915050565b60006080820190506152ec6000830187613faf565b81810360208301526152fe8186615253565b905081810360408301526153128185615253565b90506153216060830184613faf565b95945050505050565b600061533582614330565b915061534083614330565b92508282039050818112600084121682821360008512151617156153675761536661486d565b5b92915050565b600061537882614330565b915061538383614330565b9250827f7fffffffffffffffffffffffffffffffffffffffffffffffffffffffffffffff04821160008413600084131616156153c2576153c161486d565b5b817f800000000000000000000000000000000000000000000000000000000000000005831260008412600084131616156153ff576153fe61486d565b5b827f8000000000000000000000000000000000000000000000000000000000000000058212600084136000841216161561543c5761543b61486d565b5b827f7fffffffffffffffffffffffffffffffffffffffffffffffffffffffffffffff05821260008412600084121616156154795761547861486d565b5b828202905092915050565b600061548f82614330565b915061549a83614330565b9250828201905082811215600083121683821260008412151617156154c2576154c161486d565b5b92915050565b60006154d382614330565b91506154de83614330565b9250826154ee576154ed614ba6565b5b600160000383147f8000000000000000000000000000000000000000000000000000000000000000831416156155275761552661486d565b5b828205905092915050565b7f4f776e61626c653a206e6577206f776e657220697320746865207a65726f206160008201527f6464726573730000000000000000000000000000000000000000000000000000602082015250565b600061558e602683613fbe565b915061559982615532565b604082019050919050565b600060208201905081810360008301526155bd81615581565b9050919050565b7f53657373696f6e20776173206e6f7420636c6f73656400000000000000000000600082015250565b60006155fa601683613fbe565b9150615605826155c4565b602082019050919050565b60006020820190508181036000830152615629816155ed565b9050919050565b600060a0820190506156456000830188613faf565b6156526020830187613faf565b61565f6040830186613faf565b61566c606083018561433a565b818103608083015261567e8184613e6e565b90509695505050505050565b60006080830160008301516156a26000860182613e3a565b50602083015184820360208601526156ba8282613c45565b915050604083015184820360408601526156d48282613c45565b91505060608301516156e96060860182613e3a565b508091505092915050565b6000604082019050818103600083015261570e818561568a565b905061571d6020830184613faf565b9392505050565b600061572f82613e30565b915061573a83613e30565b92508261574a57615749614ba6565b5b828206905092915050565b7f4f776e61626c653a2063616c6c6572206973206e6f7420746865206f776e6572600082015250565b600061578b602083613fbe565b915061579682615755565b602082019050919050565b600060208201905081810360008301526157ba8161577e565b905091905056fea264697066735822122090e3bb27952a7fe4a6f0f060dc96eae310e7739599baa69f84c935ba31322e0364736f6c63430008100033",
  "immutableReferences": {},
  "source": "// SPDX-License-Identifier: MIT\r\npragma solidity ^0.8.0;\r\nimport \"@openzeppelin/contracts/access/Ownable.sol\";\r\nimport \"@openzeppelin/contracts/utils/Strings.sol\";\r\nimport \"./lib/myMath.sol\";\r\n\r\ncontract PricingChain is Ownable {\r\n    enum State {\r\n        CLOSE,\r\n        OPEN\r\n    }\r\n\r\n    struct Product {\r\n        uint256 id;\r\n        string ipfsID;\r\n        string name;\r\n        uint256 price; // P\r\n    }\r\n\r\n    struct Session {\r\n        uint256 id;\r\n        uint256 productID;\r\n        State state;\r\n        address[] participants;\r\n        mapping(address => uint256) participant_pricing;\r\n        mapping(address => uint256) deviationOfParticipants;\r\n        uint256 timeStarted;\r\n        uint256 timeout;\r\n        int proposedPrice;\r\n        uint256 finalPrice;\r\n    }\r\n\r\n    struct User {\r\n        string name;\r\n        string email;\r\n        address walletAddress;\r\n        uint accumulatedDeviation;\r\n        uint numbersOfSessionJoined;\r\n    }\r\n\r\n    event onRegisted(string name, string email, address addr);\r\n    event onProductAdded(\r\n        uint256 productID,\r\n        string ipfsID,\r\n        string name,\r\n        uint256 price\r\n    );\r\n    event onCreatedSession(Product p, uint256 sessionID);\r\n    event onStartedSession(uint256 id, State, Product p);\r\n    event onClosedSession(uint256 id, State, Product p);\r\n    event onGuessPrice(\r\n        address participant,\r\n        uint256 price,\r\n        uint256 sessionID,\r\n        uint numbersOfSessionJoined,\r\n        uint accumulatedDeviation\r\n    );\r\n    event onSetPrice(\r\n        uint256 productID,\r\n        uint256 price,\r\n        uint256 sessionID,\r\n        int proposedPrice,\r\n        uint[] deviationOfParticipants\r\n    );\r\n\r\n    // S ngi tham gia ti a\r\n    uint8 private participantsLimit = 10;\r\n\r\n    // m xem c bao nhiu sn phm\r\n    // danh sch sn phm, uint l id ca sn phm\r\n    Product[] private _products;\r\n\r\n    // danh sch session\r\n    Session[] private _sessions;\r\n    User[] public _users;\r\n\r\n    constructor() public {}\r\n\r\n    // register and update user infomation\r\n    function register(string memory name, string memory email)\r\n        public\r\n        returns (bool _exist)\r\n    {\r\n        address addr = msg.sender;\r\n        bool exist = false;\r\n        for (uint i = 0; i < _users.length; i++) {\r\n            if (addr == _users[i].walletAddress) {\r\n                exist = true;\r\n                User storage u;\r\n                u = _users[i];\r\n                u.name = name;\r\n                u.email = email;\r\n                emit onRegisted(name, email, addr);\r\n                return (exist);\r\n            }\r\n        }\r\n        if (!exist) {\r\n            User storage u;\r\n            u = _users.push();\r\n            u.name = name;\r\n            u.email = email;\r\n            u.walletAddress = addr;\r\n            emit onRegisted(name, email, addr);\r\n            return (exist);\r\n        }\r\n    }\r\n\r\n    function getUser(address addr)\r\n        public\r\n        view\r\n        returns (\r\n            string memory _name,\r\n            string memory _email,\r\n            address _walletAddress,\r\n            uint _accumulatedDeviation,\r\n            uint _numbersOfSessionJoined\r\n        )\r\n    {\r\n        User memory u;\r\n        for (uint256 i = 0; i < _users.length; i++) {\r\n            if (_users[i].walletAddress == addr) {\r\n                u = _users[i];\r\n            }\r\n        }\r\n        return (\r\n            u.name,\r\n            u.email,\r\n            u.walletAddress,\r\n            u.accumulatedDeviation,\r\n            u.numbersOfSessionJoined\r\n        );\r\n    }\r\n\r\n    function getUsers()\r\n        public\r\n        view\r\n        returns (\r\n            string[] memory _names,\r\n            string[] memory _emails,\r\n            address[] memory _walletAddresses,\r\n            uint[] memory _accumulatedDeviations,\r\n            uint[] memory _numbersOfSessionJoineds\r\n        )\r\n    {\r\n        string[] memory names = new string[](_users.length);\r\n        string[] memory emails = new string[](_users.length);\r\n        address[] memory walletAddresses = new address[](_users.length);\r\n        uint[] memory accumulatedDeviations = new uint[](_users.length);\r\n        uint[] memory numbersOfSessionJoineds = new uint[](_users.length);\r\n        for (uint i = 0; i < _users.length; i++) {\r\n            names[i] = _users[i].name;\r\n            emails[i] = _users[i].email;\r\n            walletAddresses[i] = _users[i].walletAddress;\r\n            accumulatedDeviations[i] = _users[i].accumulatedDeviation;\r\n            numbersOfSessionJoineds[i] = _users[i].numbersOfSessionJoined;\r\n        }\r\n        return (\r\n            names,\r\n            emails,\r\n            walletAddresses,\r\n            accumulatedDeviations,\r\n            numbersOfSessionJoineds\r\n        );\r\n    }\r\n\r\n    function setUserAccumulatedDeviation(\r\n        address user,\r\n        uint accumulatedDeviation\r\n    ) public onlyOwner returns (bool status) {\r\n        for (uint i = 0; i < _users.length; i++) {\r\n            if (_users[i].walletAddress == user) {\r\n                _users[i].accumulatedDeviation = accumulatedDeviation;\r\n                _users[i].numbersOfSessionJoined++;\r\n                return true;\r\n            }\r\n        }\r\n        return false;\r\n    }\r\n\r\n    modifier isProductAdded(string memory ipfsID) {\r\n        for (uint256 i = 0; i < _products.length; i++) {\r\n            if (\r\n                keccak256(abi.encodePacked((_products[i].ipfsID))) ==\r\n                keccak256(abi.encodePacked((ipfsID)))\r\n            ) {\r\n                revert(\"This product has been added\");\r\n            }\r\n        }\r\n        _;\r\n    }\r\n\r\n    function addProduct(string memory ipfsID, string memory name)\r\n        public\r\n        onlyOwner\r\n        isProductAdded(ipfsID)\r\n        returns (uint256 id)\r\n    {\r\n        Product storage p = _products.push();\r\n        p.id = _products.length - 1;\r\n        p.ipfsID = ipfsID;\r\n        p.name = name;\r\n        emit onProductAdded(p.id, p.ipfsID, p.name, p.price);\r\n        return p.id;\r\n    }\r\n\r\n    function getProductByID(uint256 ID)\r\n        public\r\n        view\r\n        returns (\r\n            uint256 id,\r\n            string memory ipfsID,\r\n            uint256 price\r\n        )\r\n    {\r\n        if (ID < 0 || ID >= _products.length) ID = _products.length - 1;\r\n        Product storage p = _products[ID];\r\n        /*Session storage s;\r\n        uint[] memory _prices;\r\n        address[] memory participants;\r\n        // ly phin nh gi cui cng vi sn phm \r\n        for (uint i = _sessions.length - 1; i >= 0; i--) {\r\n            if (_sessions[i].productID == ID) {\r\n                s = _sessions[i];\r\n                _prices = new uint[](s.participants.length);\r\n\r\n                for (uint j = 0; j < s.participants.length; j++) {\r\n                    _prices[j] = s.participant_pricing[s.participants[j]];\r\n                }\r\n                participants = s.participants;\r\n                break;\r\n            }\r\n        }*/\r\n        return (p.id, p.ipfsID, p.price);\r\n    }\r\n\r\n    function getProduct(string memory _ipfsID)\r\n        public\r\n        view\r\n        returns (\r\n            uint256 id,\r\n            string memory ipfsID,\r\n            string memory name,\r\n            uint256 price\r\n        )\r\n    {\r\n        for (uint256 i = 0; i < _products.length; i++) {\r\n            if (\r\n                keccak256(abi.encodePacked((_products[i].ipfsID))) ==\r\n                keccak256(abi.encodePacked((_ipfsID)))\r\n            ) {\r\n                Product storage p = _products[i];\r\n                return (p.id, p.ipfsID, p.name, p.price);\r\n            }\r\n        }\r\n        revert(\"Product is not exist\");\r\n    }\r\n\r\n    function getProducts()\r\n        public\r\n        view\r\n        returns (\r\n            string[] memory ipfsIDs,\r\n            string[] memory names,\r\n            uint256[] memory prices\r\n        )\r\n    {\r\n        string[] memory _ipfsIDs = new string[](_products.length);\r\n        string[] memory _names = new string[](_products.length);\r\n        uint256[] memory _prices = new uint256[](_products.length);\r\n        for (uint256 i = 0; i < _products.length; i++) {\r\n            _ipfsIDs[i] = _products[i].ipfsID;\r\n            _names[i] = _products[i].name;\r\n            _prices[i] = _products[i].price;\r\n        }\r\n        return (_ipfsIDs, _names, _prices);\r\n    }\r\n\r\n    modifier productExist(uint256 ID) {\r\n        require(ID >= 0 && ID < _products.length, \"ID session is not exist\");\r\n        _;\r\n    }\r\n\r\n    modifier sessionExist(uint256 ID) {\r\n        require(ID >= 0 && ID < _sessions.length, \"ID session is not exist\");\r\n        _;\r\n    }\r\n\r\n    // to phin u gi\r\n    function createSession(uint256 productID)\r\n        public\r\n        productExist(productID)\r\n        onlyOwner\r\n        returns (uint256 id)\r\n    {\r\n        Session storage s = _sessions.push();\r\n        s.productID = productID;\r\n        s.state = State.CLOSE;\r\n        s.proposedPrice = 0;\r\n        Product memory p;\r\n        for (uint256 i = 0; i < _products.length; i++) {\r\n            if (_products[i].id == productID) p = _products[i];\r\n        }\r\n        emit onCreatedSession(p, _sessions.length - 1);\r\n        return _sessions.length - 1;\r\n    }\r\n\r\n    function startSession(uint256 ID, uint256 timeout)\r\n        public\r\n        sessionExist(ID)\r\n        onlyOwner\r\n    {\r\n        _sessions[ID].state = State.OPEN;\r\n        _sessions[ID].timeStarted = block.timestamp;\r\n        _sessions[ID].timeout = timeout;\r\n        emit onStartedSession(\r\n            ID,\r\n            _sessions[ID].state,\r\n            _products[_sessions[ID].productID]\r\n        );\r\n    }\r\n\r\n    function closeSession(uint256 ID) public sessionExist(ID) onlyOwner {\r\n        _sessions[ID].state = State.CLOSE;\r\n        emit onClosedSession(\r\n            ID,\r\n            _sessions[ID].state,\r\n            _products[_sessions[ID].productID]\r\n        );\r\n    }\r\n\r\n    function getSessions()\r\n        public\r\n        view\r\n        returns (\r\n            uint256[] memory sessionIDs,\r\n            uint256[] memory productIDs,\r\n            string[] memory ipfsIDs,\r\n            string[] memory names,\r\n            uint256[] memory prices,\r\n            // uint256[] memory proposedPrices,\r\n            State[] memory states,\r\n            uint256[] memory timeStarteds,\r\n            uint256[] memory timeouts\r\n        )\r\n    {\r\n        uint256[] memory _sessionIDs = new uint256[](_sessions.length);\r\n        uint256[] memory _productIDs = new uint256[](_sessions.length);\r\n        string[] memory _ipfsIDs = new string[](_sessions.length);\r\n        string[] memory _names = new string[](_sessions.length);\r\n        uint256[] memory _prices = new uint256[](_sessions.length);\r\n        // uint256[] memory _proposedPrices = new uint256[](_sessions.length);\r\n        State[] memory _states = new State[](_sessions.length);\r\n        uint256[] memory _timeStarteds = new uint256[](_sessions.length);\r\n        uint256[] memory _timeouts = new uint256[](_sessions.length);\r\n        for (uint256 i = 0; i < _sessions.length; i++) {\r\n            _sessionIDs[i] = _sessions[i].id;\r\n            _productIDs[i] = _sessions[i].productID;\r\n            _ipfsIDs[i] = _products[_sessions[i].productID].ipfsID;\r\n            _names[i] = _products[_sessions[i].productID].name;\r\n            _prices[i] = _products[_sessions[i].productID].price;\r\n            // _proposedPrices[i] = _sessions[i].proposedPrice;\r\n            _states[i] = _sessions[i].state;\r\n            _timeStarteds[i] = _sessions[i].timeStarted;\r\n            _timeouts[i] = _sessions[i].timeout;\r\n        }\r\n        return (\r\n            _sessionIDs,\r\n            _productIDs,\r\n            _ipfsIDs,\r\n            _names,\r\n            _prices,\r\n            // _proposedPrices,\r\n            _states,\r\n            _timeStarteds,\r\n            _timeouts\r\n        );\r\n    }\r\n\r\n    function getSession(uint256 id)\r\n        public\r\n        view\r\n        sessionExist(id)\r\n        returns (\r\n            uint256 sessionID,\r\n            uint256 productID,\r\n            string memory ipfsID,\r\n            string memory name,\r\n            uint256 price,\r\n            int proposedPrice,\r\n            State state,\r\n            address[] memory participants,\r\n            uint256[] memory participant_pricings,\r\n            uint256 timeStarted,\r\n            uint256 timeout\r\n        )\r\n    {\r\n        Session storage session = _sessions[id];\r\n        uint256[] memory _participant_pricings = new uint256[](\r\n            session.participants.length\r\n        );\r\n        for (uint256 i = 0; i < session.participants.length; i++) {\r\n            _participant_pricings[i] = session.participant_pricing[\r\n                session.participants[i]\r\n            ];\r\n        }\r\n        return (\r\n            session.id,\r\n            session.productID,\r\n            _products[session.productID].ipfsID,\r\n            _products[session.productID].name,\r\n            _products[session.productID].price,\r\n            session.proposedPrice,\r\n            session.state,\r\n            session.participants,\r\n            _participant_pricings,\r\n            session.timeStarted,\r\n            session.timeout\r\n        );\r\n    }\r\n\r\n    modifier sessionClosed(uint256 sessionID) {\r\n        require(\r\n            _sessions[sessionID].state == State.CLOSE,\r\n            \"Session was not closed\"\r\n        );\r\n        _;\r\n    }\r\n\r\n    function setPrice(uint256 sessionID, uint256 price)\r\n        public\r\n        onlyOwner\r\n        sessionClosed(sessionID)\r\n        productExist(_sessions[sessionID].productID)\r\n    {\r\n        uint256 productID = _sessions[sessionID].productID;\r\n        _products[productID].price = price;\r\n\r\n        Session storage s = _sessions[sessionID];\r\n        s.finalPrice = price;\r\n\r\n        (\r\n            int proposedPrice,\r\n            uint[] memory deviationOfParticipants\r\n        ) = calc_proposedPrice(sessionID);\r\n\r\n        s.proposedPrice = proposedPrice;\r\n\r\n        // save deviationOfParticipants\r\n        for (uint i = 0; i < deviationOfParticipants.length; i++) {\r\n            s.deviationOfParticipants[\r\n                s.participants[i]\r\n            ] = deviationOfParticipants[i];\r\n        }\r\n\r\n        // accumulated deviation\r\n        // tnh ton tng  lch tch ly ca tng ngi chi\r\n        for (uint256 i = 0; i < s.participants.length; i++) {\r\n            uint d_new = calc_d_new(\r\n                price,\r\n                s.participant_pricing[s.participants[i]]\r\n            );\r\n\r\n            (, , , uint d_current, uint numbersOfSessionJoined) = getUser(\r\n                s.participants[i]\r\n            );\r\n            uint accumulatedDeviation = calc_accumulatedDeviation(\r\n                d_current,\r\n                d_new,\r\n                numbersOfSessionJoined\r\n            );\r\n            // save accumulatedDeviation, numbersOfSessionJoined + 1\r\n            setUserAccumulatedDeviation(\r\n                s.participants[i],\r\n                accumulatedDeviation\r\n            );\r\n        }\r\n\r\n        emit onSetPrice(\r\n            productID,\r\n            price,\r\n            sessionID,\r\n            proposedPrice,\r\n            deviationOfParticipants\r\n        );\r\n    }\r\n\r\n    // kim tra vt qu s ngi tham gia nh gi 10\r\n    modifier checkParticipantsLimit(uint256 sessionID) {\r\n        require(\r\n            _sessions[sessionID].participants.length < participantsLimit,\r\n            string.concat(\r\n                \"reached participants limit: \",\r\n                Strings.toString(participantsLimit)\r\n            )\r\n        );\r\n        _;\r\n    }\r\n    // kim tra cn thi hn hay khng\r\n    modifier checkTimeout(uint256 sessionID) {\r\n        if (_sessions[sessionID].timeout > 0)\r\n            require(\r\n                block.timestamp - _sessions[sessionID].timeStarted <\r\n                    _sessions[sessionID].timeout ||\r\n                    _sessions[sessionID].timeout == 0,\r\n                string.concat(\r\n                    \"You've run out of time\",\r\n                    \"-\",\r\n                    Strings.toString(block.timestamp),\r\n                    \"-\",\r\n                    Strings.toString(_sessions[sessionID].timeStarted),\r\n                    \"-\",\r\n                    Strings.toString(_sessions[sessionID].timeout)\r\n                )\r\n            );\r\n        _;\r\n    }\r\n\r\n    function guessPrice(uint256 sessionID, uint256 price)\r\n        public\r\n        sessionExist(sessionID)\r\n        checkParticipantsLimit(sessionID)\r\n        checkTimeout(sessionID)\r\n    {\r\n        address addr = msg.sender;\r\n        Session storage s = _sessions[sessionID];\r\n        require(s.state == State.OPEN, \"Session closed\");\r\n        s.participant_pricing[addr] = price;\r\n\r\n        // nu trong ngi ny  pricing ri th ko a vo danh sch participants\r\n        bool exist = false;\r\n        for (uint256 i = 0; i < s.participants.length; i++) {\r\n            if (s.participants[i] == addr) {\r\n                exist = true;\r\n                break;\r\n            }\r\n        }\r\n        if (!exist) s.participants.push(addr);\r\n        uint numbersOfSessionJoined = 0;\r\n        uint256 j = 0;\r\n        for (j; j < _users.length; j++) {\r\n            if (_users[j].walletAddress == addr) {\r\n                numbersOfSessionJoined = _users[j]\r\n                    .numbersOfSessionJoined = countSessionJoined(addr);\r\n                break;\r\n            }\r\n        }\r\n        emit onGuessPrice(\r\n            addr,\r\n            price,\r\n            sessionID,\r\n            numbersOfSessionJoined,\r\n            _users[j].accumulatedDeviation\r\n        );\r\n    }\r\n\r\n    function countSessionJoined(address addr) public view returns (uint) {\r\n        uint count = 0;\r\n        for (uint256 i = 0; i < _sessions.length; i++) {\r\n            for (uint256 j = 0; j < _sessions[i].participants.length; j++) {\r\n                if (addr == _sessions[i].participants[j]) {\r\n                    count++;\r\n                }\r\n            }\r\n        }\r\n        return count;\r\n    }\r\n\r\n    /*\r\n        P: The final price\r\n        p: The given price of the participant\r\n        d_new: deviation in the current session\r\n    */\r\n    function calc_d_new(uint256 finalPice, uint256 pricing)\r\n        public\r\n        pure\r\n        returns (uint256)\r\n    {\r\n        if (finalPice == 0) return 0;\r\n        uint256 d_new = ((\r\n            finalPice > pricing ? finalPice - pricing : pricing - finalPice\r\n        ) / finalPice) * 100;\r\n        return d_new;\r\n    }\r\n\r\n    /* n: number of all participants */\r\n    function calc_accumulatedDeviation(\r\n        uint256 d_current,\r\n        uint256 d_new,\r\n        uint256 n\r\n    ) public pure returns (uint256) {\r\n        uint256 d = ((d_current * n) + d_new) / (n + 1);\r\n        return d;\r\n    }\r\n\r\n    function calc_proposedPrice(uint256 sessionID)\r\n        public\r\n        view\r\n        sessionExist(sessionID)\r\n        returns (int _proposedPrice, uint[] memory _deviationOfParticipants)\r\n    {\r\n        // Session storage s = _sessions[sessionID];\r\n        uint256 n = _sessions[sessionID].participants.length;\r\n        uint256 sum_d_i = 0;\r\n\r\n        // numerator, denominator in formular\r\n        int sum_numerator = 0;\r\n\r\n        uint[] memory deviationOfParticipants = new uint[](n);\r\n        uint finalPrice = _sessions[sessionID].finalPrice;\r\n\r\n        for (uint256 i = 0; i < n; i++) {\r\n            // the given price of the participant\r\n            uint256 p_i = _sessions[sessionID].participant_pricing[\r\n                _sessions[sessionID].participants[i]\r\n            ];\r\n            // deviation of participant\r\n            uint256 d_i = calc_d_new(finalPrice, p_i);\r\n\r\n            deviationOfParticipants[i] = d_i;\r\n            sum_d_i += d_i;\r\n\r\n            sum_numerator += (int(p_i) * (100 - int(d_i)));\r\n        }\r\n\r\n        int denominator = (100 * int(n) - int(sum_d_i));\r\n        int proposedPrice = sum_numerator / denominator;\r\n        return (proposedPrice, deviationOfParticipants);\r\n    }\r\n}\r\n",
  "sourcePath": "C:\\Users\\s\\Documents\\PricingChain\\contracts\\PricingChain.sol",
  "compiler": {
    "name": "solc",
    "version": "0.8.16+commit.07a7930e.Emscripten.clang"
  },
  "schemaVersion": "3.4.9",
  "updatedAt": "2022-08-31T13:36:32.863Z",
  "networkType": "ethereum",
  "devdoc": {
    "kind": "dev",
    "methods": {
      "owner()": {
        "details": "Returns the address of the current owner."
      },
      "renounceOwnership()": {
        "details": "Leaves the contract without owner. It will not be possible to call `onlyOwner` functions anymore. Can only be called by the current owner. NOTE: Renouncing ownership will leave the contract without an owner, thereby removing any functionality that is only available to the owner."
      },
      "transferOwnership(address)": {
        "details": "Transfers ownership of the contract to a new account (`newOwner`). Can only be called by the current owner."
      }
    },
    "version": 1
  },
  "userdoc": {
    "kind": "user",
    "methods": {},
    "version": 1
  }
}