{
  "contractName": "PricingChain",
  "abi": [
    {
      "inputs": [],
      "stateMutability": "nonpayable",
      "type": "constructor"
    },
    {
      "anonymous": false,
      "inputs": [
        {
          "indexed": true,
          "internalType": "address",
          "name": "previousOwner",
          "type": "address"
        },
        {
          "indexed": true,
          "internalType": "address",
          "name": "newOwner",
          "type": "address"
        }
      ],
      "name": "OwnershipTransferred",
      "type": "event"
    },
    {
      "anonymous": false,
      "inputs": [
        {
          "indexed": false,
          "internalType": "uint256",
          "name": "id",
          "type": "uint256"
        },
        {
          "indexed": false,
          "internalType": "enum PricingChain.State",
          "name": "",
          "type": "uint8"
        },
        {
          "components": [
            {
              "internalType": "uint256",
              "name": "id",
              "type": "uint256"
            },
            {
              "internalType": "string",
              "name": "ipfsID",
              "type": "string"
            },
            {
              "internalType": "string",
              "name": "name",
              "type": "string"
            },
            {
              "internalType": "uint256",
              "name": "price",
              "type": "uint256"
            }
          ],
          "indexed": false,
          "internalType": "struct PricingChain.Product",
          "name": "p",
          "type": "tuple"
        }
      ],
      "name": "onClosedSession",
      "type": "event"
    },
    {
      "anonymous": false,
      "inputs": [
        {
          "components": [
            {
              "internalType": "uint256",
              "name": "id",
              "type": "uint256"
            },
            {
              "internalType": "string",
              "name": "ipfsID",
              "type": "string"
            },
            {
              "internalType": "string",
              "name": "name",
              "type": "string"
            },
            {
              "internalType": "uint256",
              "name": "price",
              "type": "uint256"
            }
          ],
          "indexed": false,
          "internalType": "struct PricingChain.Product",
          "name": "p",
          "type": "tuple"
        },
        {
          "indexed": false,
          "internalType": "uint256",
          "name": "sessionID",
          "type": "uint256"
        }
      ],
      "name": "onCreatedSession",
      "type": "event"
    },
    {
      "anonymous": false,
      "inputs": [
        {
          "indexed": false,
          "internalType": "address",
          "name": "participant",
          "type": "address"
        },
        {
          "indexed": false,
          "internalType": "uint256",
          "name": "price",
          "type": "uint256"
        },
        {
          "indexed": false,
          "internalType": "uint256",
          "name": "sessionID",
          "type": "uint256"
        }
      ],
      "name": "onGuessPrice",
      "type": "event"
    },
    {
      "anonymous": false,
      "inputs": [
        {
          "indexed": false,
          "internalType": "uint256",
          "name": "productID",
          "type": "uint256"
        },
        {
          "indexed": false,
          "internalType": "string",
          "name": "ipfsID",
          "type": "string"
        },
        {
          "indexed": false,
          "internalType": "string",
          "name": "name",
          "type": "string"
        },
        {
          "indexed": false,
          "internalType": "uint256",
          "name": "price",
          "type": "uint256"
        }
      ],
      "name": "onProductAdded",
      "type": "event"
    },
    {
      "anonymous": false,
      "inputs": [
        {
          "indexed": false,
          "internalType": "uint256",
          "name": "productID",
          "type": "uint256"
        },
        {
          "indexed": false,
          "internalType": "uint256",
          "name": "price",
          "type": "uint256"
        },
        {
          "indexed": false,
          "internalType": "uint256",
          "name": "sessionID",
          "type": "uint256"
        },
        {
          "indexed": false,
          "internalType": "uint256",
          "name": "proposedPrice",
          "type": "uint256"
        }
      ],
      "name": "onSetPrice",
      "type": "event"
    },
    {
      "anonymous": false,
      "inputs": [
        {
          "indexed": false,
          "internalType": "uint256",
          "name": "id",
          "type": "uint256"
        },
        {
          "indexed": false,
          "internalType": "enum PricingChain.State",
          "name": "",
          "type": "uint8"
        },
        {
          "components": [
            {
              "internalType": "uint256",
              "name": "id",
              "type": "uint256"
            },
            {
              "internalType": "string",
              "name": "ipfsID",
              "type": "string"
            },
            {
              "internalType": "string",
              "name": "name",
              "type": "string"
            },
            {
              "internalType": "uint256",
              "name": "price",
              "type": "uint256"
            }
          ],
          "indexed": false,
          "internalType": "struct PricingChain.Product",
          "name": "p",
          "type": "tuple"
        }
      ],
      "name": "onStartedSession",
      "type": "event"
    },
    {
      "inputs": [],
      "name": "owner",
      "outputs": [
        {
          "internalType": "address",
          "name": "",
          "type": "address"
        }
      ],
      "stateMutability": "view",
      "type": "function",
      "constant": true
    },
    {
      "inputs": [],
      "name": "renounceOwnership",
      "outputs": [],
      "stateMutability": "nonpayable",
      "type": "function"
    },
    {
      "inputs": [
        {
          "internalType": "address",
          "name": "newOwner",
          "type": "address"
        }
      ],
      "name": "transferOwnership",
      "outputs": [],
      "stateMutability": "nonpayable",
      "type": "function"
    },
    {
      "inputs": [
        {
          "internalType": "string",
          "name": "ipfsID",
          "type": "string"
        },
        {
          "internalType": "string",
          "name": "name",
          "type": "string"
        }
      ],
      "name": "addProduct",
      "outputs": [
        {
          "internalType": "uint256",
          "name": "id",
          "type": "uint256"
        }
      ],
      "stateMutability": "nonpayable",
      "type": "function"
    },
    {
      "inputs": [
        {
          "internalType": "uint256",
          "name": "ID",
          "type": "uint256"
        }
      ],
      "name": "getProductByID",
      "outputs": [
        {
          "internalType": "uint256",
          "name": "id",
          "type": "uint256"
        },
        {
          "internalType": "string",
          "name": "ipfsID",
          "type": "string"
        },
        {
          "internalType": "uint256",
          "name": "price",
          "type": "uint256"
        }
      ],
      "stateMutability": "view",
      "type": "function",
      "constant": true
    },
    {
      "inputs": [
        {
          "internalType": "string",
          "name": "_ipfsID",
          "type": "string"
        }
      ],
      "name": "getProduct",
      "outputs": [
        {
          "internalType": "uint256",
          "name": "id",
          "type": "uint256"
        },
        {
          "internalType": "string",
          "name": "ipfsID",
          "type": "string"
        },
        {
          "internalType": "string",
          "name": "name",
          "type": "string"
        },
        {
          "internalType": "uint256",
          "name": "price",
          "type": "uint256"
        }
      ],
      "stateMutability": "view",
      "type": "function",
      "constant": true
    },
    {
      "inputs": [],
      "name": "getProducts",
      "outputs": [
        {
          "internalType": "string[]",
          "name": "ipfsIDs",
          "type": "string[]"
        },
        {
          "internalType": "string[]",
          "name": "names",
          "type": "string[]"
        },
        {
          "internalType": "uint256[]",
          "name": "prices",
          "type": "uint256[]"
        }
      ],
      "stateMutability": "view",
      "type": "function",
      "constant": true
    },
    {
      "inputs": [
        {
          "internalType": "uint256",
          "name": "productID",
          "type": "uint256"
        }
      ],
      "name": "createSession",
      "outputs": [
        {
          "internalType": "uint256",
          "name": "id",
          "type": "uint256"
        }
      ],
      "stateMutability": "nonpayable",
      "type": "function"
    },
    {
      "inputs": [
        {
          "internalType": "uint256",
          "name": "ID",
          "type": "uint256"
        },
        {
          "internalType": "uint256",
          "name": "timeout",
          "type": "uint256"
        }
      ],
      "name": "startSession",
      "outputs": [],
      "stateMutability": "nonpayable",
      "type": "function"
    },
    {
      "inputs": [
        {
          "internalType": "uint256",
          "name": "ID",
          "type": "uint256"
        }
      ],
      "name": "closeSession",
      "outputs": [],
      "stateMutability": "nonpayable",
      "type": "function"
    },
    {
      "inputs": [],
      "name": "getSessions",
      "outputs": [
        {
          "internalType": "uint256[]",
          "name": "sessionIDs",
          "type": "uint256[]"
        },
        {
          "internalType": "uint256[]",
          "name": "productIDs",
          "type": "uint256[]"
        },
        {
          "internalType": "string[]",
          "name": "ipfsIDs",
          "type": "string[]"
        },
        {
          "internalType": "string[]",
          "name": "names",
          "type": "string[]"
        },
        {
          "internalType": "uint256[]",
          "name": "prices",
          "type": "uint256[]"
        },
        {
          "internalType": "enum PricingChain.State[]",
          "name": "states",
          "type": "uint8[]"
        },
        {
          "internalType": "uint256[]",
          "name": "timeStarteds",
          "type": "uint256[]"
        },
        {
          "internalType": "uint256[]",
          "name": "timeouts",
          "type": "uint256[]"
        }
      ],
      "stateMutability": "view",
      "type": "function",
      "constant": true
    },
    {
      "inputs": [
        {
          "internalType": "uint256",
          "name": "id",
          "type": "uint256"
        }
      ],
      "name": "getSession",
      "outputs": [
        {
          "internalType": "uint256",
          "name": "sessionID",
          "type": "uint256"
        },
        {
          "internalType": "uint256",
          "name": "productID",
          "type": "uint256"
        },
        {
          "internalType": "string",
          "name": "ipfsID",
          "type": "string"
        },
        {
          "internalType": "string",
          "name": "name",
          "type": "string"
        },
        {
          "internalType": "uint256",
          "name": "price",
          "type": "uint256"
        },
        {
          "internalType": "uint256",
          "name": "proposedPrice",
          "type": "uint256"
        },
        {
          "internalType": "enum PricingChain.State",
          "name": "state",
          "type": "uint8"
        },
        {
          "internalType": "address[]",
          "name": "participants",
          "type": "address[]"
        },
        {
          "internalType": "uint256[]",
          "name": "participant_pricings",
          "type": "uint256[]"
        },
        {
          "internalType": "uint256",
          "name": "timeStarted",
          "type": "uint256"
        },
        {
          "internalType": "uint256",
          "name": "timeout",
          "type": "uint256"
        }
      ],
      "stateMutability": "view",
      "type": "function",
      "constant": true
    },
    {
      "inputs": [
        {
          "internalType": "uint256",
          "name": "sessionID",
          "type": "uint256"
        },
        {
          "internalType": "uint256",
          "name": "price",
          "type": "uint256"
        },
        {
          "internalType": "uint256",
          "name": "productID",
          "type": "uint256"
        }
      ],
      "name": "setPrice",
      "outputs": [],
      "stateMutability": "nonpayable",
      "type": "function"
    },
    {
      "inputs": [
        {
          "internalType": "uint256",
          "name": "sessionID",
          "type": "uint256"
        },
        {
          "internalType": "uint256",
          "name": "price",
          "type": "uint256"
        }
      ],
      "name": "guessPrice",
      "outputs": [],
      "stateMutability": "nonpayable",
      "type": "function"
    },
    {
      "inputs": [
        {
          "internalType": "uint256",
          "name": "P",
          "type": "uint256"
        },
        {
          "internalType": "uint256",
          "name": "p",
          "type": "uint256"
        }
      ],
      "name": "calc_d_new",
      "outputs": [
        {
          "internalType": "uint256",
          "name": "",
          "type": "uint256"
        }
      ],
      "stateMutability": "pure",
      "type": "function",
      "constant": true
    },
    {
      "inputs": [
        {
          "internalType": "uint256",
          "name": "P_current",
          "type": "uint256"
        },
        {
          "internalType": "uint256",
          "name": "P_new",
          "type": "uint256"
        },
        {
          "internalType": "uint256",
          "name": "p",
          "type": "uint256"
        },
        {
          "internalType": "uint256",
          "name": "n",
          "type": "uint256"
        }
      ],
      "name": "calc_d_i",
      "outputs": [
        {
          "internalType": "uint256",
          "name": "",
          "type": "uint256"
        }
      ],
      "stateMutability": "pure",
      "type": "function",
      "constant": true
    },
    {
      "inputs": [
        {
          "internalType": "uint256",
          "name": "sessionID",
          "type": "uint256"
        },
        {
          "internalType": "uint256",
          "name": "P_current",
          "type": "uint256"
        },
        {
          "internalType": "uint256",
          "name": "P_new",
          "type": "uint256"
        }
      ],
      "name": "calcProposedPrice",
      "outputs": [
        {
          "internalType": "uint256",
          "name": "",
          "type": "uint256"
        }
      ],
      "stateMutability": "view",
      "type": "function",
      "constant": true
    }
  ],
  "bytecode": "0x6080604052600a600060146101000a81548160ff021916908360ff1602179055503480156200002d57600080fd5b506200004e620000426200005460201b60201c565b6200005c60201b60201c565b62000120565b600033905090565b60008060009054906101000a900473ffffffffffffffffffffffffffffffffffffffff169050816000806101000a81548173ffffffffffffffffffffffffffffffffffffffff021916908373ffffffffffffffffffffffffffffffffffffffff1602179055508173ffffffffffffffffffffffffffffffffffffffff168173ffffffffffffffffffffffffffffffffffffffff167f8be0079c531659141344cd1fd0a4f28419497f9722a3daafe3b4186f6b6457e060405160405180910390a35050565b61445480620001306000396000f3fe608060405234801561001057600080fd5b506004361061010b5760003560e01c80638da5cb5b116100a2578063ca2efb5511610071578063ca2efb55146102d0578063d61a4bf814610300578063f2fde38b1461031c578063f663c67114610338578063f847cdde146103685761010b565b80638da5cb5b1461025a578063a3bfdf4714610278578063aa585d5614610294578063c29b2f20146102b05761010b565b806361503e45116100de57806361503e45146101c857806368111cce146101ed578063715018a61461022057806375d58a941461022a5761010b565b80630595a01f1461011057806315883b2214610142578063341957861461015e578063402ff0db1461018e575b600080fd5b61012a60048036038101906101259190612b99565b610398565b60405161013993929190612c6e565b60405180910390f35b61015c60048036038101906101579190612cac565b610498565b005b61017860048036038101906101739190612cac565b61095c565b6040516101859190612cec565b60405180910390f35b6101a860048036038101906101a39190612b99565b610996565b6040516101bf9b9a99989796959493929190612f2c565b60405180910390f35b6101d0610db1565b6040516101e49897969594939291906131bd565b60405180910390f35b610207600480360381019061020291906133a8565b61147d565b60405161021794939291906133f1565b60405180910390f35b6102286116c3565b005b610244600480360381019061023f9190613444565b61174b565b6040516102519190612cec565b60405180910390f35b6102626118a1565b60405161026f91906134a6565b60405180910390f35b610292600480360381019061028d9190612b99565b6118ca565b005b6102ae60048036038101906102a99190613444565b611aa0565b005b6102b8611cd8565b6040516102c7939291906134c1565b60405180910390f35b6102ea60048036038101906102e5919061350d565b611fef565b6040516102f79190612cec565b60405180910390f35b61031a60048036038101906103159190612cac565b6121fe565b005b610336600480360381019061033191906135b1565b612429565b005b610352600480360381019061034d91906135de565b612520565b60405161035f9190612cec565b60405180910390f35b610382600480360381019061037d9190612b99565b61257d565b60405161038f9190612cec565b60405180910390f35b600060606000808410806103b157506001805490508410155b156103ca57600180805490506103c79190613674565b93505b6000600185815481106103e0576103df6136a8565b5b90600052602060002090600402019050806000015481600101826003015481805461040a90613706565b80601f016020809104026020016040519081016040528092919081815260200182805461043690613706565b80156104835780601f1061045857610100808354040283529160200191610483565b820191906000526020600020905b81548152906001019060200180831161046657829003601f168201915b50505050509150935093509350509193909250565b81600081101580156104ae575060028054905081105b6104ed576040517f08c379a00000000000000000000000000000000000000000000000000000000081526004016104e490613783565b60405180910390fd5b82600060149054906101000a900460ff1660ff1660028281548110610515576105146136a8565b5b90600052602060002090600802016003018054905010610546600060149054906101000a900460ff1660ff166128da565b6040516020016105569190613805565b604051602081830303815290604052906105a6576040517f08c379a000000000000000000000000000000000000000000000000000000000815260040161059d919061382b565b60405180910390fd5b50836000600282815481106105be576105bd6136a8565b5b906000526020600020906008020160060154111561072757600281815481106105ea576105e96136a8565b5b906000526020600020906008020160060154600282815481106106105761060f6136a8565b5b9060005260206000209060080201600501544261062d9190613674565b108061065e575060006002828154811061064a576106496136a8565b5b906000526020600020906008020160060154145b610667426128da565b6106956002848154811061067e5761067d6136a8565b5b9060005260206000209060080201600501546128da565b6106c3600285815481106106ac576106ab6136a8565b5b9060005260206000209060080201600601546128da565b6040516020016106d593929190613899565b60405160208183030381529060405290610725576040517f08c379a000000000000000000000000000000000000000000000000000000000815260040161071c919061382b565b60405180910390fd5b505b60006002868154811061073d5761073c6136a8565b5b906000526020600020906008020190506001808111156107605761075f612d07565b5b8160020160009054906101000a900460ff16600181111561078457610783612d07565b5b146107c4576040517f08c379a00000000000000000000000000000000000000000000000000000000081526004016107bb90613952565b60405180910390fd5b848160040160003373ffffffffffffffffffffffffffffffffffffffff1673ffffffffffffffffffffffffffffffffffffffff168152602001908152602001600020819055506000805b82600301805490508110156108ac573373ffffffffffffffffffffffffffffffffffffffff1683600301828154811061084a576108496136a8565b5b9060005260206000200160009054906101000a900473ffffffffffffffffffffffffffffffffffffffff1673ffffffffffffffffffffffffffffffffffffffff160361089957600191506108ac565b80806108a490613972565b91505061080e565b50806109185781600301339080600181540180825580915050600190039060005260206000200160009091909190916101000a81548173ffffffffffffffffffffffffffffffffffffffff021916908373ffffffffffffffffffffffffffffffffffffffff1602179055505b7f18010a98b74dc9658d6a9b0218afc6bfc92f15be0a62de45753fe2a7463ff22b33878960405161094b939291906139ba565b60405180910390a150505050505050565b60008060648461097685876109719190613674565b612a3a565b6109809190613a20565b61098a9190613a51565b90508091505092915050565b60008060608060008060006060806000808b600081101580156109bd575060028054905081105b6109fc576040517f08c379a00000000000000000000000000000000000000000000000000000000081526004016109f390613783565b60405180910390fd5b600060028e81548110610a1257610a116136a8565b5b906000526020600020906008020190506000816003018054905067ffffffffffffffff811115610a4557610a4461327d565b5b604051908082528060200260200182016040528015610a735781602001602082028036833780820191505090505b50905060005b8260030180549050811015610b3c57826004016000846003018381548110610aa457610aa36136a8565b5b9060005260206000200160009054906101000a900473ffffffffffffffffffffffffffffffffffffffff1673ffffffffffffffffffffffffffffffffffffffff1673ffffffffffffffffffffffffffffffffffffffff16815260200190815260200160002054828281518110610b1d57610b1c6136a8565b5b6020026020010181815250508080610b3490613972565b915050610a79565b50816000015482600101546001846001015481548110610b5f57610b5e6136a8565b5b90600052602060002090600402016001016001856001015481548110610b8857610b876136a8565b5b90600052602060002090600402016002016001866001015481548110610bb157610bb06136a8565b5b90600052602060002090600402016003015486600701548760020160009054906101000a900460ff1688600301888a600501548b60060154888054610bf590613706565b80601f0160208091040260200160405190810160405280929190818152602001828054610c2190613706565b8015610c6e5780601f10610c4357610100808354040283529160200191610c6e565b820191906000526020600020905b815481529060010190602001808311610c5157829003601f168201915b50505050509850878054610c8190613706565b80601f0160208091040260200160405190810160405280929190818152602001828054610cad90613706565b8015610cfa5780601f10610ccf57610100808354040283529160200191610cfa565b820191906000526020600020905b815481529060010190602001808311610cdd57829003601f168201915b5050505050975083805480602002602001604051908101604052809291908181526020018280548015610d8257602002820191906000526020600020905b8160009054906101000a900473ffffffffffffffffffffffffffffffffffffffff1673ffffffffffffffffffffffffffffffffffffffff1681526020019060010190808311610d38575b505050505093509d509d509d509d509d509d509d509d509d509d509d5050505091939597999b90929496989a50565b606080606080606080606080600060028054905067ffffffffffffffff811115610dde57610ddd61327d565b5b604051908082528060200260200182016040528015610e0c5781602001602082028036833780820191505090505b509050600060028054905067ffffffffffffffff811115610e3057610e2f61327d565b5b604051908082528060200260200182016040528015610e5e5781602001602082028036833780820191505090505b509050600060028054905067ffffffffffffffff811115610e8257610e8161327d565b5b604051908082528060200260200182016040528015610eb557816020015b6060815260200190600190039081610ea05790505b509050600060028054905067ffffffffffffffff811115610ed957610ed861327d565b5b604051908082528060200260200182016040528015610f0c57816020015b6060815260200190600190039081610ef75790505b509050600060028054905067ffffffffffffffff811115610f3057610f2f61327d565b5b604051908082528060200260200182016040528015610f5e5781602001602082028036833780820191505090505b509050600060028054905067ffffffffffffffff811115610f8257610f8161327d565b5b604051908082528060200260200182016040528015610fb05781602001602082028036833780820191505090505b509050600060028054905067ffffffffffffffff811115610fd457610fd361327d565b5b6040519080825280602002602001820160405280156110025781602001602082028036833780820191505090505b509050600060028054905067ffffffffffffffff8111156110265761102561327d565b5b6040519080825280602002602001820160405280156110545781602001602082028036833780820191505090505b50905060005b600280549050811015611452576002818154811061107b5761107a6136a8565b5b9060005260206000209060080201600001548982815181106110a05761109f6136a8565b5b602002602001018181525050600281815481106110c0576110bf6136a8565b5b9060005260206000209060080201600101548882815181106110e5576110e46136a8565b5b602002602001018181525050600160028281548110611107576111066136a8565b5b9060005260206000209060080201600101548154811061112a576111296136a8565b5b9060005260206000209060040201600101805461114690613706565b80601f016020809104026020016040519081016040528092919081815260200182805461117290613706565b80156111bf5780601f10611194576101008083540402835291602001916111bf565b820191906000526020600020905b8154815290600101906020018083116111a257829003601f168201915b50505050508782815181106111d7576111d66136a8565b5b60200260200101819052506001600282815481106111f8576111f76136a8565b5b9060005260206000209060080201600101548154811061121b5761121a6136a8565b5b9060005260206000209060040201600201805461123790613706565b80601f016020809104026020016040519081016040528092919081815260200182805461126390613706565b80156112b05780601f10611285576101008083540402835291602001916112b0565b820191906000526020600020905b81548152906001019060200180831161129357829003601f168201915b50505050508682815181106112c8576112c76136a8565b5b60200260200101819052506001600282815481106112e9576112e86136a8565b5b9060005260206000209060080201600101548154811061130c5761130b6136a8565b5b906000526020600020906004020160030154858281518110611331576113306136a8565b5b60200260200101818152505060028181548110611351576113506136a8565b5b906000526020600020906008020160020160009054906101000a900460ff16848281518110611383576113826136a8565b5b6020026020010190600181111561139d5761139c612d07565b5b908160018111156113b1576113b0612d07565b5b81525050600281815481106113c9576113c86136a8565b5b9060005260206000209060080201600501548382815181106113ee576113ed6136a8565b5b6020026020010181815250506002818154811061140e5761140d6136a8565b5b906000526020600020906008020160060154828281518110611433576114326136a8565b5b602002602001018181525050808061144a90613972565b91505061105a565b5087878787878787879f509f509f509f509f509f509f509f5050505050505050509091929394959697565b6000606080600080600090505b60018054905081101561168057856040516020016114a89190613aab565b60405160208183030381529060405280519060200120600182815481106114d2576114d16136a8565b5b90600052602060002090600402016001016040516020016114f39190613b5a565b604051602081830303815290604052805190602001200361166d57600060018281548110611524576115236136a8565b5b9060005260206000209060040201905080600001548160010182600201836003015482805461155290613706565b80601f016020809104026020016040519081016040528092919081815260200182805461157e90613706565b80156115cb5780601f106115a0576101008083540402835291602001916115cb565b820191906000526020600020905b8154815290600101906020018083116115ae57829003601f168201915b505050505092508180546115de90613706565b80601f016020809104026020016040519081016040528092919081815260200182805461160a90613706565b80156116575780601f1061162c57610100808354040283529160200191611657565b820191906000526020600020905b81548152906001019060200180831161163a57829003601f168201915b50505050509150955095509550955050506116bc565b808061167890613972565b91505061148a565b506040517f08c379a00000000000000000000000000000000000000000000000000000000081526004016116b390613bbd565b60405180910390fd5b9193509193565b6116cb612a5b565b73ffffffffffffffffffffffffffffffffffffffff166116e96118a1565b73ffffffffffffffffffffffffffffffffffffffff161461173f576040517f08c379a000000000000000000000000000000000000000000000000000000000815260040161173690613c29565b60405180910390fd5b6117496000612a63565b565b60008060028581548110611762576117616136a8565b5b9060005260206000209060080201905060008160030180549050905060008060005b8381101561186a5760008560040160008760030184815481106117aa576117a96136a8565b5b9060005260206000200160009054906101000a900473ffffffffffffffffffffffffffffffffffffffff1673ffffffffffffffffffffffffffffffffffffffff1673ffffffffffffffffffffffffffffffffffffffff16815260200190815260200160002054905060006118208a8a8489612520565b9050808561182e9190613c49565b945080606461183d9190613674565b826118489190613a51565b846118539190613c49565b93505050808061186290613972565b915050611784565b5060008284606461187b9190613a51565b6118859190613674565b826118909190613a20565b905080955050505050509392505050565b60008060009054906101000a900473ffffffffffffffffffffffffffffffffffffffff16905090565b80600081101580156118e0575060028054905081105b61191f576040517f08c379a000000000000000000000000000000000000000000000000000000000815260040161191690613783565b60405180910390fd5b611927612a5b565b73ffffffffffffffffffffffffffffffffffffffff166119456118a1565b73ffffffffffffffffffffffffffffffffffffffff161461199b576040517f08c379a000000000000000000000000000000000000000000000000000000000815260040161199290613c29565b60405180910390fd5b6000600283815481106119b1576119b06136a8565b5b906000526020600020906008020160020160006101000a81548160ff021916908360018111156119e4576119e3612d07565b5b02179055507f345d397bdfa4f2d3d5282017eff932d0ed125d73664f138ad64b957f3154092a8260028481548110611a1f57611a1e6136a8565b5b906000526020600020906008020160020160009054906101000a900460ff16600160028681548110611a5457611a536136a8565b5b90600052602060002090600802016001015481548110611a7757611a766136a8565b5b9060005260206000209060040201604051611a9493929190613dd4565b60405180910390a15050565b611aa8612a5b565b73ffffffffffffffffffffffffffffffffffffffff16611ac66118a1565b73ffffffffffffffffffffffffffffffffffffffff1614611b1c576040517f08c379a0000000000000000000000000000000000000000000000000000000008152600401611b1390613c29565b60405180910390fd5b8260006001811115611b3157611b30612d07565b5b60028281548110611b4557611b446136a8565b5b906000526020600020906008020160020160009054906101000a900460ff166001811115611b7657611b75612d07565b5b14611bb6576040517f08c379a0000000000000000000000000000000000000000000000000000000008152600401611bad90613e5e565b60405180910390fd5b8160008110158015611bcc575060018054905081105b611c0b576040517f08c379a0000000000000000000000000000000000000000000000000000000008152600401611c0290613783565b60405180910390fd5b8360018481548110611c2057611c1f6136a8565b5b9060005260206000209060040201600301819055506000611c678660018681548110611c4f57611c4e6136a8565b5b9060005260206000209060040201600301548761174b565b90508060028781548110611c7e57611c7d6136a8565b5b9060005260206000209060080201600701819055507f0d47e6917b2054c34caa53deee18424011cbbcc6a554fa97e4ac90d2f4a5bb9784868884604051611cc89493929190613e7e565b60405180910390a1505050505050565b6060806060600060018054905067ffffffffffffffff811115611cfe57611cfd61327d565b5b604051908082528060200260200182016040528015611d3157816020015b6060815260200190600190039081611d1c5790505b509050600060018054905067ffffffffffffffff811115611d5557611d5461327d565b5b604051908082528060200260200182016040528015611d8857816020015b6060815260200190600190039081611d735790505b509050600060018054905067ffffffffffffffff811115611dac57611dab61327d565b5b604051908082528060200260200182016040528015611dda5781602001602082028036833780820191505090505b50905060005b600180549050811015611fdd5760018181548110611e0157611e006136a8565b5b90600052602060002090600402016001018054611e1d90613706565b80601f0160208091040260200160405190810160405280929190818152602001828054611e4990613706565b8015611e965780601f10611e6b57610100808354040283529160200191611e96565b820191906000526020600020905b815481529060010190602001808311611e7957829003601f168201915b5050505050848281518110611eae57611ead6136a8565b5b602002602001018190525060018181548110611ecd57611ecc6136a8565b5b90600052602060002090600402016002018054611ee990613706565b80601f0160208091040260200160405190810160405280929190818152602001828054611f1590613706565b8015611f625780601f10611f3757610100808354040283529160200191611f62565b820191906000526020600020905b815481529060010190602001808311611f4557829003601f168201915b5050505050838281518110611f7a57611f796136a8565b5b602002602001018190525060018181548110611f9957611f986136a8565b5b906000526020600020906004020160030154828281518110611fbe57611fbd6136a8565b5b6020026020010181815250508080611fd590613972565b915050611de0565b50828282955095509550505050909192565b6000611ff9612a5b565b73ffffffffffffffffffffffffffffffffffffffff166120176118a1565b73ffffffffffffffffffffffffffffffffffffffff161461206d576040517f08c379a000000000000000000000000000000000000000000000000000000000815260040161206490613c29565b60405180910390fd5b8260005b600180549050811015612143578160405160200161208f9190613aab565b60405160208183030381529060405280519060200120600182815481106120b9576120b86136a8565b5b90600052602060002090600402016001016040516020016120da9190613b5a565b6040516020818303038152906040528051906020012003612130576040517f08c379a000000000000000000000000000000000000000000000000000000000815260040161212790613f0f565b60405180910390fd5b808061213b90613972565b915050612071565b506000600180816001815401808255809150500390600052602060002090600402019050600180805490506121789190613674565b81600001819055508481600101908161219191906140c6565b50838160020190816121a391906140c6565b507f8068f99c05fd8a698b784ed43ce51445a66f90ff68fcbc126d6591e9f86ec07c8160000154826001018360020184600301546040516121e7949392919061421c565b60405180910390a180600001549250505092915050565b8160008110158015612214575060028054905081105b612253576040517f08c379a000000000000000000000000000000000000000000000000000000000815260040161224a90613783565b60405180910390fd5b61225b612a5b565b73ffffffffffffffffffffffffffffffffffffffff166122796118a1565b73ffffffffffffffffffffffffffffffffffffffff16146122cf576040517f08c379a00000000000000000000000000000000000000000000000000000000081526004016122c690613c29565b60405180910390fd5b6001600284815481106122e5576122e46136a8565b5b906000526020600020906008020160020160006101000a81548160ff0219169083600181111561231857612317612d07565b5b02179055504260028481548110612332576123316136a8565b5b906000526020600020906008020160050181905550816002848154811061235c5761235b6136a8565b5b9060005260206000209060080201600601819055507fd55a4f4210056086ae4c4b2cd9f0b30e2fc72fd80ada93ca8b57bac1177bffde83600285815481106123a7576123a66136a8565b5b906000526020600020906008020160020160009054906101000a900460ff166001600287815481106123dc576123db6136a8565b5b906000526020600020906008020160010154815481106123ff576123fe6136a8565b5b906000526020600020906004020160405161241c93929190613dd4565b60405180910390a1505050565b612431612a5b565b73ffffffffffffffffffffffffffffffffffffffff1661244f6118a1565b73ffffffffffffffffffffffffffffffffffffffff16146124a5576040517f08c379a000000000000000000000000000000000000000000000000000000000815260040161249c90613c29565b60405180910390fd5b600073ffffffffffffffffffffffffffffffffffffffff168173ffffffffffffffffffffffffffffffffffffffff1603612514576040517f08c379a000000000000000000000000000000000000000000000000000000000815260040161250b906142e1565b60405180910390fd5b61251d81612a63565b50565b60008061252d868561095c565b9050600061253b868661095c565b9050600060018561254c9190613c49565b8286856125599190613a51565b6125639190613c49565b61256d9190613a20565b9050809350505050949350505050565b60008160008110158015612595575060018054905081105b6125d4576040517f08c379a00000000000000000000000000000000000000000000000000000000081526004016125cb90613783565b60405180910390fd5b6125dc612a5b565b73ffffffffffffffffffffffffffffffffffffffff166125fa6118a1565b73ffffffffffffffffffffffffffffffffffffffff1614612650576040517f08c379a000000000000000000000000000000000000000000000000000000000815260040161264790613c29565b60405180910390fd5b60006002600181600181540180825580915050039060005260206000209060080201905083816001018190555060008160020160006101000a81548160ff021916908360018111156126a5576126a4612d07565b5b0217905550600081600701819055506126bc612b27565b60005b6001805490508110156128735785600182815481106126e1576126e06136a8565b5b90600052602060002090600402016000015403612860576001818154811061270c5761270b6136a8565b5b90600052602060002090600402016040518060800160405290816000820154815260200160018201805461273f90613706565b80601f016020809104026020016040519081016040528092919081815260200182805461276b90613706565b80156127b85780601f1061278d576101008083540402835291602001916127b8565b820191906000526020600020905b81548152906001019060200180831161279b57829003601f168201915b505050505081526020016002820180546127d190613706565b80601f01602080910402602001604051908101604052809291908181526020018280546127fd90613706565b801561284a5780601f1061281f5761010080835404028352916020019161284a565b820191906000526020600020905b81548152906001019060200180831161282d57829003601f168201915b5050505050815260200160038201548152505091505b808061286b90613972565b9150506126bf565b507f9887df6b5f7c48fc3815191894f4c61c05f6327db6b6eaaaee1325d1bde4c5308160016002805490506128a89190613674565b6040516128b692919061436b565b60405180910390a160016002805490506128d09190613674565b9350505050919050565b606060008203612921576040518060400160405280600181526020017f30000000000000000000000000000000000000000000000000000000000000008152509050612a35565b600082905060005b6000821461295357808061293c90613972565b915050600a8261294c9190613a20565b9150612929565b60008167ffffffffffffffff81111561296f5761296e61327d565b5b6040519080825280601f01601f1916602001820160405280156129a15781602001600182028036833780820191505090505b5090505b60008514612a2e576001826129ba9190613674565b9150600a856129c9919061439b565b60306129d59190613c49565b60f81b8183815181106129eb576129ea6136a8565b5b60200101907effffffffffffffffffffffffffffffffffffffffffffffffffffffffffffff1916908160001a905350600a85612a279190613a20565b94506129a5565b8093505050505b919050565b6000808213612a525781612a4d906143d6565b612a54565b815b9050919050565b600033905090565b60008060009054906101000a900473ffffffffffffffffffffffffffffffffffffffff169050816000806101000a81548173ffffffffffffffffffffffffffffffffffffffff021916908373ffffffffffffffffffffffffffffffffffffffff1602179055508173ffffffffffffffffffffffffffffffffffffffff168173ffffffffffffffffffffffffffffffffffffffff167f8be0079c531659141344cd1fd0a4f28419497f9722a3daafe3b4186f6b6457e060405160405180910390a35050565b6040518060800160405280600081526020016060815260200160608152602001600081525090565b6000604051905090565b600080fd5b600080fd5b6000819050919050565b612b7681612b63565b8114612b8157600080fd5b50565b600081359050612b9381612b6d565b92915050565b600060208284031215612baf57612bae612b59565b5b6000612bbd84828501612b84565b91505092915050565b612bcf81612b63565b82525050565b600081519050919050565b600082825260208201905092915050565b60005b83811015612c0f578082015181840152602081019050612bf4565b83811115612c1e576000848401525b50505050565b6000601f19601f8301169050919050565b6000612c4082612bd5565b612c4a8185612be0565b9350612c5a818560208601612bf1565b612c6381612c24565b840191505092915050565b6000606082019050612c836000830186612bc6565b8181036020830152612c958185612c35565b9050612ca46040830184612bc6565b949350505050565b60008060408385031215612cc357612cc2612b59565b5b6000612cd185828601612b84565b9250506020612ce285828601612b84565b9150509250929050565b6000602082019050612d016000830184612bc6565b92915050565b7f4e487b7100000000000000000000000000000000000000000000000000000000600052602160045260246000fd5b60028110612d4757612d46612d07565b5b50565b6000819050612d5882612d36565b919050565b6000612d6882612d4a565b9050919050565b612d7881612d5d565b82525050565b600081519050919050565b600082825260208201905092915050565b6000819050602082019050919050565b600073ffffffffffffffffffffffffffffffffffffffff82169050919050565b6000612dd582612daa565b9050919050565b612de581612dca565b82525050565b6000612df78383612ddc565b60208301905092915050565b6000602082019050919050565b6000612e1b82612d7e565b612e258185612d89565b9350612e3083612d9a565b8060005b83811015612e61578151612e488882612deb565b9750612e5383612e03565b925050600181019050612e34565b5085935050505092915050565b600081519050919050565b600082825260208201905092915050565b6000819050602082019050919050565b612ea381612b63565b82525050565b6000612eb58383612e9a565b60208301905092915050565b6000602082019050919050565b6000612ed982612e6e565b612ee38185612e79565b9350612eee83612e8a565b8060005b83811015612f1f578151612f068882612ea9565b9750612f1183612ec1565b925050600181019050612ef2565b5085935050505092915050565b600061016082019050612f42600083018e612bc6565b612f4f602083018d612bc6565b8181036040830152612f61818c612c35565b90508181036060830152612f75818b612c35565b9050612f84608083018a612bc6565b612f9160a0830189612bc6565b612f9e60c0830188612d6f565b81810360e0830152612fb08187612e10565b9050818103610100830152612fc58186612ece565b9050612fd5610120830185612bc6565b612fe3610140830184612bc6565b9c9b505050505050505050505050565b600081519050919050565b600082825260208201905092915050565b6000819050602082019050919050565b600082825260208201905092915050565b600061303b82612bd5565b613045818561301f565b9350613055818560208601612bf1565b61305e81612c24565b840191505092915050565b60006130758383613030565b905092915050565b6000602082019050919050565b600061309582612ff3565b61309f8185612ffe565b9350836020820285016130b18561300f565b8060005b858110156130ed57848403895281516130ce8582613069565b94506130d98361307d565b925060208a019950506001810190506130b5565b50829750879550505050505092915050565b600081519050919050565b600082825260208201905092915050565b6000819050602082019050919050565b61313481612d5d565b82525050565b6000613146838361312b565b60208301905092915050565b6000602082019050919050565b600061316a826130ff565b613174818561310a565b935061317f8361311b565b8060005b838110156131b0578151613197888261313a565b97506131a283613152565b925050600181019050613183565b5085935050505092915050565b60006101008201905081810360008301526131d8818b612ece565b905081810360208301526131ec818a612ece565b90508181036040830152613200818961308a565b90508181036060830152613214818861308a565b905081810360808301526132288187612ece565b905081810360a083015261323c818661315f565b905081810360c08301526132508185612ece565b905081810360e08301526132648184612ece565b90509998505050505050505050565b600080fd5b600080fd5b7f4e487b7100000000000000000000000000000000000000000000000000000000600052604160045260246000fd5b6132b582612c24565b810181811067ffffffffffffffff821117156132d4576132d361327d565b5b80604052505050565b60006132e7612b4f565b90506132f382826132ac565b919050565b600067ffffffffffffffff8211156133135761331261327d565b5b61331c82612c24565b9050602081019050919050565b82818337600083830152505050565b600061334b613346846132f8565b6132dd565b90508281526020810184848401111561336757613366613278565b5b613372848285613329565b509392505050565b600082601f83011261338f5761338e613273565b5b813561339f848260208601613338565b91505092915050565b6000602082840312156133be576133bd612b59565b5b600082013567ffffffffffffffff8111156133dc576133db612b5e565b5b6133e88482850161337a565b91505092915050565b60006080820190506134066000830187612bc6565b81810360208301526134188186612c35565b9050818103604083015261342c8185612c35565b905061343b6060830184612bc6565b95945050505050565b60008060006060848603121561345d5761345c612b59565b5b600061346b86828701612b84565b935050602061347c86828701612b84565b925050604061348d86828701612b84565b9150509250925092565b6134a081612dca565b82525050565b60006020820190506134bb6000830184613497565b92915050565b600060608201905081810360008301526134db818661308a565b905081810360208301526134ef818561308a565b905081810360408301526135038184612ece565b9050949350505050565b6000806040838503121561352457613523612b59565b5b600083013567ffffffffffffffff81111561354257613541612b5e565b5b61354e8582860161337a565b925050602083013567ffffffffffffffff81111561356f5761356e612b5e565b5b61357b8582860161337a565b9150509250929050565b61358e81612dca565b811461359957600080fd5b50565b6000813590506135ab81613585565b92915050565b6000602082840312156135c7576135c6612b59565b5b60006135d58482850161359c565b91505092915050565b600080600080608085870312156135f8576135f7612b59565b5b600061360687828801612b84565b945050602061361787828801612b84565b935050604061362887828801612b84565b925050606061363987828801612b84565b91505092959194509250565b7f4e487b7100000000000000000000000000000000000000000000000000000000600052601160045260246000fd5b600061367f82612b63565b915061368a83612b63565b92508282101561369d5761369c613645565b5b828203905092915050565b7f4e487b7100000000000000000000000000000000000000000000000000000000600052603260045260246000fd5b7f4e487b7100000000000000000000000000000000000000000000000000000000600052602260045260246000fd5b6000600282049050600182168061371e57607f821691505b602082108103613731576137306136d7565b5b50919050565b7f49442073657373696f6e206973206e6f74206578697374000000000000000000600082015250565b600061376d601783612be0565b915061377882613737565b602082019050919050565b6000602082019050818103600083015261379c81613760565b9050919050565b7f72656163686564207061727469636970616e7473206c696d69743a2000000000815250565b600081905092915050565b60006137df82612bd5565b6137e981856137c9565b93506137f9818560208601612bf1565b80840191505092915050565b6000613810826137a3565b601c8201915061382082846137d4565b915081905092915050565b600060208201905081810360008301526138458184612c35565b905092915050565b7f596f752776652072756e206f7574206f662074696d6500000000000000000000815250565b7f2d00000000000000000000000000000000000000000000000000000000000000815250565b60006138a48261384d565b6016820191506138b382613873565b6001820191506138c382866137d4565b91506138ce82613873565b6001820191506138de82856137d4565b91506138e982613873565b6001820191506138f982846137d4565b9150819050949350505050565b7f53657373696f6e20636c6f736564000000000000000000000000000000000000600082015250565b600061393c600e83612be0565b915061394782613906565b602082019050919050565b6000602082019050818103600083015261396b8161392f565b9050919050565b600061397d82612b63565b91507fffffffffffffffffffffffffffffffffffffffffffffffffffffffffffffffff82036139af576139ae613645565b5b600182019050919050565b60006060820190506139cf6000830186613497565b6139dc6020830185612bc6565b6139e96040830184612bc6565b949350505050565b7f4e487b7100000000000000000000000000000000000000000000000000000000600052601260045260246000fd5b6000613a2b82612b63565b9150613a3683612b63565b925082613a4657613a456139f1565b5b828204905092915050565b6000613a5c82612b63565b9150613a6783612b63565b9250817fffffffffffffffffffffffffffffffffffffffffffffffffffffffffffffffff0483118215151615613aa057613a9f613645565b5b828202905092915050565b6000613ab782846137d4565b915081905092915050565b60008190508160005260206000209050919050565b60008154613ae481613706565b613aee81866137c9565b94506001821660008114613b095760018114613b1e57613b51565b60ff1983168652811515820286019350613b51565b613b2785613ac2565b60005b83811015613b4957815481890152600182019150602081019050613b2a565b838801955050505b50505092915050565b6000613b668284613ad7565b915081905092915050565b7f50726f64756374206973206e6f74206578697374000000000000000000000000600082015250565b6000613ba7601483612be0565b9150613bb282613b71565b602082019050919050565b60006020820190508181036000830152613bd681613b9a565b9050919050565b7f4f776e61626c653a2063616c6c6572206973206e6f7420746865206f776e6572600082015250565b6000613c13602083612be0565b9150613c1e82613bdd565b602082019050919050565b60006020820190508181036000830152613c4281613c06565b9050919050565b6000613c5482612b63565b9150613c5f83612b63565b9250827fffffffffffffffffffffffffffffffffffffffffffffffffffffffffffffffff03821115613c9457613c93613645565b5b828201905092915050565b60008160001c9050919050565b6000819050919050565b6000613cc9613cc483613c9f565b613cac565b9050919050565b60008154613cdd81613706565b613ce7818661301f565b94506001821660008114613d025760018114613d1857613d4b565b60ff198316865281151560200286019350613d4b565b613d2185613ac2565b60005b83811015613d4357815481890152600182019150602081019050613d24565b808801955050505b50505092915050565b6000608083016000808401549050613d6b81613cb6565b613d786000870182612e9a565b50600184018583036020870152613d8f8382613cd0565b925050600284018583036040870152613da88382613cd0565b92505060038401549050613dbb81613cb6565b613dc86060870182612e9a565b50819250505092915050565b6000606082019050613de96000830186612bc6565b613df66020830185612d6f565b8181036040830152613e088184613d54565b9050949350505050565b7f53657373696f6e20776173206e6f7420636c6f73656400000000000000000000600082015250565b6000613e48601683612be0565b9150613e5382613e12565b602082019050919050565b60006020820190508181036000830152613e7781613e3b565b9050919050565b6000608082019050613e936000830187612bc6565b613ea06020830186612bc6565b613ead6040830185612bc6565b613eba6060830184612bc6565b95945050505050565b7f546869732070726f6475637420686173206265656e2061646465640000000000600082015250565b6000613ef9601b83612be0565b9150613f0482613ec3565b602082019050919050565b60006020820190508181036000830152613f2881613eec565b9050919050565b60006020601f8301049050919050565b600082821b905092915050565b600060088302613f7c7fffffffffffffffffffffffffffffffffffffffffffffffffffffffffffffffff82613f3f565b613f868683613f3f565b95508019841693508086168417925050509392505050565b6000819050919050565b6000613fc3613fbe613fb984612b63565b613f9e565b612b63565b9050919050565b6000819050919050565b613fdd83613fa8565b613ff1613fe982613fca565b848454613f4c565b825550505050565b600090565b614006613ff9565b614011818484613fd4565b505050565b5b818110156140355761402a600082613ffe565b600181019050614017565b5050565b601f82111561407a5761404b81613ac2565b61405484613f2f565b81016020851015614063578190505b61407761406f85613f2f565b830182614016565b50505b505050565b600082821c905092915050565b600061409d6000198460080261407f565b1980831691505092915050565b60006140b6838361408c565b9150826002028217905092915050565b6140cf82612bd5565b67ffffffffffffffff8111156140e8576140e761327d565b5b6140f28254613706565b6140fd828285614039565b600060209050601f831160018114614130576000841561411e578287015190505b61412885826140aa565b865550614190565b601f19841661413e86613ac2565b60005b8281101561416657848901518255600182019150602085019450602081019050614141565b86831015614183578489015161417f601f89168261408c565b8355505b6001600288020188555050505b505050505050565b600081546141a581613706565b6141af8186612be0565b945060018216600081146141ca57600181146141e057614213565b60ff198316865281151560200286019350614213565b6141e985613ac2565b60005b8381101561420b578154818901526001820191506020810190506141ec565b808801955050505b50505092915050565b60006080820190506142316000830187612bc6565b81810360208301526142438186614198565b905081810360408301526142578185614198565b90506142666060830184612bc6565b95945050505050565b7f4f776e61626c653a206e6577206f776e657220697320746865207a65726f206160008201527f6464726573730000000000000000000000000000000000000000000000000000602082015250565b60006142cb602683612be0565b91506142d68261426f565b604082019050919050565b600060208201905081810360008301526142fa816142be565b9050919050565b60006080830160008301516143196000860182612e9a565b50602083015184820360208601526143318282613030565b9150506040830151848203604086015261434b8282613030565b91505060608301516143606060860182612e9a565b508091505092915050565b600060408201905081810360008301526143858185614301565b90506143946020830184612bc6565b9392505050565b60006143a682612b63565b91506143b183612b63565b9250826143c1576143c06139f1565b5b828206905092915050565b6000819050919050565b60006143e1826143cc565b91507f8000000000000000000000000000000000000000000000000000000000000000820361441357614412613645565b5b81600003905091905056fea2646970667358221220d77b01139812792a552803e3661db7d1ccb1ef42483c8f120dfb9073d5e0d55e64736f6c634300080f0033",
  "immutableReferences": {},
  "source": "// SPDX-License-Identifier: MIT\r\npragma solidity ^0.8.0;\r\nimport \"@openzeppelin/contracts/access/Ownable.sol\";\r\nimport \"@openzeppelin/contracts/utils/Strings.sol\";\r\nimport \"./lib/myMath.sol\";\r\n\r\ncontract PricingChain is Ownable {\r\n    enum State {\r\n        CLOSE,\r\n        OPEN\r\n    }\r\n\r\n    struct Product {\r\n        uint256 id;\r\n        string ipfsID;\r\n        string name;\r\n        uint256 price; // P\r\n    }\r\n\r\n    struct Session {\r\n        uint256 id;\r\n        uint256 productID;\r\n        State state;\r\n        address[] participants;\r\n        mapping(address => uint256) participant_pricing;\r\n        uint256 timeStarted;\r\n        uint256 timeout;\r\n        uint256 proposedPrice;\r\n    }\r\n\r\n    event onProductAdded(\r\n        uint256 productID,\r\n        string ipfsID,\r\n        string name,\r\n        uint256 price\r\n    );\r\n    event onCreatedSession(Product p, uint256 sessionID);\r\n    event onStartedSession(uint256 id, State, Product p);\r\n    event onClosedSession(uint256 id, State, Product p);\r\n    event onGuessPrice(address participant, uint256 price, uint256 sessionID);\r\n    event onSetPrice(\r\n        uint256 productID,\r\n        uint256 price,\r\n        uint256 sessionID,\r\n        uint256 proposedPrice\r\n    );\r\n    // S ngi tham gia ti a\r\n    uint8 private participantsLimit = 10;\r\n\r\n    // m xem c bao nhiu sn phm\r\n    // danh sch sn phm, uint l id ca sn phm\r\n    Product[] private _products;\r\n\r\n    // danh sch session\r\n    Session[] private _sessions;\r\n\r\n    constructor() {}\r\n\r\n    modifier isProductAdded(string memory ipfsID) {\r\n        for (uint256 i = 0; i < _products.length; i++) {\r\n            if (\r\n                keccak256(abi.encodePacked((_products[i].ipfsID))) ==\r\n                keccak256(abi.encodePacked((ipfsID)))\r\n            ) {\r\n                revert(\"This product has been added\");\r\n            }\r\n        }\r\n        _;\r\n    }\r\n\r\n    function addProduct(string memory ipfsID, string memory name)\r\n        public\r\n        onlyOwner\r\n        isProductAdded(ipfsID)\r\n        returns (uint256 id)\r\n    {\r\n        Product storage p = _products.push();\r\n        p.id = _products.length - 1;\r\n        p.ipfsID = ipfsID;\r\n        p.name = name;\r\n        emit onProductAdded(p.id, p.ipfsID, p.name, p.price);\r\n        return p.id;\r\n    }\r\n\r\n    function getProductByID(uint256 ID)\r\n        public\r\n        view\r\n        returns (\r\n            uint256 id,\r\n            string memory ipfsID,\r\n            uint256 price\r\n        )\r\n    {\r\n        if (ID < 0 || ID >= _products.length) ID = _products.length - 1;\r\n        Product storage p = _products[ID];\r\n        /*Session storage s;\r\n        uint[] memory _prices;\r\n        address[] memory participants;\r\n        // ly phin nh gi cui cng vi sn phm \r\n        for (uint i = _sessions.length - 1; i >= 0; i--) {\r\n            if (_sessions[i].productID == ID) {\r\n                s = _sessions[i];\r\n                _prices = new uint[](s.participants.length);\r\n\r\n                for (uint j = 0; j < s.participants.length; j++) {\r\n                    _prices[j] = s.participant_pricing[s.participants[j]];\r\n                }\r\n                participants = s.participants;\r\n                break;\r\n            }\r\n        }*/\r\n        return (p.id, p.ipfsID, p.price);\r\n    }\r\n\r\n    function getProduct(string memory _ipfsID)\r\n        public\r\n        view\r\n        returns (\r\n            uint256 id,\r\n            string memory ipfsID,\r\n            string memory name,\r\n            uint256 price\r\n        )\r\n    {\r\n        for (uint256 i = 0; i < _products.length; i++) {\r\n            if (\r\n                keccak256(abi.encodePacked((_products[i].ipfsID))) ==\r\n                keccak256(abi.encodePacked((_ipfsID)))\r\n            ) {\r\n                Product storage p = _products[i];\r\n                return (p.id, p.ipfsID, p.name, p.price);\r\n            }\r\n        }\r\n        revert(\"Product is not exist\");\r\n    }\r\n\r\n    function getProducts()\r\n        public\r\n        view\r\n        returns (\r\n            string[] memory ipfsIDs,\r\n            string[] memory names,\r\n            uint256[] memory prices\r\n        )\r\n    {\r\n        string[] memory _ipfsIDs = new string[](_products.length);\r\n        string[] memory _names = new string[](_products.length);\r\n        uint256[] memory _prices = new uint256[](_products.length);\r\n        for (uint256 i = 0; i < _products.length; i++) {\r\n            _ipfsIDs[i] = _products[i].ipfsID;\r\n            _names[i] = _products[i].name;\r\n            _prices[i] = _products[i].price;\r\n        }\r\n        return (_ipfsIDs, _names, _prices);\r\n    }\r\n\r\n    modifier productExist(uint256 ID) {\r\n        require(ID >= 0 && ID < _products.length, \"ID session is not exist\");\r\n        _;\r\n    }\r\n\r\n    modifier sessionExist(uint256 ID) {\r\n        require(ID >= 0 && ID < _sessions.length, \"ID session is not exist\");\r\n        _;\r\n    }\r\n\r\n    // to phin u gi\r\n    function createSession(uint256 productID)\r\n        public\r\n        productExist(productID)\r\n        onlyOwner\r\n        returns (uint256 id)\r\n    {\r\n        Session storage s = _sessions.push();\r\n        s.productID = productID;\r\n        s.state = State.CLOSE;\r\n        s.proposedPrice = 0;\r\n        Product memory p;\r\n        for (uint256 i = 0; i < _products.length; i++) {\r\n            if (_products[i].id == productID) p = _products[i];\r\n        }\r\n        emit onCreatedSession(p, _sessions.length - 1);\r\n        return _sessions.length - 1;\r\n    }\r\n\r\n    function startSession(uint256 ID, uint256 timeout)\r\n        public\r\n        sessionExist(ID)\r\n        onlyOwner\r\n    {\r\n        _sessions[ID].state = State.OPEN;\r\n        _sessions[ID].timeStarted = block.timestamp;\r\n        _sessions[ID].timeout = timeout;\r\n        emit onStartedSession(\r\n            ID,\r\n            _sessions[ID].state,\r\n            _products[_sessions[ID].productID]\r\n        );\r\n    }\r\n\r\n    function closeSession(uint256 ID) public sessionExist(ID) onlyOwner {\r\n        _sessions[ID].state = State.CLOSE;\r\n        emit onClosedSession(\r\n            ID,\r\n            _sessions[ID].state,\r\n            _products[_sessions[ID].productID]\r\n        );\r\n    }\r\n\r\n    function getSessions()\r\n        public\r\n        view\r\n        returns (\r\n            uint256[] memory sessionIDs,\r\n            uint256[] memory productIDs,\r\n            string[] memory ipfsIDs,\r\n            string[] memory names,\r\n            uint256[] memory prices,\r\n            // uint256[] memory proposedPrices,\r\n            State[] memory states,\r\n            uint256[] memory timeStarteds,\r\n            uint256[] memory timeouts\r\n        )\r\n    {\r\n        uint256[] memory _sessionIDs = new uint256[](_sessions.length);\r\n        uint256[] memory _productIDs = new uint256[](_sessions.length);\r\n        string[] memory _ipfsIDs = new string[](_sessions.length);\r\n        string[] memory _names = new string[](_sessions.length);\r\n        uint256[] memory _prices = new uint256[](_sessions.length);\r\n        // uint256[] memory _proposedPrices = new uint256[](_sessions.length);\r\n        State[] memory _states = new State[](_sessions.length);\r\n        uint256[] memory _timeStarteds = new uint256[](_sessions.length);\r\n        uint256[] memory _timeouts = new uint256[](_sessions.length);\r\n        for (uint256 i = 0; i < _sessions.length; i++) {\r\n            _sessionIDs[i] = _sessions[i].id;\r\n            _productIDs[i] = _sessions[i].productID;\r\n            _ipfsIDs[i] = _products[_sessions[i].productID].ipfsID;\r\n            _names[i] = _products[_sessions[i].productID].name;\r\n            _prices[i] = _products[_sessions[i].productID].price;\r\n            // _proposedPrices[i] = _sessions[i].proposedPrice;\r\n            _states[i] = _sessions[i].state;\r\n            _timeStarteds[i] = _sessions[i].timeStarted;\r\n            _timeouts[i] = _sessions[i].timeout;\r\n        }\r\n        return (\r\n            _sessionIDs,\r\n            _productIDs,\r\n            _ipfsIDs,\r\n            _names,\r\n            _prices,\r\n            // _proposedPrices,\r\n            _states,\r\n            _timeStarteds,\r\n            _timeouts\r\n        );\r\n    }\r\n\r\n    function getSession(uint256 id)\r\n        public\r\n        view\r\n        sessionExist(id)\r\n        returns (\r\n            uint256 sessionID,\r\n            uint256 productID,\r\n            string memory ipfsID,\r\n            string memory name,\r\n            uint256 price,\r\n            uint256 proposedPrice,\r\n            State state,\r\n            address[] memory participants,\r\n            uint256[] memory participant_pricings,\r\n            uint256 timeStarted,\r\n            uint256 timeout\r\n        )\r\n    {\r\n        Session storage session = _sessions[id];\r\n        uint256[] memory _participant_pricings = new uint256[](\r\n            session.participants.length\r\n        );\r\n        for (uint256 i = 0; i < session.participants.length; i++) {\r\n            _participant_pricings[i] = session.participant_pricing[\r\n                session.participants[i]\r\n            ];\r\n        }\r\n        return (\r\n            session.id,\r\n            session.productID,\r\n            _products[session.productID].ipfsID,\r\n            _products[session.productID].name,\r\n            _products[session.productID].price,\r\n            session.proposedPrice,\r\n            session.state,\r\n            session.participants,\r\n            _participant_pricings,\r\n            session.timeStarted,\r\n            session.timeout\r\n        );\r\n    }\r\n\r\n    modifier sessionClosed(uint256 sessionID) {\r\n        require(\r\n            _sessions[sessionID].state == State.CLOSE,\r\n            \"Session was not closed\"\r\n        );\r\n        _;\r\n    }\r\n\r\n    function setPrice(\r\n        uint256 sessionID,\r\n        uint256 price,\r\n        uint256 productID\r\n    ) public onlyOwner sessionClosed(sessionID) productExist(productID) {\r\n        _products[productID].price = price;\r\n        uint256 proposedPrice = calcProposedPrice(\r\n            sessionID,\r\n            _products[productID].price,\r\n            price\r\n        );\r\n        _sessions[sessionID].proposedPrice = proposedPrice;\r\n        emit onSetPrice(productID, price, sessionID, proposedPrice);\r\n    }\r\n\r\n    // kim tra vt qu s ngi tham gia nh gi 10\r\n    modifier checkParticipantsLimit(uint256 sessionID) {\r\n        require(\r\n            _sessions[sessionID].participants.length < participantsLimit,\r\n            string.concat(\r\n                \"reached participants limit: \",\r\n                Strings.toString(participantsLimit)\r\n            )\r\n        );\r\n        _;\r\n    }\r\n    // kim tra cn thi hn hay khng\r\n    modifier checkTimeout(uint256 sessionID) {\r\n        if (_sessions[sessionID].timeout > 0)\r\n            require(\r\n                block.timestamp - _sessions[sessionID].timeStarted <\r\n                    _sessions[sessionID].timeout ||\r\n                    _sessions[sessionID].timeout == 0,\r\n                string.concat(\r\n                    \"You've run out of time\",\r\n                    \"-\",\r\n                    Strings.toString(block.timestamp),\r\n                    \"-\",\r\n                    Strings.toString(_sessions[sessionID].timeStarted),\r\n                    \"-\",\r\n                    Strings.toString(_sessions[sessionID].timeout)\r\n                )\r\n            );\r\n        _;\r\n    }\r\n\r\n    function guessPrice(uint256 sessionID, uint256 price)\r\n        public\r\n        sessionExist(sessionID)\r\n        checkParticipantsLimit(sessionID)\r\n        checkTimeout(sessionID)\r\n    {\r\n        Session storage s = _sessions[sessionID];\r\n        require(s.state == State.OPEN, \"Session closed\");\r\n        s.participant_pricing[msg.sender] = price;\r\n\r\n        // nu trong ngi ny  pricing ri th ko a vo danh sch participants\r\n        bool exist = false;\r\n        for (uint256 i = 0; i < s.participants.length; i++) {\r\n            if (s.participants[i] == msg.sender) {\r\n                exist = true;\r\n                break;\r\n            }\r\n        }\r\n        if (!exist) s.participants.push(msg.sender);\r\n        emit onGuessPrice(msg.sender, price, sessionID);\r\n    }\r\n\r\n    /*\r\n        P: The final price\r\n        p: The given price of the participant\r\n        n: number of all participants\r\n    */\r\n    function calc_d_new(uint256 P, uint256 p) public pure returns (uint256) {\r\n        uint256 d_new = (myMath.abs(int256(P - p)) / P) * 100;\r\n        return d_new;\r\n    }\r\n\r\n    function calc_d_i(\r\n        uint256 P_current,\r\n        uint256 P_new,\r\n        uint256 p,\r\n        uint256 n\r\n    ) public pure returns (uint256) {\r\n        uint256 d_current = calc_d_new(P_current, p);\r\n        uint256 d_new = calc_d_new(P_new, p);\r\n        uint256 d = ((d_current * n) + d_new) / (n + 1);\r\n        return d;\r\n    }\r\n\r\n    function calcProposedPrice(\r\n        uint256 sessionID,\r\n        uint256 P_current,\r\n        uint256 P_new\r\n    ) public view returns (uint256) {\r\n        Session storage s = _sessions[sessionID];\r\n        uint256 n = s.participants.length;\r\n        uint256 sum_d_i = 0;\r\n\r\n        // numerator, denominator in formular\r\n        uint256 sum_numerator = 0;\r\n        for (uint256 i = 0; i < n; i++) {\r\n            // gia cua nguoi choi nhap\r\n            uint256 p_i = s.participant_pricing[s.participants[i]];\r\n            // uint price = _products[s.participants[i].productID].price;\r\n            uint256 d_i = calc_d_i(P_current, P_new, p_i, n);\r\n            sum_d_i += d_i;\r\n\r\n            sum_numerator += p_i * (100 - d_i);\r\n        }\r\n\r\n        uint256 proposedPrice = sum_numerator / (100 * n - sum_d_i);\r\n        return proposedPrice;\r\n    }\r\n}\r\n",
  "sourcePath": "D:\\projects\\PricingChain\\contracts\\PricingChain.sol",
  "compiler": {
    "name": "solc",
    "version": "0.8.15+commit.e14f2714.Emscripten.clang"
  },
  "schemaVersion": "3.4.3",
  "updatedAt": "2022-07-20T12:19:50.990Z",
  "networkType": "ethereum",
  "devdoc": {
    "kind": "dev",
    "methods": {
      "owner()": {
        "details": "Returns the address of the current owner."
      },
      "renounceOwnership()": {
        "details": "Leaves the contract without owner. It will not be possible to call `onlyOwner` functions anymore. Can only be called by the current owner. NOTE: Renouncing ownership will leave the contract without an owner, thereby removing any functionality that is only available to the owner."
      },
      "transferOwnership(address)": {
        "details": "Transfers ownership of the contract to a new account (`newOwner`). Can only be called by the current owner."
      }
    },
    "version": 1
  },
  "userdoc": {
    "kind": "user",
    "methods": {},
    "version": 1
  }
}