{
  "contractName": "PricingChain",
  "abi": [
    {
      "inputs": [],
      "stateMutability": "nonpayable",
      "type": "constructor"
    },
    {
      "anonymous": false,
      "inputs": [
        {
          "indexed": true,
          "internalType": "address",
          "name": "previousOwner",
          "type": "address"
        },
        {
          "indexed": true,
          "internalType": "address",
          "name": "newOwner",
          "type": "address"
        }
      ],
      "name": "OwnershipTransferred",
      "type": "event"
    },
    {
      "anonymous": false,
      "inputs": [
        {
          "indexed": false,
          "internalType": "uint256",
          "name": "id",
          "type": "uint256"
        },
        {
          "indexed": false,
          "internalType": "enum PricingChain.State",
          "name": "",
          "type": "uint8"
        },
        {
          "components": [
            {
              "internalType": "uint256",
              "name": "id",
              "type": "uint256"
            },
            {
              "internalType": "string",
              "name": "ipfsID",
              "type": "string"
            },
            {
              "internalType": "string",
              "name": "name",
              "type": "string"
            },
            {
              "internalType": "uint256",
              "name": "price",
              "type": "uint256"
            }
          ],
          "indexed": false,
          "internalType": "struct PricingChain.Product",
          "name": "p",
          "type": "tuple"
        }
      ],
      "name": "onClosedSession",
      "type": "event"
    },
    {
      "anonymous": false,
      "inputs": [
        {
          "components": [
            {
              "internalType": "uint256",
              "name": "id",
              "type": "uint256"
            },
            {
              "internalType": "string",
              "name": "ipfsID",
              "type": "string"
            },
            {
              "internalType": "string",
              "name": "name",
              "type": "string"
            },
            {
              "internalType": "uint256",
              "name": "price",
              "type": "uint256"
            }
          ],
          "indexed": false,
          "internalType": "struct PricingChain.Product",
          "name": "p",
          "type": "tuple"
        },
        {
          "indexed": false,
          "internalType": "uint256",
          "name": "sessionID",
          "type": "uint256"
        }
      ],
      "name": "onCreatedSession",
      "type": "event"
    },
    {
      "anonymous": false,
      "inputs": [
        {
          "indexed": false,
          "internalType": "address",
          "name": "participant",
          "type": "address"
        },
        {
          "indexed": false,
          "internalType": "uint256",
          "name": "price",
          "type": "uint256"
        },
        {
          "indexed": false,
          "internalType": "uint256",
          "name": "sessionID",
          "type": "uint256"
        },
        {
          "indexed": false,
          "internalType": "uint256",
          "name": "numbersOfSessionJoined",
          "type": "uint256"
        },
        {
          "indexed": false,
          "internalType": "uint256",
          "name": "accumulatedDeviation",
          "type": "uint256"
        }
      ],
      "name": "onGuessPrice",
      "type": "event"
    },
    {
      "anonymous": false,
      "inputs": [
        {
          "indexed": false,
          "internalType": "uint256",
          "name": "productID",
          "type": "uint256"
        },
        {
          "indexed": false,
          "internalType": "string",
          "name": "ipfsID",
          "type": "string"
        },
        {
          "indexed": false,
          "internalType": "string",
          "name": "name",
          "type": "string"
        },
        {
          "indexed": false,
          "internalType": "uint256",
          "name": "price",
          "type": "uint256"
        }
      ],
      "name": "onProductAdded",
      "type": "event"
    },
    {
      "anonymous": false,
      "inputs": [
        {
          "indexed": false,
          "internalType": "string",
          "name": "name",
          "type": "string"
        },
        {
          "indexed": false,
          "internalType": "string",
          "name": "email",
          "type": "string"
        },
        {
          "indexed": false,
          "internalType": "address",
          "name": "addr",
          "type": "address"
        }
      ],
      "name": "onRegisted",
      "type": "event"
    },
    {
      "anonymous": false,
      "inputs": [
        {
          "indexed": false,
          "internalType": "uint256",
          "name": "productID",
          "type": "uint256"
        },
        {
          "indexed": false,
          "internalType": "uint256",
          "name": "price",
          "type": "uint256"
        },
        {
          "indexed": false,
          "internalType": "uint256",
          "name": "sessionID",
          "type": "uint256"
        },
        {
          "indexed": false,
          "internalType": "int256",
          "name": "proposedPrice",
          "type": "int256"
        },
        {
          "indexed": false,
          "internalType": "uint256[]",
          "name": "deviationOfParticipants",
          "type": "uint256[]"
        }
      ],
      "name": "onSetPrice",
      "type": "event"
    },
    {
      "anonymous": false,
      "inputs": [
        {
          "indexed": false,
          "internalType": "uint256",
          "name": "id",
          "type": "uint256"
        },
        {
          "indexed": false,
          "internalType": "enum PricingChain.State",
          "name": "",
          "type": "uint8"
        },
        {
          "components": [
            {
              "internalType": "uint256",
              "name": "id",
              "type": "uint256"
            },
            {
              "internalType": "string",
              "name": "ipfsID",
              "type": "string"
            },
            {
              "internalType": "string",
              "name": "name",
              "type": "string"
            },
            {
              "internalType": "uint256",
              "name": "price",
              "type": "uint256"
            }
          ],
          "indexed": false,
          "internalType": "struct PricingChain.Product",
          "name": "p",
          "type": "tuple"
        }
      ],
      "name": "onStartedSession",
      "type": "event"
    },
    {
      "inputs": [
        {
          "internalType": "uint256",
          "name": "",
          "type": "uint256"
        }
      ],
      "name": "_users",
      "outputs": [
        {
          "internalType": "string",
          "name": "name",
          "type": "string"
        },
        {
          "internalType": "string",
          "name": "email",
          "type": "string"
        },
        {
          "internalType": "address",
          "name": "walletAddress",
          "type": "address"
        },
        {
          "internalType": "uint256",
          "name": "accumulatedDeviation",
          "type": "uint256"
        },
        {
          "internalType": "uint256",
          "name": "numbersOfSessionJoined",
          "type": "uint256"
        }
      ],
      "stateMutability": "view",
      "type": "function",
      "constant": true
    },
    {
      "inputs": [],
      "name": "owner",
      "outputs": [
        {
          "internalType": "address",
          "name": "",
          "type": "address"
        }
      ],
      "stateMutability": "view",
      "type": "function",
      "constant": true
    },
    {
      "inputs": [],
      "name": "renounceOwnership",
      "outputs": [],
      "stateMutability": "nonpayable",
      "type": "function"
    },
    {
      "inputs": [
        {
          "internalType": "address",
          "name": "newOwner",
          "type": "address"
        }
      ],
      "name": "transferOwnership",
      "outputs": [],
      "stateMutability": "nonpayable",
      "type": "function"
    },
    {
      "inputs": [
        {
          "internalType": "string",
          "name": "name",
          "type": "string"
        },
        {
          "internalType": "string",
          "name": "email",
          "type": "string"
        }
      ],
      "name": "register",
      "outputs": [
        {
          "internalType": "bool",
          "name": "_exist",
          "type": "bool"
        }
      ],
      "stateMutability": "nonpayable",
      "type": "function"
    },
    {
      "inputs": [
        {
          "internalType": "address",
          "name": "addr",
          "type": "address"
        }
      ],
      "name": "getUser",
      "outputs": [
        {
          "internalType": "string",
          "name": "_name",
          "type": "string"
        },
        {
          "internalType": "string",
          "name": "_email",
          "type": "string"
        },
        {
          "internalType": "address",
          "name": "_walletAddress",
          "type": "address"
        },
        {
          "internalType": "uint256",
          "name": "_accumulatedDeviation",
          "type": "uint256"
        },
        {
          "internalType": "uint256",
          "name": "_numbersOfSessionJoined",
          "type": "uint256"
        }
      ],
      "stateMutability": "view",
      "type": "function",
      "constant": true
    },
    {
      "inputs": [],
      "name": "getUsers",
      "outputs": [
        {
          "internalType": "string[]",
          "name": "_names",
          "type": "string[]"
        },
        {
          "internalType": "string[]",
          "name": "_emails",
          "type": "string[]"
        },
        {
          "internalType": "address[]",
          "name": "_walletAddresses",
          "type": "address[]"
        },
        {
          "internalType": "uint256[]",
          "name": "_accumulatedDeviations",
          "type": "uint256[]"
        },
        {
          "internalType": "uint256[]",
          "name": "_numbersOfSessionJoineds",
          "type": "uint256[]"
        }
      ],
      "stateMutability": "view",
      "type": "function",
      "constant": true
    },
    {
      "inputs": [
        {
          "internalType": "address",
          "name": "user",
          "type": "address"
        },
        {
          "internalType": "uint256",
          "name": "accumulatedDeviation",
          "type": "uint256"
        }
      ],
      "name": "setUserAccumulatedDeviation",
      "outputs": [
        {
          "internalType": "bool",
          "name": "status",
          "type": "bool"
        }
      ],
      "stateMutability": "nonpayable",
      "type": "function"
    },
    {
      "inputs": [
        {
          "internalType": "string",
          "name": "ipfsID",
          "type": "string"
        },
        {
          "internalType": "string",
          "name": "name",
          "type": "string"
        }
      ],
      "name": "addProduct",
      "outputs": [
        {
          "internalType": "uint256",
          "name": "id",
          "type": "uint256"
        }
      ],
      "stateMutability": "nonpayable",
      "type": "function"
    },
    {
      "inputs": [
        {
          "internalType": "uint256",
          "name": "ID",
          "type": "uint256"
        }
      ],
      "name": "getProductByID",
      "outputs": [
        {
          "internalType": "uint256",
          "name": "id",
          "type": "uint256"
        },
        {
          "internalType": "string",
          "name": "ipfsID",
          "type": "string"
        },
        {
          "internalType": "uint256",
          "name": "price",
          "type": "uint256"
        }
      ],
      "stateMutability": "view",
      "type": "function",
      "constant": true
    },
    {
      "inputs": [
        {
          "internalType": "string",
          "name": "_ipfsID",
          "type": "string"
        }
      ],
      "name": "getProduct",
      "outputs": [
        {
          "internalType": "uint256",
          "name": "id",
          "type": "uint256"
        },
        {
          "internalType": "string",
          "name": "ipfsID",
          "type": "string"
        },
        {
          "internalType": "string",
          "name": "name",
          "type": "string"
        },
        {
          "internalType": "uint256",
          "name": "price",
          "type": "uint256"
        }
      ],
      "stateMutability": "view",
      "type": "function",
      "constant": true
    },
    {
      "inputs": [],
      "name": "getProducts",
      "outputs": [
        {
          "internalType": "string[]",
          "name": "ipfsIDs",
          "type": "string[]"
        },
        {
          "internalType": "string[]",
          "name": "names",
          "type": "string[]"
        },
        {
          "internalType": "uint256[]",
          "name": "prices",
          "type": "uint256[]"
        }
      ],
      "stateMutability": "view",
      "type": "function",
      "constant": true
    },
    {
      "inputs": [
        {
          "internalType": "uint256",
          "name": "productID",
          "type": "uint256"
        }
      ],
      "name": "createSession",
      "outputs": [
        {
          "internalType": "uint256",
          "name": "id",
          "type": "uint256"
        }
      ],
      "stateMutability": "nonpayable",
      "type": "function"
    },
    {
      "inputs": [
        {
          "internalType": "uint256",
          "name": "ID",
          "type": "uint256"
        },
        {
          "internalType": "uint256",
          "name": "timeout",
          "type": "uint256"
        }
      ],
      "name": "startSession",
      "outputs": [],
      "stateMutability": "nonpayable",
      "type": "function"
    },
    {
      "inputs": [
        {
          "internalType": "uint256",
          "name": "ID",
          "type": "uint256"
        }
      ],
      "name": "closeSession",
      "outputs": [],
      "stateMutability": "nonpayable",
      "type": "function"
    },
    {
      "inputs": [],
      "name": "getSessions",
      "outputs": [
        {
          "internalType": "uint256[]",
          "name": "sessionIDs",
          "type": "uint256[]"
        },
        {
          "internalType": "uint256[]",
          "name": "productIDs",
          "type": "uint256[]"
        },
        {
          "internalType": "string[]",
          "name": "ipfsIDs",
          "type": "string[]"
        },
        {
          "internalType": "string[]",
          "name": "names",
          "type": "string[]"
        },
        {
          "internalType": "uint256[]",
          "name": "prices",
          "type": "uint256[]"
        },
        {
          "internalType": "enum PricingChain.State[]",
          "name": "states",
          "type": "uint8[]"
        },
        {
          "internalType": "uint256[]",
          "name": "timeStarteds",
          "type": "uint256[]"
        },
        {
          "internalType": "uint256[]",
          "name": "timeouts",
          "type": "uint256[]"
        }
      ],
      "stateMutability": "view",
      "type": "function",
      "constant": true
    },
    {
      "inputs": [
        {
          "internalType": "uint256",
          "name": "id",
          "type": "uint256"
        }
      ],
      "name": "getSession",
      "outputs": [
        {
          "internalType": "uint256",
          "name": "sessionID",
          "type": "uint256"
        },
        {
          "internalType": "uint256",
          "name": "productID",
          "type": "uint256"
        },
        {
          "internalType": "string",
          "name": "ipfsID",
          "type": "string"
        },
        {
          "internalType": "string",
          "name": "name",
          "type": "string"
        },
        {
          "internalType": "uint256",
          "name": "price",
          "type": "uint256"
        },
        {
          "internalType": "int256",
          "name": "proposedPrice",
          "type": "int256"
        },
        {
          "internalType": "enum PricingChain.State",
          "name": "state",
          "type": "uint8"
        },
        {
          "internalType": "address[]",
          "name": "participants",
          "type": "address[]"
        },
        {
          "internalType": "uint256[]",
          "name": "participant_pricings",
          "type": "uint256[]"
        },
        {
          "internalType": "uint256",
          "name": "timeStarted",
          "type": "uint256"
        },
        {
          "internalType": "uint256",
          "name": "timeout",
          "type": "uint256"
        }
      ],
      "stateMutability": "view",
      "type": "function",
      "constant": true
    },
    {
      "inputs": [
        {
          "internalType": "uint256",
          "name": "sessionID",
          "type": "uint256"
        },
        {
          "internalType": "uint256",
          "name": "price",
          "type": "uint256"
        }
      ],
      "name": "setPrice",
      "outputs": [],
      "stateMutability": "nonpayable",
      "type": "function"
    },
    {
      "inputs": [
        {
          "internalType": "uint256",
          "name": "sessionID",
          "type": "uint256"
        },
        {
          "internalType": "uint256",
          "name": "price",
          "type": "uint256"
        }
      ],
      "name": "guessPrice",
      "outputs": [],
      "stateMutability": "nonpayable",
      "type": "function"
    },
    {
      "inputs": [
        {
          "internalType": "address",
          "name": "addr",
          "type": "address"
        }
      ],
      "name": "countSessionJoined",
      "outputs": [
        {
          "internalType": "uint256",
          "name": "",
          "type": "uint256"
        }
      ],
      "stateMutability": "view",
      "type": "function",
      "constant": true
    },
    {
      "inputs": [
        {
          "internalType": "uint256",
          "name": "finalPice",
          "type": "uint256"
        },
        {
          "internalType": "uint256",
          "name": "pricing",
          "type": "uint256"
        }
      ],
      "name": "calc_d_new",
      "outputs": [
        {
          "internalType": "uint256",
          "name": "",
          "type": "uint256"
        }
      ],
      "stateMutability": "pure",
      "type": "function",
      "constant": true
    },
    {
      "inputs": [
        {
          "internalType": "uint256",
          "name": "d_current",
          "type": "uint256"
        },
        {
          "internalType": "uint256",
          "name": "d_new",
          "type": "uint256"
        },
        {
          "internalType": "uint256",
          "name": "n",
          "type": "uint256"
        }
      ],
      "name": "calc_accumulatedDeviation",
      "outputs": [
        {
          "internalType": "uint256",
          "name": "",
          "type": "uint256"
        }
      ],
      "stateMutability": "pure",
      "type": "function",
      "constant": true
    },
    {
      "inputs": [
        {
          "internalType": "uint256",
          "name": "sessionID",
          "type": "uint256"
        }
      ],
      "name": "calc_proposedPrice",
      "outputs": [
        {
          "internalType": "int256",
          "name": "_proposedPrice",
          "type": "int256"
        },
        {
          "internalType": "uint256[]",
          "name": "_deviationOfParticipants",
          "type": "uint256[]"
        }
      ],
      "stateMutability": "view",
      "type": "function",
      "constant": true
    }
  ],
  "bytecode": "0x6080604052600a600060146101000a81548160ff021916908360ff1602179055503480156200002d57600080fd5b506200004e620000426200005460201b60201c565b6200005c60201b60201c565b62000120565b600033905090565b60008060009054906101000a900473ffffffffffffffffffffffffffffffffffffffff169050816000806101000a81548173ffffffffffffffffffffffffffffffffffffffff021916908373ffffffffffffffffffffffffffffffffffffffff1602179055508173ffffffffffffffffffffffffffffffffffffffff168173ffffffffffffffffffffffffffffffffffffffff167f8be0079c531659141344cd1fd0a4f28419497f9722a3daafe3b4186f6b6457e060405160405180910390a35050565b615be580620001306000396000f3fe608060405234801561001057600080fd5b506004361061014c5760003560e01c8063715018a6116100c3578063cc4a43c01161007c578063cc4a43c01461040b578063d29b8e211461043f578063d61a4bf814610470578063f2fde38b1461048c578063f7d97577146104a8578063f847cdde146104c45761014c565b8063715018a6146103475780638da5cb5b14610351578063a3bfdf471461036f578063c0835cbb1461038b578063c29b2f20146103bb578063ca2efb55146103db5761014c565b806339ffb5b21161011557806339ffb5b2146102215780633ffbd47f14610251578063402ff0db1461028157806361503e45146102bb57806368111cce146102e05780636f77926b146103135761014c565b8062ce8e3e146101515780630595a01f1461017357806315883b22146101a5578063323bef49146101c157806334195786146101f1575b600080fd5b6101596104f4565b60405161016a9594939291906141f7565b60405180910390f35b61018d600480360381019061018891906142ad565b610994565b60405161019c93929190614333565b60405180910390f35b6101bf60048036038101906101ba9190614371565b610a94565b005b6101db60048036038101906101d691906143dd565b61105d565b6040516101e8919061440a565b60405180910390f35b61020b60048036038101906102069190614371565b61117b565b604051610218919061440a565b60405180910390f35b61023b60048036038101906102369190614425565b6111d8565b604051610248919061440a565b60405180910390f35b61026b600480360381019061026691906145ad565b611216565b6040516102789190614640565b60405180910390f35b61029b600480360381019061029691906142ad565b61142d565b6040516102b29b9a999897969594939291906146eb565b60405180910390f35b6102c3611848565b6040516102d7989796959493929190614870565b60405180910390f35b6102fa60048036038101906102f59190614926565b611f14565b60405161030a949392919061496f565b60405180910390f35b61032d600480360381019061032891906143dd565b61215a565b60405161033e9594939291906149d1565b60405180910390f35b61034f6123f1565b005b610359612479565b6040516103669190614a32565b60405180910390f35b610389600480360381019061038491906142ad565b6124a2565b005b6103a560048036038101906103a09190614a4d565b612678565b6040516103b29190614640565b60405180910390f35b6103c361280c565b6040516103d293929190614a8d565b60405180910390f35b6103f560048036038101906103f091906145ad565b612b23565b604051610402919061440a565b60405180910390f35b610425600480360381019061042091906142ad565b612d32565b6040516104369594939291906149d1565b60405180910390f35b610459600480360381019061045491906142ad565b612ea8565b604051610467929190614ad9565b60405180910390f35b61048a60048036038101906104859190614371565b613131565b005b6104a660048036038101906104a191906143dd565b61335c565b005b6104c260048036038101906104bd9190614371565b613453565b005b6104de60048036038101906104d991906142ad565b6138ee565b6040516104eb919061440a565b60405180910390f35b6060806060806060600060038054905067ffffffffffffffff81111561051d5761051c614482565b5b60405190808252806020026020018201604052801561055057816020015b606081526020019060019003908161053b5790505b509050600060038054905067ffffffffffffffff81111561057457610573614482565b5b6040519080825280602002602001820160405280156105a757816020015b60608152602001906001900390816105925790505b509050600060038054905067ffffffffffffffff8111156105cb576105ca614482565b5b6040519080825280602002602001820160405280156105f95781602001602082028036833780820191505090505b509050600060038054905067ffffffffffffffff81111561061d5761061c614482565b5b60405190808252806020026020018201604052801561064b5781602001602082028036833780820191505090505b509050600060038054905067ffffffffffffffff81111561066f5761066e614482565b5b60405190808252806020026020018201604052801561069d5781602001602082028036833780820191505090505b50905060005b60038054905081101561097857600381815481106106c4576106c3614b09565b5b906000526020600020906005020160000180546106e090614b67565b80601f016020809104026020016040519081016040528092919081815260200182805461070c90614b67565b80156107595780601f1061072e57610100808354040283529160200191610759565b820191906000526020600020905b81548152906001019060200180831161073c57829003601f168201915b505050505086828151811061077157610770614b09565b5b6020026020010181905250600381815481106107905761078f614b09565b5b906000526020600020906005020160010180546107ac90614b67565b80601f01602080910402602001604051908101604052809291908181526020018280546107d890614b67565b80156108255780601f106107fa57610100808354040283529160200191610825565b820191906000526020600020905b81548152906001019060200180831161080857829003601f168201915b505050505085828151811061083d5761083c614b09565b5b60200260200101819052506003818154811061085c5761085b614b09565b5b906000526020600020906005020160020160009054906101000a900473ffffffffffffffffffffffffffffffffffffffff168482815181106108a1576108a0614b09565b5b602002602001019073ffffffffffffffffffffffffffffffffffffffff16908173ffffffffffffffffffffffffffffffffffffffff1681525050600381815481106108ef576108ee614b09565b5b90600052602060002090600502016003015483828151811061091457610913614b09565b5b6020026020010181815250506003818154811061093457610933614b09565b5b90600052602060002090600502016004015482828151811061095957610958614b09565b5b602002602001018181525050808061097090614bc7565b9150506106a3565b5084848484849950995099509950995050505050509091929394565b600060606000808410806109ad57506001805490508410155b156109c657600180805490506109c39190614c0f565b93505b6000600185815481106109dc576109db614b09565b5b906000526020600020906004020190508060000154816001018260030154818054610a0690614b67565b80601f0160208091040260200160405190810160405280929190818152602001828054610a3290614b67565b8015610a7f5780601f10610a5457610100808354040283529160200191610a7f565b820191906000526020600020905b815481529060010190602001808311610a6257829003601f168201915b50505050509150935093509350509193909250565b8160008110158015610aaa575060028054905081105b610ae9576040517f08c379a0000000000000000000000000000000000000000000000000000000008152600401610ae090614c8f565b60405180910390fd5b82600060149054906101000a900460ff1660ff1660028281548110610b1157610b10614b09565b5b90600052602060002090600a02016003018054905010610b42600060149054906101000a900460ff1660ff16613c4b565b604051602001610b529190614d11565b60405160208183030381529060405290610ba2576040517f08c379a0000000000000000000000000000000000000000000000000000000008152600401610b999190614d37565b60405180910390fd5b5083600060028281548110610bba57610bb9614b09565b5b90600052602060002090600a0201600701541115610d235760028181548110610be657610be5614b09565b5b90600052602060002090600a02016007015460028281548110610c0c57610c0b614b09565b5b90600052602060002090600a02016006015442610c299190614c0f565b1080610c5a5750600060028281548110610c4657610c45614b09565b5b90600052602060002090600a020160070154145b610c6342613c4b565b610c9160028481548110610c7a57610c79614b09565b5b90600052602060002090600a020160060154613c4b565b610cbf60028581548110610ca857610ca7614b09565b5b90600052602060002090600a020160070154613c4b565b604051602001610cd193929190614da5565b60405160208183030381529060405290610d21576040517f08c379a0000000000000000000000000000000000000000000000000000000008152600401610d189190614d37565b60405180910390fd5b505b6000339050600060028781548110610d3e57610d3d614b09565b5b90600052602060002090600a02019050600180811115610d6157610d60614674565b5b8160020160009054906101000a900460ff166001811115610d8557610d84614674565b5b14610dc5576040517f08c379a0000000000000000000000000000000000000000000000000000000008152600401610dbc90614e5e565b60405180910390fd5b858160040160008473ffffffffffffffffffffffffffffffffffffffff1673ffffffffffffffffffffffffffffffffffffffff168152602001908152602001600020819055506000805b8260030180549050811015610ead578373ffffffffffffffffffffffffffffffffffffffff16836003018281548110610e4b57610e4a614b09565b5b9060005260206000200160009054906101000a900473ffffffffffffffffffffffffffffffffffffffff1673ffffffffffffffffffffffffffffffffffffffff1603610e9a5760019150610ead565b8080610ea590614bc7565b915050610e0f565b5080610f195781600301839080600181540180825580915050600190039060005260206000200160009091909190916101000a81548173ffffffffffffffffffffffffffffffffffffffff021916908373ffffffffffffffffffffffffffffffffffffffff1602179055505b6000805b600380549050811015610fed578473ffffffffffffffffffffffffffffffffffffffff1660038281548110610f5557610f54614b09565b5b906000526020600020906005020160020160009054906101000a900473ffffffffffffffffffffffffffffffffffffffff1673ffffffffffffffffffffffffffffffffffffffff1603610fda57610fab8561105d565b60038281548110610fbf57610fbe614b09565b5b90600052602060002090600502016004018190559150610fed565b8080610fe590614bc7565b915050610f1d565b7f5f9d23c3e6e87036c8d4de7b3721596409001b85db4e1811a81f7577f31d4c62858a8c856003868154811061102657611025614b09565b5b906000526020600020906005020160030154604051611049959493929190614e7e565b60405180910390a150505050505050505050565b6000806000905060005b6002805490508110156111715760005b6002828154811061108b5761108a614b09565b5b90600052602060002090600a02016003018054905081101561115d57600282815481106110bb576110ba614b09565b5b90600052602060002090600a020160030181815481106110de576110dd614b09565b5b9060005260206000200160009054906101000a900473ffffffffffffffffffffffffffffffffffffffff1673ffffffffffffffffffffffffffffffffffffffff168573ffffffffffffffffffffffffffffffffffffffff160361114a57828061114690614bc7565b9350505b808061115590614bc7565b915050611077565b50808061116990614bc7565b915050611067565b5080915050919050565b600080830361118d57600090506111d2565b60006064848486116111aa5785856111a59190614c0f565b6111b7565b84866111b69190614c0f565b5b6111c19190614f00565b6111cb9190614f31565b9050809150505b92915050565b6000806001836111e89190614f8b565b8484876111f59190614f31565b6111ff9190614f8b565b6112099190614f00565b9050809150509392505050565b6000803390506000805b60038054905081101561134d576003818154811061124157611240614b09565b5b906000526020600020906005020160020160009054906101000a900473ffffffffffffffffffffffffffffffffffffffff1673ffffffffffffffffffffffffffffffffffffffff168373ffffffffffffffffffffffffffffffffffffffff160361133a57600191506000600382815481106112bf576112be614b09565b5b90600052602060002090600502019050868160000190816112e0919061518d565b50858160010190816112f2919061518d565b507f701184af4d14416de5ff7d43137039f8b4c7bc895af73d47ec2f8196e18feaa98787866040516113269392919061525f565b60405180910390a182945050505050611427565b808061134590614bc7565b915050611220565b50806114245760006003600181600181540180825580915050039060005260206000209060050201905085816000019081611388919061518d565b508481600101908161139a919061518d565b50828160020160006101000a81548173ffffffffffffffffffffffffffffffffffffffff021916908373ffffffffffffffffffffffffffffffffffffffff1602179055507f701184af4d14416de5ff7d43137039f8b4c7bc895af73d47ec2f8196e18feaa98686856040516114119392919061525f565b60405180910390a1819350505050611427565b50505b92915050565b60008060608060008060006060806000808b60008110158015611454575060028054905081105b611493576040517f08c379a000000000000000000000000000000000000000000000000000000000815260040161148a90614c8f565b60405180910390fd5b600060028e815481106114a9576114a8614b09565b5b90600052602060002090600a020190506000816003018054905067ffffffffffffffff8111156114dc576114db614482565b5b60405190808252806020026020018201604052801561150a5781602001602082028036833780820191505090505b50905060005b82600301805490508110156115d35782600401600084600301838154811061153b5761153a614b09565b5b9060005260206000200160009054906101000a900473ffffffffffffffffffffffffffffffffffffffff1673ffffffffffffffffffffffffffffffffffffffff1673ffffffffffffffffffffffffffffffffffffffff168152602001908152602001600020548282815181106115b4576115b3614b09565b5b60200260200101818152505080806115cb90614bc7565b915050611510565b508160000154826001015460018460010154815481106115f6576115f5614b09565b5b9060005260206000209060040201600101600185600101548154811061161f5761161e614b09565b5b9060005260206000209060040201600201600186600101548154811061164857611647614b09565b5b90600052602060002090600402016003015486600801548760020160009054906101000a900460ff1688600301888a600601548b6007015488805461168c90614b67565b80601f01602080910402602001604051908101604052809291908181526020018280546116b890614b67565b80156117055780601f106116da57610100808354040283529160200191611705565b820191906000526020600020905b8154815290600101906020018083116116e857829003601f168201915b5050505050985087805461171890614b67565b80601f016020809104026020016040519081016040528092919081815260200182805461174490614b67565b80156117915780601f1061176657610100808354040283529160200191611791565b820191906000526020600020905b81548152906001019060200180831161177457829003601f168201915b505050505097508380548060200260200160405190810160405280929190818152602001828054801561181957602002820191906000526020600020905b8160009054906101000a900473ffffffffffffffffffffffffffffffffffffffff1673ffffffffffffffffffffffffffffffffffffffff16815260200190600101908083116117cf575b505050505093509d509d509d509d509d509d509d509d509d509d509d5050505091939597999b90929496989a50565b606080606080606080606080600060028054905067ffffffffffffffff81111561187557611874614482565b5b6040519080825280602002602001820160405280156118a35781602001602082028036833780820191505090505b509050600060028054905067ffffffffffffffff8111156118c7576118c6614482565b5b6040519080825280602002602001820160405280156118f55781602001602082028036833780820191505090505b509050600060028054905067ffffffffffffffff81111561191957611918614482565b5b60405190808252806020026020018201604052801561194c57816020015b60608152602001906001900390816119375790505b509050600060028054905067ffffffffffffffff8111156119705761196f614482565b5b6040519080825280602002602001820160405280156119a357816020015b606081526020019060019003908161198e5790505b509050600060028054905067ffffffffffffffff8111156119c7576119c6614482565b5b6040519080825280602002602001820160405280156119f55781602001602082028036833780820191505090505b509050600060028054905067ffffffffffffffff811115611a1957611a18614482565b5b604051908082528060200260200182016040528015611a475781602001602082028036833780820191505090505b509050600060028054905067ffffffffffffffff811115611a6b57611a6a614482565b5b604051908082528060200260200182016040528015611a995781602001602082028036833780820191505090505b509050600060028054905067ffffffffffffffff811115611abd57611abc614482565b5b604051908082528060200260200182016040528015611aeb5781602001602082028036833780820191505090505b50905060005b600280549050811015611ee95760028181548110611b1257611b11614b09565b5b90600052602060002090600a020160000154898281518110611b3757611b36614b09565b5b60200260200101818152505060028181548110611b5757611b56614b09565b5b90600052602060002090600a020160010154888281518110611b7c57611b7b614b09565b5b602002602001018181525050600160028281548110611b9e57611b9d614b09565b5b90600052602060002090600a02016001015481548110611bc157611bc0614b09565b5b90600052602060002090600402016001018054611bdd90614b67565b80601f0160208091040260200160405190810160405280929190818152602001828054611c0990614b67565b8015611c565780601f10611c2b57610100808354040283529160200191611c56565b820191906000526020600020905b815481529060010190602001808311611c3957829003601f168201915b5050505050878281518110611c6e57611c6d614b09565b5b6020026020010181905250600160028281548110611c8f57611c8e614b09565b5b90600052602060002090600a02016001015481548110611cb257611cb1614b09565b5b90600052602060002090600402016002018054611cce90614b67565b80601f0160208091040260200160405190810160405280929190818152602001828054611cfa90614b67565b8015611d475780601f10611d1c57610100808354040283529160200191611d47565b820191906000526020600020905b815481529060010190602001808311611d2a57829003601f168201915b5050505050868281518110611d5f57611d5e614b09565b5b6020026020010181905250600160028281548110611d8057611d7f614b09565b5b90600052602060002090600a02016001015481548110611da357611da2614b09565b5b906000526020600020906004020160030154858281518110611dc857611dc7614b09565b5b60200260200101818152505060028181548110611de857611de7614b09565b5b90600052602060002090600a020160020160009054906101000a900460ff16848281518110611e1a57611e19614b09565b5b60200260200101906001811115611e3457611e33614674565b5b90816001811115611e4857611e47614674565b5b8152505060028181548110611e6057611e5f614b09565b5b90600052602060002090600a020160060154838281518110611e8557611e84614b09565b5b60200260200101818152505060028181548110611ea557611ea4614b09565b5b90600052602060002090600a020160070154828281518110611eca57611ec9614b09565b5b6020026020010181815250508080611ee190614bc7565b915050611af1565b5087878787878787879f509f509f509f509f509f509f509f5050505050505050509091929394959697565b6000606080600080600090505b6001805490508110156121175785604051602001611f3f91906152a4565b6040516020818303038152906040528051906020012060018281548110611f6957611f68614b09565b5b9060005260206000209060040201600101604051602001611f8a919061533e565b604051602081830303815290604052805190602001200361210457600060018281548110611fbb57611fba614b09565b5b90600052602060002090600402019050806000015481600101826002018360030154828054611fe990614b67565b80601f016020809104026020016040519081016040528092919081815260200182805461201590614b67565b80156120625780601f1061203757610100808354040283529160200191612062565b820191906000526020600020905b81548152906001019060200180831161204557829003601f168201915b5050505050925081805461207590614b67565b80601f01602080910402602001604051908101604052809291908181526020018280546120a190614b67565b80156120ee5780601f106120c3576101008083540402835291602001916120ee565b820191906000526020600020905b8154815290600101906020018083116120d157829003601f168201915b5050505050915095509550955095505050612153565b808061210f90614bc7565b915050611f21565b506040517f08c379a000000000000000000000000000000000000000000000000000000000815260040161214a906153a1565b60405180910390fd5b9193509193565b606080600080600061216a613e77565b60005b6003805490508110156123c3578773ffffffffffffffffffffffffffffffffffffffff16600382815481106121a5576121a4614b09565b5b906000526020600020906005020160020160009054906101000a900473ffffffffffffffffffffffffffffffffffffffff1673ffffffffffffffffffffffffffffffffffffffff16036123b0576003818154811061220657612205614b09565b5b90600052602060002090600502016040518060a001604052908160008201805461222f90614b67565b80601f016020809104026020016040519081016040528092919081815260200182805461225b90614b67565b80156122a85780601f1061227d576101008083540402835291602001916122a8565b820191906000526020600020905b81548152906001019060200180831161228b57829003601f168201915b505050505081526020016001820180546122c190614b67565b80601f01602080910402602001604051908101604052809291908181526020018280546122ed90614b67565b801561233a5780601f1061230f5761010080835404028352916020019161233a565b820191906000526020600020905b81548152906001019060200180831161231d57829003601f168201915b505050505081526020016002820160009054906101000a900473ffffffffffffffffffffffffffffffffffffffff1673ffffffffffffffffffffffffffffffffffffffff1673ffffffffffffffffffffffffffffffffffffffff1681526020016003820154815260200160048201548152505091505b80806123bb90614bc7565b91505061216d565b5080600001518160200151826040015183606001518460800151955095509550955095505091939590929450565b6123f9613dab565b73ffffffffffffffffffffffffffffffffffffffff16612417612479565b73ffffffffffffffffffffffffffffffffffffffff161461246d576040517f08c379a00000000000000000000000000000000000000000000000000000000081526004016124649061540d565b60405180910390fd5b6124776000613db3565b565b60008060009054906101000a900473ffffffffffffffffffffffffffffffffffffffff16905090565b80600081101580156124b8575060028054905081105b6124f7576040517f08c379a00000000000000000000000000000000000000000000000000000000081526004016124ee90614c8f565b60405180910390fd5b6124ff613dab565b73ffffffffffffffffffffffffffffffffffffffff1661251d612479565b73ffffffffffffffffffffffffffffffffffffffff1614612573576040517f08c379a000000000000000000000000000000000000000000000000000000000815260040161256a9061540d565b60405180910390fd5b60006002838154811061258957612588614b09565b5b90600052602060002090600a020160020160006101000a81548160ff021916908360018111156125bc576125bb614674565b5b02179055507f345d397bdfa4f2d3d5282017eff932d0ed125d73664f138ad64b957f3154092a82600284815481106125f7576125f6614b09565b5b90600052602060002090600a020160020160009054906101000a900460ff1660016002868154811061262c5761262b614b09565b5b90600052602060002090600a0201600101548154811061264f5761264e614b09565b5b906000526020600020906004020160405161266c93929190615562565b60405180910390a15050565b6000612682613dab565b73ffffffffffffffffffffffffffffffffffffffff166126a0612479565b73ffffffffffffffffffffffffffffffffffffffff16146126f6576040517f08c379a00000000000000000000000000000000000000000000000000000000081526004016126ed9061540d565b60405180910390fd5b60005b600380549050811015612800578373ffffffffffffffffffffffffffffffffffffffff166003828154811061273157612730614b09565b5b906000526020600020906005020160020160009054906101000a900473ffffffffffffffffffffffffffffffffffffffff1673ffffffffffffffffffffffffffffffffffffffff16036127ed57826003828154811061279357612792614b09565b5b906000526020600020906005020160030181905550600381815481106127bc576127bb614b09565b5b906000526020600020906005020160040160008154809291906127de90614bc7565b91905055506001915050612806565b80806127f890614bc7565b9150506126f9565b50600090505b92915050565b6060806060600060018054905067ffffffffffffffff81111561283257612831614482565b5b60405190808252806020026020018201604052801561286557816020015b60608152602001906001900390816128505790505b509050600060018054905067ffffffffffffffff81111561288957612888614482565b5b6040519080825280602002602001820160405280156128bc57816020015b60608152602001906001900390816128a75790505b509050600060018054905067ffffffffffffffff8111156128e0576128df614482565b5b60405190808252806020026020018201604052801561290e5781602001602082028036833780820191505090505b50905060005b600180549050811015612b11576001818154811061293557612934614b09565b5b9060005260206000209060040201600101805461295190614b67565b80601f016020809104026020016040519081016040528092919081815260200182805461297d90614b67565b80156129ca5780601f1061299f576101008083540402835291602001916129ca565b820191906000526020600020905b8154815290600101906020018083116129ad57829003601f168201915b50505050508482815181106129e2576129e1614b09565b5b602002602001018190525060018181548110612a0157612a00614b09565b5b90600052602060002090600402016002018054612a1d90614b67565b80601f0160208091040260200160405190810160405280929190818152602001828054612a4990614b67565b8015612a965780601f10612a6b57610100808354040283529160200191612a96565b820191906000526020600020905b815481529060010190602001808311612a7957829003601f168201915b5050505050838281518110612aae57612aad614b09565b5b602002602001018190525060018181548110612acd57612acc614b09565b5b906000526020600020906004020160030154828281518110612af257612af1614b09565b5b6020026020010181815250508080612b0990614bc7565b915050612914565b50828282955095509550505050909192565b6000612b2d613dab565b73ffffffffffffffffffffffffffffffffffffffff16612b4b612479565b73ffffffffffffffffffffffffffffffffffffffff1614612ba1576040517f08c379a0000000000000000000000000000000000000000000000000000000008152600401612b989061540d565b60405180910390fd5b8260005b600180549050811015612c775781604051602001612bc391906152a4565b6040516020818303038152906040528051906020012060018281548110612bed57612bec614b09565b5b9060005260206000209060040201600101604051602001612c0e919061533e565b6040516020818303038152906040528051906020012003612c64576040517f08c379a0000000000000000000000000000000000000000000000000000000008152600401612c5b906155ec565b60405180910390fd5b8080612c6f90614bc7565b915050612ba5565b50600060018081600181540180825580915050039060005260206000209060040201905060018080549050612cac9190614c0f565b816000018190555084816001019081612cc5919061518d565b5083816002019081612cd7919061518d565b507f8068f99c05fd8a698b784ed43ce51445a66f90ff68fcbc126d6591e9f86ec07c816000015482600101836002018460030154604051612d1b9493929190615690565b60405180910390a180600001549250505092915050565b60038181548110612d4257600080fd5b9060005260206000209060050201600091509050806000018054612d6590614b67565b80601f0160208091040260200160405190810160405280929190818152602001828054612d9190614b67565b8015612dde5780601f10612db357610100808354040283529160200191612dde565b820191906000526020600020905b815481529060010190602001808311612dc157829003601f168201915b505050505090806001018054612df390614b67565b80601f0160208091040260200160405190810160405280929190818152602001828054612e1f90614b67565b8015612e6c5780601f10612e4157610100808354040283529160200191612e6c565b820191906000526020600020905b815481529060010190602001808311612e4f57829003601f168201915b5050505050908060020160009054906101000a900473ffffffffffffffffffffffffffffffffffffffff16908060030154908060040154905085565b600060608260008110158015612ec2575060028054905081105b612f01576040517f08c379a0000000000000000000000000000000000000000000000000000000008152600401612ef890614c8f565b60405180910390fd5b600060028581548110612f1757612f16614b09565b5b90600052602060002090600a020160030180549050905060008060008367ffffffffffffffff811115612f4d57612f4c614482565b5b604051908082528060200260200182016040528015612f7b5781602001602082028036833780820191505090505b509050600060028981548110612f9457612f93614b09565b5b90600052602060002090600a020160090154905060005b858110156130f157600060028b81548110612fc957612fc8614b09565b5b90600052602060002090600a0201600401600060028d81548110612ff057612fef614b09565b5b90600052602060002090600a0201600301848154811061301357613012614b09565b5b9060005260206000200160009054906101000a900473ffffffffffffffffffffffffffffffffffffffff1673ffffffffffffffffffffffffffffffffffffffff1673ffffffffffffffffffffffffffffffffffffffff1681526020019081526020016000205490506000613087848361117b565b90508085848151811061309d5761309c614b09565b5b60200260200101818152505080876130b59190614f8b565b96508060646130c491906156e3565b826130cf9190615777565b866130da919061588e565b9550505080806130e990614bc7565b915050612fab565b506000848660646131029190615777565b61310c91906156e3565b90506000818561311c9190615922565b90508084995099505050505050505050915091565b8160008110158015613147575060028054905081105b613186576040517f08c379a000000000000000000000000000000000000000000000000000000000815260040161317d90614c8f565b60405180910390fd5b61318e613dab565b73ffffffffffffffffffffffffffffffffffffffff166131ac612479565b73ffffffffffffffffffffffffffffffffffffffff1614613202576040517f08c379a00000000000000000000000000000000000000000000000000000000081526004016131f99061540d565b60405180910390fd5b60016002848154811061321857613217614b09565b5b90600052602060002090600a020160020160006101000a81548160ff0219169083600181111561324b5761324a614674565b5b0217905550426002848154811061326557613264614b09565b5b90600052602060002090600a020160060181905550816002848154811061328f5761328e614b09565b5b90600052602060002090600a0201600701819055507fd55a4f4210056086ae4c4b2cd9f0b30e2fc72fd80ada93ca8b57bac1177bffde83600285815481106132da576132d9614b09565b5b90600052602060002090600a020160020160009054906101000a900460ff1660016002878154811061330f5761330e614b09565b5b90600052602060002090600a0201600101548154811061333257613331614b09565b5b906000526020600020906004020160405161334f93929190615562565b60405180910390a1505050565b613364613dab565b73ffffffffffffffffffffffffffffffffffffffff16613382612479565b73ffffffffffffffffffffffffffffffffffffffff16146133d8576040517f08c379a00000000000000000000000000000000000000000000000000000000081526004016133cf9061540d565b60405180910390fd5b600073ffffffffffffffffffffffffffffffffffffffff168173ffffffffffffffffffffffffffffffffffffffff1603613447576040517f08c379a000000000000000000000000000000000000000000000000000000000815260040161343e906159fe565b60405180910390fd5b61345081613db3565b50565b61345b613dab565b73ffffffffffffffffffffffffffffffffffffffff16613479612479565b73ffffffffffffffffffffffffffffffffffffffff16146134cf576040517f08c379a00000000000000000000000000000000000000000000000000000000081526004016134c69061540d565b60405180910390fd5b81600060018111156134e4576134e3614674565b5b600282815481106134f8576134f7614b09565b5b90600052602060002090600a020160020160009054906101000a900460ff16600181111561352957613528614674565b5b14613569576040517f08c379a000000000000000000000000000000000000000000000000000000000815260040161356090615a6a565b60405180910390fd5b6002838154811061357d5761357c614b09565b5b90600052602060002090600a020160010154600081101580156135a4575060018054905081105b6135e3576040517f08c379a00000000000000000000000000000000000000000000000000000000081526004016135da90614c8f565b60405180910390fd5b6000600285815481106135f9576135f8614b09565b5b90600052602060002090600a0201600101549050836001828154811061362257613621614b09565b5b90600052602060002090600402016003018190555060006002868154811061364d5761364c614b09565b5b90600052602060002090600a0201905084816009018190555060008061367288612ea8565b9150915081836008018190555060005b815181101561373e5781818151811061369e5761369d614b09565b5b60200260200101518460050160008660030184815481106136c2576136c1614b09565b5b9060005260206000200160009054906101000a900473ffffffffffffffffffffffffffffffffffffffff1673ffffffffffffffffffffffffffffffffffffffff1673ffffffffffffffffffffffffffffffffffffffff16815260200190815260200160002081905550808061373690614bc7565b915050613682565b5060005b83600301805490508110156138a45760006137de8986600401600088600301868154811061377357613772614b09565b5b9060005260206000200160009054906101000a900473ffffffffffffffffffffffffffffffffffffffff1673ffffffffffffffffffffffffffffffffffffffff1673ffffffffffffffffffffffffffffffffffffffff1681526020019081526020016000205461117b565b905060008061382c8760030185815481106137fc576137fb614b09565b5b9060005260206000200160009054906101000a900473ffffffffffffffffffffffffffffffffffffffff1661215a565b9450945050505060006138408385846111d8565b905061388c88600301868154811061385b5761385a614b09565b5b9060005260206000200160009054906101000a900473ffffffffffffffffffffffffffffffffffffffff1682612678565b5050505050808061389c90614bc7565b915050613742565b507f98b36ee88a9e0f508dbe2980caf8744d83894b6ec268031f30b148c4c763430784888a85856040516138dc959493929190615a8a565b60405180910390a15050505050505050565b60008160008110158015613906575060018054905081105b613945576040517f08c379a000000000000000000000000000000000000000000000000000000000815260040161393c90614c8f565b60405180910390fd5b61394d613dab565b73ffffffffffffffffffffffffffffffffffffffff1661396b612479565b73ffffffffffffffffffffffffffffffffffffffff16146139c1576040517f08c379a00000000000000000000000000000000000000000000000000000000081526004016139b89061540d565b60405180910390fd5b600060026001816001815401808255809150500390600052602060002090600a0201905083816001018190555060008160020160006101000a81548160ff02191690836001811115613a1657613a15614674565b5b021790555060008160080181905550613a2d613ebc565b60005b600180549050811015613be4578560018281548110613a5257613a51614b09565b5b90600052602060002090600402016000015403613bd15760018181548110613a7d57613a7c614b09565b5b906000526020600020906004020160405180608001604052908160008201548152602001600182018054613ab090614b67565b80601f0160208091040260200160405190810160405280929190818152602001828054613adc90614b67565b8015613b295780601f10613afe57610100808354040283529160200191613b29565b820191906000526020600020905b815481529060010190602001808311613b0c57829003601f168201915b50505050508152602001600282018054613b4290614b67565b80601f0160208091040260200160405190810160405280929190818152602001828054613b6e90614b67565b8015613bbb5780601f10613b9057610100808354040283529160200191613bbb565b820191906000526020600020905b815481529060010190602001808311613b9e57829003601f168201915b5050505050815260200160038201548152505091505b8080613bdc90614bc7565b915050613a30565b507f9887df6b5f7c48fc3815191894f4c61c05f6327db6b6eaaaee1325d1bde4c530816001600280549050613c199190614c0f565b604051613c27929190615b4e565b60405180910390a16001600280549050613c419190614c0f565b9350505050919050565b606060008203613c92576040518060400160405280600181526020017f30000000000000000000000000000000000000000000000000000000000000008152509050613da6565b600082905060005b60008214613cc4578080613cad90614bc7565b915050600a82613cbd9190614f00565b9150613c9a565b60008167ffffffffffffffff811115613ce057613cdf614482565b5b6040519080825280601f01601f191660200182016040528015613d125781602001600182028036833780820191505090505b5090505b60008514613d9f57600182613d2b9190614c0f565b9150600a85613d3a9190615b7e565b6030613d469190614f8b565b60f81b818381518110613d5c57613d5b614b09565b5b60200101907effffffffffffffffffffffffffffffffffffffffffffffffffffffffffffff1916908160001a905350600a85613d989190614f00565b9450613d16565b8093505050505b919050565b600033905090565b60008060009054906101000a900473ffffffffffffffffffffffffffffffffffffffff169050816000806101000a81548173ffffffffffffffffffffffffffffffffffffffff021916908373ffffffffffffffffffffffffffffffffffffffff1602179055508173ffffffffffffffffffffffffffffffffffffffff168173ffffffffffffffffffffffffffffffffffffffff167f8be0079c531659141344cd1fd0a4f28419497f9722a3daafe3b4186f6b6457e060405160405180910390a35050565b6040518060a001604052806060815260200160608152602001600073ffffffffffffffffffffffffffffffffffffffff16815260200160008152602001600081525090565b6040518060800160405280600081526020016060815260200160608152602001600081525090565b600081519050919050565b600082825260208201905092915050565b6000819050602082019050919050565b600081519050919050565b600082825260208201905092915050565b60005b83811015613f4a578082015181840152602081019050613f2f565b83811115613f59576000848401525b50505050565b6000601f19601f8301169050919050565b6000613f7b82613f10565b613f858185613f1b565b9350613f95818560208601613f2c565b613f9e81613f5f565b840191505092915050565b6000613fb58383613f70565b905092915050565b6000602082019050919050565b6000613fd582613ee4565b613fdf8185613eef565b935083602082028501613ff185613f00565b8060005b8581101561402d578484038952815161400e8582613fa9565b945061401983613fbd565b925060208a01995050600181019050613ff5565b50829750879550505050505092915050565b600081519050919050565b600082825260208201905092915050565b6000819050602082019050919050565b600073ffffffffffffffffffffffffffffffffffffffff82169050919050565b60006140968261406b565b9050919050565b6140a68161408b565b82525050565b60006140b8838361409d565b60208301905092915050565b6000602082019050919050565b60006140dc8261403f565b6140e6818561404a565b93506140f18361405b565b8060005b8381101561412257815161410988826140ac565b9750614114836140c4565b9250506001810190506140f5565b5085935050505092915050565b600081519050919050565b600082825260208201905092915050565b6000819050602082019050919050565b6000819050919050565b61416e8161415b565b82525050565b60006141808383614165565b60208301905092915050565b6000602082019050919050565b60006141a48261412f565b6141ae818561413a565b93506141b98361414b565b8060005b838110156141ea5781516141d18882614174565b97506141dc8361418c565b9250506001810190506141bd565b5085935050505092915050565b600060a08201905081810360008301526142118188613fca565b905081810360208301526142258187613fca565b9050818103604083015261423981866140d1565b9050818103606083015261424d8185614199565b905081810360808301526142618184614199565b90509695505050505050565b6000604051905090565b600080fd5b600080fd5b61428a8161415b565b811461429557600080fd5b50565b6000813590506142a781614281565b92915050565b6000602082840312156142c3576142c2614277565b5b60006142d184828501614298565b91505092915050565b6142e38161415b565b82525050565b600082825260208201905092915050565b600061430582613f10565b61430f81856142e9565b935061431f818560208601613f2c565b61432881613f5f565b840191505092915050565b600060608201905061434860008301866142da565b818103602083015261435a81856142fa565b905061436960408301846142da565b949350505050565b6000806040838503121561438857614387614277565b5b600061439685828601614298565b92505060206143a785828601614298565b9150509250929050565b6143ba8161408b565b81146143c557600080fd5b50565b6000813590506143d7816143b1565b92915050565b6000602082840312156143f3576143f2614277565b5b6000614401848285016143c8565b91505092915050565b600060208201905061441f60008301846142da565b92915050565b60008060006060848603121561443e5761443d614277565b5b600061444c86828701614298565b935050602061445d86828701614298565b925050604061446e86828701614298565b9150509250925092565b600080fd5b600080fd5b7f4e487b7100000000000000000000000000000000000000000000000000000000600052604160045260246000fd5b6144ba82613f5f565b810181811067ffffffffffffffff821117156144d9576144d8614482565b5b80604052505050565b60006144ec61426d565b90506144f882826144b1565b919050565b600067ffffffffffffffff82111561451857614517614482565b5b61452182613f5f565b9050602081019050919050565b82818337600083830152505050565b600061455061454b846144fd565b6144e2565b90508281526020810184848401111561456c5761456b61447d565b5b61457784828561452e565b509392505050565b600082601f83011261459457614593614478565b5b81356145a484826020860161453d565b91505092915050565b600080604083850312156145c4576145c3614277565b5b600083013567ffffffffffffffff8111156145e2576145e161427c565b5b6145ee8582860161457f565b925050602083013567ffffffffffffffff81111561460f5761460e61427c565b5b61461b8582860161457f565b9150509250929050565b60008115159050919050565b61463a81614625565b82525050565b60006020820190506146556000830184614631565b92915050565b6000819050919050565b61466e8161465b565b82525050565b7f4e487b7100000000000000000000000000000000000000000000000000000000600052602160045260246000fd5b600281106146b4576146b3614674565b5b50565b60008190506146c5826146a3565b919050565b60006146d5826146b7565b9050919050565b6146e5816146ca565b82525050565b600061016082019050614701600083018e6142da565b61470e602083018d6142da565b8181036040830152614720818c6142fa565b90508181036060830152614734818b6142fa565b9050614743608083018a6142da565b61475060a0830189614665565b61475d60c08301886146dc565b81810360e083015261476f81876140d1565b90508181036101008301526147848186614199565b90506147946101208301856142da565b6147a26101408301846142da565b9c9b505050505050505050505050565b600081519050919050565b600082825260208201905092915050565b6000819050602082019050919050565b6147e7816146ca565b82525050565b60006147f983836147de565b60208301905092915050565b6000602082019050919050565b600061481d826147b2565b61482781856147bd565b9350614832836147ce565b8060005b8381101561486357815161484a88826147ed565b975061485583614805565b925050600181019050614836565b5085935050505092915050565b600061010082019050818103600083015261488b818b614199565b9050818103602083015261489f818a614199565b905081810360408301526148b38189613fca565b905081810360608301526148c78188613fca565b905081810360808301526148db8187614199565b905081810360a08301526148ef8186614812565b905081810360c08301526149038185614199565b905081810360e08301526149178184614199565b90509998505050505050505050565b60006020828403121561493c5761493b614277565b5b600082013567ffffffffffffffff81111561495a5761495961427c565b5b6149668482850161457f565b91505092915050565b600060808201905061498460008301876142da565b818103602083015261499681866142fa565b905081810360408301526149aa81856142fa565b90506149b960608301846142da565b95945050505050565b6149cb8161408b565b82525050565b600060a08201905081810360008301526149eb81886142fa565b905081810360208301526149ff81876142fa565b9050614a0e60408301866149c2565b614a1b60608301856142da565b614a2860808301846142da565b9695505050505050565b6000602082019050614a4760008301846149c2565b92915050565b60008060408385031215614a6457614a63614277565b5b6000614a72858286016143c8565b9250506020614a8385828601614298565b9150509250929050565b60006060820190508181036000830152614aa78186613fca565b90508181036020830152614abb8185613fca565b90508181036040830152614acf8184614199565b9050949350505050565b6000604082019050614aee6000830185614665565b8181036020830152614b008184614199565b90509392505050565b7f4e487b7100000000000000000000000000000000000000000000000000000000600052603260045260246000fd5b7f4e487b7100000000000000000000000000000000000000000000000000000000600052602260045260246000fd5b60006002820490506001821680614b7f57607f821691505b602082108103614b9257614b91614b38565b5b50919050565b7f4e487b7100000000000000000000000000000000000000000000000000000000600052601160045260246000fd5b6000614bd28261415b565b91507fffffffffffffffffffffffffffffffffffffffffffffffffffffffffffffffff8203614c0457614c03614b98565b5b600182019050919050565b6000614c1a8261415b565b9150614c258361415b565b925082821015614c3857614c37614b98565b5b828203905092915050565b7f49442073657373696f6e206973206e6f74206578697374000000000000000000600082015250565b6000614c796017836142e9565b9150614c8482614c43565b602082019050919050565b60006020820190508181036000830152614ca881614c6c565b9050919050565b7f72656163686564207061727469636970616e7473206c696d69743a2000000000815250565b600081905092915050565b6000614ceb82613f10565b614cf58185614cd5565b9350614d05818560208601613f2c565b80840191505092915050565b6000614d1c82614caf565b601c82019150614d2c8284614ce0565b915081905092915050565b60006020820190508181036000830152614d5181846142fa565b905092915050565b7f596f752776652072756e206f7574206f662074696d6500000000000000000000815250565b7f2d00000000000000000000000000000000000000000000000000000000000000815250565b6000614db082614d59565b601682019150614dbf82614d7f565b600182019150614dcf8286614ce0565b9150614dda82614d7f565b600182019150614dea8285614ce0565b9150614df582614d7f565b600182019150614e058284614ce0565b9150819050949350505050565b7f53657373696f6e20636c6f736564000000000000000000000000000000000000600082015250565b6000614e48600e836142e9565b9150614e5382614e12565b602082019050919050565b60006020820190508181036000830152614e7781614e3b565b9050919050565b600060a082019050614e9360008301886149c2565b614ea060208301876142da565b614ead60408301866142da565b614eba60608301856142da565b614ec760808301846142da565b9695505050505050565b7f4e487b7100000000000000000000000000000000000000000000000000000000600052601260045260246000fd5b6000614f0b8261415b565b9150614f168361415b565b925082614f2657614f25614ed1565b5b828204905092915050565b6000614f3c8261415b565b9150614f478361415b565b9250817fffffffffffffffffffffffffffffffffffffffffffffffffffffffffffffffff0483118215151615614f8057614f7f614b98565b5b828202905092915050565b6000614f968261415b565b9150614fa18361415b565b9250827fffffffffffffffffffffffffffffffffffffffffffffffffffffffffffffffff03821115614fd657614fd5614b98565b5b828201905092915050565b60008190508160005260206000209050919050565b60006020601f8301049050919050565b600082821b905092915050565b6000600883026150437fffffffffffffffffffffffffffffffffffffffffffffffffffffffffffffffff82615006565b61504d8683615006565b95508019841693508086168417925050509392505050565b6000819050919050565b600061508a6150856150808461415b565b615065565b61415b565b9050919050565b6000819050919050565b6150a48361506f565b6150b86150b082615091565b848454615013565b825550505050565b600090565b6150cd6150c0565b6150d881848461509b565b505050565b5b818110156150fc576150f16000826150c5565b6001810190506150de565b5050565b601f8211156151415761511281614fe1565b61511b84614ff6565b8101602085101561512a578190505b61513e61513685614ff6565b8301826150dd565b50505b505050565b600082821c905092915050565b600061516460001984600802615146565b1980831691505092915050565b600061517d8383615153565b9150826002028217905092915050565b61519682613f10565b67ffffffffffffffff8111156151af576151ae614482565b5b6151b98254614b67565b6151c4828285615100565b600060209050601f8311600181146151f757600084156151e5578287015190505b6151ef8582615171565b865550615257565b601f19841661520586614fe1565b60005b8281101561522d57848901518255600182019150602085019450602081019050615208565b8683101561524a5784890151615246601f891682615153565b8355505b6001600288020188555050505b505050505050565b6000606082019050818103600083015261527981866142fa565b9050818103602083015261528d81856142fa565b905061529c60408301846149c2565b949350505050565b60006152b08284614ce0565b915081905092915050565b600081546152c881614b67565b6152d28186614cd5565b945060018216600081146152ed576001811461530257615335565b60ff1983168652811515820286019350615335565b61530b85614fe1565b60005b8381101561532d5781548189015260018201915060208101905061530e565b838801955050505b50505092915050565b600061534a82846152bb565b915081905092915050565b7f50726f64756374206973206e6f74206578697374000000000000000000000000600082015250565b600061538b6014836142e9565b915061539682615355565b602082019050919050565b600060208201905081810360008301526153ba8161537e565b9050919050565b7f4f776e61626c653a2063616c6c6572206973206e6f7420746865206f776e6572600082015250565b60006153f76020836142e9565b9150615402826153c1565b602082019050919050565b60006020820190508181036000830152615426816153ea565b9050919050565b60008160001c9050919050565b6000819050919050565b60006154576154528361542d565b61543a565b9050919050565b6000815461546b81614b67565b6154758186613f1b565b9450600182166000811461549057600181146154a6576154d9565b60ff1983168652811515602002860193506154d9565b6154af85614fe1565b60005b838110156154d1578154818901526001820191506020810190506154b2565b808801955050505b50505092915050565b60006080830160008084015490506154f981615444565b6155066000870182614165565b5060018401858303602087015261551d838261545e565b925050600284018583036040870152615536838261545e565b9250506003840154905061554981615444565b6155566060870182614165565b50819250505092915050565b600060608201905061557760008301866142da565b61558460208301856146dc565b818103604083015261559681846154e2565b9050949350505050565b7f546869732070726f6475637420686173206265656e2061646465640000000000600082015250565b60006155d6601b836142e9565b91506155e1826155a0565b602082019050919050565b60006020820190508181036000830152615605816155c9565b9050919050565b6000815461561981614b67565b61562381866142e9565b9450600182166000811461563e576001811461565457615687565b60ff198316865281151560200286019350615687565b61565d85614fe1565b60005b8381101561567f57815481890152600182019150602081019050615660565b808801955050505b50505092915050565b60006080820190506156a560008301876142da565b81810360208301526156b7818661560c565b905081810360408301526156cb818561560c565b90506156da60608301846142da565b95945050505050565b60006156ee8261465b565b91506156f98361465b565b9250827f80000000000000000000000000000000000000000000000000000000000000000182126000841215161561573457615733614b98565b5b827f7fffffffffffffffffffffffffffffffffffffffffffffffffffffffffffffff01821360008412161561576c5761576b614b98565b5b828203905092915050565b60006157828261465b565b915061578d8361465b565b9250827f7fffffffffffffffffffffffffffffffffffffffffffffffffffffffffffffff04821160008413600084131616156157cc576157cb614b98565b5b817f8000000000000000000000000000000000000000000000000000000000000000058312600084126000841316161561580957615808614b98565b5b827f8000000000000000000000000000000000000000000000000000000000000000058212600084136000841216161561584657615845614b98565b5b827f7fffffffffffffffffffffffffffffffffffffffffffffffffffffffffffffff058212600084126000841216161561588357615882614b98565b5b828202905092915050565b60006158998261465b565b91506158a48361465b565b9250817f7fffffffffffffffffffffffffffffffffffffffffffffffffffffffffffffff038313600083121516156158df576158de614b98565b5b817f800000000000000000000000000000000000000000000000000000000000000003831260008312161561591757615916614b98565b5b828201905092915050565b600061592d8261465b565b91506159388361465b565b92508261594857615947614ed1565b5b600160000383147f80000000000000000000000000000000000000000000000000000000000000008314161561598157615980614b98565b5b828205905092915050565b7f4f776e61626c653a206e6577206f776e657220697320746865207a65726f206160008201527f6464726573730000000000000000000000000000000000000000000000000000602082015250565b60006159e86026836142e9565b91506159f38261598c565b604082019050919050565b60006020820190508181036000830152615a17816159db565b9050919050565b7f53657373696f6e20776173206e6f7420636c6f73656400000000000000000000600082015250565b6000615a546016836142e9565b9150615a5f82615a1e565b602082019050919050565b60006020820190508181036000830152615a8381615a47565b9050919050565b600060a082019050615a9f60008301886142da565b615aac60208301876142da565b615ab960408301866142da565b615ac66060830185614665565b8181036080830152615ad88184614199565b90509695505050505050565b6000608083016000830151615afc6000860182614165565b5060208301518482036020860152615b148282613f70565b91505060408301518482036040860152615b2e8282613f70565b9150506060830151615b436060860182614165565b508091505092915050565b60006040820190508181036000830152615b688185615ae4565b9050615b7760208301846142da565b9392505050565b6000615b898261415b565b9150615b948361415b565b925082615ba457615ba3614ed1565b5b82820690509291505056fea2646970667358221220dcf86125ba3012ece343ee383b429caf6581da251f2ec9a23502e81db7f9ac7064736f6c634300080f0033",
  "immutableReferences": {},
  "source": "// SPDX-License-Identifier: MIT\r\npragma solidity ^0.8.0;\r\nimport \"@openzeppelin/contracts/access/Ownable.sol\";\r\nimport \"@openzeppelin/contracts/utils/Strings.sol\";\r\nimport \"./lib/myMath.sol\";\r\n\r\ncontract PricingChain is Ownable {\r\n    enum State {\r\n        CLOSE,\r\n        OPEN\r\n    }\r\n\r\n    struct Product {\r\n        uint256 id;\r\n        string ipfsID;\r\n        string name;\r\n        uint256 price; // P\r\n    }\r\n\r\n    struct Session {\r\n        uint256 id;\r\n        uint256 productID;\r\n        State state;\r\n        address[] participants;\r\n        mapping(address => uint256) participant_pricing;\r\n        mapping(address => uint256) deviationOfParticipants;\r\n        uint256 timeStarted;\r\n        uint256 timeout;\r\n        int proposedPrice;\r\n        uint256 finalPrice;\r\n    }\r\n\r\n    struct User {\r\n        string name;\r\n        string email;\r\n        address walletAddress;\r\n        uint accumulatedDeviation;\r\n        uint numbersOfSessionJoined;\r\n    }\r\n\r\n    event onRegisted(string name, string email, address addr);\r\n    event onProductAdded(\r\n        uint256 productID,\r\n        string ipfsID,\r\n        string name,\r\n        uint256 price\r\n    );\r\n    event onCreatedSession(Product p, uint256 sessionID);\r\n    event onStartedSession(uint256 id, State, Product p);\r\n    event onClosedSession(uint256 id, State, Product p);\r\n    event onGuessPrice(\r\n        address participant,\r\n        uint256 price,\r\n        uint256 sessionID,\r\n        uint numbersOfSessionJoined,\r\n        uint accumulatedDeviation\r\n    );\r\n    event onSetPrice(\r\n        uint256 productID,\r\n        uint256 price,\r\n        uint256 sessionID,\r\n        int proposedPrice,\r\n        uint[] deviationOfParticipants\r\n    );\r\n\r\n    // S ngi tham gia ti a\r\n    uint8 private participantsLimit = 10;\r\n\r\n    // m xem c bao nhiu sn phm\r\n    // danh sch sn phm, uint l id ca sn phm\r\n    Product[] private _products;\r\n\r\n    // danh sch session\r\n    Session[] private _sessions;\r\n    User[] public _users;\r\n\r\n    constructor() public {\r\n        /* test */\r\n        /*addProduct(\r\n            \"QmSy425yK2bjAzWp2ba68HzFdAfwtfD64auk52xs5LoxQr\",\r\n            \"galaxy s22\"\r\n        );\r\n        addProduct(\r\n            \"QmNndBy2XHuM4f2vVwmykfkEXytAcrAX88HCfFC2V6VYNL\",\r\n            \"giay golf\"\r\n        );\r\n        // _products[0].price = 10;\r\n\r\n        createSession(0);\r\n        startSession(0, 0);\r\n\r\n        guessPrice(0, 5 ether, 0x746e9Fbb7E066435eF4208E3661e4B42aD09A0dD);\r\n        guessPrice(0, 2 ether, 0xe8584AA83Df68EA98e840dAc05782B81559D1Da1);\r\n        guessPrice(0, 24 ether, 0x53C6E288B9eF2E2627b09E4DEAec3806A0571Cf1);\r\n        guessPrice(0, 7 ether, 0x9428207253BC364209212d07B88E21c2fCF916d6);\r\n        guessPrice(0, 4 ether, 0x2769C260f31240901271C53D72E263D16b4F1946);\r\n        closeSession(0);*/\r\n    }\r\n\r\n    // register and update user infomation\r\n    function register(string memory name, string memory email)\r\n        public\r\n        returns (bool _exist)\r\n    {\r\n        address addr = msg.sender;\r\n        bool exist = false;\r\n        for (uint i = 0; i < _users.length; i++) {\r\n            if (addr == _users[i].walletAddress) {\r\n                exist = true;\r\n                User storage u;\r\n                u = _users[i];\r\n                u.name = name;\r\n                u.email = email;\r\n                emit onRegisted(name, email, addr);\r\n                return (exist);\r\n            }\r\n        }\r\n        if (!exist) {\r\n            User storage u;\r\n            u = _users.push();\r\n            u.name = name;\r\n            u.email = email;\r\n            u.walletAddress = addr;\r\n            emit onRegisted(name, email, addr);\r\n            return (exist);\r\n        }\r\n    }\r\n\r\n    function getUser(address addr)\r\n        public\r\n        view\r\n        returns (\r\n            string memory _name,\r\n            string memory _email,\r\n            address _walletAddress,\r\n            uint _accumulatedDeviation,\r\n            uint _numbersOfSessionJoined\r\n        )\r\n    {\r\n        User memory u;\r\n        for (uint256 i = 0; i < _users.length; i++) {\r\n            if (_users[i].walletAddress == addr) {\r\n                u = _users[i];\r\n            }\r\n        }\r\n        return (\r\n            u.name,\r\n            u.email,\r\n            u.walletAddress,\r\n            u.accumulatedDeviation,\r\n            u.numbersOfSessionJoined\r\n        );\r\n    }\r\n\r\n    function getUsers()\r\n        public\r\n        view\r\n        returns (\r\n            string[] memory _names,\r\n            string[] memory _emails,\r\n            address[] memory _walletAddresses,\r\n            uint[] memory _accumulatedDeviations,\r\n            uint[] memory _numbersOfSessionJoineds\r\n        )\r\n    {\r\n        string[] memory names = new string[](_users.length);\r\n        string[] memory emails = new string[](_users.length);\r\n        address[] memory walletAddresses = new address[](_users.length);\r\n        uint[] memory accumulatedDeviations = new uint[](_users.length);\r\n        uint[] memory numbersOfSessionJoineds = new uint[](_users.length);\r\n        for (uint i = 0; i < _users.length; i++) {\r\n            names[i] = _users[i].name;\r\n            emails[i] = _users[i].email;\r\n            walletAddresses[i] = _users[i].walletAddress;\r\n            accumulatedDeviations[i] = _users[i].accumulatedDeviation;\r\n            numbersOfSessionJoineds[i] = _users[i].numbersOfSessionJoined;\r\n        }\r\n        return (\r\n            names,\r\n            emails,\r\n            walletAddresses,\r\n            accumulatedDeviations,\r\n            numbersOfSessionJoineds\r\n        );\r\n    }\r\n\r\n    function setUserAccumulatedDeviation(\r\n        address user,\r\n        uint accumulatedDeviation\r\n    ) public onlyOwner returns (bool status) {\r\n        for (uint i = 0; i < _users.length; i++) {\r\n            if (_users[i].walletAddress == user) {\r\n                _users[i].accumulatedDeviation = accumulatedDeviation;\r\n                _users[i].numbersOfSessionJoined++;\r\n                return true;\r\n            }\r\n        }\r\n        return false;\r\n    }\r\n\r\n    modifier isProductAdded(string memory ipfsID) {\r\n        for (uint256 i = 0; i < _products.length; i++) {\r\n            if (\r\n                keccak256(abi.encodePacked((_products[i].ipfsID))) ==\r\n                keccak256(abi.encodePacked((ipfsID)))\r\n            ) {\r\n                revert(\"This product has been added\");\r\n            }\r\n        }\r\n        _;\r\n    }\r\n\r\n    function addProduct(string memory ipfsID, string memory name)\r\n        public\r\n        onlyOwner\r\n        isProductAdded(ipfsID)\r\n        returns (uint256 id)\r\n    {\r\n        Product storage p = _products.push();\r\n        p.id = _products.length - 1;\r\n        p.ipfsID = ipfsID;\r\n        p.name = name;\r\n        emit onProductAdded(p.id, p.ipfsID, p.name, p.price);\r\n        return p.id;\r\n    }\r\n\r\n    function getProductByID(uint256 ID)\r\n        public\r\n        view\r\n        returns (\r\n            uint256 id,\r\n            string memory ipfsID,\r\n            uint256 price\r\n        )\r\n    {\r\n        if (ID < 0 || ID >= _products.length) ID = _products.length - 1;\r\n        Product storage p = _products[ID];\r\n        /*Session storage s;\r\n        uint[] memory _prices;\r\n        address[] memory participants;\r\n        // ly phin nh gi cui cng vi sn phm \r\n        for (uint i = _sessions.length - 1; i >= 0; i--) {\r\n            if (_sessions[i].productID == ID) {\r\n                s = _sessions[i];\r\n                _prices = new uint[](s.participants.length);\r\n\r\n                for (uint j = 0; j < s.participants.length; j++) {\r\n                    _prices[j] = s.participant_pricing[s.participants[j]];\r\n                }\r\n                participants = s.participants;\r\n                break;\r\n            }\r\n        }*/\r\n        return (p.id, p.ipfsID, p.price);\r\n    }\r\n\r\n    function getProduct(string memory _ipfsID)\r\n        public\r\n        view\r\n        returns (\r\n            uint256 id,\r\n            string memory ipfsID,\r\n            string memory name,\r\n            uint256 price\r\n        )\r\n    {\r\n        for (uint256 i = 0; i < _products.length; i++) {\r\n            if (\r\n                keccak256(abi.encodePacked((_products[i].ipfsID))) ==\r\n                keccak256(abi.encodePacked((_ipfsID)))\r\n            ) {\r\n                Product storage p = _products[i];\r\n                return (p.id, p.ipfsID, p.name, p.price);\r\n            }\r\n        }\r\n        revert(\"Product is not exist\");\r\n    }\r\n\r\n    function getProducts()\r\n        public\r\n        view\r\n        returns (\r\n            string[] memory ipfsIDs,\r\n            string[] memory names,\r\n            uint256[] memory prices\r\n        )\r\n    {\r\n        string[] memory _ipfsIDs = new string[](_products.length);\r\n        string[] memory _names = new string[](_products.length);\r\n        uint256[] memory _prices = new uint256[](_products.length);\r\n        for (uint256 i = 0; i < _products.length; i++) {\r\n            _ipfsIDs[i] = _products[i].ipfsID;\r\n            _names[i] = _products[i].name;\r\n            _prices[i] = _products[i].price;\r\n        }\r\n        return (_ipfsIDs, _names, _prices);\r\n    }\r\n\r\n    modifier productExist(uint256 ID) {\r\n        require(ID >= 0 && ID < _products.length, \"ID session is not exist\");\r\n        _;\r\n    }\r\n\r\n    modifier sessionExist(uint256 ID) {\r\n        require(ID >= 0 && ID < _sessions.length, \"ID session is not exist\");\r\n        _;\r\n    }\r\n\r\n    // to phin u gi\r\n    function createSession(uint256 productID)\r\n        public\r\n        productExist(productID)\r\n        onlyOwner\r\n        returns (uint256 id)\r\n    {\r\n        Session storage s = _sessions.push();\r\n        s.productID = productID;\r\n        s.state = State.CLOSE;\r\n        s.proposedPrice = 0;\r\n        Product memory p;\r\n        for (uint256 i = 0; i < _products.length; i++) {\r\n            if (_products[i].id == productID) p = _products[i];\r\n        }\r\n        emit onCreatedSession(p, _sessions.length - 1);\r\n        return _sessions.length - 1;\r\n    }\r\n\r\n    function startSession(uint256 ID, uint256 timeout)\r\n        public\r\n        sessionExist(ID)\r\n        onlyOwner\r\n    {\r\n        _sessions[ID].state = State.OPEN;\r\n        _sessions[ID].timeStarted = block.timestamp;\r\n        _sessions[ID].timeout = timeout;\r\n        emit onStartedSession(\r\n            ID,\r\n            _sessions[ID].state,\r\n            _products[_sessions[ID].productID]\r\n        );\r\n    }\r\n\r\n    function closeSession(uint256 ID) public sessionExist(ID) onlyOwner {\r\n        _sessions[ID].state = State.CLOSE;\r\n        emit onClosedSession(\r\n            ID,\r\n            _sessions[ID].state,\r\n            _products[_sessions[ID].productID]\r\n        );\r\n    }\r\n\r\n    function getSessions()\r\n        public\r\n        view\r\n        returns (\r\n            uint256[] memory sessionIDs,\r\n            uint256[] memory productIDs,\r\n            string[] memory ipfsIDs,\r\n            string[] memory names,\r\n            uint256[] memory prices,\r\n            // uint256[] memory proposedPrices,\r\n            State[] memory states,\r\n            uint256[] memory timeStarteds,\r\n            uint256[] memory timeouts\r\n        )\r\n    {\r\n        uint256[] memory _sessionIDs = new uint256[](_sessions.length);\r\n        uint256[] memory _productIDs = new uint256[](_sessions.length);\r\n        string[] memory _ipfsIDs = new string[](_sessions.length);\r\n        string[] memory _names = new string[](_sessions.length);\r\n        uint256[] memory _prices = new uint256[](_sessions.length);\r\n        // uint256[] memory _proposedPrices = new uint256[](_sessions.length);\r\n        State[] memory _states = new State[](_sessions.length);\r\n        uint256[] memory _timeStarteds = new uint256[](_sessions.length);\r\n        uint256[] memory _timeouts = new uint256[](_sessions.length);\r\n        for (uint256 i = 0; i < _sessions.length; i++) {\r\n            _sessionIDs[i] = _sessions[i].id;\r\n            _productIDs[i] = _sessions[i].productID;\r\n            _ipfsIDs[i] = _products[_sessions[i].productID].ipfsID;\r\n            _names[i] = _products[_sessions[i].productID].name;\r\n            _prices[i] = _products[_sessions[i].productID].price;\r\n            // _proposedPrices[i] = _sessions[i].proposedPrice;\r\n            _states[i] = _sessions[i].state;\r\n            _timeStarteds[i] = _sessions[i].timeStarted;\r\n            _timeouts[i] = _sessions[i].timeout;\r\n        }\r\n        return (\r\n            _sessionIDs,\r\n            _productIDs,\r\n            _ipfsIDs,\r\n            _names,\r\n            _prices,\r\n            // _proposedPrices,\r\n            _states,\r\n            _timeStarteds,\r\n            _timeouts\r\n        );\r\n    }\r\n\r\n    function getSession(uint256 id)\r\n        public\r\n        view\r\n        sessionExist(id)\r\n        returns (\r\n            uint256 sessionID,\r\n            uint256 productID,\r\n            string memory ipfsID,\r\n            string memory name,\r\n            uint256 price,\r\n            int proposedPrice,\r\n            State state,\r\n            address[] memory participants,\r\n            uint256[] memory participant_pricings,\r\n            uint256 timeStarted,\r\n            uint256 timeout\r\n        )\r\n    {\r\n        Session storage session = _sessions[id];\r\n        uint256[] memory _participant_pricings = new uint256[](\r\n            session.participants.length\r\n        );\r\n        for (uint256 i = 0; i < session.participants.length; i++) {\r\n            _participant_pricings[i] = session.participant_pricing[\r\n                session.participants[i]\r\n            ];\r\n        }\r\n        return (\r\n            session.id,\r\n            session.productID,\r\n            _products[session.productID].ipfsID,\r\n            _products[session.productID].name,\r\n            _products[session.productID].price,\r\n            session.proposedPrice,\r\n            session.state,\r\n            session.participants,\r\n            _participant_pricings,\r\n            session.timeStarted,\r\n            session.timeout\r\n        );\r\n    }\r\n\r\n    modifier sessionClosed(uint256 sessionID) {\r\n        require(\r\n            _sessions[sessionID].state == State.CLOSE,\r\n            \"Session was not closed\"\r\n        );\r\n        _;\r\n    }\r\n\r\n    function setPrice(uint256 sessionID, uint256 price)\r\n        public\r\n        onlyOwner\r\n        sessionClosed(sessionID)\r\n        productExist(_sessions[sessionID].productID)\r\n    {\r\n        uint256 productID = _sessions[sessionID].productID;\r\n        _products[productID].price = price;\r\n\r\n        Session storage s = _sessions[sessionID];\r\n        s.finalPrice = price;\r\n\r\n        (\r\n            int proposedPrice,\r\n            uint[] memory deviationOfParticipants\r\n        ) = calc_proposedPrice(sessionID);\r\n\r\n        s.proposedPrice = proposedPrice;\r\n\r\n        // save deviationOfParticipants\r\n        for (uint i = 0; i < deviationOfParticipants.length; i++) {\r\n            s.deviationOfParticipants[\r\n                s.participants[i]\r\n            ] = deviationOfParticipants[i];\r\n        }\r\n\r\n        // accumulated deviation\r\n        // tnh ton tng  lch tch ly ca tng ngi chi\r\n        for (uint256 i = 0; i < s.participants.length; i++) {\r\n            uint d_new = calc_d_new(\r\n                price,\r\n                s.participant_pricing[s.participants[i]]\r\n            );\r\n\r\n            (, , , uint d_current, uint numbersOfSessionJoined) = getUser(\r\n                s.participants[i]\r\n            );\r\n            uint accumulatedDeviation = calc_accumulatedDeviation(\r\n                d_current,\r\n                d_new,\r\n                numbersOfSessionJoined\r\n            );\r\n            // save accumulatedDeviation, numbersOfSessionJoined + 1\r\n            setUserAccumulatedDeviation(\r\n                s.participants[i],\r\n                accumulatedDeviation\r\n            );\r\n        }\r\n\r\n        emit onSetPrice(\r\n            productID,\r\n            price,\r\n            sessionID,\r\n            proposedPrice,\r\n            deviationOfParticipants\r\n        );\r\n    }\r\n\r\n    // kim tra vt qu s ngi tham gia nh gi 10\r\n    modifier checkParticipantsLimit(uint256 sessionID) {\r\n        require(\r\n            _sessions[sessionID].participants.length < participantsLimit,\r\n            string.concat(\r\n                \"reached participants limit: \",\r\n                Strings.toString(participantsLimit)\r\n            )\r\n        );\r\n        _;\r\n    }\r\n    // kim tra cn thi hn hay khng\r\n    modifier checkTimeout(uint256 sessionID) {\r\n        if (_sessions[sessionID].timeout > 0)\r\n            require(\r\n                block.timestamp - _sessions[sessionID].timeStarted <\r\n                    _sessions[sessionID].timeout ||\r\n                    _sessions[sessionID].timeout == 0,\r\n                string.concat(\r\n                    \"You've run out of time\",\r\n                    \"-\",\r\n                    Strings.toString(block.timestamp),\r\n                    \"-\",\r\n                    Strings.toString(_sessions[sessionID].timeStarted),\r\n                    \"-\",\r\n                    Strings.toString(_sessions[sessionID].timeout)\r\n                )\r\n            );\r\n        _;\r\n    }\r\n\r\n    function guessPrice(uint256 sessionID, uint256 price)\r\n        public\r\n        sessionExist(sessionID)\r\n        checkParticipantsLimit(sessionID)\r\n        checkTimeout(sessionID)\r\n    {\r\n        address addr = msg.sender;\r\n        Session storage s = _sessions[sessionID];\r\n        require(s.state == State.OPEN, \"Session closed\");\r\n        s.participant_pricing[addr] = price;\r\n\r\n        // nu trong ngi ny  pricing ri th ko a vo danh sch participants\r\n        bool exist = false;\r\n        for (uint256 i = 0; i < s.participants.length; i++) {\r\n            if (s.participants[i] == addr) {\r\n                exist = true;\r\n                break;\r\n            }\r\n        }\r\n        if (!exist) s.participants.push(addr);\r\n        uint numbersOfSessionJoined = 0;\r\n        uint256 i = 0;\r\n        for (i; i < _users.length; i++) {\r\n            if (_users[i].walletAddress == addr) {\r\n                numbersOfSessionJoined = _users[i]\r\n                    .numbersOfSessionJoined = countSessionJoined(addr);\r\n                break;\r\n            }\r\n        }\r\n        emit onGuessPrice(\r\n            addr,\r\n            price,\r\n            sessionID,\r\n            numbersOfSessionJoined,\r\n            _users[i].accumulatedDeviation\r\n        );\r\n    }\r\n\r\n    function countSessionJoined(address addr) public view returns (uint) {\r\n        uint count = 0;\r\n        for (uint256 i = 0; i < _sessions.length; i++) {\r\n            for (uint256 j = 0; j < _sessions[i].participants.length; j++) {\r\n                if (addr == _sessions[i].participants[j]) {\r\n                    count++;\r\n                }\r\n            }\r\n        }\r\n        return count;\r\n    }\r\n\r\n    /*\r\n        P: The final price\r\n        p: The given price of the participant\r\n        d_new: deviation in the current session\r\n    */\r\n    function calc_d_new(uint256 finalPice, uint256 pricing)\r\n        public\r\n        pure\r\n        returns (uint256)\r\n    {\r\n        if (finalPice == 0) return 0;\r\n        uint256 d_new = ((\r\n            finalPice > pricing ? finalPice - pricing : pricing - finalPice\r\n        ) / finalPice) * 100;\r\n        return d_new;\r\n    }\r\n\r\n    /* n: number of all participants */\r\n    function calc_accumulatedDeviation(\r\n        uint256 d_current,\r\n        uint256 d_new,\r\n        uint256 n\r\n    ) public pure returns (uint256) {\r\n        uint256 d = ((d_current * n) + d_new) / (n + 1);\r\n        return d;\r\n    }\r\n\r\n    function calc_proposedPrice(uint256 sessionID)\r\n        public\r\n        view\r\n        sessionExist(sessionID)\r\n        returns (int _proposedPrice, uint[] memory _deviationOfParticipants)\r\n    {\r\n        // Session storage s = _sessions[sessionID];\r\n        uint256 n = _sessions[sessionID].participants.length;\r\n        uint256 sum_d_i = 0;\r\n\r\n        // numerator, denominator in formular\r\n        int sum_numerator = 0;\r\n\r\n        uint[] memory deviationOfParticipants = new uint[](n);\r\n        uint finalPrice = _sessions[sessionID].finalPrice;\r\n\r\n        for (uint256 i = 0; i < n; i++) {\r\n            // the given price of the participant\r\n            uint256 p_i = _sessions[sessionID].participant_pricing[\r\n                _sessions[sessionID].participants[i]\r\n            ];\r\n            // deviation of participant\r\n            uint256 d_i = calc_d_new(finalPrice, p_i);\r\n\r\n            deviationOfParticipants[i] = d_i;\r\n            sum_d_i += d_i;\r\n\r\n            sum_numerator += (int(p_i) * (100 - int(d_i)));\r\n        }\r\n\r\n        int denominator = (100 * int(n) - int(sum_d_i));\r\n        int proposedPrice = sum_numerator / denominator;\r\n        return (proposedPrice, deviationOfParticipants);\r\n    }\r\n}\r\n",
  "sourcePath": "C:\\Users\\a\\Documents\\PricingChain\\contracts\\PricingChain.sol",
  "compiler": {
    "name": "solc",
    "version": "0.8.15+commit.e14f2714.Emscripten.clang"
  },
  "schemaVersion": "3.4.7",
  "updatedAt": "2022-07-31T06:59:10.624Z",
  "networkType": "ethereum",
  "devdoc": {
    "kind": "dev",
    "methods": {
      "owner()": {
        "details": "Returns the address of the current owner."
      },
      "renounceOwnership()": {
        "details": "Leaves the contract without owner. It will not be possible to call `onlyOwner` functions anymore. Can only be called by the current owner. NOTE: Renouncing ownership will leave the contract without an owner, thereby removing any functionality that is only available to the owner."
      },
      "transferOwnership(address)": {
        "details": "Transfers ownership of the contract to a new account (`newOwner`). Can only be called by the current owner."
      }
    },
    "version": 1
  },
  "userdoc": {
    "kind": "user",
    "methods": {},
    "version": 1
  }
}