{
  "contractName": "PricingChain",
  "abi": [
    {
      "inputs": [],
      "stateMutability": "nonpayable",
      "type": "constructor"
    },
    {
      "anonymous": false,
      "inputs": [
        {
          "indexed": true,
          "internalType": "address",
          "name": "previousOwner",
          "type": "address"
        },
        {
          "indexed": true,
          "internalType": "address",
          "name": "newOwner",
          "type": "address"
        }
      ],
      "name": "OwnershipTransferred",
      "type": "event"
    },
    {
      "anonymous": false,
      "inputs": [
        {
          "indexed": false,
          "internalType": "uint256",
          "name": "id",
          "type": "uint256"
        },
        {
          "indexed": false,
          "internalType": "enum PricingChain.State",
          "name": "",
          "type": "uint8"
        },
        {
          "components": [
            {
              "internalType": "uint256",
              "name": "id",
              "type": "uint256"
            },
            {
              "internalType": "string",
              "name": "ipfsID",
              "type": "string"
            },
            {
              "internalType": "string",
              "name": "name",
              "type": "string"
            },
            {
              "internalType": "uint256",
              "name": "price",
              "type": "uint256"
            }
          ],
          "indexed": false,
          "internalType": "struct PricingChain.Product",
          "name": "p",
          "type": "tuple"
        }
      ],
      "name": "onClosedSession",
      "type": "event"
    },
    {
      "anonymous": false,
      "inputs": [
        {
          "components": [
            {
              "internalType": "uint256",
              "name": "id",
              "type": "uint256"
            },
            {
              "internalType": "string",
              "name": "ipfsID",
              "type": "string"
            },
            {
              "internalType": "string",
              "name": "name",
              "type": "string"
            },
            {
              "internalType": "uint256",
              "name": "price",
              "type": "uint256"
            }
          ],
          "indexed": false,
          "internalType": "struct PricingChain.Product",
          "name": "p",
          "type": "tuple"
        },
        {
          "indexed": false,
          "internalType": "uint256",
          "name": "sessionID",
          "type": "uint256"
        }
      ],
      "name": "onCreatedSession",
      "type": "event"
    },
    {
      "anonymous": false,
      "inputs": [
        {
          "indexed": false,
          "internalType": "address",
          "name": "participant",
          "type": "address"
        },
        {
          "indexed": false,
          "internalType": "uint256",
          "name": "price",
          "type": "uint256"
        },
        {
          "indexed": false,
          "internalType": "uint256",
          "name": "sessionID",
          "type": "uint256"
        }
      ],
      "name": "onGuessPrice",
      "type": "event"
    },
    {
      "anonymous": false,
      "inputs": [
        {
          "indexed": false,
          "internalType": "uint256",
          "name": "productID",
          "type": "uint256"
        },
        {
          "indexed": false,
          "internalType": "string",
          "name": "ipfsID",
          "type": "string"
        },
        {
          "indexed": false,
          "internalType": "string",
          "name": "name",
          "type": "string"
        },
        {
          "indexed": false,
          "internalType": "uint256",
          "name": "price",
          "type": "uint256"
        }
      ],
      "name": "onProductAdded",
      "type": "event"
    },
    {
      "anonymous": false,
      "inputs": [
        {
          "indexed": false,
          "internalType": "string",
          "name": "name",
          "type": "string"
        },
        {
          "indexed": false,
          "internalType": "string",
          "name": "email",
          "type": "string"
        },
        {
          "indexed": false,
          "internalType": "address",
          "name": "addr",
          "type": "address"
        }
      ],
      "name": "onRegisted",
      "type": "event"
    },
    {
      "anonymous": false,
      "inputs": [
        {
          "indexed": false,
          "internalType": "uint256",
          "name": "productID",
          "type": "uint256"
        },
        {
          "indexed": false,
          "internalType": "uint256",
          "name": "price",
          "type": "uint256"
        },
        {
          "indexed": false,
          "internalType": "uint256",
          "name": "sessionID",
          "type": "uint256"
        },
        {
          "indexed": false,
          "internalType": "int256",
          "name": "proposedPrice",
          "type": "int256"
        },
        {
          "indexed": false,
          "internalType": "uint256[]",
          "name": "deviationOfParticipants",
          "type": "uint256[]"
        }
      ],
      "name": "onSetPrice",
      "type": "event"
    },
    {
      "anonymous": false,
      "inputs": [
        {
          "indexed": false,
          "internalType": "uint256",
          "name": "id",
          "type": "uint256"
        },
        {
          "indexed": false,
          "internalType": "enum PricingChain.State",
          "name": "",
          "type": "uint8"
        },
        {
          "components": [
            {
              "internalType": "uint256",
              "name": "id",
              "type": "uint256"
            },
            {
              "internalType": "string",
              "name": "ipfsID",
              "type": "string"
            },
            {
              "internalType": "string",
              "name": "name",
              "type": "string"
            },
            {
              "internalType": "uint256",
              "name": "price",
              "type": "uint256"
            }
          ],
          "indexed": false,
          "internalType": "struct PricingChain.Product",
          "name": "p",
          "type": "tuple"
        }
      ],
      "name": "onStartedSession",
      "type": "event"
    },
    {
      "inputs": [
        {
          "internalType": "uint256",
          "name": "",
          "type": "uint256"
        }
      ],
      "name": "_users",
      "outputs": [
        {
          "internalType": "string",
          "name": "name",
          "type": "string"
        },
        {
          "internalType": "string",
          "name": "email",
          "type": "string"
        },
        {
          "internalType": "address",
          "name": "walletAddress",
          "type": "address"
        },
        {
          "internalType": "uint256",
          "name": "accumulatedDeviation",
          "type": "uint256"
        },
        {
          "internalType": "uint256",
          "name": "numbersOfSessionJoined",
          "type": "uint256"
        }
      ],
      "stateMutability": "view",
      "type": "function",
      "constant": true
    },
    {
      "inputs": [],
      "name": "owner",
      "outputs": [
        {
          "internalType": "address",
          "name": "",
          "type": "address"
        }
      ],
      "stateMutability": "view",
      "type": "function",
      "constant": true
    },
    {
      "inputs": [],
      "name": "renounceOwnership",
      "outputs": [],
      "stateMutability": "nonpayable",
      "type": "function"
    },
    {
      "inputs": [
        {
          "internalType": "address",
          "name": "newOwner",
          "type": "address"
        }
      ],
      "name": "transferOwnership",
      "outputs": [],
      "stateMutability": "nonpayable",
      "type": "function"
    },
    {
      "inputs": [
        {
          "internalType": "string",
          "name": "name",
          "type": "string"
        },
        {
          "internalType": "string",
          "name": "email",
          "type": "string"
        }
      ],
      "name": "register",
      "outputs": [
        {
          "internalType": "bool",
          "name": "_exist",
          "type": "bool"
        }
      ],
      "stateMutability": "nonpayable",
      "type": "function"
    },
    {
      "inputs": [
        {
          "internalType": "address",
          "name": "addr",
          "type": "address"
        }
      ],
      "name": "getUser",
      "outputs": [
        {
          "internalType": "string",
          "name": "_name",
          "type": "string"
        },
        {
          "internalType": "string",
          "name": "_email",
          "type": "string"
        },
        {
          "internalType": "address",
          "name": "_walletAddress",
          "type": "address"
        },
        {
          "internalType": "uint256",
          "name": "_accumulatedDeviation",
          "type": "uint256"
        },
        {
          "internalType": "uint256",
          "name": "_numbersOfSessionJoined",
          "type": "uint256"
        }
      ],
      "stateMutability": "view",
      "type": "function",
      "constant": true
    },
    {
      "inputs": [],
      "name": "getUsers",
      "outputs": [
        {
          "internalType": "string[]",
          "name": "_names",
          "type": "string[]"
        },
        {
          "internalType": "string[]",
          "name": "_emails",
          "type": "string[]"
        },
        {
          "internalType": "address[]",
          "name": "_walletAddresses",
          "type": "address[]"
        }
      ],
      "stateMutability": "view",
      "type": "function",
      "constant": true
    },
    {
      "inputs": [
        {
          "internalType": "address",
          "name": "user",
          "type": "address"
        },
        {
          "internalType": "uint256",
          "name": "accumulatedDeviation",
          "type": "uint256"
        }
      ],
      "name": "setUserAccumulatedDeviation",
      "outputs": [
        {
          "internalType": "bool",
          "name": "status",
          "type": "bool"
        }
      ],
      "stateMutability": "nonpayable",
      "type": "function"
    },
    {
      "inputs": [
        {
          "internalType": "string",
          "name": "ipfsID",
          "type": "string"
        },
        {
          "internalType": "string",
          "name": "name",
          "type": "string"
        }
      ],
      "name": "addProduct",
      "outputs": [
        {
          "internalType": "uint256",
          "name": "id",
          "type": "uint256"
        }
      ],
      "stateMutability": "nonpayable",
      "type": "function"
    },
    {
      "inputs": [
        {
          "internalType": "uint256",
          "name": "ID",
          "type": "uint256"
        }
      ],
      "name": "getProductByID",
      "outputs": [
        {
          "internalType": "uint256",
          "name": "id",
          "type": "uint256"
        },
        {
          "internalType": "string",
          "name": "ipfsID",
          "type": "string"
        },
        {
          "internalType": "uint256",
          "name": "price",
          "type": "uint256"
        }
      ],
      "stateMutability": "view",
      "type": "function",
      "constant": true
    },
    {
      "inputs": [
        {
          "internalType": "string",
          "name": "_ipfsID",
          "type": "string"
        }
      ],
      "name": "getProduct",
      "outputs": [
        {
          "internalType": "uint256",
          "name": "id",
          "type": "uint256"
        },
        {
          "internalType": "string",
          "name": "ipfsID",
          "type": "string"
        },
        {
          "internalType": "string",
          "name": "name",
          "type": "string"
        },
        {
          "internalType": "uint256",
          "name": "price",
          "type": "uint256"
        }
      ],
      "stateMutability": "view",
      "type": "function",
      "constant": true
    },
    {
      "inputs": [],
      "name": "getProducts",
      "outputs": [
        {
          "internalType": "string[]",
          "name": "ipfsIDs",
          "type": "string[]"
        },
        {
          "internalType": "string[]",
          "name": "names",
          "type": "string[]"
        },
        {
          "internalType": "uint256[]",
          "name": "prices",
          "type": "uint256[]"
        }
      ],
      "stateMutability": "view",
      "type": "function",
      "constant": true
    },
    {
      "inputs": [
        {
          "internalType": "uint256",
          "name": "productID",
          "type": "uint256"
        }
      ],
      "name": "createSession",
      "outputs": [
        {
          "internalType": "uint256",
          "name": "id",
          "type": "uint256"
        }
      ],
      "stateMutability": "nonpayable",
      "type": "function"
    },
    {
      "inputs": [
        {
          "internalType": "uint256",
          "name": "ID",
          "type": "uint256"
        },
        {
          "internalType": "uint256",
          "name": "timeout",
          "type": "uint256"
        }
      ],
      "name": "startSession",
      "outputs": [],
      "stateMutability": "nonpayable",
      "type": "function"
    },
    {
      "inputs": [
        {
          "internalType": "uint256",
          "name": "ID",
          "type": "uint256"
        }
      ],
      "name": "closeSession",
      "outputs": [],
      "stateMutability": "nonpayable",
      "type": "function"
    },
    {
      "inputs": [],
      "name": "getSessions",
      "outputs": [
        {
          "internalType": "uint256[]",
          "name": "sessionIDs",
          "type": "uint256[]"
        },
        {
          "internalType": "uint256[]",
          "name": "productIDs",
          "type": "uint256[]"
        },
        {
          "internalType": "string[]",
          "name": "ipfsIDs",
          "type": "string[]"
        },
        {
          "internalType": "string[]",
          "name": "names",
          "type": "string[]"
        },
        {
          "internalType": "uint256[]",
          "name": "prices",
          "type": "uint256[]"
        },
        {
          "internalType": "enum PricingChain.State[]",
          "name": "states",
          "type": "uint8[]"
        },
        {
          "internalType": "uint256[]",
          "name": "timeStarteds",
          "type": "uint256[]"
        },
        {
          "internalType": "uint256[]",
          "name": "timeouts",
          "type": "uint256[]"
        }
      ],
      "stateMutability": "view",
      "type": "function",
      "constant": true
    },
    {
      "inputs": [
        {
          "internalType": "uint256",
          "name": "id",
          "type": "uint256"
        }
      ],
      "name": "getSession",
      "outputs": [
        {
          "internalType": "uint256",
          "name": "sessionID",
          "type": "uint256"
        },
        {
          "internalType": "uint256",
          "name": "productID",
          "type": "uint256"
        },
        {
          "internalType": "string",
          "name": "ipfsID",
          "type": "string"
        },
        {
          "internalType": "string",
          "name": "name",
          "type": "string"
        },
        {
          "internalType": "uint256",
          "name": "price",
          "type": "uint256"
        },
        {
          "internalType": "int256",
          "name": "proposedPrice",
          "type": "int256"
        },
        {
          "internalType": "enum PricingChain.State",
          "name": "state",
          "type": "uint8"
        },
        {
          "internalType": "address[]",
          "name": "participants",
          "type": "address[]"
        },
        {
          "internalType": "uint256[]",
          "name": "participant_pricings",
          "type": "uint256[]"
        },
        {
          "internalType": "uint256",
          "name": "timeStarted",
          "type": "uint256"
        },
        {
          "internalType": "uint256",
          "name": "timeout",
          "type": "uint256"
        }
      ],
      "stateMutability": "view",
      "type": "function",
      "constant": true
    },
    {
      "inputs": [
        {
          "internalType": "uint256",
          "name": "sessionID",
          "type": "uint256"
        },
        {
          "internalType": "uint256",
          "name": "price",
          "type": "uint256"
        }
      ],
      "name": "setPrice",
      "outputs": [],
      "stateMutability": "nonpayable",
      "type": "function"
    },
    {
      "inputs": [
        {
          "internalType": "uint256",
          "name": "sessionID",
          "type": "uint256"
        },
        {
          "internalType": "uint256",
          "name": "price",
          "type": "uint256"
        },
        {
          "internalType": "address",
          "name": "addr",
          "type": "address"
        }
      ],
      "name": "guessPrice",
      "outputs": [],
      "stateMutability": "nonpayable",
      "type": "function"
    },
    {
      "inputs": [
        {
          "internalType": "uint256",
          "name": "finalPice",
          "type": "uint256"
        },
        {
          "internalType": "uint256",
          "name": "pricing",
          "type": "uint256"
        }
      ],
      "name": "calc_d_new",
      "outputs": [
        {
          "internalType": "uint256",
          "name": "",
          "type": "uint256"
        }
      ],
      "stateMutability": "pure",
      "type": "function",
      "constant": true
    },
    {
      "inputs": [
        {
          "internalType": "uint256",
          "name": "d_current",
          "type": "uint256"
        },
        {
          "internalType": "uint256",
          "name": "d_new",
          "type": "uint256"
        },
        {
          "internalType": "uint256",
          "name": "n",
          "type": "uint256"
        }
      ],
      "name": "calc_accumulatedDeviation",
      "outputs": [
        {
          "internalType": "uint256",
          "name": "",
          "type": "uint256"
        }
      ],
      "stateMutability": "pure",
      "type": "function",
      "constant": true
    },
    {
      "inputs": [
        {
          "internalType": "uint256",
          "name": "sessionID",
          "type": "uint256"
        }
      ],
      "name": "calc_proposedPrice",
      "outputs": [
        {
          "internalType": "int256",
          "name": "_proposedPrice",
          "type": "int256"
        },
        {
          "internalType": "uint256[]",
          "name": "_deviationOfParticipants",
          "type": "uint256[]"
        }
      ],
      "stateMutability": "view",
      "type": "function",
      "constant": true
    }
  ],
  "bytecode": "0x6080604052600a600060146101000a81548160ff021916908360ff1602179055503480156200002d57600080fd5b506200004e620000426200005460201b60201c565b6200005c60201b60201c565b62000120565b600033905090565b60008060009054906101000a900473ffffffffffffffffffffffffffffffffffffffff169050816000806101000a81548173ffffffffffffffffffffffffffffffffffffffff021916908373ffffffffffffffffffffffffffffffffffffffff1602179055508173ffffffffffffffffffffffffffffffffffffffff168173ffffffffffffffffffffffffffffffffffffffff167f8be0079c531659141344cd1fd0a4f28419497f9722a3daafe3b4186f6b6457e060405160405180910390a35050565b61585880620001306000396000f3fe608060405234801561001057600080fd5b50600436106101415760003560e01c80638da5cb5b116100b8578063cc4a43c01161007c578063cc4a43c0146103ce578063d29b8e2114610402578063d61a4bf814610433578063f2fde38b1461044f578063f7d975771461046b578063f847cdde1461048757610141565b80638da5cb5b14610314578063a3bfdf4714610332578063c0835cbb1461034e578063c29b2f201461037e578063ca2efb551461039e57610141565b80633ffbd47f1161010a5780633ffbd47f14610214578063402ff0db1461024457806361503e451461027e57806368111cce146102a35780636f77926b146102d6578063715018a61461030a57610141565b8062ce8e3e146101465780630595a01f14610166578063341957861461019857806339ffb5b2146101c85780633dedffe0146101f8575b600080fd5b61014e6104b7565b60405161015d93929190613d95565b60405180910390f35b610180600480360381019061017b9190613e2b565b61081c565b60405161018f93929190613eb1565b60405180910390f35b6101b260048036038101906101ad9190613eef565b61091c565b6040516101bf9190613f2f565b60405180910390f35b6101e260048036038101906101dd9190613f4a565b610979565b6040516101ef9190613f2f565b60405180910390f35b610212600480360381019061020d9190613fc9565b6109b7565b005b61022e60048036038101906102299190614151565b610e7c565b60405161023b91906141e4565b60405180910390f35b61025e60048036038101906102599190613e2b565b611093565b6040516102759b9a9998979695949392919061434d565b60405180910390f35b6102866114ae565b60405161029a9897969594939291906144d2565b60405180910390f35b6102bd60048036038101906102b89190614588565b611b7a565b6040516102cd94939291906145d1565b60405180910390f35b6102f060048036038101906102eb9190614624565b611dc0565b604051610301959493929190614660565b60405180910390f35b610312612057565b005b61031c6120df565b60405161032991906146c1565b60405180910390f35b61034c60048036038101906103479190613e2b565b612108565b005b610368600480360381019061036391906146dc565b6122de565b60405161037591906141e4565b60405180910390f35b610386612472565b6040516103959392919061471c565b60405180910390f35b6103b860048036038101906103b39190614151565b612789565b6040516103c59190613f2f565b60405180910390f35b6103e860048036038101906103e39190613e2b565b612998565b6040516103f9959493929190614660565b60405180910390f35b61041c60048036038101906104179190613e2b565b612b0e565b60405161042a929190614768565b60405180910390f35b61044d60048036038101906104489190613eef565b612d97565b005b61046960048036038101906104649190614624565b612fc2565b005b61048560048036038101906104809190613eef565b6130b9565b005b6104a1600480360381019061049c9190613e2b565b613554565b6040516104ae9190613f2f565b60405180910390f35b6060806060600060038054905067ffffffffffffffff8111156104dd576104dc614026565b5b60405190808252806020026020018201604052801561051057816020015b60608152602001906001900390816104fb5790505b509050600060038054905067ffffffffffffffff81111561053457610533614026565b5b60405190808252806020026020018201604052801561056757816020015b60608152602001906001900390816105525790505b509050600060038054905067ffffffffffffffff81111561058b5761058a614026565b5b6040519080825280602002602001820160405280156105b95781602001602082028036833780820191505090505b50905060005b60038054905081101561080a57600381815481106105e0576105df614798565b5b906000526020600020906005020160000180546105fc906147f6565b80601f0160208091040260200160405190810160405280929190818152602001828054610628906147f6565b80156106755780601f1061064a57610100808354040283529160200191610675565b820191906000526020600020905b81548152906001019060200180831161065857829003601f168201915b505050505084828151811061068d5761068c614798565b5b6020026020010181905250600381815481106106ac576106ab614798565b5b906000526020600020906005020160010180546106c8906147f6565b80601f01602080910402602001604051908101604052809291908181526020018280546106f4906147f6565b80156107415780601f1061071657610100808354040283529160200191610741565b820191906000526020600020905b81548152906001019060200180831161072457829003601f168201915b505050505083828151811061075957610758614798565b5b60200260200101819052506003818154811061077857610777614798565b5b906000526020600020906005020160020160009054906101000a900473ffffffffffffffffffffffffffffffffffffffff168282815181106107bd576107bc614798565b5b602002602001019073ffffffffffffffffffffffffffffffffffffffff16908173ffffffffffffffffffffffffffffffffffffffff1681525050808061080290614856565b9150506105bf565b50828282955095509550505050909192565b6000606060008084108061083557506001805490508410155b1561084e576001808054905061084b919061489e565b93505b60006001858154811061086457610863614798565b5b90600052602060002090600402019050806000015481600101826003015481805461088e906147f6565b80601f01602080910402602001604051908101604052809291908181526020018280546108ba906147f6565b80156109075780601f106108dc57610100808354040283529160200191610907565b820191906000526020600020905b8154815290600101906020018083116108ea57829003601f168201915b50505050509150935093509350509193909250565b600080830361092e5760009050610973565b600060648484861161094b578585610946919061489e565b610958565b8486610957919061489e565b5b6109629190614901565b61096c9190614932565b9050809150505b92915050565b600080600183610989919061498c565b8484876109969190614932565b6109a0919061498c565b6109aa9190614901565b9050809150509392505050565b82600081101580156109cd575060028054905081105b610a0c576040517f08c379a0000000000000000000000000000000000000000000000000000000008152600401610a0390614a2e565b60405180910390fd5b83600060149054906101000a900460ff1660ff1660028281548110610a3457610a33614798565b5b90600052602060002090600a02016003018054905010610a65600060149054906101000a900460ff1660ff166138b1565b604051602001610a759190614ab0565b60405160208183030381529060405290610ac5576040517f08c379a0000000000000000000000000000000000000000000000000000000008152600401610abc9190614ad6565b60405180910390fd5b5084600060028281548110610add57610adc614798565b5b90600052602060002090600a0201600701541115610c465760028181548110610b0957610b08614798565b5b90600052602060002090600a02016007015460028281548110610b2f57610b2e614798565b5b90600052602060002090600a02016006015442610b4c919061489e565b1080610b7d5750600060028281548110610b6957610b68614798565b5b90600052602060002090600a020160070154145b610b86426138b1565b610bb460028481548110610b9d57610b9c614798565b5b90600052602060002090600a0201600601546138b1565b610be260028581548110610bcb57610bca614798565b5b90600052602060002090600a0201600701546138b1565b604051602001610bf493929190614b44565b60405160208183030381529060405290610c44576040517f08c379a0000000000000000000000000000000000000000000000000000000008152600401610c3b9190614ad6565b60405180910390fd5b505b600060028781548110610c5c57610c5b614798565b5b90600052602060002090600a02019050600180811115610c7f57610c7e614218565b5b8160020160009054906101000a900460ff166001811115610ca357610ca2614218565b5b14610ce3576040517f08c379a0000000000000000000000000000000000000000000000000000000008152600401610cda90614bfd565b60405180910390fd5b858160040160008773ffffffffffffffffffffffffffffffffffffffff1673ffffffffffffffffffffffffffffffffffffffff168152602001908152602001600020819055506000805b8260030180549050811015610dcb578673ffffffffffffffffffffffffffffffffffffffff16836003018281548110610d6957610d68614798565b5b9060005260206000200160009054906101000a900473ffffffffffffffffffffffffffffffffffffffff1673ffffffffffffffffffffffffffffffffffffffff1603610db85760019150610dcb565b8080610dc390614856565b915050610d2d565b5080610e375781600301869080600181540180825580915050600190039060005260206000200160009091909190916101000a81548173ffffffffffffffffffffffffffffffffffffffff021916908373ffffffffffffffffffffffffffffffffffffffff1602179055505b7f18010a98b74dc9658d6a9b0218afc6bfc92f15be0a62de45753fe2a7463ff22b86888a604051610e6a93929190614c1d565b60405180910390a15050505050505050565b6000803390506000805b600380549050811015610fb35760038181548110610ea757610ea6614798565b5b906000526020600020906005020160020160009054906101000a900473ffffffffffffffffffffffffffffffffffffffff1673ffffffffffffffffffffffffffffffffffffffff168373ffffffffffffffffffffffffffffffffffffffff1603610fa05760019150600060038281548110610f2557610f24614798565b5b9060005260206000209060050201905086816000019081610f469190614e00565b5085816001019081610f589190614e00565b507f701184af4d14416de5ff7d43137039f8b4c7bc895af73d47ec2f8196e18feaa9878786604051610f8c93929190614ed2565b60405180910390a18294505050505061108d565b8080610fab90614856565b915050610e86565b508061108a5760006003600181600181540180825580915050039060005260206000209060050201905085816000019081610fee9190614e00565b50848160010190816110009190614e00565b50828160020160006101000a81548173ffffffffffffffffffffffffffffffffffffffff021916908373ffffffffffffffffffffffffffffffffffffffff1602179055507f701184af4d14416de5ff7d43137039f8b4c7bc895af73d47ec2f8196e18feaa986868560405161107793929190614ed2565b60405180910390a181935050505061108d565b50505b92915050565b60008060608060008060006060806000808b600081101580156110ba575060028054905081105b6110f9576040517f08c379a00000000000000000000000000000000000000000000000000000000081526004016110f090614a2e565b60405180910390fd5b600060028e8154811061110f5761110e614798565b5b90600052602060002090600a020190506000816003018054905067ffffffffffffffff81111561114257611141614026565b5b6040519080825280602002602001820160405280156111705781602001602082028036833780820191505090505b50905060005b8260030180549050811015611239578260040160008460030183815481106111a1576111a0614798565b5b9060005260206000200160009054906101000a900473ffffffffffffffffffffffffffffffffffffffff1673ffffffffffffffffffffffffffffffffffffffff1673ffffffffffffffffffffffffffffffffffffffff1681526020019081526020016000205482828151811061121a57611219614798565b5b602002602001018181525050808061123190614856565b915050611176565b5081600001548260010154600184600101548154811061125c5761125b614798565b5b9060005260206000209060040201600101600185600101548154811061128557611284614798565b5b906000526020600020906004020160020160018660010154815481106112ae576112ad614798565b5b90600052602060002090600402016003015486600801548760020160009054906101000a900460ff1688600301888a600601548b600701548880546112f2906147f6565b80601f016020809104026020016040519081016040528092919081815260200182805461131e906147f6565b801561136b5780601f106113405761010080835404028352916020019161136b565b820191906000526020600020905b81548152906001019060200180831161134e57829003601f168201915b5050505050985087805461137e906147f6565b80601f01602080910402602001604051908101604052809291908181526020018280546113aa906147f6565b80156113f75780601f106113cc576101008083540402835291602001916113f7565b820191906000526020600020905b8154815290600101906020018083116113da57829003601f168201915b505050505097508380548060200260200160405190810160405280929190818152602001828054801561147f57602002820191906000526020600020905b8160009054906101000a900473ffffffffffffffffffffffffffffffffffffffff1673ffffffffffffffffffffffffffffffffffffffff1681526020019060010190808311611435575b505050505093509d509d509d509d509d509d509d509d509d509d509d5050505091939597999b90929496989a50565b606080606080606080606080600060028054905067ffffffffffffffff8111156114db576114da614026565b5b6040519080825280602002602001820160405280156115095781602001602082028036833780820191505090505b509050600060028054905067ffffffffffffffff81111561152d5761152c614026565b5b60405190808252806020026020018201604052801561155b5781602001602082028036833780820191505090505b509050600060028054905067ffffffffffffffff81111561157f5761157e614026565b5b6040519080825280602002602001820160405280156115b257816020015b606081526020019060019003908161159d5790505b509050600060028054905067ffffffffffffffff8111156115d6576115d5614026565b5b60405190808252806020026020018201604052801561160957816020015b60608152602001906001900390816115f45790505b509050600060028054905067ffffffffffffffff81111561162d5761162c614026565b5b60405190808252806020026020018201604052801561165b5781602001602082028036833780820191505090505b509050600060028054905067ffffffffffffffff81111561167f5761167e614026565b5b6040519080825280602002602001820160405280156116ad5781602001602082028036833780820191505090505b509050600060028054905067ffffffffffffffff8111156116d1576116d0614026565b5b6040519080825280602002602001820160405280156116ff5781602001602082028036833780820191505090505b509050600060028054905067ffffffffffffffff81111561172357611722614026565b5b6040519080825280602002602001820160405280156117515781602001602082028036833780820191505090505b50905060005b600280549050811015611b4f576002818154811061177857611777614798565b5b90600052602060002090600a02016000015489828151811061179d5761179c614798565b5b602002602001018181525050600281815481106117bd576117bc614798565b5b90600052602060002090600a0201600101548882815181106117e2576117e1614798565b5b60200260200101818152505060016002828154811061180457611803614798565b5b90600052602060002090600a0201600101548154811061182757611826614798565b5b90600052602060002090600402016001018054611843906147f6565b80601f016020809104026020016040519081016040528092919081815260200182805461186f906147f6565b80156118bc5780601f10611891576101008083540402835291602001916118bc565b820191906000526020600020905b81548152906001019060200180831161189f57829003601f168201915b50505050508782815181106118d4576118d3614798565b5b60200260200101819052506001600282815481106118f5576118f4614798565b5b90600052602060002090600a0201600101548154811061191857611917614798565b5b90600052602060002090600402016002018054611934906147f6565b80601f0160208091040260200160405190810160405280929190818152602001828054611960906147f6565b80156119ad5780601f10611982576101008083540402835291602001916119ad565b820191906000526020600020905b81548152906001019060200180831161199057829003601f168201915b50505050508682815181106119c5576119c4614798565b5b60200260200101819052506001600282815481106119e6576119e5614798565b5b90600052602060002090600a02016001015481548110611a0957611a08614798565b5b906000526020600020906004020160030154858281518110611a2e57611a2d614798565b5b60200260200101818152505060028181548110611a4e57611a4d614798565b5b90600052602060002090600a020160020160009054906101000a900460ff16848281518110611a8057611a7f614798565b5b60200260200101906001811115611a9a57611a99614218565b5b90816001811115611aae57611aad614218565b5b8152505060028181548110611ac657611ac5614798565b5b90600052602060002090600a020160060154838281518110611aeb57611aea614798565b5b60200260200101818152505060028181548110611b0b57611b0a614798565b5b90600052602060002090600a020160070154828281518110611b3057611b2f614798565b5b6020026020010181815250508080611b4790614856565b915050611757565b5087878787878787879f509f509f509f509f509f509f509f5050505050505050509091929394959697565b6000606080600080600090505b600180549050811015611d7d5785604051602001611ba59190614f17565b6040516020818303038152906040528051906020012060018281548110611bcf57611bce614798565b5b9060005260206000209060040201600101604051602001611bf09190614fb1565b6040516020818303038152906040528051906020012003611d6a57600060018281548110611c2157611c20614798565b5b90600052602060002090600402019050806000015481600101826002018360030154828054611c4f906147f6565b80601f0160208091040260200160405190810160405280929190818152602001828054611c7b906147f6565b8015611cc85780601f10611c9d57610100808354040283529160200191611cc8565b820191906000526020600020905b815481529060010190602001808311611cab57829003601f168201915b50505050509250818054611cdb906147f6565b80601f0160208091040260200160405190810160405280929190818152602001828054611d07906147f6565b8015611d545780601f10611d2957610100808354040283529160200191611d54565b820191906000526020600020905b815481529060010190602001808311611d3757829003601f168201915b5050505050915095509550955095505050611db9565b8080611d7590614856565b915050611b87565b506040517f08c379a0000000000000000000000000000000000000000000000000000000008152600401611db090615014565b60405180910390fd5b9193509193565b6060806000806000611dd0613add565b60005b600380549050811015612029578773ffffffffffffffffffffffffffffffffffffffff1660038281548110611e0b57611e0a614798565b5b906000526020600020906005020160020160009054906101000a900473ffffffffffffffffffffffffffffffffffffffff1673ffffffffffffffffffffffffffffffffffffffff16036120165760038181548110611e6c57611e6b614798565b5b90600052602060002090600502016040518060a0016040529081600082018054611e95906147f6565b80601f0160208091040260200160405190810160405280929190818152602001828054611ec1906147f6565b8015611f0e5780601f10611ee357610100808354040283529160200191611f0e565b820191906000526020600020905b815481529060010190602001808311611ef157829003601f168201915b50505050508152602001600182018054611f27906147f6565b80601f0160208091040260200160405190810160405280929190818152602001828054611f53906147f6565b8015611fa05780601f10611f7557610100808354040283529160200191611fa0565b820191906000526020600020905b815481529060010190602001808311611f8357829003601f168201915b505050505081526020016002820160009054906101000a900473ffffffffffffffffffffffffffffffffffffffff1673ffffffffffffffffffffffffffffffffffffffff1673ffffffffffffffffffffffffffffffffffffffff1681526020016003820154815260200160048201548152505091505b808061202190614856565b915050611dd3565b5080600001518160200151826040015183606001518460800151955095509550955095505091939590929450565b61205f613a11565b73ffffffffffffffffffffffffffffffffffffffff1661207d6120df565b73ffffffffffffffffffffffffffffffffffffffff16146120d3576040517f08c379a00000000000000000000000000000000000000000000000000000000081526004016120ca90615080565b60405180910390fd5b6120dd6000613a19565b565b60008060009054906101000a900473ffffffffffffffffffffffffffffffffffffffff16905090565b806000811015801561211e575060028054905081105b61215d576040517f08c379a000000000000000000000000000000000000000000000000000000000815260040161215490614a2e565b60405180910390fd5b612165613a11565b73ffffffffffffffffffffffffffffffffffffffff166121836120df565b73ffffffffffffffffffffffffffffffffffffffff16146121d9576040517f08c379a00000000000000000000000000000000000000000000000000000000081526004016121d090615080565b60405180910390fd5b6000600283815481106121ef576121ee614798565b5b90600052602060002090600a020160020160006101000a81548160ff0219169083600181111561222257612221614218565b5b02179055507f345d397bdfa4f2d3d5282017eff932d0ed125d73664f138ad64b957f3154092a826002848154811061225d5761225c614798565b5b90600052602060002090600a020160020160009054906101000a900460ff1660016002868154811061229257612291614798565b5b90600052602060002090600a020160010154815481106122b5576122b4614798565b5b90600052602060002090600402016040516122d2939291906151d5565b60405180910390a15050565b60006122e8613a11565b73ffffffffffffffffffffffffffffffffffffffff166123066120df565b73ffffffffffffffffffffffffffffffffffffffff161461235c576040517f08c379a000000000000000000000000000000000000000000000000000000000815260040161235390615080565b60405180910390fd5b60005b600380549050811015612466578373ffffffffffffffffffffffffffffffffffffffff166003828154811061239757612396614798565b5b906000526020600020906005020160020160009054906101000a900473ffffffffffffffffffffffffffffffffffffffff1673ffffffffffffffffffffffffffffffffffffffff16036124535782600382815481106123f9576123f8614798565b5b9060005260206000209060050201600301819055506003818154811061242257612421614798565b5b9060005260206000209060050201600401600081548092919061244490614856565b9190505550600191505061246c565b808061245e90614856565b91505061235f565b50600090505b92915050565b6060806060600060018054905067ffffffffffffffff81111561249857612497614026565b5b6040519080825280602002602001820160405280156124cb57816020015b60608152602001906001900390816124b65790505b509050600060018054905067ffffffffffffffff8111156124ef576124ee614026565b5b60405190808252806020026020018201604052801561252257816020015b606081526020019060019003908161250d5790505b509050600060018054905067ffffffffffffffff81111561254657612545614026565b5b6040519080825280602002602001820160405280156125745781602001602082028036833780820191505090505b50905060005b600180549050811015612777576001818154811061259b5761259a614798565b5b906000526020600020906004020160010180546125b7906147f6565b80601f01602080910402602001604051908101604052809291908181526020018280546125e3906147f6565b80156126305780601f1061260557610100808354040283529160200191612630565b820191906000526020600020905b81548152906001019060200180831161261357829003601f168201915b505050505084828151811061264857612647614798565b5b60200260200101819052506001818154811061266757612666614798565b5b90600052602060002090600402016002018054612683906147f6565b80601f01602080910402602001604051908101604052809291908181526020018280546126af906147f6565b80156126fc5780601f106126d1576101008083540402835291602001916126fc565b820191906000526020600020905b8154815290600101906020018083116126df57829003601f168201915b505050505083828151811061271457612713614798565b5b60200260200101819052506001818154811061273357612732614798565b5b90600052602060002090600402016003015482828151811061275857612757614798565b5b602002602001018181525050808061276f90614856565b91505061257a565b50828282955095509550505050909192565b6000612793613a11565b73ffffffffffffffffffffffffffffffffffffffff166127b16120df565b73ffffffffffffffffffffffffffffffffffffffff1614612807576040517f08c379a00000000000000000000000000000000000000000000000000000000081526004016127fe90615080565b60405180910390fd5b8260005b6001805490508110156128dd57816040516020016128299190614f17565b604051602081830303815290604052805190602001206001828154811061285357612852614798565b5b90600052602060002090600402016001016040516020016128749190614fb1565b60405160208183030381529060405280519060200120036128ca576040517f08c379a00000000000000000000000000000000000000000000000000000000081526004016128c19061525f565b60405180910390fd5b80806128d590614856565b91505061280b565b50600060018081600181540180825580915050039060005260206000209060040201905060018080549050612912919061489e565b81600001819055508481600101908161292b9190614e00565b508381600201908161293d9190614e00565b507f8068f99c05fd8a698b784ed43ce51445a66f90ff68fcbc126d6591e9f86ec07c8160000154826001018360020184600301546040516129819493929190615303565b60405180910390a180600001549250505092915050565b600381815481106129a857600080fd5b90600052602060002090600502016000915090508060000180546129cb906147f6565b80601f01602080910402602001604051908101604052809291908181526020018280546129f7906147f6565b8015612a445780601f10612a1957610100808354040283529160200191612a44565b820191906000526020600020905b815481529060010190602001808311612a2757829003601f168201915b505050505090806001018054612a59906147f6565b80601f0160208091040260200160405190810160405280929190818152602001828054612a85906147f6565b8015612ad25780601f10612aa757610100808354040283529160200191612ad2565b820191906000526020600020905b815481529060010190602001808311612ab557829003601f168201915b5050505050908060020160009054906101000a900473ffffffffffffffffffffffffffffffffffffffff16908060030154908060040154905085565b600060608260008110158015612b28575060028054905081105b612b67576040517f08c379a0000000000000000000000000000000000000000000000000000000008152600401612b5e90614a2e565b60405180910390fd5b600060028581548110612b7d57612b7c614798565b5b90600052602060002090600a020160030180549050905060008060008367ffffffffffffffff811115612bb357612bb2614026565b5b604051908082528060200260200182016040528015612be15781602001602082028036833780820191505090505b509050600060028981548110612bfa57612bf9614798565b5b90600052602060002090600a020160090154905060005b85811015612d5757600060028b81548110612c2f57612c2e614798565b5b90600052602060002090600a0201600401600060028d81548110612c5657612c55614798565b5b90600052602060002090600a02016003018481548110612c7957612c78614798565b5b9060005260206000200160009054906101000a900473ffffffffffffffffffffffffffffffffffffffff1673ffffffffffffffffffffffffffffffffffffffff1673ffffffffffffffffffffffffffffffffffffffff1681526020019081526020016000205490506000612ced848361091c565b905080858481518110612d0357612d02614798565b5b6020026020010181815250508087612d1b919061498c565b9650806064612d2a9190615356565b82612d3591906153ea565b86612d409190615501565b955050508080612d4f90614856565b915050612c11565b50600084866064612d6891906153ea565b612d729190615356565b905060008185612d829190615595565b90508084995099505050505050505050915091565b8160008110158015612dad575060028054905081105b612dec576040517f08c379a0000000000000000000000000000000000000000000000000000000008152600401612de390614a2e565b60405180910390fd5b612df4613a11565b73ffffffffffffffffffffffffffffffffffffffff16612e126120df565b73ffffffffffffffffffffffffffffffffffffffff1614612e68576040517f08c379a0000000000000000000000000000000000000000000000000000000008152600401612e5f90615080565b60405180910390fd5b600160028481548110612e7e57612e7d614798565b5b90600052602060002090600a020160020160006101000a81548160ff02191690836001811115612eb157612eb0614218565b5b02179055504260028481548110612ecb57612eca614798565b5b90600052602060002090600a0201600601819055508160028481548110612ef557612ef4614798565b5b90600052602060002090600a0201600701819055507fd55a4f4210056086ae4c4b2cd9f0b30e2fc72fd80ada93ca8b57bac1177bffde8360028581548110612f4057612f3f614798565b5b90600052602060002090600a020160020160009054906101000a900460ff16600160028781548110612f7557612f74614798565b5b90600052602060002090600a02016001015481548110612f9857612f97614798565b5b9060005260206000209060040201604051612fb5939291906151d5565b60405180910390a1505050565b612fca613a11565b73ffffffffffffffffffffffffffffffffffffffff16612fe86120df565b73ffffffffffffffffffffffffffffffffffffffff161461303e576040517f08c379a000000000000000000000000000000000000000000000000000000000815260040161303590615080565b60405180910390fd5b600073ffffffffffffffffffffffffffffffffffffffff168173ffffffffffffffffffffffffffffffffffffffff16036130ad576040517f08c379a00000000000000000000000000000000000000000000000000000000081526004016130a490615671565b60405180910390fd5b6130b681613a19565b50565b6130c1613a11565b73ffffffffffffffffffffffffffffffffffffffff166130df6120df565b73ffffffffffffffffffffffffffffffffffffffff1614613135576040517f08c379a000000000000000000000000000000000000000000000000000000000815260040161312c90615080565b60405180910390fd5b816000600181111561314a57613149614218565b5b6002828154811061315e5761315d614798565b5b90600052602060002090600a020160020160009054906101000a900460ff16600181111561318f5761318e614218565b5b146131cf576040517f08c379a00000000000000000000000000000000000000000000000000000000081526004016131c6906156dd565b60405180910390fd5b600283815481106131e3576131e2614798565b5b90600052602060002090600a0201600101546000811015801561320a575060018054905081105b613249576040517f08c379a000000000000000000000000000000000000000000000000000000000815260040161324090614a2e565b60405180910390fd5b60006002858154811061325f5761325e614798565b5b90600052602060002090600a0201600101549050836001828154811061328857613287614798565b5b9060005260206000209060040201600301819055506000600286815481106132b3576132b2614798565b5b90600052602060002090600a020190508481600901819055506000806132d888612b0e565b9150915081836008018190555060005b81518110156133a45781818151811061330457613303614798565b5b602002602001015184600501600086600301848154811061332857613327614798565b5b9060005260206000200160009054906101000a900473ffffffffffffffffffffffffffffffffffffffff1673ffffffffffffffffffffffffffffffffffffffff1673ffffffffffffffffffffffffffffffffffffffff16815260200190815260200160002081905550808061339c90614856565b9150506132e8565b5060005b836003018054905081101561350a576000613444898660040160008860030186815481106133d9576133d8614798565b5b9060005260206000200160009054906101000a900473ffffffffffffffffffffffffffffffffffffffff1673ffffffffffffffffffffffffffffffffffffffff1673ffffffffffffffffffffffffffffffffffffffff1681526020019081526020016000205461091c565b905060008061349287600301858154811061346257613461614798565b5b9060005260206000200160009054906101000a900473ffffffffffffffffffffffffffffffffffffffff16611dc0565b9450945050505060006134a6838584610979565b90506134f28860030186815481106134c1576134c0614798565b5b9060005260206000200160009054906101000a900473ffffffffffffffffffffffffffffffffffffffff16826122de565b5050505050808061350290614856565b9150506133a8565b507f98b36ee88a9e0f508dbe2980caf8744d83894b6ec268031f30b148c4c763430784888a85856040516135429594939291906156fd565b60405180910390a15050505050505050565b6000816000811015801561356c575060018054905081105b6135ab576040517f08c379a00000000000000000000000000000000000000000000000000000000081526004016135a290614a2e565b60405180910390fd5b6135b3613a11565b73ffffffffffffffffffffffffffffffffffffffff166135d16120df565b73ffffffffffffffffffffffffffffffffffffffff1614613627576040517f08c379a000000000000000000000000000000000000000000000000000000000815260040161361e90615080565b60405180910390fd5b600060026001816001815401808255809150500390600052602060002090600a0201905083816001018190555060008160020160006101000a81548160ff0219169083600181111561367c5761367b614218565b5b021790555060008160080181905550613693613b22565b60005b60018054905081101561384a5785600182815481106136b8576136b7614798565b5b9060005260206000209060040201600001540361383757600181815481106136e3576136e2614798565b5b906000526020600020906004020160405180608001604052908160008201548152602001600182018054613716906147f6565b80601f0160208091040260200160405190810160405280929190818152602001828054613742906147f6565b801561378f5780601f106137645761010080835404028352916020019161378f565b820191906000526020600020905b81548152906001019060200180831161377257829003601f168201915b505050505081526020016002820180546137a8906147f6565b80601f01602080910402602001604051908101604052809291908181526020018280546137d4906147f6565b80156138215780601f106137f657610100808354040283529160200191613821565b820191906000526020600020905b81548152906001019060200180831161380457829003601f168201915b5050505050815260200160038201548152505091505b808061384290614856565b915050613696565b507f9887df6b5f7c48fc3815191894f4c61c05f6327db6b6eaaaee1325d1bde4c53081600160028054905061387f919061489e565b60405161388d9291906157c1565b60405180910390a160016002805490506138a7919061489e565b9350505050919050565b6060600082036138f8576040518060400160405280600181526020017f30000000000000000000000000000000000000000000000000000000000000008152509050613a0c565b600082905060005b6000821461392a57808061391390614856565b915050600a826139239190614901565b9150613900565b60008167ffffffffffffffff81111561394657613945614026565b5b6040519080825280601f01601f1916602001820160405280156139785781602001600182028036833780820191505090505b5090505b60008514613a0557600182613991919061489e565b9150600a856139a091906157f1565b60306139ac919061498c565b60f81b8183815181106139c2576139c1614798565b5b60200101907effffffffffffffffffffffffffffffffffffffffffffffffffffffffffffff1916908160001a905350600a856139fe9190614901565b945061397c565b8093505050505b919050565b600033905090565b60008060009054906101000a900473ffffffffffffffffffffffffffffffffffffffff169050816000806101000a81548173ffffffffffffffffffffffffffffffffffffffff021916908373ffffffffffffffffffffffffffffffffffffffff1602179055508173ffffffffffffffffffffffffffffffffffffffff168173ffffffffffffffffffffffffffffffffffffffff167f8be0079c531659141344cd1fd0a4f28419497f9722a3daafe3b4186f6b6457e060405160405180910390a35050565b6040518060a001604052806060815260200160608152602001600073ffffffffffffffffffffffffffffffffffffffff16815260200160008152602001600081525090565b6040518060800160405280600081526020016060815260200160608152602001600081525090565b600081519050919050565b600082825260208201905092915050565b6000819050602082019050919050565b600081519050919050565b600082825260208201905092915050565b60005b83811015613bb0578082015181840152602081019050613b95565b83811115613bbf576000848401525b50505050565b6000601f19601f8301169050919050565b6000613be182613b76565b613beb8185613b81565b9350613bfb818560208601613b92565b613c0481613bc5565b840191505092915050565b6000613c1b8383613bd6565b905092915050565b6000602082019050919050565b6000613c3b82613b4a565b613c458185613b55565b935083602082028501613c5785613b66565b8060005b85811015613c935784840389528151613c748582613c0f565b9450613c7f83613c23565b925060208a01995050600181019050613c5b565b50829750879550505050505092915050565b600081519050919050565b600082825260208201905092915050565b6000819050602082019050919050565b600073ffffffffffffffffffffffffffffffffffffffff82169050919050565b6000613cfc82613cd1565b9050919050565b613d0c81613cf1565b82525050565b6000613d1e8383613d03565b60208301905092915050565b6000602082019050919050565b6000613d4282613ca5565b613d4c8185613cb0565b9350613d5783613cc1565b8060005b83811015613d88578151613d6f8882613d12565b9750613d7a83613d2a565b925050600181019050613d5b565b5085935050505092915050565b60006060820190508181036000830152613daf8186613c30565b90508181036020830152613dc38185613c30565b90508181036040830152613dd78184613d37565b9050949350505050565b6000604051905090565b600080fd5b600080fd5b6000819050919050565b613e0881613df5565b8114613e1357600080fd5b50565b600081359050613e2581613dff565b92915050565b600060208284031215613e4157613e40613deb565b5b6000613e4f84828501613e16565b91505092915050565b613e6181613df5565b82525050565b600082825260208201905092915050565b6000613e8382613b76565b613e8d8185613e67565b9350613e9d818560208601613b92565b613ea681613bc5565b840191505092915050565b6000606082019050613ec66000830186613e58565b8181036020830152613ed88185613e78565b9050613ee76040830184613e58565b949350505050565b60008060408385031215613f0657613f05613deb565b5b6000613f1485828601613e16565b9250506020613f2585828601613e16565b9150509250929050565b6000602082019050613f446000830184613e58565b92915050565b600080600060608486031215613f6357613f62613deb565b5b6000613f7186828701613e16565b9350506020613f8286828701613e16565b9250506040613f9386828701613e16565b9150509250925092565b613fa681613cf1565b8114613fb157600080fd5b50565b600081359050613fc381613f9d565b92915050565b600080600060608486031215613fe257613fe1613deb565b5b6000613ff086828701613e16565b935050602061400186828701613e16565b925050604061401286828701613fb4565b9150509250925092565b600080fd5b600080fd5b7f4e487b7100000000000000000000000000000000000000000000000000000000600052604160045260246000fd5b61405e82613bc5565b810181811067ffffffffffffffff8211171561407d5761407c614026565b5b80604052505050565b6000614090613de1565b905061409c8282614055565b919050565b600067ffffffffffffffff8211156140bc576140bb614026565b5b6140c582613bc5565b9050602081019050919050565b82818337600083830152505050565b60006140f46140ef846140a1565b614086565b9050828152602081018484840111156141105761410f614021565b5b61411b8482856140d2565b509392505050565b600082601f8301126141385761413761401c565b5b81356141488482602086016140e1565b91505092915050565b6000806040838503121561416857614167613deb565b5b600083013567ffffffffffffffff81111561418657614185613df0565b5b61419285828601614123565b925050602083013567ffffffffffffffff8111156141b3576141b2613df0565b5b6141bf85828601614123565b9150509250929050565b60008115159050919050565b6141de816141c9565b82525050565b60006020820190506141f960008301846141d5565b92915050565b6000819050919050565b614212816141ff565b82525050565b7f4e487b7100000000000000000000000000000000000000000000000000000000600052602160045260246000fd5b6002811061425857614257614218565b5b50565b600081905061426982614247565b919050565b60006142798261425b565b9050919050565b6142898161426e565b82525050565b600081519050919050565b600082825260208201905092915050565b6000819050602082019050919050565b6142c481613df5565b82525050565b60006142d683836142bb565b60208301905092915050565b6000602082019050919050565b60006142fa8261428f565b614304818561429a565b935061430f836142ab565b8060005b8381101561434057815161432788826142ca565b9750614332836142e2565b925050600181019050614313565b5085935050505092915050565b600061016082019050614363600083018e613e58565b614370602083018d613e58565b8181036040830152614382818c613e78565b90508181036060830152614396818b613e78565b90506143a5608083018a613e58565b6143b260a0830189614209565b6143bf60c0830188614280565b81810360e08301526143d18187613d37565b90508181036101008301526143e681866142ef565b90506143f6610120830185613e58565b614404610140830184613e58565b9c9b505050505050505050505050565b600081519050919050565b600082825260208201905092915050565b6000819050602082019050919050565b6144498161426e565b82525050565b600061445b8383614440565b60208301905092915050565b6000602082019050919050565b600061447f82614414565b614489818561441f565b935061449483614430565b8060005b838110156144c55781516144ac888261444f565b97506144b783614467565b925050600181019050614498565b5085935050505092915050565b60006101008201905081810360008301526144ed818b6142ef565b90508181036020830152614501818a6142ef565b905081810360408301526145158189613c30565b905081810360608301526145298188613c30565b9050818103608083015261453d81876142ef565b905081810360a08301526145518186614474565b905081810360c083015261456581856142ef565b905081810360e083015261457981846142ef565b90509998505050505050505050565b60006020828403121561459e5761459d613deb565b5b600082013567ffffffffffffffff8111156145bc576145bb613df0565b5b6145c884828501614123565b91505092915050565b60006080820190506145e66000830187613e58565b81810360208301526145f88186613e78565b9050818103604083015261460c8185613e78565b905061461b6060830184613e58565b95945050505050565b60006020828403121561463a57614639613deb565b5b600061464884828501613fb4565b91505092915050565b61465a81613cf1565b82525050565b600060a082019050818103600083015261467a8188613e78565b9050818103602083015261468e8187613e78565b905061469d6040830186614651565b6146aa6060830185613e58565b6146b76080830184613e58565b9695505050505050565b60006020820190506146d66000830184614651565b92915050565b600080604083850312156146f3576146f2613deb565b5b600061470185828601613fb4565b925050602061471285828601613e16565b9150509250929050565b600060608201905081810360008301526147368186613c30565b9050818103602083015261474a8185613c30565b9050818103604083015261475e81846142ef565b9050949350505050565b600060408201905061477d6000830185614209565b818103602083015261478f81846142ef565b90509392505050565b7f4e487b7100000000000000000000000000000000000000000000000000000000600052603260045260246000fd5b7f4e487b7100000000000000000000000000000000000000000000000000000000600052602260045260246000fd5b6000600282049050600182168061480e57607f821691505b602082108103614821576148206147c7565b5b50919050565b7f4e487b7100000000000000000000000000000000000000000000000000000000600052601160045260246000fd5b600061486182613df5565b91507fffffffffffffffffffffffffffffffffffffffffffffffffffffffffffffffff820361489357614892614827565b5b600182019050919050565b60006148a982613df5565b91506148b483613df5565b9250828210156148c7576148c6614827565b5b828203905092915050565b7f4e487b7100000000000000000000000000000000000000000000000000000000600052601260045260246000fd5b600061490c82613df5565b915061491783613df5565b925082614927576149266148d2565b5b828204905092915050565b600061493d82613df5565b915061494883613df5565b9250817fffffffffffffffffffffffffffffffffffffffffffffffffffffffffffffffff048311821515161561498157614980614827565b5b828202905092915050565b600061499782613df5565b91506149a283613df5565b9250827fffffffffffffffffffffffffffffffffffffffffffffffffffffffffffffffff038211156149d7576149d6614827565b5b828201905092915050565b7f49442073657373696f6e206973206e6f74206578697374000000000000000000600082015250565b6000614a18601783613e67565b9150614a23826149e2565b602082019050919050565b60006020820190508181036000830152614a4781614a0b565b9050919050565b7f72656163686564207061727469636970616e7473206c696d69743a2000000000815250565b600081905092915050565b6000614a8a82613b76565b614a948185614a74565b9350614aa4818560208601613b92565b80840191505092915050565b6000614abb82614a4e565b601c82019150614acb8284614a7f565b915081905092915050565b60006020820190508181036000830152614af08184613e78565b905092915050565b7f596f752776652072756e206f7574206f662074696d6500000000000000000000815250565b7f2d00000000000000000000000000000000000000000000000000000000000000815250565b6000614b4f82614af8565b601682019150614b5e82614b1e565b600182019150614b6e8286614a7f565b9150614b7982614b1e565b600182019150614b898285614a7f565b9150614b9482614b1e565b600182019150614ba48284614a7f565b9150819050949350505050565b7f53657373696f6e20636c6f736564000000000000000000000000000000000000600082015250565b6000614be7600e83613e67565b9150614bf282614bb1565b602082019050919050565b60006020820190508181036000830152614c1681614bda565b9050919050565b6000606082019050614c326000830186614651565b614c3f6020830185613e58565b614c4c6040830184613e58565b949350505050565b60008190508160005260206000209050919050565b60006020601f8301049050919050565b600082821b905092915050565b600060088302614cb67fffffffffffffffffffffffffffffffffffffffffffffffffffffffffffffffff82614c79565b614cc08683614c79565b95508019841693508086168417925050509392505050565b6000819050919050565b6000614cfd614cf8614cf384613df5565b614cd8565b613df5565b9050919050565b6000819050919050565b614d1783614ce2565b614d2b614d2382614d04565b848454614c86565b825550505050565b600090565b614d40614d33565b614d4b818484614d0e565b505050565b5b81811015614d6f57614d64600082614d38565b600181019050614d51565b5050565b601f821115614db457614d8581614c54565b614d8e84614c69565b81016020851015614d9d578190505b614db1614da985614c69565b830182614d50565b50505b505050565b600082821c905092915050565b6000614dd760001984600802614db9565b1980831691505092915050565b6000614df08383614dc6565b9150826002028217905092915050565b614e0982613b76565b67ffffffffffffffff811115614e2257614e21614026565b5b614e2c82546147f6565b614e37828285614d73565b600060209050601f831160018114614e6a5760008415614e58578287015190505b614e628582614de4565b865550614eca565b601f198416614e7886614c54565b60005b82811015614ea057848901518255600182019150602085019450602081019050614e7b565b86831015614ebd5784890151614eb9601f891682614dc6565b8355505b6001600288020188555050505b505050505050565b60006060820190508181036000830152614eec8186613e78565b90508181036020830152614f008185613e78565b9050614f0f6040830184614651565b949350505050565b6000614f238284614a7f565b915081905092915050565b60008154614f3b816147f6565b614f458186614a74565b94506001821660008114614f605760018114614f7557614fa8565b60ff1983168652811515820286019350614fa8565b614f7e85614c54565b60005b83811015614fa057815481890152600182019150602081019050614f81565b838801955050505b50505092915050565b6000614fbd8284614f2e565b915081905092915050565b7f50726f64756374206973206e6f74206578697374000000000000000000000000600082015250565b6000614ffe601483613e67565b915061500982614fc8565b602082019050919050565b6000602082019050818103600083015261502d81614ff1565b9050919050565b7f4f776e61626c653a2063616c6c6572206973206e6f7420746865206f776e6572600082015250565b600061506a602083613e67565b915061507582615034565b602082019050919050565b600060208201905081810360008301526150998161505d565b9050919050565b60008160001c9050919050565b6000819050919050565b60006150ca6150c5836150a0565b6150ad565b9050919050565b600081546150de816147f6565b6150e88186613b81565b9450600182166000811461510357600181146151195761514c565b60ff19831686528115156020028601935061514c565b61512285614c54565b60005b8381101561514457815481890152600182019150602081019050615125565b808801955050505b50505092915050565b600060808301600080840154905061516c816150b7565b61517960008701826142bb565b5060018401858303602087015261519083826150d1565b9250506002840185830360408701526151a983826150d1565b925050600384015490506151bc816150b7565b6151c960608701826142bb565b50819250505092915050565b60006060820190506151ea6000830186613e58565b6151f76020830185614280565b81810360408301526152098184615155565b9050949350505050565b7f546869732070726f6475637420686173206265656e2061646465640000000000600082015250565b6000615249601b83613e67565b915061525482615213565b602082019050919050565b600060208201905081810360008301526152788161523c565b9050919050565b6000815461528c816147f6565b6152968186613e67565b945060018216600081146152b157600181146152c7576152fa565b60ff1983168652811515602002860193506152fa565b6152d085614c54565b60005b838110156152f2578154818901526001820191506020810190506152d3565b808801955050505b50505092915050565b60006080820190506153186000830187613e58565b818103602083015261532a818661527f565b9050818103604083015261533e818561527f565b905061534d6060830184613e58565b95945050505050565b6000615361826141ff565b915061536c836141ff565b9250827f8000000000000000000000000000000000000000000000000000000000000000018212600084121516156153a7576153a6614827565b5b827f7fffffffffffffffffffffffffffffffffffffffffffffffffffffffffffffff0182136000841216156153df576153de614827565b5b828203905092915050565b60006153f5826141ff565b9150615400836141ff565b9250827f7fffffffffffffffffffffffffffffffffffffffffffffffffffffffffffffff048211600084136000841316161561543f5761543e614827565b5b817f8000000000000000000000000000000000000000000000000000000000000000058312600084126000841316161561547c5761547b614827565b5b827f800000000000000000000000000000000000000000000000000000000000000005821260008413600084121616156154b9576154b8614827565b5b827f7fffffffffffffffffffffffffffffffffffffffffffffffffffffffffffffff05821260008412600084121616156154f6576154f5614827565b5b828202905092915050565b600061550c826141ff565b9150615517836141ff565b9250817f7fffffffffffffffffffffffffffffffffffffffffffffffffffffffffffffff0383136000831215161561555257615551614827565b5b817f800000000000000000000000000000000000000000000000000000000000000003831260008312161561558a57615589614827565b5b828201905092915050565b60006155a0826141ff565b91506155ab836141ff565b9250826155bb576155ba6148d2565b5b600160000383147f8000000000000000000000000000000000000000000000000000000000000000831416156155f4576155f3614827565b5b828205905092915050565b7f4f776e61626c653a206e6577206f776e657220697320746865207a65726f206160008201527f6464726573730000000000000000000000000000000000000000000000000000602082015250565b600061565b602683613e67565b9150615666826155ff565b604082019050919050565b6000602082019050818103600083015261568a8161564e565b9050919050565b7f53657373696f6e20776173206e6f7420636c6f73656400000000000000000000600082015250565b60006156c7601683613e67565b91506156d282615691565b602082019050919050565b600060208201905081810360008301526156f6816156ba565b9050919050565b600060a0820190506157126000830188613e58565b61571f6020830187613e58565b61572c6040830186613e58565b6157396060830185614209565b818103608083015261574b81846142ef565b90509695505050505050565b600060808301600083015161576f60008601826142bb565b50602083015184820360208601526157878282613bd6565b915050604083015184820360408601526157a18282613bd6565b91505060608301516157b660608601826142bb565b508091505092915050565b600060408201905081810360008301526157db8185615757565b90506157ea6020830184613e58565b9392505050565b60006157fc82613df5565b915061580783613df5565b925082615817576158166148d2565b5b82820690509291505056fea2646970667358221220b52ff0958bd812ec3d73a0479d2e7447a2f7661c819c425291197fb0989cabe764736f6c634300080f0033",
  "immutableReferences": {},
  "source": "// SPDX-License-Identifier: MIT\r\npragma solidity ^0.8.0;\r\nimport \"@openzeppelin/contracts/access/Ownable.sol\";\r\nimport \"@openzeppelin/contracts/utils/Strings.sol\";\r\nimport \"./lib/myMath.sol\";\r\n\r\ncontract PricingChain is Ownable {\r\n    enum State {\r\n        CLOSE,\r\n        OPEN\r\n    }\r\n\r\n    struct Product {\r\n        uint256 id;\r\n        string ipfsID;\r\n        string name;\r\n        uint256 price; // P\r\n    }\r\n\r\n    struct Session {\r\n        uint256 id;\r\n        uint256 productID;\r\n        State state;\r\n        address[] participants;\r\n        mapping(address => uint256) participant_pricing;\r\n        mapping(address => uint256) deviationOfParticipants;\r\n        uint256 timeStarted;\r\n        uint256 timeout;\r\n        int proposedPrice;\r\n        uint256 finalPrice;\r\n    }\r\n\r\n    struct User {\r\n        string name;\r\n        string email;\r\n        address walletAddress;\r\n        uint accumulatedDeviation;\r\n        uint numbersOfSessionJoined;\r\n    }\r\n\r\n    event onRegisted(string name, string email, address addr);\r\n    event onProductAdded(\r\n        uint256 productID,\r\n        string ipfsID,\r\n        string name,\r\n        uint256 price\r\n    );\r\n    event onCreatedSession(Product p, uint256 sessionID);\r\n    event onStartedSession(uint256 id, State, Product p);\r\n    event onClosedSession(uint256 id, State, Product p);\r\n    event onGuessPrice(address participant, uint256 price, uint256 sessionID);\r\n    event onSetPrice(\r\n        uint256 productID,\r\n        uint256 price,\r\n        uint256 sessionID,\r\n        int proposedPrice,\r\n        uint[] deviationOfParticipants\r\n    );\r\n\r\n    // S ngi tham gia ti a\r\n    uint8 private participantsLimit = 10;\r\n\r\n    // m xem c bao nhiu sn phm\r\n    // danh sch sn phm, uint l id ca sn phm\r\n    Product[] private _products;\r\n\r\n    // danh sch session\r\n    Session[] private _sessions;\r\n    User[] public _users;\r\n\r\n    constructor() public {\r\n        /* test */\r\n        /*addProduct(\r\n            \"QmSy425yK2bjAzWp2ba68HzFdAfwtfD64auk52xs5LoxQr\",\r\n            \"galaxy s22\"\r\n        );\r\n        addProduct(\r\n            \"QmNndBy2XHuM4f2vVwmykfkEXytAcrAX88HCfFC2V6VYNL\",\r\n            \"giay golf\"\r\n        );\r\n        // _products[0].price = 10;\r\n\r\n        createSession(0);\r\n        startSession(0, 0);\r\n\r\n        guessPrice(0, 5 ether, 0x746e9Fbb7E066435eF4208E3661e4B42aD09A0dD);\r\n        guessPrice(0, 2 ether, 0xe8584AA83Df68EA98e840dAc05782B81559D1Da1);\r\n        guessPrice(0, 24 ether, 0x53C6E288B9eF2E2627b09E4DEAec3806A0571Cf1);\r\n        guessPrice(0, 7 ether, 0x9428207253BC364209212d07B88E21c2fCF916d6);\r\n        guessPrice(0, 4 ether, 0x2769C260f31240901271C53D72E263D16b4F1946);\r\n        closeSession(0);*/\r\n    }\r\n\r\n    // register and update user infomation\r\n    function register(string memory name, string memory email)\r\n        public\r\n        returns (bool _exist)\r\n    {\r\n        address addr = msg.sender;\r\n        bool exist = false;\r\n        for (uint i = 0; i < _users.length; i++) {\r\n            if (addr == _users[i].walletAddress) {\r\n                exist = true;\r\n                User storage u;\r\n                u = _users[i];\r\n                u.name = name;\r\n                u.email = email;\r\n                emit onRegisted(name, email, addr);\r\n                return (exist);\r\n            }\r\n        }\r\n        if (!exist) {\r\n            User storage u;\r\n            u = _users.push();\r\n            u.name = name;\r\n            u.email = email;\r\n            u.walletAddress = addr;\r\n            emit onRegisted(name, email, addr);\r\n            return (exist);\r\n        }\r\n    }\r\n\r\n    function getUser(address addr)\r\n        public\r\n        view\r\n        returns (\r\n            string memory _name,\r\n            string memory _email,\r\n            address _walletAddress,\r\n            uint _accumulatedDeviation,\r\n            uint _numbersOfSessionJoined\r\n        )\r\n    {\r\n        User memory u;\r\n        for (uint256 i = 0; i < _users.length; i++) {\r\n            if (_users[i].walletAddress == addr) {\r\n                u = _users[i];\r\n            }\r\n        }\r\n        return (\r\n            u.name,\r\n            u.email,\r\n            u.walletAddress,\r\n            u.accumulatedDeviation,\r\n            u.numbersOfSessionJoined\r\n        );\r\n    }\r\n\r\n    function getUsers()\r\n        public\r\n        view\r\n        returns (\r\n            string[] memory _names,\r\n            string[] memory _emails,\r\n            address[] memory _walletAddresses\r\n        )\r\n    {\r\n        string[] memory names = new string[](_users.length);\r\n        string[] memory emails = new string[](_users.length);\r\n        address[] memory walletAddresses = new address[](_users.length);\r\n        for (uint i = 0; i < _users.length; i++) {\r\n            names[i] = _users[i].name;\r\n            emails[i] = _users[i].email;\r\n            walletAddresses[i] = _users[i].walletAddress;\r\n        }\r\n        return (names, emails, walletAddresses);\r\n    }\r\n\r\n    function setUserAccumulatedDeviation(\r\n        address user,\r\n        uint accumulatedDeviation\r\n    ) public onlyOwner returns (bool status) {\r\n        for (uint i = 0; i < _users.length; i++) {\r\n            if (_users[i].walletAddress == user) {\r\n                _users[i].accumulatedDeviation = accumulatedDeviation;\r\n                _users[i].numbersOfSessionJoined++;\r\n                return true;\r\n            }\r\n        }\r\n        return false;\r\n    }\r\n\r\n    modifier isProductAdded(string memory ipfsID) {\r\n        for (uint256 i = 0; i < _products.length; i++) {\r\n            if (\r\n                keccak256(abi.encodePacked((_products[i].ipfsID))) ==\r\n                keccak256(abi.encodePacked((ipfsID)))\r\n            ) {\r\n                revert(\"This product has been added\");\r\n            }\r\n        }\r\n        _;\r\n    }\r\n\r\n    function addProduct(string memory ipfsID, string memory name)\r\n        public\r\n        onlyOwner\r\n        isProductAdded(ipfsID)\r\n        returns (uint256 id)\r\n    {\r\n        Product storage p = _products.push();\r\n        p.id = _products.length - 1;\r\n        p.ipfsID = ipfsID;\r\n        p.name = name;\r\n        emit onProductAdded(p.id, p.ipfsID, p.name, p.price);\r\n        return p.id;\r\n    }\r\n\r\n    function getProductByID(uint256 ID)\r\n        public\r\n        view\r\n        returns (\r\n            uint256 id,\r\n            string memory ipfsID,\r\n            uint256 price\r\n        )\r\n    {\r\n        if (ID < 0 || ID >= _products.length) ID = _products.length - 1;\r\n        Product storage p = _products[ID];\r\n        /*Session storage s;\r\n        uint[] memory _prices;\r\n        address[] memory participants;\r\n        // ly phin nh gi cui cng vi sn phm \r\n        for (uint i = _sessions.length - 1; i >= 0; i--) {\r\n            if (_sessions[i].productID == ID) {\r\n                s = _sessions[i];\r\n                _prices = new uint[](s.participants.length);\r\n\r\n                for (uint j = 0; j < s.participants.length; j++) {\r\n                    _prices[j] = s.participant_pricing[s.participants[j]];\r\n                }\r\n                participants = s.participants;\r\n                break;\r\n            }\r\n        }*/\r\n        return (p.id, p.ipfsID, p.price);\r\n    }\r\n\r\n    function getProduct(string memory _ipfsID)\r\n        public\r\n        view\r\n        returns (\r\n            uint256 id,\r\n            string memory ipfsID,\r\n            string memory name,\r\n            uint256 price\r\n        )\r\n    {\r\n        for (uint256 i = 0; i < _products.length; i++) {\r\n            if (\r\n                keccak256(abi.encodePacked((_products[i].ipfsID))) ==\r\n                keccak256(abi.encodePacked((_ipfsID)))\r\n            ) {\r\n                Product storage p = _products[i];\r\n                return (p.id, p.ipfsID, p.name, p.price);\r\n            }\r\n        }\r\n        revert(\"Product is not exist\");\r\n    }\r\n\r\n    function getProducts()\r\n        public\r\n        view\r\n        returns (\r\n            string[] memory ipfsIDs,\r\n            string[] memory names,\r\n            uint256[] memory prices\r\n        )\r\n    {\r\n        string[] memory _ipfsIDs = new string[](_products.length);\r\n        string[] memory _names = new string[](_products.length);\r\n        uint256[] memory _prices = new uint256[](_products.length);\r\n        for (uint256 i = 0; i < _products.length; i++) {\r\n            _ipfsIDs[i] = _products[i].ipfsID;\r\n            _names[i] = _products[i].name;\r\n            _prices[i] = _products[i].price;\r\n        }\r\n        return (_ipfsIDs, _names, _prices);\r\n    }\r\n\r\n    modifier productExist(uint256 ID) {\r\n        require(ID >= 0 && ID < _products.length, \"ID session is not exist\");\r\n        _;\r\n    }\r\n\r\n    modifier sessionExist(uint256 ID) {\r\n        require(ID >= 0 && ID < _sessions.length, \"ID session is not exist\");\r\n        _;\r\n    }\r\n\r\n    // to phin u gi\r\n    function createSession(uint256 productID)\r\n        public\r\n        productExist(productID)\r\n        onlyOwner\r\n        returns (uint256 id)\r\n    {\r\n        Session storage s = _sessions.push();\r\n        s.productID = productID;\r\n        s.state = State.CLOSE;\r\n        s.proposedPrice = 0;\r\n        Product memory p;\r\n        for (uint256 i = 0; i < _products.length; i++) {\r\n            if (_products[i].id == productID) p = _products[i];\r\n        }\r\n        emit onCreatedSession(p, _sessions.length - 1);\r\n        return _sessions.length - 1;\r\n    }\r\n\r\n    function startSession(uint256 ID, uint256 timeout)\r\n        public\r\n        sessionExist(ID)\r\n        onlyOwner\r\n    {\r\n        _sessions[ID].state = State.OPEN;\r\n        _sessions[ID].timeStarted = block.timestamp;\r\n        _sessions[ID].timeout = timeout;\r\n        emit onStartedSession(\r\n            ID,\r\n            _sessions[ID].state,\r\n            _products[_sessions[ID].productID]\r\n        );\r\n    }\r\n\r\n    function closeSession(uint256 ID) public sessionExist(ID) onlyOwner {\r\n        _sessions[ID].state = State.CLOSE;\r\n        emit onClosedSession(\r\n            ID,\r\n            _sessions[ID].state,\r\n            _products[_sessions[ID].productID]\r\n        );\r\n    }\r\n\r\n    function getSessions()\r\n        public\r\n        view\r\n        returns (\r\n            uint256[] memory sessionIDs,\r\n            uint256[] memory productIDs,\r\n            string[] memory ipfsIDs,\r\n            string[] memory names,\r\n            uint256[] memory prices,\r\n            // uint256[] memory proposedPrices,\r\n            State[] memory states,\r\n            uint256[] memory timeStarteds,\r\n            uint256[] memory timeouts\r\n        )\r\n    {\r\n        uint256[] memory _sessionIDs = new uint256[](_sessions.length);\r\n        uint256[] memory _productIDs = new uint256[](_sessions.length);\r\n        string[] memory _ipfsIDs = new string[](_sessions.length);\r\n        string[] memory _names = new string[](_sessions.length);\r\n        uint256[] memory _prices = new uint256[](_sessions.length);\r\n        // uint256[] memory _proposedPrices = new uint256[](_sessions.length);\r\n        State[] memory _states = new State[](_sessions.length);\r\n        uint256[] memory _timeStarteds = new uint256[](_sessions.length);\r\n        uint256[] memory _timeouts = new uint256[](_sessions.length);\r\n        for (uint256 i = 0; i < _sessions.length; i++) {\r\n            _sessionIDs[i] = _sessions[i].id;\r\n            _productIDs[i] = _sessions[i].productID;\r\n            _ipfsIDs[i] = _products[_sessions[i].productID].ipfsID;\r\n            _names[i] = _products[_sessions[i].productID].name;\r\n            _prices[i] = _products[_sessions[i].productID].price;\r\n            // _proposedPrices[i] = _sessions[i].proposedPrice;\r\n            _states[i] = _sessions[i].state;\r\n            _timeStarteds[i] = _sessions[i].timeStarted;\r\n            _timeouts[i] = _sessions[i].timeout;\r\n        }\r\n        return (\r\n            _sessionIDs,\r\n            _productIDs,\r\n            _ipfsIDs,\r\n            _names,\r\n            _prices,\r\n            // _proposedPrices,\r\n            _states,\r\n            _timeStarteds,\r\n            _timeouts\r\n        );\r\n    }\r\n\r\n    function getSession(uint256 id)\r\n        public\r\n        view\r\n        sessionExist(id)\r\n        returns (\r\n            uint256 sessionID,\r\n            uint256 productID,\r\n            string memory ipfsID,\r\n            string memory name,\r\n            uint256 price,\r\n            int proposedPrice,\r\n            State state,\r\n            address[] memory participants,\r\n            uint256[] memory participant_pricings,\r\n            uint256 timeStarted,\r\n            uint256 timeout\r\n        )\r\n    {\r\n        Session storage session = _sessions[id];\r\n        uint256[] memory _participant_pricings = new uint256[](\r\n            session.participants.length\r\n        );\r\n        for (uint256 i = 0; i < session.participants.length; i++) {\r\n            _participant_pricings[i] = session.participant_pricing[\r\n                session.participants[i]\r\n            ];\r\n        }\r\n        return (\r\n            session.id,\r\n            session.productID,\r\n            _products[session.productID].ipfsID,\r\n            _products[session.productID].name,\r\n            _products[session.productID].price,\r\n            session.proposedPrice,\r\n            session.state,\r\n            session.participants,\r\n            _participant_pricings,\r\n            session.timeStarted,\r\n            session.timeout\r\n        );\r\n    }\r\n\r\n    modifier sessionClosed(uint256 sessionID) {\r\n        require(\r\n            _sessions[sessionID].state == State.CLOSE,\r\n            \"Session was not closed\"\r\n        );\r\n        _;\r\n    }\r\n\r\n    function setPrice(uint256 sessionID, uint256 price)\r\n        public\r\n        onlyOwner\r\n        sessionClosed(sessionID)\r\n        productExist(_sessions[sessionID].productID)\r\n    {\r\n        uint256 productID = _sessions[sessionID].productID;\r\n        _products[productID].price = price;\r\n\r\n        Session storage s = _sessions[sessionID];\r\n        s.finalPrice = price;\r\n\r\n        (\r\n            int proposedPrice,\r\n            uint[] memory deviationOfParticipants\r\n        ) = calc_proposedPrice(sessionID);\r\n\r\n        s.proposedPrice = proposedPrice;\r\n\r\n        // save deviationOfParticipants\r\n        for (uint i = 0; i < deviationOfParticipants.length; i++) {\r\n            s.deviationOfParticipants[\r\n                s.participants[i]\r\n            ] = deviationOfParticipants[i];\r\n        }\r\n\r\n        // accumulated deviation\r\n        // tnh ton tng  lch tch ly ca tng ngi chi\r\n        for (uint256 i = 0; i < s.participants.length; i++) {\r\n            uint d_new = calc_d_new(\r\n                price,\r\n                s.participant_pricing[s.participants[i]]\r\n            );\r\n\r\n            (, , , uint d_current, uint numbersOfSessionJoined) = getUser(\r\n                s.participants[i]\r\n            );\r\n            uint accumulatedDeviation = calc_accumulatedDeviation(\r\n                d_current,\r\n                d_new,\r\n                numbersOfSessionJoined\r\n            );\r\n            // save accumulatedDeviation, numbersOfSessionJoined + 1\r\n            setUserAccumulatedDeviation(\r\n                s.participants[i],\r\n                accumulatedDeviation\r\n            );\r\n        }\r\n\r\n        emit onSetPrice(\r\n            productID,\r\n            price,\r\n            sessionID,\r\n            proposedPrice,\r\n            deviationOfParticipants\r\n        );\r\n    }\r\n\r\n    // kim tra vt qu s ngi tham gia nh gi 10\r\n    modifier checkParticipantsLimit(uint256 sessionID) {\r\n        require(\r\n            _sessions[sessionID].participants.length < participantsLimit,\r\n            string.concat(\r\n                \"reached participants limit: \",\r\n                Strings.toString(participantsLimit)\r\n            )\r\n        );\r\n        _;\r\n    }\r\n    // kim tra cn thi hn hay khng\r\n    modifier checkTimeout(uint256 sessionID) {\r\n        if (_sessions[sessionID].timeout > 0)\r\n            require(\r\n                block.timestamp - _sessions[sessionID].timeStarted <\r\n                    _sessions[sessionID].timeout ||\r\n                    _sessions[sessionID].timeout == 0,\r\n                string.concat(\r\n                    \"You've run out of time\",\r\n                    \"-\",\r\n                    Strings.toString(block.timestamp),\r\n                    \"-\",\r\n                    Strings.toString(_sessions[sessionID].timeStarted),\r\n                    \"-\",\r\n                    Strings.toString(_sessions[sessionID].timeout)\r\n                )\r\n            );\r\n        _;\r\n    }\r\n\r\n    function guessPrice(\r\n        uint256 sessionID,\r\n        uint256 price,\r\n        address addr\r\n    )\r\n        public\r\n        sessionExist(sessionID)\r\n        checkParticipantsLimit(sessionID)\r\n        checkTimeout(sessionID)\r\n    {\r\n        // address addr = msg.sender;\r\n        Session storage s = _sessions[sessionID];\r\n        require(s.state == State.OPEN, \"Session closed\");\r\n        s.participant_pricing[addr] = price;\r\n\r\n        // nu trong ngi ny  pricing ri th ko a vo danh sch participants\r\n        bool exist = false;\r\n        for (uint256 i = 0; i < s.participants.length; i++) {\r\n            if (s.participants[i] == addr) {\r\n                exist = true;\r\n                break;\r\n            }\r\n        }\r\n        if (!exist) s.participants.push(addr);\r\n        emit onGuessPrice(addr, price, sessionID);\r\n    }\r\n\r\n    /*\r\n        P: The final price\r\n        p: The given price of the participant\r\n        d_new: deviation in the current session\r\n    */\r\n    function calc_d_new(uint256 finalPice, uint256 pricing)\r\n        public\r\n        pure\r\n        returns (uint256)\r\n    {\r\n        if (finalPice == 0) return 0;\r\n        uint256 d_new = ((\r\n            finalPice > pricing ? finalPice - pricing : pricing - finalPice\r\n        ) / finalPice) * 100;\r\n        return d_new;\r\n    }\r\n\r\n    /* n: number of all participants */\r\n    function calc_accumulatedDeviation(\r\n        uint256 d_current,\r\n        uint256 d_new,\r\n        uint256 n\r\n    ) public pure returns (uint256) {\r\n        uint256 d = ((d_current * n) + d_new) / (n + 1);\r\n        return d;\r\n    }\r\n\r\n\r\n    function calc_proposedPrice(uint256 sessionID)\r\n        public view\r\n        sessionExist(sessionID)\r\n        returns (int _proposedPrice, uint[] memory _deviationOfParticipants)\r\n    {\r\n        // Session storage s = _sessions[sessionID];\r\n        uint256 n = _sessions[sessionID].participants.length;\r\n        uint256 sum_d_i = 0;\r\n\r\n        // numerator, denominator in formular\r\n        int sum_numerator = 0;\r\n\r\n        uint[] memory deviationOfParticipants = new uint[](n);\r\n        uint finalPrice = _sessions[sessionID].finalPrice;\r\n\r\n        for (uint256 i = 0; i < n; i++) {\r\n            // the given price of the participant\r\n            uint256 p_i = _sessions[sessionID].participant_pricing[\r\n                _sessions[sessionID].participants[i]\r\n            ];\r\n            // deviation of participant\r\n            uint256 d_i = calc_d_new(finalPrice, p_i);\r\n\r\n            deviationOfParticipants[i] = d_i;\r\n            sum_d_i += d_i;\r\n\r\n            sum_numerator += (int(p_i) * (100 - int(d_i)));\r\n        }\r\n\r\n        int denominator = (100 * int(n) - int(sum_d_i));\r\n        int proposedPrice = sum_numerator / denominator;\r\n        return (proposedPrice, deviationOfParticipants);\r\n    }\r\n}\r\n",
  "sourcePath": "C:\\Users\\a\\Documents\\PricingChain\\contracts\\PricingChain.sol",
  "compiler": {
    "name": "solc",
    "version": "0.8.15+commit.e14f2714.Emscripten.clang"
  },
  "schemaVersion": "3.4.7",
  "updatedAt": "2022-07-30T17:18:53.638Z",
  "networkType": "ethereum",
  "devdoc": {
    "kind": "dev",
    "methods": {
      "owner()": {
        "details": "Returns the address of the current owner."
      },
      "renounceOwnership()": {
        "details": "Leaves the contract without owner. It will not be possible to call `onlyOwner` functions anymore. Can only be called by the current owner. NOTE: Renouncing ownership will leave the contract without an owner, thereby removing any functionality that is only available to the owner."
      },
      "transferOwnership(address)": {
        "details": "Transfers ownership of the contract to a new account (`newOwner`). Can only be called by the current owner."
      }
    },
    "version": 1
  },
  "userdoc": {
    "kind": "user",
    "methods": {},
    "version": 1
  }
}