{
  "contractName": "PricingChain",
  "abi": [
    {
      "inputs": [],
      "stateMutability": "nonpayable",
      "type": "constructor"
    },
    {
      "anonymous": false,
      "inputs": [
        {
          "indexed": true,
          "internalType": "address",
          "name": "previousOwner",
          "type": "address"
        },
        {
          "indexed": true,
          "internalType": "address",
          "name": "newOwner",
          "type": "address"
        }
      ],
      "name": "OwnershipTransferred",
      "type": "event"
    },
    {
      "anonymous": false,
      "inputs": [
        {
          "indexed": false,
          "internalType": "uint256",
          "name": "",
          "type": "uint256"
        },
        {
          "indexed": false,
          "internalType": "uint256",
          "name": "",
          "type": "uint256"
        },
        {
          "indexed": false,
          "internalType": "int256",
          "name": "",
          "type": "int256"
        }
      ],
      "name": "calc",
      "type": "event"
    },
    {
      "anonymous": false,
      "inputs": [
        {
          "indexed": false,
          "internalType": "uint256",
          "name": "id",
          "type": "uint256"
        },
        {
          "indexed": false,
          "internalType": "enum PricingChain.State",
          "name": "",
          "type": "uint8"
        },
        {
          "components": [
            {
              "internalType": "uint256",
              "name": "id",
              "type": "uint256"
            },
            {
              "internalType": "string",
              "name": "ipfsID",
              "type": "string"
            },
            {
              "internalType": "string",
              "name": "name",
              "type": "string"
            },
            {
              "internalType": "uint256",
              "name": "price",
              "type": "uint256"
            }
          ],
          "indexed": false,
          "internalType": "struct PricingChain.Product",
          "name": "p",
          "type": "tuple"
        }
      ],
      "name": "onClosedSession",
      "type": "event"
    },
    {
      "anonymous": false,
      "inputs": [
        {
          "components": [
            {
              "internalType": "uint256",
              "name": "id",
              "type": "uint256"
            },
            {
              "internalType": "string",
              "name": "ipfsID",
              "type": "string"
            },
            {
              "internalType": "string",
              "name": "name",
              "type": "string"
            },
            {
              "internalType": "uint256",
              "name": "price",
              "type": "uint256"
            }
          ],
          "indexed": false,
          "internalType": "struct PricingChain.Product",
          "name": "p",
          "type": "tuple"
        },
        {
          "indexed": false,
          "internalType": "uint256",
          "name": "sessionID",
          "type": "uint256"
        }
      ],
      "name": "onCreatedSession",
      "type": "event"
    },
    {
      "anonymous": false,
      "inputs": [
        {
          "indexed": false,
          "internalType": "address",
          "name": "participant",
          "type": "address"
        },
        {
          "indexed": false,
          "internalType": "uint256",
          "name": "price",
          "type": "uint256"
        },
        {
          "indexed": false,
          "internalType": "uint256",
          "name": "sessionID",
          "type": "uint256"
        }
      ],
      "name": "onGuessPrice",
      "type": "event"
    },
    {
      "anonymous": false,
      "inputs": [
        {
          "indexed": false,
          "internalType": "uint256",
          "name": "productID",
          "type": "uint256"
        },
        {
          "indexed": false,
          "internalType": "string",
          "name": "ipfsID",
          "type": "string"
        },
        {
          "indexed": false,
          "internalType": "string",
          "name": "name",
          "type": "string"
        },
        {
          "indexed": false,
          "internalType": "uint256",
          "name": "price",
          "type": "uint256"
        }
      ],
      "name": "onProductAdded",
      "type": "event"
    },
    {
      "anonymous": false,
      "inputs": [
        {
          "indexed": false,
          "internalType": "string",
          "name": "name",
          "type": "string"
        },
        {
          "indexed": false,
          "internalType": "string",
          "name": "email",
          "type": "string"
        },
        {
          "indexed": false,
          "internalType": "address",
          "name": "addr",
          "type": "address"
        }
      ],
      "name": "onRegisted",
      "type": "event"
    },
    {
      "anonymous": false,
      "inputs": [
        {
          "indexed": false,
          "internalType": "uint256",
          "name": "productID",
          "type": "uint256"
        },
        {
          "indexed": false,
          "internalType": "uint256",
          "name": "price",
          "type": "uint256"
        },
        {
          "indexed": false,
          "internalType": "uint256",
          "name": "sessionID",
          "type": "uint256"
        },
        {
          "indexed": false,
          "internalType": "int256",
          "name": "proposedPrice",
          "type": "int256"
        },
        {
          "indexed": false,
          "internalType": "uint256[]",
          "name": "deviationOfParticipants",
          "type": "uint256[]"
        }
      ],
      "name": "onSetPrice",
      "type": "event"
    },
    {
      "anonymous": false,
      "inputs": [
        {
          "indexed": false,
          "internalType": "uint256",
          "name": "id",
          "type": "uint256"
        },
        {
          "indexed": false,
          "internalType": "enum PricingChain.State",
          "name": "",
          "type": "uint8"
        },
        {
          "components": [
            {
              "internalType": "uint256",
              "name": "id",
              "type": "uint256"
            },
            {
              "internalType": "string",
              "name": "ipfsID",
              "type": "string"
            },
            {
              "internalType": "string",
              "name": "name",
              "type": "string"
            },
            {
              "internalType": "uint256",
              "name": "price",
              "type": "uint256"
            }
          ],
          "indexed": false,
          "internalType": "struct PricingChain.Product",
          "name": "p",
          "type": "tuple"
        }
      ],
      "name": "onStartedSession",
      "type": "event"
    },
    {
      "inputs": [
        {
          "internalType": "uint256",
          "name": "",
          "type": "uint256"
        }
      ],
      "name": "_users",
      "outputs": [
        {
          "internalType": "string",
          "name": "name",
          "type": "string"
        },
        {
          "internalType": "string",
          "name": "email",
          "type": "string"
        },
        {
          "internalType": "address",
          "name": "walletAddress",
          "type": "address"
        },
        {
          "internalType": "uint256",
          "name": "accumulatedDeviation",
          "type": "uint256"
        },
        {
          "internalType": "uint256",
          "name": "numbersOfSessionJoined",
          "type": "uint256"
        }
      ],
      "stateMutability": "view",
      "type": "function",
      "constant": true
    },
    {
      "inputs": [],
      "name": "owner",
      "outputs": [
        {
          "internalType": "address",
          "name": "",
          "type": "address"
        }
      ],
      "stateMutability": "view",
      "type": "function",
      "constant": true
    },
    {
      "inputs": [],
      "name": "renounceOwnership",
      "outputs": [],
      "stateMutability": "nonpayable",
      "type": "function"
    },
    {
      "inputs": [
        {
          "internalType": "address",
          "name": "newOwner",
          "type": "address"
        }
      ],
      "name": "transferOwnership",
      "outputs": [],
      "stateMutability": "nonpayable",
      "type": "function"
    },
    {
      "inputs": [
        {
          "internalType": "string",
          "name": "name",
          "type": "string"
        },
        {
          "internalType": "string",
          "name": "email",
          "type": "string"
        }
      ],
      "name": "register",
      "outputs": [
        {
          "internalType": "bool",
          "name": "_exist",
          "type": "bool"
        }
      ],
      "stateMutability": "nonpayable",
      "type": "function"
    },
    {
      "inputs": [
        {
          "internalType": "address",
          "name": "addr",
          "type": "address"
        }
      ],
      "name": "getUser",
      "outputs": [
        {
          "internalType": "string",
          "name": "_name",
          "type": "string"
        },
        {
          "internalType": "string",
          "name": "_email",
          "type": "string"
        },
        {
          "internalType": "address",
          "name": "_walletAddress",
          "type": "address"
        },
        {
          "internalType": "uint256",
          "name": "_accumulatedDeviation",
          "type": "uint256"
        },
        {
          "internalType": "uint256",
          "name": "_numbersOfSessionJoined",
          "type": "uint256"
        }
      ],
      "stateMutability": "view",
      "type": "function",
      "constant": true
    },
    {
      "inputs": [],
      "name": "getUsers",
      "outputs": [
        {
          "internalType": "string[]",
          "name": "_names",
          "type": "string[]"
        },
        {
          "internalType": "string[]",
          "name": "_emails",
          "type": "string[]"
        },
        {
          "internalType": "address[]",
          "name": "_walletAddresses",
          "type": "address[]"
        }
      ],
      "stateMutability": "view",
      "type": "function",
      "constant": true
    },
    {
      "inputs": [
        {
          "internalType": "address",
          "name": "user",
          "type": "address"
        },
        {
          "internalType": "uint256",
          "name": "accumulatedDeviation",
          "type": "uint256"
        }
      ],
      "name": "setUserAccumulatedDeviation",
      "outputs": [
        {
          "internalType": "bool",
          "name": "status",
          "type": "bool"
        }
      ],
      "stateMutability": "nonpayable",
      "type": "function"
    },
    {
      "inputs": [
        {
          "internalType": "string",
          "name": "ipfsID",
          "type": "string"
        },
        {
          "internalType": "string",
          "name": "name",
          "type": "string"
        }
      ],
      "name": "addProduct",
      "outputs": [
        {
          "internalType": "uint256",
          "name": "id",
          "type": "uint256"
        }
      ],
      "stateMutability": "nonpayable",
      "type": "function"
    },
    {
      "inputs": [
        {
          "internalType": "uint256",
          "name": "ID",
          "type": "uint256"
        }
      ],
      "name": "getProductByID",
      "outputs": [
        {
          "internalType": "uint256",
          "name": "id",
          "type": "uint256"
        },
        {
          "internalType": "string",
          "name": "ipfsID",
          "type": "string"
        },
        {
          "internalType": "uint256",
          "name": "price",
          "type": "uint256"
        }
      ],
      "stateMutability": "view",
      "type": "function",
      "constant": true
    },
    {
      "inputs": [
        {
          "internalType": "string",
          "name": "_ipfsID",
          "type": "string"
        }
      ],
      "name": "getProduct",
      "outputs": [
        {
          "internalType": "uint256",
          "name": "id",
          "type": "uint256"
        },
        {
          "internalType": "string",
          "name": "ipfsID",
          "type": "string"
        },
        {
          "internalType": "string",
          "name": "name",
          "type": "string"
        },
        {
          "internalType": "uint256",
          "name": "price",
          "type": "uint256"
        }
      ],
      "stateMutability": "view",
      "type": "function",
      "constant": true
    },
    {
      "inputs": [],
      "name": "getProducts",
      "outputs": [
        {
          "internalType": "string[]",
          "name": "ipfsIDs",
          "type": "string[]"
        },
        {
          "internalType": "string[]",
          "name": "names",
          "type": "string[]"
        },
        {
          "internalType": "uint256[]",
          "name": "prices",
          "type": "uint256[]"
        }
      ],
      "stateMutability": "view",
      "type": "function",
      "constant": true
    },
    {
      "inputs": [
        {
          "internalType": "uint256",
          "name": "productID",
          "type": "uint256"
        }
      ],
      "name": "createSession",
      "outputs": [
        {
          "internalType": "uint256",
          "name": "id",
          "type": "uint256"
        }
      ],
      "stateMutability": "nonpayable",
      "type": "function"
    },
    {
      "inputs": [
        {
          "internalType": "uint256",
          "name": "ID",
          "type": "uint256"
        },
        {
          "internalType": "uint256",
          "name": "timeout",
          "type": "uint256"
        }
      ],
      "name": "startSession",
      "outputs": [],
      "stateMutability": "nonpayable",
      "type": "function"
    },
    {
      "inputs": [
        {
          "internalType": "uint256",
          "name": "ID",
          "type": "uint256"
        }
      ],
      "name": "closeSession",
      "outputs": [],
      "stateMutability": "nonpayable",
      "type": "function"
    },
    {
      "inputs": [],
      "name": "getSessions",
      "outputs": [
        {
          "internalType": "uint256[]",
          "name": "sessionIDs",
          "type": "uint256[]"
        },
        {
          "internalType": "uint256[]",
          "name": "productIDs",
          "type": "uint256[]"
        },
        {
          "internalType": "string[]",
          "name": "ipfsIDs",
          "type": "string[]"
        },
        {
          "internalType": "string[]",
          "name": "names",
          "type": "string[]"
        },
        {
          "internalType": "uint256[]",
          "name": "prices",
          "type": "uint256[]"
        },
        {
          "internalType": "enum PricingChain.State[]",
          "name": "states",
          "type": "uint8[]"
        },
        {
          "internalType": "uint256[]",
          "name": "timeStarteds",
          "type": "uint256[]"
        },
        {
          "internalType": "uint256[]",
          "name": "timeouts",
          "type": "uint256[]"
        }
      ],
      "stateMutability": "view",
      "type": "function",
      "constant": true
    },
    {
      "inputs": [
        {
          "internalType": "uint256",
          "name": "id",
          "type": "uint256"
        }
      ],
      "name": "getSession",
      "outputs": [
        {
          "internalType": "uint256",
          "name": "sessionID",
          "type": "uint256"
        },
        {
          "internalType": "uint256",
          "name": "productID",
          "type": "uint256"
        },
        {
          "internalType": "string",
          "name": "ipfsID",
          "type": "string"
        },
        {
          "internalType": "string",
          "name": "name",
          "type": "string"
        },
        {
          "internalType": "uint256",
          "name": "price",
          "type": "uint256"
        },
        {
          "internalType": "int256",
          "name": "proposedPrice",
          "type": "int256"
        },
        {
          "internalType": "enum PricingChain.State",
          "name": "state",
          "type": "uint8"
        },
        {
          "internalType": "address[]",
          "name": "participants",
          "type": "address[]"
        },
        {
          "internalType": "uint256[]",
          "name": "participant_pricings",
          "type": "uint256[]"
        },
        {
          "internalType": "uint256",
          "name": "timeStarted",
          "type": "uint256"
        },
        {
          "internalType": "uint256",
          "name": "timeout",
          "type": "uint256"
        }
      ],
      "stateMutability": "view",
      "type": "function",
      "constant": true
    },
    {
      "inputs": [
        {
          "internalType": "uint256",
          "name": "sessionID",
          "type": "uint256"
        },
        {
          "internalType": "uint256",
          "name": "price",
          "type": "uint256"
        }
      ],
      "name": "setPrice",
      "outputs": [],
      "stateMutability": "nonpayable",
      "type": "function"
    },
    {
      "inputs": [
        {
          "internalType": "uint256",
          "name": "sessionID",
          "type": "uint256"
        },
        {
          "internalType": "uint256",
          "name": "price",
          "type": "uint256"
        },
        {
          "internalType": "address",
          "name": "addr",
          "type": "address"
        }
      ],
      "name": "guessPrice",
      "outputs": [],
      "stateMutability": "nonpayable",
      "type": "function"
    },
    {
      "inputs": [
        {
          "internalType": "uint256",
          "name": "finalPice",
          "type": "uint256"
        },
        {
          "internalType": "uint256",
          "name": "pricing",
          "type": "uint256"
        }
      ],
      "name": "calc_d_new",
      "outputs": [
        {
          "internalType": "uint256",
          "name": "",
          "type": "uint256"
        }
      ],
      "stateMutability": "pure",
      "type": "function",
      "constant": true
    },
    {
      "inputs": [
        {
          "internalType": "uint256",
          "name": "d_current",
          "type": "uint256"
        },
        {
          "internalType": "uint256",
          "name": "d_new",
          "type": "uint256"
        },
        {
          "internalType": "uint256",
          "name": "n",
          "type": "uint256"
        }
      ],
      "name": "calc_accumulatedDeviation",
      "outputs": [
        {
          "internalType": "uint256",
          "name": "",
          "type": "uint256"
        }
      ],
      "stateMutability": "pure",
      "type": "function",
      "constant": true
    },
    {
      "inputs": [
        {
          "internalType": "uint256",
          "name": "sessionID",
          "type": "uint256"
        }
      ],
      "name": "calc_proposedPrice",
      "outputs": [
        {
          "internalType": "int256",
          "name": "_proposedPrice",
          "type": "int256"
        },
        {
          "internalType": "uint256[]",
          "name": "_deviationOfParticipants",
          "type": "uint256[]"
        }
      ],
      "stateMutability": "nonpayable",
      "type": "function"
    },
    {
      "inputs": [
        {
          "internalType": "uint256",
          "name": "sessionID",
          "type": "uint256"
        }
      ],
      "name": "calc_proposedPrice_",
      "outputs": [
        {
          "internalType": "uint256",
          "name": "_proposedPrice",
          "type": "uint256"
        },
        {
          "internalType": "uint256[]",
          "name": "_deviationOfParticipants",
          "type": "uint256[]"
        }
      ],
      "stateMutability": "view",
      "type": "function",
      "constant": true
    }
  ],
  "bytecode": "0x6080604052600a600060146101000a81548160ff021916908360ff1602179055503480156200002d57600080fd5b506200004e620000426200023f60201b60201c565b6200024760201b60201c565b620000ae6040518060600160405280602e815260200162007e4f602e91396040518060400160405280600a81526020017f67616c61787920733232000000000000000000000000000000000000000000008152506200030b60201b60201c565b506200010f6040518060600160405280602e815260200162007e7d602e91396040518060400160405280600981526020017f6769617920676f6c6600000000000000000000000000000000000000000000008152506200030b60201b60201c565b506200012260006200054360201b60201c565b5062000136600080620008dd60201b60201c565b620001666000674563918244f4000073746e9fbb7e066435ef4208e3661e4b42ad09a0dd62000b3660201b60201c565b620001966000671bc16d674ec8000073e8584aa83df68ea98e840dac05782b81559d1da162000b3660201b60201c565b620001c7600068014d1120d7b16000007353c6e288b9ef2e2627b09e4deaec3806a0571cf162000b3660201b60201c565b620001f76000676124fee993bc0000739428207253bc364209212d07b88e21c2fcf916d662000b3660201b60201c565b620002276000673782dace9d900000732769c260f31240901271c53d72e263d16b4f194662000b3660201b60201c565b6200023960006200106e60201b60201c565b620022b4565b600033905090565b60008060009054906101000a900473ffffffffffffffffffffffffffffffffffffffff169050816000806101000a81548173ffffffffffffffffffffffffffffffffffffffff021916908373ffffffffffffffffffffffffffffffffffffffff1602179055508173ffffffffffffffffffffffffffffffffffffffff168173ffffffffffffffffffffffffffffffffffffffff167f8be0079c531659141344cd1fd0a4f28419497f9722a3daafe3b4186f6b6457e060405160405180910390a35050565b60006200031d6200023f60201b60201c565b73ffffffffffffffffffffffffffffffffffffffff16620003436200126c60201b60201c565b73ffffffffffffffffffffffffffffffffffffffff16146200039c576040517f08c379a0000000000000000000000000000000000000000000000000000000008152600401620003939062001497565b60405180910390fd5b8260005b600180549050811015620004805781604051602001620003c191906200153c565b6040516020818303038152906040528051906020012060018281548110620003ee57620003ed62001555565b5b90600052602060002090600402016001016040516020016200041191906200168c565b60405160208183030381529060405280519060200120036200046a576040517f08c379a00000000000000000000000000000000000000000000000000000000081526004016200046190620016f5565b60405180910390fd5b8080620004779062001750565b915050620003a0565b50600060018081600181540180825580915050039060005260206000209060040201905060018080549050620004b791906200179d565b816000018190555084816001019081620004d29190620019c4565b5083816002019081620004e69190620019c4565b507f8068f99c05fd8a698b784ed43ce51445a66f90ff68fcbc126d6591e9f86ec07c8160000154826001018360020184600301546040516200052c949392919062001b4c565b60405180910390a180600001549250505092915050565b600081600081101580156200055c575060018054905081105b6200059e576040517f08c379a0000000000000000000000000000000000000000000000000000000008152600401620005959062001bf7565b60405180910390fd5b620005ae6200023f60201b60201c565b73ffffffffffffffffffffffffffffffffffffffff16620005d46200126c60201b60201c565b73ffffffffffffffffffffffffffffffffffffffff16146200062d576040517f08c379a0000000000000000000000000000000000000000000000000000000008152600401620006249062001497565b60405180910390fd5b600060026001816001815401808255809150500390600052602060002090600a0201905083816001018190555060008160020160006101000a81548160ff0219169083600181111562000685576200068462001c19565b5b0217905550600081600801819055506200069e6200140e565b60005b60018054905081101562000870578560018281548110620006c757620006c662001555565b5b906000526020600020906004020160000154036200085a5760018181548110620006f657620006f562001555565b5b9060005260206000209060040201604051806080016040529081600082015481526020016001820180546200072b90620015b3565b80601f01602080910402602001604051908101604052809291908181526020018280546200075990620015b3565b8015620007aa5780601f106200077e57610100808354040283529160200191620007aa565b820191906000526020600020905b8154815290600101906020018083116200078c57829003601f168201915b50505050508152602001600282018054620007c590620015b3565b80601f0160208091040260200160405190810160405280929190818152602001828054620007f390620015b3565b8015620008445780601f10620008185761010080835404028352916020019162000844565b820191906000526020600020905b8154815290600101906020018083116200082657829003601f168201915b5050505050815260200160038201548152505091505b8080620008679062001750565b915050620006a1565b507f9887df6b5f7c48fc3815191894f4c61c05f6327db6b6eaaaee1325d1bde4c530816001600280549050620008a791906200179d565b604051620008b792919062001d2e565b60405180910390a16001600280549050620008d391906200179d565b9350505050919050565b8160008110158015620008f4575060028054905081105b62000936576040517f08c379a00000000000000000000000000000000000000000000000000000000081526004016200092d9062001bf7565b60405180910390fd5b620009466200023f60201b60201c565b73ffffffffffffffffffffffffffffffffffffffff166200096c6200126c60201b60201c565b73ffffffffffffffffffffffffffffffffffffffff1614620009c5576040517f08c379a0000000000000000000000000000000000000000000000000000000008152600401620009bc9062001497565b60405180910390fd5b600160028481548110620009de57620009dd62001555565b5b90600052602060002090600a020160020160006101000a81548160ff0219169083600181111562000a145762000a1362001c19565b5b0217905550426002848154811062000a315762000a3062001555565b5b90600052602060002090600a020160060181905550816002848154811062000a5e5762000a5d62001555565b5b90600052602060002090600a0201600701819055507fd55a4f4210056086ae4c4b2cd9f0b30e2fc72fd80ada93ca8b57bac1177bffde836002858154811062000aac5762000aab62001555565b5b90600052602060002090600a020160020160009054906101000a900460ff1660016002878154811062000ae45762000ae362001555565b5b90600052602060002090600a0201600101548154811062000b0a5762000b0962001555565b5b906000526020600020906004020160405162000b299392919062001f04565b60405180910390a1505050565b826000811015801562000b4d575060028054905081105b62000b8f576040517f08c379a000000000000000000000000000000000000000000000000000000000815260040162000b869062001bf7565b60405180910390fd5b83600060149054906101000a900460ff1660ff166002828154811062000bba5762000bb962001555565b5b90600052602060002090600a0201600301805490501062000bf8600060149054906101000a900460ff1660ff166200129560201b62003b7d1760201c565b60405160200162000c0a919062001f6e565b6040516020818303038152906040529062000c5d576040517f08c379a000000000000000000000000000000000000000000000000000000000815260040162000c54919062001fd9565b60405180910390fd5b508460006002828154811062000c785762000c7762001555565b5b90600052602060002090600a020160070154111562000e20576002818154811062000ca85762000ca762001555565b5b90600052602060002090600a0201600701546002828154811062000cd15762000cd062001555565b5b90600052602060002090600a0201600601544262000cf091906200179d565b108062000d25575060006002828154811062000d115762000d1062001555565b5b90600052602060002090600a020160070154145b62000d3b426200129560201b62003b7d1760201c565b62000d796002848154811062000d565762000d5562001555565b5b90600052602060002090600a0201600601546200129560201b62003b7d1760201c565b62000db76002858154811062000d945762000d9362001555565b5b90600052602060002090600a0201600701546200129560201b62003b7d1760201c565b60405160200162000dcb9392919062002049565b6040516020818303038152906040529062000e1e576040517f08c379a000000000000000000000000000000000000000000000000000000000815260040162000e15919062001fd9565b60405180910390fd5b505b60006002878154811062000e395762000e3862001555565b5b90600052602060002090600a0201905060018081111562000e5f5762000e5e62001c19565b5b8160020160009054906101000a900460ff16600181111562000e865762000e8562001c19565b5b1462000ec9576040517f08c379a000000000000000000000000000000000000000000000000000000000815260040162000ec09062002114565b60405180910390fd5b858160040160008773ffffffffffffffffffffffffffffffffffffffff1673ffffffffffffffffffffffffffffffffffffffff168152602001908152602001600020819055506000805b826003018054905081101562000fba578673ffffffffffffffffffffffffffffffffffffffff1683600301828154811062000f535762000f5262001555565b5b9060005260206000200160009054906101000a900473ffffffffffffffffffffffffffffffffffffffff1673ffffffffffffffffffffffffffffffffffffffff160362000fa4576001915062000fba565b808062000fb19062001750565b91505062000f13565b5080620010275781600301869080600181540180825580915050600190039060005260206000200160009091909190916101000a81548173ffffffffffffffffffffffffffffffffffffffff021916908373ffffffffffffffffffffffffffffffffffffffff1602179055505b7f18010a98b74dc9658d6a9b0218afc6bfc92f15be0a62de45753fe2a7463ff22b86888a6040516200105c939291906200217b565b60405180910390a15050505050505050565b806000811015801562001085575060028054905081105b620010c7576040517f08c379a0000000000000000000000000000000000000000000000000000000008152600401620010be9062001bf7565b60405180910390fd5b620010d76200023f60201b60201c565b73ffffffffffffffffffffffffffffffffffffffff16620010fd6200126c60201b60201c565b73ffffffffffffffffffffffffffffffffffffffff161462001156576040517f08c379a00000000000000000000000000000000000000000000000000000000081526004016200114d9062001497565b60405180910390fd5b6000600283815481106200116f576200116e62001555565b5b90600052602060002090600a020160020160006101000a81548160ff02191690836001811115620011a557620011a462001c19565b5b02179055507f345d397bdfa4f2d3d5282017eff932d0ed125d73664f138ad64b957f3154092a8260028481548110620011e357620011e262001555565b5b90600052602060002090600a020160020160009054906101000a900460ff166001600286815481106200121b576200121a62001555565b5b90600052602060002090600a0201600101548154811062001241576200124062001555565b5b9060005260206000209060040201604051620012609392919062001f04565b60405180910390a15050565b60008060009054906101000a900473ffffffffffffffffffffffffffffffffffffffff16905090565b606060008203620012de576040518060400160405280600181526020017f3000000000000000000000000000000000000000000000000000000000000000815250905062001409565b600082905060005b6000821462001316578080620012fc9062001750565b915050600a826200130e9190620021e7565b9150620012e6565b60008167ffffffffffffffff811115620013355762001334620017d8565b5b6040519080825280601f01601f191660200182016040528015620013685781602001600182028036833780820191505090505b5090505b6000851462001402576001826200138491906200179d565b9150600a856200139591906200221f565b6030620013a3919062002257565b60f81b818381518110620013bc57620013bb62001555565b5b60200101907effffffffffffffffffffffffffffffffffffffffffffffffffffffffffffff1916908160001a905350600a85620013fa9190620021e7565b94506200136c565b8093505050505b919050565b6040518060800160405280600081526020016060815260200160608152602001600081525090565b600082825260208201905092915050565b7f4f776e61626c653a2063616c6c6572206973206e6f7420746865206f776e6572600082015250565b60006200147f60208362001436565b91506200148c8262001447565b602082019050919050565b60006020820190508181036000830152620014b28162001470565b9050919050565b600081519050919050565b600081905092915050565b60005b83811015620014ef578082015181840152602081019050620014d2565b83811115620014ff576000848401525b50505050565b60006200151282620014b9565b6200151e8185620014c4565b935062001530818560208601620014cf565b80840191505092915050565b60006200154a828462001505565b915081905092915050565b7f4e487b7100000000000000000000000000000000000000000000000000000000600052603260045260246000fd5b7f4e487b7100000000000000000000000000000000000000000000000000000000600052602260045260246000fd5b60006002820490506001821680620015cc57607f821691505b602082108103620015e257620015e162001584565b5b50919050565b60008190508160005260206000209050919050565b600081546200160c81620015b3565b620016188186620014c4565b945060018216600081146200163657600181146200164c5762001683565b60ff198316865281151582028601935062001683565b6200165785620015e8565b60005b838110156200167b578154818901526001820191506020810190506200165a565b838801955050505b50505092915050565b60006200169a8284620015fd565b915081905092915050565b7f546869732070726f6475637420686173206265656e2061646465640000000000600082015250565b6000620016dd601b8362001436565b9150620016ea82620016a5565b602082019050919050565b600060208201905081810360008301526200171081620016ce565b9050919050565b7f4e487b7100000000000000000000000000000000000000000000000000000000600052601160045260246000fd5b6000819050919050565b60006200175d8262001746565b91507fffffffffffffffffffffffffffffffffffffffffffffffffffffffffffffffff820362001792576200179162001717565b5b600182019050919050565b6000620017aa8262001746565b9150620017b78362001746565b925082821015620017cd57620017cc62001717565b5b828203905092915050565b7f4e487b7100000000000000000000000000000000000000000000000000000000600052604160045260246000fd5b60006020601f8301049050919050565b600082821b905092915050565b600060088302620018567fffffffffffffffffffffffffffffffffffffffffffffffffffffffffffffffff8262001817565b62001862868362001817565b95508019841693508086168417925050509392505050565b6000819050919050565b6000620018a56200189f620018998462001746565b6200187a565b62001746565b9050919050565b6000819050919050565b620018c18362001884565b620018d9620018d082620018ac565b84845462001824565b825550505050565b600090565b620018f0620018e1565b620018fd818484620018b6565b505050565b5b81811015620019255762001919600082620018e6565b60018101905062001903565b5050565b601f82111562001974576200193e81620015e8565b620019498462001807565b8101602085101562001959578190505b62001971620019688562001807565b83018262001902565b50505b505050565b600082821c905092915050565b6000620019996000198460080262001979565b1980831691505092915050565b6000620019b4838362001986565b9150826002028217905092915050565b620019cf82620014b9565b67ffffffffffffffff811115620019eb57620019ea620017d8565b5b620019f78254620015b3565b62001a0482828562001929565b600060209050601f83116001811462001a3c576000841562001a27578287015190505b62001a338582620019a6565b86555062001aa3565b601f19841662001a4c86620015e8565b60005b8281101562001a765784890151825560018201915060208501945060208101905062001a4f565b8683101562001a96578489015162001a92601f89168262001986565b8355505b6001600288020188555050505b505050505050565b62001ab68162001746565b82525050565b6000815462001acb81620015b3565b62001ad7818662001436565b9450600182166000811462001af5576001811462001b0c5762001b43565b60ff19831686528115156020028601935062001b43565b62001b1785620015e8565b60005b8381101562001b3b5781548189015260018201915060208101905062001b1a565b808801955050505b50505092915050565b600060808201905062001b63600083018762001aab565b818103602083015262001b77818662001abc565b9050818103604083015262001b8d818562001abc565b905062001b9e606083018462001aab565b95945050505050565b7f49442073657373696f6e206973206e6f74206578697374000000000000000000600082015250565b600062001bdf60178362001436565b915062001bec8262001ba7565b602082019050919050565b6000602082019050818103600083015262001c128162001bd0565b9050919050565b7f4e487b7100000000000000000000000000000000000000000000000000000000600052602160045260246000fd5b62001c538162001746565b82525050565b600082825260208201905092915050565b6000601f19601f8301169050919050565b600062001c8882620014b9565b62001c94818562001c59565b935062001ca6818560208601620014cf565b62001cb18162001c6a565b840191505092915050565b600060808301600083015162001cd6600086018262001c48565b506020830151848203602086015262001cf0828262001c7b565b9150506040830151848203604086015262001d0c828262001c7b565b915050606083015162001d23606086018262001c48565b508091505092915050565b6000604082019050818103600083015262001d4a818562001cbc565b905062001d5b602083018462001aab565b9392505050565b6002811062001d765762001d7562001c19565b5b50565b600081905062001d898262001d62565b919050565b600062001d9b8262001d79565b9050919050565b62001dad8162001d8e565b82525050565b60008160001c9050919050565b6000819050919050565b600062001de162001ddb8362001db3565b62001dc0565b9050919050565b6000815462001df781620015b3565b62001e03818662001c59565b9450600182166000811462001e21576001811462001e385762001e6f565b60ff19831686528115156020028601935062001e6f565b62001e4385620015e8565b60005b8381101562001e675781548189015260018201915060208101905062001e46565b808801955050505b50505092915050565b600060808301600080840154905062001e918162001dca565b62001ea0600087018262001c48565b5060018401858303602087015262001eb9838262001de8565b92505060028401858303604087015262001ed4838262001de8565b9250506003840154905062001ee98162001dca565b62001ef8606087018262001c48565b50819250505092915050565b600060608201905062001f1b600083018662001aab565b62001f2a602083018562001da2565b818103604083015262001f3e818462001e78565b9050949350505050565b7f72656163686564207061727469636970616e7473206c696d69743a2000000000815250565b600062001f7b8262001f48565b601c8201915062001f8d828462001505565b915081905092915050565b600062001fa582620014b9565b62001fb1818562001436565b935062001fc3818560208601620014cf565b62001fce8162001c6a565b840191505092915050565b6000602082019050818103600083015262001ff5818462001f98565b905092915050565b7f596f752776652072756e206f7574206f662074696d6500000000000000000000815250565b7f2d00000000000000000000000000000000000000000000000000000000000000815250565b6000620020568262001ffd565b601682019150620020678262002023565b60018201915062002079828662001505565b9150620020868262002023565b60018201915062002098828562001505565b9150620020a58262002023565b600182019150620020b7828462001505565b9150819050949350505050565b7f53657373696f6e20636c6f736564000000000000000000000000000000000000600082015250565b6000620020fc600e8362001436565b91506200210982620020c4565b602082019050919050565b600060208201905081810360008301526200212f81620020ed565b9050919050565b600073ffffffffffffffffffffffffffffffffffffffff82169050919050565b6000620021638262002136565b9050919050565b620021758162002156565b82525050565b60006060820190506200219260008301866200216a565b620021a1602083018562001aab565b620021b0604083018462001aab565b949350505050565b7f4e487b7100000000000000000000000000000000000000000000000000000000600052601260045260246000fd5b6000620021f48262001746565b9150620022018362001746565b925082620022145762002213620021b8565b5b828204905092915050565b60006200222c8262001746565b9150620022398362001746565b9250826200224c576200224b620021b8565b5b828206905092915050565b6000620022648262001746565b9150620022718362001746565b9250827fffffffffffffffffffffffffffffffffffffffffffffffffffffffffffffffff03821115620022a957620022a862001717565b5b828201905092915050565b615b8b80620022c46000396000f3fe608060405234801561001057600080fd5b506004361061014c5760003560e01c8063715018a6116100c3578063cc4a43c01161007c578063cc4a43c01461040a578063d29b8e211461043e578063d61a4bf81461046f578063f2fde38b1461048b578063f7d97577146104a7578063f847cdde146104c35761014c565b8063715018a6146103465780638da5cb5b14610350578063a3bfdf471461036e578063c0835cbb1461038a578063c29b2f20146103ba578063ca2efb55146103da5761014c565b80633dedffe0116101155780633dedffe0146102345780633ffbd47f14610250578063402ff0db1461028057806361503e45146102ba57806368111cce146102df5780636f77926b146103125761014c565b8062ce8e3e146101515780630595a01f1461017157806334195786146101a3578063392bb06e146101d357806339ffb5b214610204575b600080fd5b6101596104f3565b60405161016893929190614061565b60405180910390f35b61018b600480360381019061018691906140f7565b610858565b60405161019a9392919061417d565b60405180910390f35b6101bd60048036038101906101b891906141bb565b610958565b6040516101ca91906141fb565b60405180910390f35b6101ed60048036038101906101e891906140f7565b6109b5565b6040516101fb9291906142d4565b60405180910390f35b61021e60048036038101906102199190614304565b610c0a565b60405161022b91906141fb565b60405180910390f35b61024e60048036038101906102499190614383565b610c48565b005b61026a6004803603810190610265919061450b565b61110d565b604051610277919061459e565b60405180910390f35b61029a600480360381019061029591906140f7565b611324565b6040516102b19b9a99989796959493929190614649565b60405180910390f35b6102c261173f565b6040516102d69897969594939291906147ce565b60405180910390f35b6102f960048036038101906102f49190614884565b611e0b565b60405161030994939291906148cd565b60405180910390f35b61032c60048036038101906103279190614920565b612051565b60405161033d95949392919061495c565b60405180910390f35b61034e6122e8565b005b610358612370565b60405161036591906149bd565b60405180910390f35b610388600480360381019061038391906140f7565b612399565b005b6103a4600480360381019061039f91906149d8565b61256f565b6040516103b1919061459e565b60405180910390f35b6103c2612703565b6040516103d193929190614a18565b60405180910390f35b6103f460048036038101906103ef919061450b565b612a1a565b60405161040191906141fb565b60405180910390f35b610424600480360381019061041f91906140f7565b612c29565b60405161043595949392919061495c565b60405180910390f35b610458600480360381019061045391906140f7565b612d9f565b604051610466929190614a64565b60405180910390f35b610489600480360381019061048491906141bb565b613063565b005b6104a560048036038101906104a09190614920565b61328e565b005b6104c160048036038101906104bc91906141bb565b613385565b005b6104dd60048036038101906104d891906140f7565b613820565b6040516104ea91906141fb565b60405180910390f35b6060806060600060038054905067ffffffffffffffff811115610519576105186143e0565b5b60405190808252806020026020018201604052801561054c57816020015b60608152602001906001900390816105375790505b509050600060038054905067ffffffffffffffff8111156105705761056f6143e0565b5b6040519080825280602002602001820160405280156105a357816020015b606081526020019060019003908161058e5790505b509050600060038054905067ffffffffffffffff8111156105c7576105c66143e0565b5b6040519080825280602002602001820160405280156105f55781602001602082028036833780820191505090505b50905060005b600380549050811015610846576003818154811061061c5761061b614a94565b5b9060005260206000209060050201600001805461063890614af2565b80601f016020809104026020016040519081016040528092919081815260200182805461066490614af2565b80156106b15780601f10610686576101008083540402835291602001916106b1565b820191906000526020600020905b81548152906001019060200180831161069457829003601f168201915b50505050508482815181106106c9576106c8614a94565b5b6020026020010181905250600381815481106106e8576106e7614a94565b5b9060005260206000209060050201600101805461070490614af2565b80601f016020809104026020016040519081016040528092919081815260200182805461073090614af2565b801561077d5780601f106107525761010080835404028352916020019161077d565b820191906000526020600020905b81548152906001019060200180831161076057829003601f168201915b505050505083828151811061079557610794614a94565b5b6020026020010181905250600381815481106107b4576107b3614a94565b5b906000526020600020906005020160020160009054906101000a900473ffffffffffffffffffffffffffffffffffffffff168282815181106107f9576107f8614a94565b5b602002602001019073ffffffffffffffffffffffffffffffffffffffff16908173ffffffffffffffffffffffffffffffffffffffff1681525050808061083e90614b52565b9150506105fb565b50828282955095509550505050909192565b6000606060008084108061087157506001805490508410155b1561088a57600180805490506108879190614b9a565b93505b6000600185815481106108a05761089f614a94565b5b9060005260206000209060040201905080600001548160010182600301548180546108ca90614af2565b80601f01602080910402602001604051908101604052809291908181526020018280546108f690614af2565b80156109435780601f1061091857610100808354040283529160200191610943565b820191906000526020600020905b81548152906001019060200180831161092657829003601f168201915b50505050509150935093509350509193909250565b600080830361096a57600090506109af565b60006064848486116109875785856109829190614b9a565b610994565b84866109939190614b9a565b5b61099e9190614bfd565b6109a89190614c2e565b9050809150505b92915050565b6000606082600081101580156109cf575060028054905081105b610a0e576040517f08c379a0000000000000000000000000000000000000000000000000000000008152600401610a0590614cd4565b60405180910390fd5b600060028581548110610a2457610a23614a94565b5b90600052602060002090600a020160030180549050905060008060008367ffffffffffffffff811115610a5a57610a596143e0565b5b604051908082528060200260200182016040528015610a885781602001602082028036833780820191505090505b509050600060028981548110610aa157610aa0614a94565b5b90600052602060002090600a020160090154905060005b85811015610bfe57600060028b81548110610ad657610ad5614a94565b5b90600052602060002090600a0201600401600060028d81548110610afd57610afc614a94565b5b90600052602060002090600a02016003018481548110610b2057610b1f614a94565b5b9060005260206000200160009054906101000a900473ffffffffffffffffffffffffffffffffffffffff1673ffffffffffffffffffffffffffffffffffffffff1673ffffffffffffffffffffffffffffffffffffffff1681526020019081526020016000205490506000610b948483610958565b905080858481518110610baa57610ba9614a94565b5b6020026020010181815250508087610bc29190614cf4565b9650806064610bd19190614b9a565b82610bdc9190614c2e565b86610be79190614cf4565b955050508080610bf690614b52565b915050610ab8565b50505050505050915091565b600080600183610c1a9190614cf4565b848487610c279190614c2e565b610c319190614cf4565b610c3b9190614bfd565b9050809150509392505050565b8260008110158015610c5e575060028054905081105b610c9d576040517f08c379a0000000000000000000000000000000000000000000000000000000008152600401610c9490614cd4565b60405180910390fd5b83600060149054906101000a900460ff1660ff1660028281548110610cc557610cc4614a94565b5b90600052602060002090600a02016003018054905010610cf6600060149054906101000a900460ff1660ff16613b7d565b604051602001610d069190614dac565b60405160208183030381529060405290610d56576040517f08c379a0000000000000000000000000000000000000000000000000000000008152600401610d4d9190614dd2565b60405180910390fd5b5084600060028281548110610d6e57610d6d614a94565b5b90600052602060002090600a0201600701541115610ed75760028181548110610d9a57610d99614a94565b5b90600052602060002090600a02016007015460028281548110610dc057610dbf614a94565b5b90600052602060002090600a02016006015442610ddd9190614b9a565b1080610e0e5750600060028281548110610dfa57610df9614a94565b5b90600052602060002090600a020160070154145b610e1742613b7d565b610e4560028481548110610e2e57610e2d614a94565b5b90600052602060002090600a020160060154613b7d565b610e7360028581548110610e5c57610e5b614a94565b5b90600052602060002090600a020160070154613b7d565b604051602001610e8593929190614e40565b60405160208183030381529060405290610ed5576040517f08c379a0000000000000000000000000000000000000000000000000000000008152600401610ecc9190614dd2565b60405180910390fd5b505b600060028781548110610eed57610eec614a94565b5b90600052602060002090600a02019050600180811115610f1057610f0f6145d2565b5b8160020160009054906101000a900460ff166001811115610f3457610f336145d2565b5b14610f74576040517f08c379a0000000000000000000000000000000000000000000000000000000008152600401610f6b90614ef9565b60405180910390fd5b858160040160008773ffffffffffffffffffffffffffffffffffffffff1673ffffffffffffffffffffffffffffffffffffffff168152602001908152602001600020819055506000805b826003018054905081101561105c578673ffffffffffffffffffffffffffffffffffffffff16836003018281548110610ffa57610ff9614a94565b5b9060005260206000200160009054906101000a900473ffffffffffffffffffffffffffffffffffffffff1673ffffffffffffffffffffffffffffffffffffffff1603611049576001915061105c565b808061105490614b52565b915050610fbe565b50806110c85781600301869080600181540180825580915050600190039060005260206000200160009091909190916101000a81548173ffffffffffffffffffffffffffffffffffffffff021916908373ffffffffffffffffffffffffffffffffffffffff1602179055505b7f18010a98b74dc9658d6a9b0218afc6bfc92f15be0a62de45753fe2a7463ff22b86888a6040516110fb93929190614f19565b60405180910390a15050505050505050565b6000803390506000805b600380549050811015611244576003818154811061113857611137614a94565b5b906000526020600020906005020160020160009054906101000a900473ffffffffffffffffffffffffffffffffffffffff1673ffffffffffffffffffffffffffffffffffffffff168373ffffffffffffffffffffffffffffffffffffffff160361123157600191506000600382815481106111b6576111b5614a94565b5b90600052602060002090600502019050868160000190816111d791906150fc565b50858160010190816111e991906150fc565b507f701184af4d14416de5ff7d43137039f8b4c7bc895af73d47ec2f8196e18feaa987878660405161121d939291906151ce565b60405180910390a18294505050505061131e565b808061123c90614b52565b915050611117565b508061131b576000600360018160018154018082558091505003906000526020600020906005020190508581600001908161127f91906150fc565b508481600101908161129191906150fc565b50828160020160006101000a81548173ffffffffffffffffffffffffffffffffffffffff021916908373ffffffffffffffffffffffffffffffffffffffff1602179055507f701184af4d14416de5ff7d43137039f8b4c7bc895af73d47ec2f8196e18feaa9868685604051611308939291906151ce565b60405180910390a181935050505061131e565b50505b92915050565b60008060608060008060006060806000808b6000811015801561134b575060028054905081105b61138a576040517f08c379a000000000000000000000000000000000000000000000000000000000815260040161138190614cd4565b60405180910390fd5b600060028e815481106113a05761139f614a94565b5b90600052602060002090600a020190506000816003018054905067ffffffffffffffff8111156113d3576113d26143e0565b5b6040519080825280602002602001820160405280156114015781602001602082028036833780820191505090505b50905060005b82600301805490508110156114ca5782600401600084600301838154811061143257611431614a94565b5b9060005260206000200160009054906101000a900473ffffffffffffffffffffffffffffffffffffffff1673ffffffffffffffffffffffffffffffffffffffff1673ffffffffffffffffffffffffffffffffffffffff168152602001908152602001600020548282815181106114ab576114aa614a94565b5b60200260200101818152505080806114c290614b52565b915050611407565b508160000154826001015460018460010154815481106114ed576114ec614a94565b5b9060005260206000209060040201600101600185600101548154811061151657611515614a94565b5b9060005260206000209060040201600201600186600101548154811061153f5761153e614a94565b5b90600052602060002090600402016003015486600801548760020160009054906101000a900460ff1688600301888a600601548b6007015488805461158390614af2565b80601f01602080910402602001604051908101604052809291908181526020018280546115af90614af2565b80156115fc5780601f106115d1576101008083540402835291602001916115fc565b820191906000526020600020905b8154815290600101906020018083116115df57829003601f168201915b5050505050985087805461160f90614af2565b80601f016020809104026020016040519081016040528092919081815260200182805461163b90614af2565b80156116885780601f1061165d57610100808354040283529160200191611688565b820191906000526020600020905b81548152906001019060200180831161166b57829003601f168201915b505050505097508380548060200260200160405190810160405280929190818152602001828054801561171057602002820191906000526020600020905b8160009054906101000a900473ffffffffffffffffffffffffffffffffffffffff1673ffffffffffffffffffffffffffffffffffffffff16815260200190600101908083116116c6575b505050505093509d509d509d509d509d509d509d509d509d509d509d5050505091939597999b90929496989a50565b606080606080606080606080600060028054905067ffffffffffffffff81111561176c5761176b6143e0565b5b60405190808252806020026020018201604052801561179a5781602001602082028036833780820191505090505b509050600060028054905067ffffffffffffffff8111156117be576117bd6143e0565b5b6040519080825280602002602001820160405280156117ec5781602001602082028036833780820191505090505b509050600060028054905067ffffffffffffffff8111156118105761180f6143e0565b5b60405190808252806020026020018201604052801561184357816020015b606081526020019060019003908161182e5790505b509050600060028054905067ffffffffffffffff811115611867576118666143e0565b5b60405190808252806020026020018201604052801561189a57816020015b60608152602001906001900390816118855790505b509050600060028054905067ffffffffffffffff8111156118be576118bd6143e0565b5b6040519080825280602002602001820160405280156118ec5781602001602082028036833780820191505090505b509050600060028054905067ffffffffffffffff8111156119105761190f6143e0565b5b60405190808252806020026020018201604052801561193e5781602001602082028036833780820191505090505b509050600060028054905067ffffffffffffffff811115611962576119616143e0565b5b6040519080825280602002602001820160405280156119905781602001602082028036833780820191505090505b509050600060028054905067ffffffffffffffff8111156119b4576119b36143e0565b5b6040519080825280602002602001820160405280156119e25781602001602082028036833780820191505090505b50905060005b600280549050811015611de05760028181548110611a0957611a08614a94565b5b90600052602060002090600a020160000154898281518110611a2e57611a2d614a94565b5b60200260200101818152505060028181548110611a4e57611a4d614a94565b5b90600052602060002090600a020160010154888281518110611a7357611a72614a94565b5b602002602001018181525050600160028281548110611a9557611a94614a94565b5b90600052602060002090600a02016001015481548110611ab857611ab7614a94565b5b90600052602060002090600402016001018054611ad490614af2565b80601f0160208091040260200160405190810160405280929190818152602001828054611b0090614af2565b8015611b4d5780601f10611b2257610100808354040283529160200191611b4d565b820191906000526020600020905b815481529060010190602001808311611b3057829003601f168201915b5050505050878281518110611b6557611b64614a94565b5b6020026020010181905250600160028281548110611b8657611b85614a94565b5b90600052602060002090600a02016001015481548110611ba957611ba8614a94565b5b90600052602060002090600402016002018054611bc590614af2565b80601f0160208091040260200160405190810160405280929190818152602001828054611bf190614af2565b8015611c3e5780601f10611c1357610100808354040283529160200191611c3e565b820191906000526020600020905b815481529060010190602001808311611c2157829003601f168201915b5050505050868281518110611c5657611c55614a94565b5b6020026020010181905250600160028281548110611c7757611c76614a94565b5b90600052602060002090600a02016001015481548110611c9a57611c99614a94565b5b906000526020600020906004020160030154858281518110611cbf57611cbe614a94565b5b60200260200101818152505060028181548110611cdf57611cde614a94565b5b90600052602060002090600a020160020160009054906101000a900460ff16848281518110611d1157611d10614a94565b5b60200260200101906001811115611d2b57611d2a6145d2565b5b90816001811115611d3f57611d3e6145d2565b5b8152505060028181548110611d5757611d56614a94565b5b90600052602060002090600a020160060154838281518110611d7c57611d7b614a94565b5b60200260200101818152505060028181548110611d9c57611d9b614a94565b5b90600052602060002090600a020160070154828281518110611dc157611dc0614a94565b5b6020026020010181815250508080611dd890614b52565b9150506119e8565b5087878787878787879f509f509f509f509f509f509f509f5050505050505050509091929394959697565b6000606080600080600090505b60018054905081101561200e5785604051602001611e369190615213565b6040516020818303038152906040528051906020012060018281548110611e6057611e5f614a94565b5b9060005260206000209060040201600101604051602001611e8191906152ad565b6040516020818303038152906040528051906020012003611ffb57600060018281548110611eb257611eb1614a94565b5b90600052602060002090600402019050806000015481600101826002018360030154828054611ee090614af2565b80601f0160208091040260200160405190810160405280929190818152602001828054611f0c90614af2565b8015611f595780601f10611f2e57610100808354040283529160200191611f59565b820191906000526020600020905b815481529060010190602001808311611f3c57829003601f168201915b50505050509250818054611f6c90614af2565b80601f0160208091040260200160405190810160405280929190818152602001828054611f9890614af2565b8015611fe55780601f10611fba57610100808354040283529160200191611fe5565b820191906000526020600020905b815481529060010190602001808311611fc857829003601f168201915b505050505091509550955095509550505061204a565b808061200690614b52565b915050611e18565b506040517f08c379a000000000000000000000000000000000000000000000000000000000815260040161204190615310565b60405180910390fd5b9193509193565b6060806000806000612061613da9565b60005b6003805490508110156122ba578773ffffffffffffffffffffffffffffffffffffffff166003828154811061209c5761209b614a94565b5b906000526020600020906005020160020160009054906101000a900473ffffffffffffffffffffffffffffffffffffffff1673ffffffffffffffffffffffffffffffffffffffff16036122a757600381815481106120fd576120fc614a94565b5b90600052602060002090600502016040518060a001604052908160008201805461212690614af2565b80601f016020809104026020016040519081016040528092919081815260200182805461215290614af2565b801561219f5780601f106121745761010080835404028352916020019161219f565b820191906000526020600020905b81548152906001019060200180831161218257829003601f168201915b505050505081526020016001820180546121b890614af2565b80601f01602080910402602001604051908101604052809291908181526020018280546121e490614af2565b80156122315780601f1061220657610100808354040283529160200191612231565b820191906000526020600020905b81548152906001019060200180831161221457829003601f168201915b505050505081526020016002820160009054906101000a900473ffffffffffffffffffffffffffffffffffffffff1673ffffffffffffffffffffffffffffffffffffffff1673ffffffffffffffffffffffffffffffffffffffff1681526020016003820154815260200160048201548152505091505b80806122b290614b52565b915050612064565b5080600001518160200151826040015183606001518460800151955095509550955095505091939590929450565b6122f0613cdd565b73ffffffffffffffffffffffffffffffffffffffff1661230e612370565b73ffffffffffffffffffffffffffffffffffffffff1614612364576040517f08c379a000000000000000000000000000000000000000000000000000000000815260040161235b9061537c565b60405180910390fd5b61236e6000613ce5565b565b60008060009054906101000a900473ffffffffffffffffffffffffffffffffffffffff16905090565b80600081101580156123af575060028054905081105b6123ee576040517f08c379a00000000000000000000000000000000000000000000000000000000081526004016123e590614cd4565b60405180910390fd5b6123f6613cdd565b73ffffffffffffffffffffffffffffffffffffffff16612414612370565b73ffffffffffffffffffffffffffffffffffffffff161461246a576040517f08c379a00000000000000000000000000000000000000000000000000000000081526004016124619061537c565b60405180910390fd5b6000600283815481106124805761247f614a94565b5b90600052602060002090600a020160020160006101000a81548160ff021916908360018111156124b3576124b26145d2565b5b02179055507f345d397bdfa4f2d3d5282017eff932d0ed125d73664f138ad64b957f3154092a82600284815481106124ee576124ed614a94565b5b90600052602060002090600a020160020160009054906101000a900460ff1660016002868154811061252357612522614a94565b5b90600052602060002090600a0201600101548154811061254657612545614a94565b5b9060005260206000209060040201604051612563939291906154d1565b60405180910390a15050565b6000612579613cdd565b73ffffffffffffffffffffffffffffffffffffffff16612597612370565b73ffffffffffffffffffffffffffffffffffffffff16146125ed576040517f08c379a00000000000000000000000000000000000000000000000000000000081526004016125e49061537c565b60405180910390fd5b60005b6003805490508110156126f7578373ffffffffffffffffffffffffffffffffffffffff166003828154811061262857612627614a94565b5b906000526020600020906005020160020160009054906101000a900473ffffffffffffffffffffffffffffffffffffffff1673ffffffffffffffffffffffffffffffffffffffff16036126e457826003828154811061268a57612689614a94565b5b906000526020600020906005020160030181905550600381815481106126b3576126b2614a94565b5b906000526020600020906005020160040160008154809291906126d590614b52565b919050555060019150506126fd565b80806126ef90614b52565b9150506125f0565b50600090505b92915050565b6060806060600060018054905067ffffffffffffffff811115612729576127286143e0565b5b60405190808252806020026020018201604052801561275c57816020015b60608152602001906001900390816127475790505b509050600060018054905067ffffffffffffffff8111156127805761277f6143e0565b5b6040519080825280602002602001820160405280156127b357816020015b606081526020019060019003908161279e5790505b509050600060018054905067ffffffffffffffff8111156127d7576127d66143e0565b5b6040519080825280602002602001820160405280156128055781602001602082028036833780820191505090505b50905060005b600180549050811015612a08576001818154811061282c5761282b614a94565b5b9060005260206000209060040201600101805461284890614af2565b80601f016020809104026020016040519081016040528092919081815260200182805461287490614af2565b80156128c15780601f10612896576101008083540402835291602001916128c1565b820191906000526020600020905b8154815290600101906020018083116128a457829003601f168201915b50505050508482815181106128d9576128d8614a94565b5b6020026020010181905250600181815481106128f8576128f7614a94565b5b9060005260206000209060040201600201805461291490614af2565b80601f016020809104026020016040519081016040528092919081815260200182805461294090614af2565b801561298d5780601f106129625761010080835404028352916020019161298d565b820191906000526020600020905b81548152906001019060200180831161297057829003601f168201915b50505050508382815181106129a5576129a4614a94565b5b6020026020010181905250600181815481106129c4576129c3614a94565b5b9060005260206000209060040201600301548282815181106129e9576129e8614a94565b5b6020026020010181815250508080612a0090614b52565b91505061280b565b50828282955095509550505050909192565b6000612a24613cdd565b73ffffffffffffffffffffffffffffffffffffffff16612a42612370565b73ffffffffffffffffffffffffffffffffffffffff1614612a98576040517f08c379a0000000000000000000000000000000000000000000000000000000008152600401612a8f9061537c565b60405180910390fd5b8260005b600180549050811015612b6e5781604051602001612aba9190615213565b6040516020818303038152906040528051906020012060018281548110612ae457612ae3614a94565b5b9060005260206000209060040201600101604051602001612b0591906152ad565b6040516020818303038152906040528051906020012003612b5b576040517f08c379a0000000000000000000000000000000000000000000000000000000008152600401612b529061555b565b60405180910390fd5b8080612b6690614b52565b915050612a9c565b50600060018081600181540180825580915050039060005260206000209060040201905060018080549050612ba39190614b9a565b816000018190555084816001019081612bbc91906150fc565b5083816002019081612bce91906150fc565b507f8068f99c05fd8a698b784ed43ce51445a66f90ff68fcbc126d6591e9f86ec07c816000015482600101836002018460030154604051612c1294939291906155ff565b60405180910390a180600001549250505092915050565b60038181548110612c3957600080fd5b9060005260206000209060050201600091509050806000018054612c5c90614af2565b80601f0160208091040260200160405190810160405280929190818152602001828054612c8890614af2565b8015612cd55780601f10612caa57610100808354040283529160200191612cd5565b820191906000526020600020905b815481529060010190602001808311612cb857829003601f168201915b505050505090806001018054612cea90614af2565b80601f0160208091040260200160405190810160405280929190818152602001828054612d1690614af2565b8015612d635780601f10612d3857610100808354040283529160200191612d63565b820191906000526020600020905b815481529060010190602001808311612d4657829003601f168201915b5050505050908060020160009054906101000a900473ffffffffffffffffffffffffffffffffffffffff16908060030154908060040154905085565b600060608260008110158015612db9575060028054905081105b612df8576040517f08c379a0000000000000000000000000000000000000000000000000000000008152600401612def90614cd4565b60405180910390fd5b600060028581548110612e0e57612e0d614a94565b5b90600052602060002090600a020160030180549050905060008060008367ffffffffffffffff811115612e4457612e436143e0565b5b604051908082528060200260200182016040528015612e725781602001602082028036833780820191505090505b509050600060028981548110612e8b57612e8a614a94565b5b90600052602060002090600a020160090154905060005b8581101561302357600060028b81548110612ec057612ebf614a94565b5b90600052602060002090600a0201600401600060028d81548110612ee757612ee6614a94565b5b90600052602060002090600a02016003018481548110612f0a57612f09614a94565b5b9060005260206000200160009054906101000a900473ffffffffffffffffffffffffffffffffffffffff1673ffffffffffffffffffffffffffffffffffffffff1673ffffffffffffffffffffffffffffffffffffffff1681526020019081526020016000205490506000612f7e8483610958565b905080858481518110612f9457612f93614a94565b5b6020026020010181815250508087612fac9190614cf4565b9650806064612fbb9190615652565b82612fc691906156e6565b86612fd191906157fd565b95507f33f22d81cc2dacfa8f580844266ddc4049905cb04d979452079b0c4cafaab00a82828860405161300693929190615891565b60405180910390a15050808061301b90614b52565b915050612ea2565b5060008486606461303491906156e6565b61303e9190615652565b90506000818561304e91906158c8565b90508084995099505050505050505050915091565b8160008110158015613079575060028054905081105b6130b8576040517f08c379a00000000000000000000000000000000000000000000000000000000081526004016130af90614cd4565b60405180910390fd5b6130c0613cdd565b73ffffffffffffffffffffffffffffffffffffffff166130de612370565b73ffffffffffffffffffffffffffffffffffffffff1614613134576040517f08c379a000000000000000000000000000000000000000000000000000000000815260040161312b9061537c565b60405180910390fd5b60016002848154811061314a57613149614a94565b5b90600052602060002090600a020160020160006101000a81548160ff0219169083600181111561317d5761317c6145d2565b5b0217905550426002848154811061319757613196614a94565b5b90600052602060002090600a02016006018190555081600284815481106131c1576131c0614a94565b5b90600052602060002090600a0201600701819055507fd55a4f4210056086ae4c4b2cd9f0b30e2fc72fd80ada93ca8b57bac1177bffde836002858154811061320c5761320b614a94565b5b90600052602060002090600a020160020160009054906101000a900460ff1660016002878154811061324157613240614a94565b5b90600052602060002090600a0201600101548154811061326457613263614a94565b5b9060005260206000209060040201604051613281939291906154d1565b60405180910390a1505050565b613296613cdd565b73ffffffffffffffffffffffffffffffffffffffff166132b4612370565b73ffffffffffffffffffffffffffffffffffffffff161461330a576040517f08c379a00000000000000000000000000000000000000000000000000000000081526004016133019061537c565b60405180910390fd5b600073ffffffffffffffffffffffffffffffffffffffff168173ffffffffffffffffffffffffffffffffffffffff1603613379576040517f08c379a0000000000000000000000000000000000000000000000000000000008152600401613370906159a4565b60405180910390fd5b61338281613ce5565b50565b61338d613cdd565b73ffffffffffffffffffffffffffffffffffffffff166133ab612370565b73ffffffffffffffffffffffffffffffffffffffff1614613401576040517f08c379a00000000000000000000000000000000000000000000000000000000081526004016133f89061537c565b60405180910390fd5b8160006001811115613416576134156145d2565b5b6002828154811061342a57613429614a94565b5b90600052602060002090600a020160020160009054906101000a900460ff16600181111561345b5761345a6145d2565b5b1461349b576040517f08c379a000000000000000000000000000000000000000000000000000000000815260040161349290615a10565b60405180910390fd5b600283815481106134af576134ae614a94565b5b90600052602060002090600a020160010154600081101580156134d6575060018054905081105b613515576040517f08c379a000000000000000000000000000000000000000000000000000000000815260040161350c90614cd4565b60405180910390fd5b60006002858154811061352b5761352a614a94565b5b90600052602060002090600a0201600101549050836001828154811061355457613553614a94565b5b90600052602060002090600402016003018190555060006002868154811061357f5761357e614a94565b5b90600052602060002090600a020190508481600901819055506000806135a488612d9f565b9150915081836008018190555060005b8151811015613670578181815181106135d0576135cf614a94565b5b60200260200101518460050160008660030184815481106135f4576135f3614a94565b5b9060005260206000200160009054906101000a900473ffffffffffffffffffffffffffffffffffffffff1673ffffffffffffffffffffffffffffffffffffffff1673ffffffffffffffffffffffffffffffffffffffff16815260200190815260200160002081905550808061366890614b52565b9150506135b4565b5060005b83600301805490508110156137d6576000613710898660040160008860030186815481106136a5576136a4614a94565b5b9060005260206000200160009054906101000a900473ffffffffffffffffffffffffffffffffffffffff1673ffffffffffffffffffffffffffffffffffffffff1673ffffffffffffffffffffffffffffffffffffffff16815260200190815260200160002054610958565b905060008061375e87600301858154811061372e5761372d614a94565b5b9060005260206000200160009054906101000a900473ffffffffffffffffffffffffffffffffffffffff16612051565b945094505050506000613772838584610c0a565b90506137be88600301868154811061378d5761378c614a94565b5b9060005260206000200160009054906101000a900473ffffffffffffffffffffffffffffffffffffffff168261256f565b505050505080806137ce90614b52565b915050613674565b507f98b36ee88a9e0f508dbe2980caf8744d83894b6ec268031f30b148c4c763430784888a858560405161380e959493929190615a30565b60405180910390a15050505050505050565b60008160008110158015613838575060018054905081105b613877576040517f08c379a000000000000000000000000000000000000000000000000000000000815260040161386e90614cd4565b60405180910390fd5b61387f613cdd565b73ffffffffffffffffffffffffffffffffffffffff1661389d612370565b73ffffffffffffffffffffffffffffffffffffffff16146138f3576040517f08c379a00000000000000000000000000000000000000000000000000000000081526004016138ea9061537c565b60405180910390fd5b600060026001816001815401808255809150500390600052602060002090600a0201905083816001018190555060008160020160006101000a81548160ff02191690836001811115613948576139476145d2565b5b02179055506000816008018190555061395f613dee565b60005b600180549050811015613b1657856001828154811061398457613983614a94565b5b90600052602060002090600402016000015403613b0357600181815481106139af576139ae614a94565b5b9060005260206000209060040201604051806080016040529081600082015481526020016001820180546139e290614af2565b80601f0160208091040260200160405190810160405280929190818152602001828054613a0e90614af2565b8015613a5b5780601f10613a3057610100808354040283529160200191613a5b565b820191906000526020600020905b815481529060010190602001808311613a3e57829003601f168201915b50505050508152602001600282018054613a7490614af2565b80601f0160208091040260200160405190810160405280929190818152602001828054613aa090614af2565b8015613aed5780601f10613ac257610100808354040283529160200191613aed565b820191906000526020600020905b815481529060010190602001808311613ad057829003601f168201915b5050505050815260200160038201548152505091505b8080613b0e90614b52565b915050613962565b507f9887df6b5f7c48fc3815191894f4c61c05f6327db6b6eaaaee1325d1bde4c530816001600280549050613b4b9190614b9a565b604051613b59929190615af4565b60405180910390a16001600280549050613b739190614b9a565b9350505050919050565b606060008203613bc4576040518060400160405280600181526020017f30000000000000000000000000000000000000000000000000000000000000008152509050613cd8565b600082905060005b60008214613bf6578080613bdf90614b52565b915050600a82613bef9190614bfd565b9150613bcc565b60008167ffffffffffffffff811115613c1257613c116143e0565b5b6040519080825280601f01601f191660200182016040528015613c445781602001600182028036833780820191505090505b5090505b60008514613cd157600182613c5d9190614b9a565b9150600a85613c6c9190615b24565b6030613c789190614cf4565b60f81b818381518110613c8e57613c8d614a94565b5b60200101907effffffffffffffffffffffffffffffffffffffffffffffffffffffffffffff1916908160001a905350600a85613cca9190614bfd565b9450613c48565b8093505050505b919050565b600033905090565b60008060009054906101000a900473ffffffffffffffffffffffffffffffffffffffff169050816000806101000a81548173ffffffffffffffffffffffffffffffffffffffff021916908373ffffffffffffffffffffffffffffffffffffffff1602179055508173ffffffffffffffffffffffffffffffffffffffff168173ffffffffffffffffffffffffffffffffffffffff167f8be0079c531659141344cd1fd0a4f28419497f9722a3daafe3b4186f6b6457e060405160405180910390a35050565b6040518060a001604052806060815260200160608152602001600073ffffffffffffffffffffffffffffffffffffffff16815260200160008152602001600081525090565b6040518060800160405280600081526020016060815260200160608152602001600081525090565b600081519050919050565b600082825260208201905092915050565b6000819050602082019050919050565b600081519050919050565b600082825260208201905092915050565b60005b83811015613e7c578082015181840152602081019050613e61565b83811115613e8b576000848401525b50505050565b6000601f19601f8301169050919050565b6000613ead82613e42565b613eb78185613e4d565b9350613ec7818560208601613e5e565b613ed081613e91565b840191505092915050565b6000613ee78383613ea2565b905092915050565b6000602082019050919050565b6000613f0782613e16565b613f118185613e21565b935083602082028501613f2385613e32565b8060005b85811015613f5f5784840389528151613f408582613edb565b9450613f4b83613eef565b925060208a01995050600181019050613f27565b50829750879550505050505092915050565b600081519050919050565b600082825260208201905092915050565b6000819050602082019050919050565b600073ffffffffffffffffffffffffffffffffffffffff82169050919050565b6000613fc882613f9d565b9050919050565b613fd881613fbd565b82525050565b6000613fea8383613fcf565b60208301905092915050565b6000602082019050919050565b600061400e82613f71565b6140188185613f7c565b935061402383613f8d565b8060005b8381101561405457815161403b8882613fde565b975061404683613ff6565b925050600181019050614027565b5085935050505092915050565b6000606082019050818103600083015261407b8186613efc565b9050818103602083015261408f8185613efc565b905081810360408301526140a38184614003565b9050949350505050565b6000604051905090565b600080fd5b600080fd5b6000819050919050565b6140d4816140c1565b81146140df57600080fd5b50565b6000813590506140f1816140cb565b92915050565b60006020828403121561410d5761410c6140b7565b5b600061411b848285016140e2565b91505092915050565b61412d816140c1565b82525050565b600082825260208201905092915050565b600061414f82613e42565b6141598185614133565b9350614169818560208601613e5e565b61417281613e91565b840191505092915050565b60006060820190506141926000830186614124565b81810360208301526141a48185614144565b90506141b36040830184614124565b949350505050565b600080604083850312156141d2576141d16140b7565b5b60006141e0858286016140e2565b92505060206141f1858286016140e2565b9150509250929050565b60006020820190506142106000830184614124565b92915050565b600081519050919050565b600082825260208201905092915050565b6000819050602082019050919050565b61424b816140c1565b82525050565b600061425d8383614242565b60208301905092915050565b6000602082019050919050565b600061428182614216565b61428b8185614221565b935061429683614232565b8060005b838110156142c75781516142ae8882614251565b97506142b983614269565b92505060018101905061429a565b5085935050505092915050565b60006040820190506142e96000830185614124565b81810360208301526142fb8184614276565b90509392505050565b60008060006060848603121561431d5761431c6140b7565b5b600061432b868287016140e2565b935050602061433c868287016140e2565b925050604061434d868287016140e2565b9150509250925092565b61436081613fbd565b811461436b57600080fd5b50565b60008135905061437d81614357565b92915050565b60008060006060848603121561439c5761439b6140b7565b5b60006143aa868287016140e2565b93505060206143bb868287016140e2565b92505060406143cc8682870161436e565b9150509250925092565b600080fd5b600080fd5b7f4e487b7100000000000000000000000000000000000000000000000000000000600052604160045260246000fd5b61441882613e91565b810181811067ffffffffffffffff82111715614437576144366143e0565b5b80604052505050565b600061444a6140ad565b9050614456828261440f565b919050565b600067ffffffffffffffff821115614476576144756143e0565b5b61447f82613e91565b9050602081019050919050565b82818337600083830152505050565b60006144ae6144a98461445b565b614440565b9050828152602081018484840111156144ca576144c96143db565b5b6144d584828561448c565b509392505050565b600082601f8301126144f2576144f16143d6565b5b813561450284826020860161449b565b91505092915050565b60008060408385031215614522576145216140b7565b5b600083013567ffffffffffffffff8111156145405761453f6140bc565b5b61454c858286016144dd565b925050602083013567ffffffffffffffff81111561456d5761456c6140bc565b5b614579858286016144dd565b9150509250929050565b60008115159050919050565b61459881614583565b82525050565b60006020820190506145b3600083018461458f565b92915050565b6000819050919050565b6145cc816145b9565b82525050565b7f4e487b7100000000000000000000000000000000000000000000000000000000600052602160045260246000fd5b60028110614612576146116145d2565b5b50565b600081905061462382614601565b919050565b600061463382614615565b9050919050565b61464381614628565b82525050565b60006101608201905061465f600083018e614124565b61466c602083018d614124565b818103604083015261467e818c614144565b90508181036060830152614692818b614144565b90506146a1608083018a614124565b6146ae60a08301896145c3565b6146bb60c083018861463a565b81810360e08301526146cd8187614003565b90508181036101008301526146e28186614276565b90506146f2610120830185614124565b614700610140830184614124565b9c9b505050505050505050505050565b600081519050919050565b600082825260208201905092915050565b6000819050602082019050919050565b61474581614628565b82525050565b6000614757838361473c565b60208301905092915050565b6000602082019050919050565b600061477b82614710565b614785818561471b565b93506147908361472c565b8060005b838110156147c15781516147a8888261474b565b97506147b383614763565b925050600181019050614794565b5085935050505092915050565b60006101008201905081810360008301526147e9818b614276565b905081810360208301526147fd818a614276565b905081810360408301526148118189613efc565b905081810360608301526148258188613efc565b905081810360808301526148398187614276565b905081810360a083015261484d8186614770565b905081810360c08301526148618185614276565b905081810360e08301526148758184614276565b90509998505050505050505050565b60006020828403121561489a576148996140b7565b5b600082013567ffffffffffffffff8111156148b8576148b76140bc565b5b6148c4848285016144dd565b91505092915050565b60006080820190506148e26000830187614124565b81810360208301526148f48186614144565b905081810360408301526149088185614144565b90506149176060830184614124565b95945050505050565b600060208284031215614936576149356140b7565b5b60006149448482850161436e565b91505092915050565b61495681613fbd565b82525050565b600060a08201905081810360008301526149768188614144565b9050818103602083015261498a8187614144565b9050614999604083018661494d565b6149a66060830185614124565b6149b36080830184614124565b9695505050505050565b60006020820190506149d2600083018461494d565b92915050565b600080604083850312156149ef576149ee6140b7565b5b60006149fd8582860161436e565b9250506020614a0e858286016140e2565b9150509250929050565b60006060820190508181036000830152614a328186613efc565b90508181036020830152614a468185613efc565b90508181036040830152614a5a8184614276565b9050949350505050565b6000604082019050614a7960008301856145c3565b8181036020830152614a8b8184614276565b90509392505050565b7f4e487b7100000000000000000000000000000000000000000000000000000000600052603260045260246000fd5b7f4e487b7100000000000000000000000000000000000000000000000000000000600052602260045260246000fd5b60006002820490506001821680614b0a57607f821691505b602082108103614b1d57614b1c614ac3565b5b50919050565b7f4e487b7100000000000000000000000000000000000000000000000000000000600052601160045260246000fd5b6000614b5d826140c1565b91507fffffffffffffffffffffffffffffffffffffffffffffffffffffffffffffffff8203614b8f57614b8e614b23565b5b600182019050919050565b6000614ba5826140c1565b9150614bb0836140c1565b925082821015614bc357614bc2614b23565b5b828203905092915050565b7f4e487b7100000000000000000000000000000000000000000000000000000000600052601260045260246000fd5b6000614c08826140c1565b9150614c13836140c1565b925082614c2357614c22614bce565b5b828204905092915050565b6000614c39826140c1565b9150614c44836140c1565b9250817fffffffffffffffffffffffffffffffffffffffffffffffffffffffffffffffff0483118215151615614c7d57614c7c614b23565b5b828202905092915050565b7f49442073657373696f6e206973206e6f74206578697374000000000000000000600082015250565b6000614cbe601783614133565b9150614cc982614c88565b602082019050919050565b60006020820190508181036000830152614ced81614cb1565b9050919050565b6000614cff826140c1565b9150614d0a836140c1565b9250827fffffffffffffffffffffffffffffffffffffffffffffffffffffffffffffffff03821115614d3f57614d3e614b23565b5b828201905092915050565b7f72656163686564207061727469636970616e7473206c696d69743a2000000000815250565b600081905092915050565b6000614d8682613e42565b614d908185614d70565b9350614da0818560208601613e5e565b80840191505092915050565b6000614db782614d4a565b601c82019150614dc78284614d7b565b915081905092915050565b60006020820190508181036000830152614dec8184614144565b905092915050565b7f596f752776652072756e206f7574206f662074696d6500000000000000000000815250565b7f2d00000000000000000000000000000000000000000000000000000000000000815250565b6000614e4b82614df4565b601682019150614e5a82614e1a565b600182019150614e6a8286614d7b565b9150614e7582614e1a565b600182019150614e858285614d7b565b9150614e9082614e1a565b600182019150614ea08284614d7b565b9150819050949350505050565b7f53657373696f6e20636c6f736564000000000000000000000000000000000000600082015250565b6000614ee3600e83614133565b9150614eee82614ead565b602082019050919050565b60006020820190508181036000830152614f1281614ed6565b9050919050565b6000606082019050614f2e600083018661494d565b614f3b6020830185614124565b614f486040830184614124565b949350505050565b60008190508160005260206000209050919050565b60006020601f8301049050919050565b600082821b905092915050565b600060088302614fb27fffffffffffffffffffffffffffffffffffffffffffffffffffffffffffffffff82614f75565b614fbc8683614f75565b95508019841693508086168417925050509392505050565b6000819050919050565b6000614ff9614ff4614fef846140c1565b614fd4565b6140c1565b9050919050565b6000819050919050565b61501383614fde565b61502761501f82615000565b848454614f82565b825550505050565b600090565b61503c61502f565b61504781848461500a565b505050565b5b8181101561506b57615060600082615034565b60018101905061504d565b5050565b601f8211156150b05761508181614f50565b61508a84614f65565b81016020851015615099578190505b6150ad6150a585614f65565b83018261504c565b50505b505050565b600082821c905092915050565b60006150d3600019846008026150b5565b1980831691505092915050565b60006150ec83836150c2565b9150826002028217905092915050565b61510582613e42565b67ffffffffffffffff81111561511e5761511d6143e0565b5b6151288254614af2565b61513382828561506f565b600060209050601f8311600181146151665760008415615154578287015190505b61515e85826150e0565b8655506151c6565b601f19841661517486614f50565b60005b8281101561519c57848901518255600182019150602085019450602081019050615177565b868310156151b957848901516151b5601f8916826150c2565b8355505b6001600288020188555050505b505050505050565b600060608201905081810360008301526151e88186614144565b905081810360208301526151fc8185614144565b905061520b604083018461494d565b949350505050565b600061521f8284614d7b565b915081905092915050565b6000815461523781614af2565b6152418186614d70565b9450600182166000811461525c5760018114615271576152a4565b60ff19831686528115158202860193506152a4565b61527a85614f50565b60005b8381101561529c5781548189015260018201915060208101905061527d565b838801955050505b50505092915050565b60006152b9828461522a565b915081905092915050565b7f50726f64756374206973206e6f74206578697374000000000000000000000000600082015250565b60006152fa601483614133565b9150615305826152c4565b602082019050919050565b60006020820190508181036000830152615329816152ed565b9050919050565b7f4f776e61626c653a2063616c6c6572206973206e6f7420746865206f776e6572600082015250565b6000615366602083614133565b915061537182615330565b602082019050919050565b6000602082019050818103600083015261539581615359565b9050919050565b60008160001c9050919050565b6000819050919050565b60006153c66153c18361539c565b6153a9565b9050919050565b600081546153da81614af2565b6153e48186613e4d565b945060018216600081146153ff576001811461541557615448565b60ff198316865281151560200286019350615448565b61541e85614f50565b60005b8381101561544057815481890152600182019150602081019050615421565b808801955050505b50505092915050565b6000608083016000808401549050615468816153b3565b6154756000870182614242565b5060018401858303602087015261548c83826153cd565b9250506002840185830360408701526154a583826153cd565b925050600384015490506154b8816153b3565b6154c56060870182614242565b50819250505092915050565b60006060820190506154e66000830186614124565b6154f3602083018561463a565b81810360408301526155058184615451565b9050949350505050565b7f546869732070726f6475637420686173206265656e2061646465640000000000600082015250565b6000615545601b83614133565b91506155508261550f565b602082019050919050565b6000602082019050818103600083015261557481615538565b9050919050565b6000815461558881614af2565b6155928186614133565b945060018216600081146155ad57600181146155c3576155f6565b60ff1983168652811515602002860193506155f6565b6155cc85614f50565b60005b838110156155ee578154818901526001820191506020810190506155cf565b808801955050505b50505092915050565b60006080820190506156146000830187614124565b8181036020830152615626818661557b565b9050818103604083015261563a818561557b565b90506156496060830184614124565b95945050505050565b600061565d826145b9565b9150615668836145b9565b9250827f8000000000000000000000000000000000000000000000000000000000000000018212600084121516156156a3576156a2614b23565b5b827f7fffffffffffffffffffffffffffffffffffffffffffffffffffffffffffffff0182136000841216156156db576156da614b23565b5b828203905092915050565b60006156f1826145b9565b91506156fc836145b9565b9250827f7fffffffffffffffffffffffffffffffffffffffffffffffffffffffffffffff048211600084136000841316161561573b5761573a614b23565b5b817f8000000000000000000000000000000000000000000000000000000000000000058312600084126000841316161561577857615777614b23565b5b827f800000000000000000000000000000000000000000000000000000000000000005821260008413600084121616156157b5576157b4614b23565b5b827f7fffffffffffffffffffffffffffffffffffffffffffffffffffffffffffffff05821260008412600084121616156157f2576157f1614b23565b5b828202905092915050565b6000615808826145b9565b9150615813836145b9565b9250817f7fffffffffffffffffffffffffffffffffffffffffffffffffffffffffffffff0383136000831215161561584e5761584d614b23565b5b817f800000000000000000000000000000000000000000000000000000000000000003831260008312161561588657615885614b23565b5b828201905092915050565b60006060820190506158a66000830186614124565b6158b36020830185614124565b6158c060408301846145c3565b949350505050565b60006158d3826145b9565b91506158de836145b9565b9250826158ee576158ed614bce565b5b600160000383147f80000000000000000000000000000000000000000000000000000000000000008314161561592757615926614b23565b5b828205905092915050565b7f4f776e61626c653a206e6577206f776e657220697320746865207a65726f206160008201527f6464726573730000000000000000000000000000000000000000000000000000602082015250565b600061598e602683614133565b915061599982615932565b604082019050919050565b600060208201905081810360008301526159bd81615981565b9050919050565b7f53657373696f6e20776173206e6f7420636c6f73656400000000000000000000600082015250565b60006159fa601683614133565b9150615a05826159c4565b602082019050919050565b60006020820190508181036000830152615a29816159ed565b9050919050565b600060a082019050615a456000830188614124565b615a526020830187614124565b615a5f6040830186614124565b615a6c60608301856145c3565b8181036080830152615a7e8184614276565b90509695505050505050565b6000608083016000830151615aa26000860182614242565b5060208301518482036020860152615aba8282613ea2565b91505060408301518482036040860152615ad48282613ea2565b9150506060830151615ae96060860182614242565b508091505092915050565b60006040820190508181036000830152615b0e8185615a8a565b9050615b1d6020830184614124565b9392505050565b6000615b2f826140c1565b9150615b3a836140c1565b925082615b4a57615b49614bce565b5b82820690509291505056fea264697066735822122077db35885ce2943af6215288a5ddd57419414645ec6917e5fad1e338b00f1d4364736f6c634300080f0033516d5379343235794b32626a417a57703262613638487a4664416677746644363461756b35327873354c6f785172516d4e6e644279325848754d3466327656776d796b666b4558797441637241583838484366464332563656594e4c",
  "immutableReferences": {},
  "source": "// SPDX-License-Identifier: MIT\r\npragma solidity ^0.8.0;\r\nimport \"@openzeppelin/contracts/access/Ownable.sol\";\r\nimport \"@openzeppelin/contracts/utils/Strings.sol\";\r\nimport \"./lib/myMath.sol\";\r\n\r\ncontract PricingChain is Ownable {\r\n    enum State {\r\n        CLOSE,\r\n        OPEN\r\n    }\r\n\r\n    struct Product {\r\n        uint256 id;\r\n        string ipfsID;\r\n        string name;\r\n        uint256 price; // P\r\n    }\r\n\r\n    struct Session {\r\n        uint256 id;\r\n        uint256 productID;\r\n        State state;\r\n        address[] participants;\r\n        mapping(address => uint256) participant_pricing;\r\n        mapping(address => uint256) deviationOfParticipants;\r\n        uint256 timeStarted;\r\n        uint256 timeout;\r\n        int proposedPrice;\r\n        uint256 finalPrice;\r\n    }\r\n\r\n    struct User {\r\n        string name;\r\n        string email;\r\n        address walletAddress;\r\n        uint accumulatedDeviation;\r\n        uint numbersOfSessionJoined;\r\n    }\r\n\r\n    event onRegisted(string name, string email, address addr);\r\n    event onProductAdded(\r\n        uint256 productID,\r\n        string ipfsID,\r\n        string name,\r\n        uint256 price\r\n    );\r\n    event onCreatedSession(Product p, uint256 sessionID);\r\n    event onStartedSession(uint256 id, State, Product p);\r\n    event onClosedSession(uint256 id, State, Product p);\r\n    event onGuessPrice(address participant, uint256 price, uint256 sessionID);\r\n    event onSetPrice(\r\n        uint256 productID,\r\n        uint256 price,\r\n        uint256 sessionID,\r\n        int proposedPrice,\r\n        uint[] deviationOfParticipants\r\n    );\r\n\r\n    // S ngi tham gia ti a\r\n    uint8 private participantsLimit = 10;\r\n\r\n    // m xem c bao nhiu sn phm\r\n    // danh sch sn phm, uint l id ca sn phm\r\n    Product[] private _products;\r\n\r\n    // danh sch session\r\n    Session[] private _sessions;\r\n    User[] public _users;\r\n\r\n    constructor() public {\r\n        /* test */\r\n        addProduct(\r\n            \"QmSy425yK2bjAzWp2ba68HzFdAfwtfD64auk52xs5LoxQr\",\r\n            \"galaxy s22\"\r\n        );\r\n        addProduct(\r\n            \"QmNndBy2XHuM4f2vVwmykfkEXytAcrAX88HCfFC2V6VYNL\",\r\n            \"giay golf\"\r\n        );\r\n        // _products[0].price = 10;\r\n\r\n        createSession(0);\r\n        startSession(0, 0);\r\n\r\n        guessPrice(0, 5 ether, 0x746e9Fbb7E066435eF4208E3661e4B42aD09A0dD);\r\n        guessPrice(0, 2 ether, 0xe8584AA83Df68EA98e840dAc05782B81559D1Da1);\r\n        guessPrice(0, 24 ether, 0x53C6E288B9eF2E2627b09E4DEAec3806A0571Cf1);\r\n        guessPrice(0, 7 ether, 0x9428207253BC364209212d07B88E21c2fCF916d6);\r\n        guessPrice(0, 4 ether, 0x2769C260f31240901271C53D72E263D16b4F1946);\r\n        closeSession(0);\r\n    }\r\n\r\n    // register and update user infomation\r\n    function register(string memory name, string memory email)\r\n        public\r\n        returns (bool _exist)\r\n    {\r\n        address addr = msg.sender;\r\n        bool exist = false;\r\n        for (uint i = 0; i < _users.length; i++) {\r\n            if (addr == _users[i].walletAddress) {\r\n                exist = true;\r\n                User storage u;\r\n                u = _users[i];\r\n                u.name = name;\r\n                u.email = email;\r\n                emit onRegisted(name, email, addr);\r\n                return (exist);\r\n            }\r\n        }\r\n        if (!exist) {\r\n            User storage u;\r\n            u = _users.push();\r\n            u.name = name;\r\n            u.email = email;\r\n            u.walletAddress = addr;\r\n            emit onRegisted(name, email, addr);\r\n            return (exist);\r\n        }\r\n    }\r\n\r\n    function getUser(address addr)\r\n        public\r\n        view\r\n        returns (\r\n            string memory _name,\r\n            string memory _email,\r\n            address _walletAddress,\r\n            uint _accumulatedDeviation,\r\n            uint _numbersOfSessionJoined\r\n        )\r\n    {\r\n        User memory u;\r\n        for (uint256 i = 0; i < _users.length; i++) {\r\n            if (_users[i].walletAddress == addr) {\r\n                u = _users[i];\r\n            }\r\n        }\r\n        return (\r\n            u.name,\r\n            u.email,\r\n            u.walletAddress,\r\n            u.accumulatedDeviation,\r\n            u.numbersOfSessionJoined\r\n        );\r\n    }\r\n\r\n    function getUsers()\r\n        public\r\n        view\r\n        returns (\r\n            string[] memory _names,\r\n            string[] memory _emails,\r\n            address[] memory _walletAddresses\r\n        )\r\n    {\r\n        string[] memory names = new string[](_users.length);\r\n        string[] memory emails = new string[](_users.length);\r\n        address[] memory walletAddresses = new address[](_users.length);\r\n        for (uint i = 0; i < _users.length; i++) {\r\n            names[i] = _users[i].name;\r\n            emails[i] = _users[i].email;\r\n            walletAddresses[i] = _users[i].walletAddress;\r\n        }\r\n        return (names, emails, walletAddresses);\r\n    }\r\n\r\n    function setUserAccumulatedDeviation(\r\n        address user,\r\n        uint accumulatedDeviation\r\n    ) public onlyOwner returns (bool status) {\r\n        for (uint i = 0; i < _users.length; i++) {\r\n            if (_users[i].walletAddress == user) {\r\n                _users[i].accumulatedDeviation = accumulatedDeviation;\r\n                _users[i].numbersOfSessionJoined++;\r\n                return true;\r\n            }\r\n        }\r\n        return false;\r\n    }\r\n\r\n    modifier isProductAdded(string memory ipfsID) {\r\n        for (uint256 i = 0; i < _products.length; i++) {\r\n            if (\r\n                keccak256(abi.encodePacked((_products[i].ipfsID))) ==\r\n                keccak256(abi.encodePacked((ipfsID)))\r\n            ) {\r\n                revert(\"This product has been added\");\r\n            }\r\n        }\r\n        _;\r\n    }\r\n\r\n    function addProduct(string memory ipfsID, string memory name)\r\n        public\r\n        onlyOwner\r\n        isProductAdded(ipfsID)\r\n        returns (uint256 id)\r\n    {\r\n        Product storage p = _products.push();\r\n        p.id = _products.length - 1;\r\n        p.ipfsID = ipfsID;\r\n        p.name = name;\r\n        emit onProductAdded(p.id, p.ipfsID, p.name, p.price);\r\n        return p.id;\r\n    }\r\n\r\n    function getProductByID(uint256 ID)\r\n        public\r\n        view\r\n        returns (\r\n            uint256 id,\r\n            string memory ipfsID,\r\n            uint256 price\r\n        )\r\n    {\r\n        if (ID < 0 || ID >= _products.length) ID = _products.length - 1;\r\n        Product storage p = _products[ID];\r\n        /*Session storage s;\r\n        uint[] memory _prices;\r\n        address[] memory participants;\r\n        // ly phin nh gi cui cng vi sn phm \r\n        for (uint i = _sessions.length - 1; i >= 0; i--) {\r\n            if (_sessions[i].productID == ID) {\r\n                s = _sessions[i];\r\n                _prices = new uint[](s.participants.length);\r\n\r\n                for (uint j = 0; j < s.participants.length; j++) {\r\n                    _prices[j] = s.participant_pricing[s.participants[j]];\r\n                }\r\n                participants = s.participants;\r\n                break;\r\n            }\r\n        }*/\r\n        return (p.id, p.ipfsID, p.price);\r\n    }\r\n\r\n    function getProduct(string memory _ipfsID)\r\n        public\r\n        view\r\n        returns (\r\n            uint256 id,\r\n            string memory ipfsID,\r\n            string memory name,\r\n            uint256 price\r\n        )\r\n    {\r\n        for (uint256 i = 0; i < _products.length; i++) {\r\n            if (\r\n                keccak256(abi.encodePacked((_products[i].ipfsID))) ==\r\n                keccak256(abi.encodePacked((_ipfsID)))\r\n            ) {\r\n                Product storage p = _products[i];\r\n                return (p.id, p.ipfsID, p.name, p.price);\r\n            }\r\n        }\r\n        revert(\"Product is not exist\");\r\n    }\r\n\r\n    function getProducts()\r\n        public\r\n        view\r\n        returns (\r\n            string[] memory ipfsIDs,\r\n            string[] memory names,\r\n            uint256[] memory prices\r\n        )\r\n    {\r\n        string[] memory _ipfsIDs = new string[](_products.length);\r\n        string[] memory _names = new string[](_products.length);\r\n        uint256[] memory _prices = new uint256[](_products.length);\r\n        for (uint256 i = 0; i < _products.length; i++) {\r\n            _ipfsIDs[i] = _products[i].ipfsID;\r\n            _names[i] = _products[i].name;\r\n            _prices[i] = _products[i].price;\r\n        }\r\n        return (_ipfsIDs, _names, _prices);\r\n    }\r\n\r\n    modifier productExist(uint256 ID) {\r\n        require(ID >= 0 && ID < _products.length, \"ID session is not exist\");\r\n        _;\r\n    }\r\n\r\n    modifier sessionExist(uint256 ID) {\r\n        require(ID >= 0 && ID < _sessions.length, \"ID session is not exist\");\r\n        _;\r\n    }\r\n\r\n    // to phin u gi\r\n    function createSession(uint256 productID)\r\n        public\r\n        productExist(productID)\r\n        onlyOwner\r\n        returns (uint256 id)\r\n    {\r\n        Session storage s = _sessions.push();\r\n        s.productID = productID;\r\n        s.state = State.CLOSE;\r\n        s.proposedPrice = 0;\r\n        Product memory p;\r\n        for (uint256 i = 0; i < _products.length; i++) {\r\n            if (_products[i].id == productID) p = _products[i];\r\n        }\r\n        emit onCreatedSession(p, _sessions.length - 1);\r\n        return _sessions.length - 1;\r\n    }\r\n\r\n    function startSession(uint256 ID, uint256 timeout)\r\n        public\r\n        sessionExist(ID)\r\n        onlyOwner\r\n    {\r\n        _sessions[ID].state = State.OPEN;\r\n        _sessions[ID].timeStarted = block.timestamp;\r\n        _sessions[ID].timeout = timeout;\r\n        emit onStartedSession(\r\n            ID,\r\n            _sessions[ID].state,\r\n            _products[_sessions[ID].productID]\r\n        );\r\n    }\r\n\r\n    function closeSession(uint256 ID) public sessionExist(ID) onlyOwner {\r\n        _sessions[ID].state = State.CLOSE;\r\n        emit onClosedSession(\r\n            ID,\r\n            _sessions[ID].state,\r\n            _products[_sessions[ID].productID]\r\n        );\r\n    }\r\n\r\n    function getSessions()\r\n        public\r\n        view\r\n        returns (\r\n            uint256[] memory sessionIDs,\r\n            uint256[] memory productIDs,\r\n            string[] memory ipfsIDs,\r\n            string[] memory names,\r\n            uint256[] memory prices,\r\n            // uint256[] memory proposedPrices,\r\n            State[] memory states,\r\n            uint256[] memory timeStarteds,\r\n            uint256[] memory timeouts\r\n        )\r\n    {\r\n        uint256[] memory _sessionIDs = new uint256[](_sessions.length);\r\n        uint256[] memory _productIDs = new uint256[](_sessions.length);\r\n        string[] memory _ipfsIDs = new string[](_sessions.length);\r\n        string[] memory _names = new string[](_sessions.length);\r\n        uint256[] memory _prices = new uint256[](_sessions.length);\r\n        // uint256[] memory _proposedPrices = new uint256[](_sessions.length);\r\n        State[] memory _states = new State[](_sessions.length);\r\n        uint256[] memory _timeStarteds = new uint256[](_sessions.length);\r\n        uint256[] memory _timeouts = new uint256[](_sessions.length);\r\n        for (uint256 i = 0; i < _sessions.length; i++) {\r\n            _sessionIDs[i] = _sessions[i].id;\r\n            _productIDs[i] = _sessions[i].productID;\r\n            _ipfsIDs[i] = _products[_sessions[i].productID].ipfsID;\r\n            _names[i] = _products[_sessions[i].productID].name;\r\n            _prices[i] = _products[_sessions[i].productID].price;\r\n            // _proposedPrices[i] = _sessions[i].proposedPrice;\r\n            _states[i] = _sessions[i].state;\r\n            _timeStarteds[i] = _sessions[i].timeStarted;\r\n            _timeouts[i] = _sessions[i].timeout;\r\n        }\r\n        return (\r\n            _sessionIDs,\r\n            _productIDs,\r\n            _ipfsIDs,\r\n            _names,\r\n            _prices,\r\n            // _proposedPrices,\r\n            _states,\r\n            _timeStarteds,\r\n            _timeouts\r\n        );\r\n    }\r\n\r\n    function getSession(uint256 id)\r\n        public\r\n        view\r\n        sessionExist(id)\r\n        returns (\r\n            uint256 sessionID,\r\n            uint256 productID,\r\n            string memory ipfsID,\r\n            string memory name,\r\n            uint256 price,\r\n            int proposedPrice,\r\n            State state,\r\n            address[] memory participants,\r\n            uint256[] memory participant_pricings,\r\n            uint256 timeStarted,\r\n            uint256 timeout\r\n        )\r\n    {\r\n        Session storage session = _sessions[id];\r\n        uint256[] memory _participant_pricings = new uint256[](\r\n            session.participants.length\r\n        );\r\n        for (uint256 i = 0; i < session.participants.length; i++) {\r\n            _participant_pricings[i] = session.participant_pricing[\r\n                session.participants[i]\r\n            ];\r\n        }\r\n        return (\r\n            session.id,\r\n            session.productID,\r\n            _products[session.productID].ipfsID,\r\n            _products[session.productID].name,\r\n            _products[session.productID].price,\r\n            session.proposedPrice,\r\n            session.state,\r\n            session.participants,\r\n            _participant_pricings,\r\n            session.timeStarted,\r\n            session.timeout\r\n        );\r\n    }\r\n\r\n    modifier sessionClosed(uint256 sessionID) {\r\n        require(\r\n            _sessions[sessionID].state == State.CLOSE,\r\n            \"Session was not closed\"\r\n        );\r\n        _;\r\n    }\r\n\r\n    function setPrice(uint256 sessionID, uint256 price)\r\n        public\r\n        onlyOwner\r\n        sessionClosed(sessionID)\r\n        productExist(_sessions[sessionID].productID)\r\n    {\r\n        uint256 productID = _sessions[sessionID].productID;\r\n        _products[productID].price = price;\r\n\r\n        Session storage s = _sessions[sessionID];\r\n        s.finalPrice = price;\r\n\r\n        (\r\n            int proposedPrice,\r\n            uint[] memory deviationOfParticipants\r\n        ) = calc_proposedPrice(sessionID);\r\n\r\n        s.proposedPrice = proposedPrice;\r\n\r\n        // save deviationOfParticipants\r\n        for (uint i = 0; i < deviationOfParticipants.length; i++) {\r\n            s.deviationOfParticipants[\r\n                s.participants[i]\r\n            ] = deviationOfParticipants[i];\r\n        }\r\n\r\n        // accumulated deviation\r\n        // tnh ton tng  lch tch ly ca tng ngi chi\r\n        for (uint256 i = 0; i < s.participants.length; i++) {\r\n            uint d_new = calc_d_new(\r\n                price,\r\n                s.participant_pricing[s.participants[i]]\r\n            );\r\n\r\n            (, , , uint d_current, uint numbersOfSessionJoined) = getUser(\r\n                s.participants[i]\r\n            );\r\n            uint accumulatedDeviation = calc_accumulatedDeviation(\r\n                d_current,\r\n                d_new,\r\n                numbersOfSessionJoined\r\n            );\r\n            // save accumulatedDeviation, numbersOfSessionJoined + 1\r\n            setUserAccumulatedDeviation(\r\n                s.participants[i],\r\n                accumulatedDeviation\r\n            );\r\n        }\r\n\r\n        emit onSetPrice(\r\n            productID,\r\n            price,\r\n            sessionID,\r\n            proposedPrice,\r\n            deviationOfParticipants\r\n        );\r\n    }\r\n\r\n    // kim tra vt qu s ngi tham gia nh gi 10\r\n    modifier checkParticipantsLimit(uint256 sessionID) {\r\n        require(\r\n            _sessions[sessionID].participants.length < participantsLimit,\r\n            string.concat(\r\n                \"reached participants limit: \",\r\n                Strings.toString(participantsLimit)\r\n            )\r\n        );\r\n        _;\r\n    }\r\n    // kim tra cn thi hn hay khng\r\n    modifier checkTimeout(uint256 sessionID) {\r\n        if (_sessions[sessionID].timeout > 0)\r\n            require(\r\n                block.timestamp - _sessions[sessionID].timeStarted <\r\n                    _sessions[sessionID].timeout ||\r\n                    _sessions[sessionID].timeout == 0,\r\n                string.concat(\r\n                    \"You've run out of time\",\r\n                    \"-\",\r\n                    Strings.toString(block.timestamp),\r\n                    \"-\",\r\n                    Strings.toString(_sessions[sessionID].timeStarted),\r\n                    \"-\",\r\n                    Strings.toString(_sessions[sessionID].timeout)\r\n                )\r\n            );\r\n        _;\r\n    }\r\n\r\n    function guessPrice(\r\n        uint256 sessionID,\r\n        uint256 price,\r\n        address addr\r\n    )\r\n        public\r\n        sessionExist(sessionID)\r\n        checkParticipantsLimit(sessionID)\r\n        checkTimeout(sessionID)\r\n    {\r\n        // address addr = msg.sender;\r\n        Session storage s = _sessions[sessionID];\r\n        require(s.state == State.OPEN, \"Session closed\");\r\n        s.participant_pricing[addr] = price;\r\n\r\n        // nu trong ngi ny  pricing ri th ko a vo danh sch participants\r\n        bool exist = false;\r\n        for (uint256 i = 0; i < s.participants.length; i++) {\r\n            if (s.participants[i] == addr) {\r\n                exist = true;\r\n                break;\r\n            }\r\n        }\r\n        if (!exist) s.participants.push(addr);\r\n        emit onGuessPrice(addr, price, sessionID);\r\n    }\r\n\r\n    /*\r\n        P: The final price\r\n        p: The given price of the participant\r\n        d_new: deviation in the current session\r\n    */\r\n    function calc_d_new(uint256 finalPice, uint256 pricing)\r\n        public\r\n        pure\r\n        returns (uint256)\r\n    {\r\n        if (finalPice == 0) return 0;\r\n        uint256 d_new = ((\r\n            finalPice > pricing ? finalPice - pricing : pricing - finalPice\r\n        ) / finalPice) * 100;\r\n        return d_new;\r\n    }\r\n\r\n    /* n: number of all participants */\r\n    function calc_accumulatedDeviation(\r\n        uint256 d_current,\r\n        uint256 d_new,\r\n        uint256 n\r\n    ) public pure returns (uint256) {\r\n        uint256 d = ((d_current * n) + d_new) / (n + 1);\r\n        return d;\r\n    }\r\n\r\n    event calc(uint, uint, int);\r\n\r\n    function calc_proposedPrice(uint256 sessionID)\r\n        public\r\n        sessionExist(sessionID)\r\n        returns (int _proposedPrice, uint[] memory _deviationOfParticipants)\r\n    {\r\n        // Session storage s = _sessions[sessionID];\r\n        uint256 n = _sessions[sessionID].participants.length;\r\n        uint256 sum_d_i = 0;\r\n\r\n        // numerator, denominator in formular\r\n        int sum_numerator = 0;\r\n\r\n        uint[] memory deviationOfParticipants = new uint[](n);\r\n        uint finalPrice = _sessions[sessionID].finalPrice;\r\n\r\n        for (uint256 i = 0; i < n; i++) {\r\n            // the given price of the participant\r\n            uint256 p_i = _sessions[sessionID].participant_pricing[\r\n                _sessions[sessionID].participants[i]\r\n            ];\r\n            // deviation of participant\r\n            uint256 d_i = calc_d_new(finalPrice, p_i);\r\n\r\n            deviationOfParticipants[i] = d_i;\r\n            sum_d_i += d_i;\r\n\r\n            sum_numerator += (int(p_i) * (100 - int(d_i)));\r\n            emit calc(p_i, d_i, sum_numerator);\r\n        }\r\n\r\n        int denominator = (100 * int(n) - int(sum_d_i));\r\n        int proposedPrice = sum_numerator / denominator;\r\n        return (proposedPrice, deviationOfParticipants);\r\n    }\r\n\r\n    function calc_proposedPrice_(uint256 sessionID)\r\n        public\r\n        view\r\n        sessionExist(sessionID)\r\n        returns (uint256 _proposedPrice, uint[] memory _deviationOfParticipants)\r\n    {\r\n        uint256 n = _sessions[sessionID].participants.length;\r\n        uint256 sum_d_i = 0;\r\n\r\n        // numerator, denominator in formular\r\n        uint256 sum_numerator = 0;\r\n\r\n        uint[] memory deviationOfParticipants = new uint[](n);\r\n        uint finalPrice = _sessions[sessionID].finalPrice;\r\n\r\n        for (uint256 i = 0; i < n; i++) {\r\n            // the given price of the participant\r\n            uint256 p_i = _sessions[sessionID].participant_pricing[\r\n                _sessions[sessionID].participants[i]\r\n            ];\r\n            // deviation of participant\r\n            uint256 d_i = calc_d_new(finalPrice, p_i);\r\n\r\n            deviationOfParticipants[i] = d_i;\r\n\r\n            sum_d_i += d_i;\r\n\r\n            sum_numerator += p_i * (100 - d_i);\r\n        }\r\n    }\r\n}\r\n",
  "sourcePath": "C:\\Users\\a\\Documents\\PricingChain\\contracts\\PricingChain.sol",
  "compiler": {
    "name": "solc",
    "version": "0.8.15+commit.e14f2714.Emscripten.clang"
  },
  "schemaVersion": "3.4.7",
  "updatedAt": "2022-07-30T16:14:10.855Z",
  "networkType": "ethereum",
  "devdoc": {
    "kind": "dev",
    "methods": {
      "owner()": {
        "details": "Returns the address of the current owner."
      },
      "renounceOwnership()": {
        "details": "Leaves the contract without owner. It will not be possible to call `onlyOwner` functions anymore. Can only be called by the current owner. NOTE: Renouncing ownership will leave the contract without an owner, thereby removing any functionality that is only available to the owner."
      },
      "transferOwnership(address)": {
        "details": "Transfers ownership of the contract to a new account (`newOwner`). Can only be called by the current owner."
      }
    },
    "version": 1
  },
  "userdoc": {
    "kind": "user",
    "methods": {},
    "version": 1
  }
}